:1000000002214290BDF17422F00000000090BCF08B
:10001000E0FFE547C39410500712079BEF600122F1
:10002000122055EF600122C20B7870E6645C600418
:10003000E6B42F05752B7180177871E6643A60037A
:100040000200E318E6C3944350030200E3752B73E8
:10005000E54CB4031090020CE0FCA3E0FDA3E0FE2D
:10006000A3E0FF8005E4FFFEFDFC8F3F8E3E8D3D4B
:100070008C3CA82BE6706F74FFF54BF54AF549F5FB
:1000800048E54C6403603F753F0290020FE0FBC3FC
:10009000E5469BF546E5459400F545E5449400F5B5
:1000A00044E5439400F54390020EA3E025E0FEE40E
:1000B000F54B8E4AF549F548AF22FCFDFE90020C47
:1000C0001212F2752280853F32853E31853D3085A2
:1000D0003C2FE4F555F554F553F552F537754712B5
:1000E0007F4122752B70A82BE6B4E5027605E53F2B
:1000F000700CE53C7008E53D7004E53E60328522F9
:1001000037E53F24FEFFE53E34FFFEE53D34FFFDCD
:10011000E53C34FFFCA82E1212BAEF2546F550EE4E
:100120003545F54FED3544F54EEC3543F54D801F23
:1001300090020FE0F537CBC3E5469BF550E54594BB
:1001400000F54FE5449400F54EE5439400F54DE588
:100150003770030203F21217F7EF600122E4F54152
:10016000F542C3E541940240030203D874002542DE
:10017000F52D74003541F52C852D82F583E0FF7057
:100180000302041FEF64E570030203CABF05027F88
:10019000E5A82BE6FE6F6008EE642A60030203CA3E
:1001A000E4F53BFFEFC3940B5078E52D2FF582E487
:1001B000352CF583E0FEAD3BE52B2DF8EE66605D5A
:1001C000AD3BE52B2DF8E66015AD3BE52B2DF8E6B4
:1001D000645C600AAD3BE52B2DF8E6B42F1FEE649E
:1001E00020703FEFC394085010E52D2408F582E4F9
:1001F000352CF583E0642070297F0B8025AE3BE52C
:100200002B2EF8E6B42E1BE53B6408600EE52D2F7F
:10021000F582E4352CF583E0B420077F070F053B1A
:100220008082EFC3940B500302030BE52D240BF5E2
:1002300082E4352CF583E030E30302030BC209E5C9
:100240002D241AFFE4352CFE12214EE48F3F8E3E02
:10025000F53DF53CE54CB40310E52D2414FFE435E1
:100260002CFE12214E8E3C8F3DAF3BE52B2FF8E646
:100270006006200903020301853F32853E31853D3A
:1002800030853C2FE4F555F554F553F552F537E537
:100290002D240BF582E4352CF583E030E41F74FF48
:1002A000F54BF54AF549F5487D137F10122059EFBB
:1002B0006001223009047F4380027F4122E52D2422
:1002C0001CFFE4352CFE1221168F4B8E4A8D498C73
:1002D00048E53F7017E53C7013E53D700FE53E7053
:1002E0000B7537FFF54BF54AF549F5487D147F103E
:1002F000122059EF6001223009047F4380027F0001
:1003000022E53B04252BF52B0200E6AF3BE52B2F26
:10031000F8E6642A60030203CAE52D240BF582E4A3
:10032000352CF583E030E3030203CAE53B04252BBB
:10033000F8E67053E4FFF539E52D2FF582E4352C0E
:10034000F583E06420602FBF080AAE39E52B2EF854
:10035000762E0539E52D2FF582E4352CF583E0FE68
:10036000AD39E52B2DF8EEF6E5397008A82BE6B48B
:10037000050276E505390FBF0BBEAF39E52B2FF827
:10038000E4F6D20902023FE53B04252BF8E6F470BF
:1003900032E54B700CE5487008E5497004E54A60A9
:1003A00093E54830E703122180E54B24FFF54BE548
:1003B0004A34FFF54AE54934FFF549E54834FFF58D
:1003C000488007E53B04252BF81674202542F542AA
:1003D000E43541F541020162E5502401F550E43570
:1003E0004FF54FE4354EF54EE4354DF54D153702DA
:1003F000014FE53F700CE53C7008E53D7004E53EBB
:10040000601D7F3CE4FD120A24EF60012220090FE9
:1004100085383C85393D853A3E853B3F0200E6E420
:10042000FFE52B2FF8E6FE6013642A600FEE645C94
:100430006004EEB42F037FB3220F80E57F4222E5F4
:100440006B245FF8E6056B22785C300702785FE486
:1004500075F0011213A00213482000EB7F2ED2008A
:100460008018EF540F2490D43440D4FF30040BEFA5
:1004700024BFB41A0050032461FFE56C6002156CC0
:10048000056FE56F7002056E30070D785CE475F05E
:10049000011213A0EF02138E021FE87403D207802B
:1004A00003E4C207F56B8B5C8A5D895EE4F56CF54D
:1004B0006EF56FE56C60077F2012047A80F5756D2C
:1004C000FFC201C200C202C203C205C206C20812B4
:1004D0000448FF700D3007057F0012048BAF6FAE2C
:1004E0006E22B4255FC2D5C204120448FF24D0B4E2
:1004F0000A00501A75F00A786C30D50508B6FF016D
:1005000006C6A426F620D5047002D20380D924CFD3
:10051000B41A00EF5004C2E5D20402068BD2018067
:10052000C6D20080C0D20280BCD2D580BAD20580AB
:10053000B47F2012047A2002077401B56C0040F1E8
:1005400012043FFF12047A0204B3D208D206809547
:1005500012043FFB12043FFA12043FF94A4B7006A3
:10056000795C7A077BFF20022EE56C602A7E008E84
:100570008275830012136160060EEE656D70F0C225
:10058000D5EBC0E0EAC0E0E9C0E0EE1206D2D0E070
:10059000F9D0E0FAD0E0FB121348FF60AAEBC0E00C
:1005A000EAC0E0E9C0E012047AD0E02401F9D0E02A
:1005B0003400FAD0E0FBE56D0460DCD56DD98087AE
:1005C0007BFF7A0679CED202809C7910800279086E
:1005D000C206C2088008D2D5790A8004790AC2D539
:1005E000E56D047002F56DE4FAFDFEFF12043FFCB8
:1005F0007B0820011312043FFD7B1030000A120417
:100600003FFE12043FFF7B20EC3382D592D550137E
:10061000C3E43000069FFFE49EFEE42001039DFD3D
:10062000E49CFCE4CBF8C201EC700CCFCECDCCE85E
:1006300024F8F870F38017C3EF33FFEE33FEED3389
:10064000FDEC33FCEB33FB994002FB0FD8E9EB30B8
:100650000105F8D0E0C448B201C0E00AEC4D4E4FAD
:1006600078207B0070C2EAB56D0040BCC0E0120685
:10067000D4D0F0D0E0200104C4C0E0C4B201C0F086
:10068000120463D0F0D5F0EB0204B31213B005509E
:100690005305CA5805214C051D4205CE4F05D644C9
:1006A00005D64905364305DC5505C04605C0450558
:1006B000C047077C5005252D05292E054C2B052DFF
:1006C00023054A2007652A04E548000005443F3F0A
:1006D0003F00790AA2D5200314300509B91002049D
:1006E00004B9080104A2D5200602500104200268C2
:1006F0009202B56C005034C0E07F203003197F3087
:10070000A20272067205500F12072BC202C206C265
:1007100005C2087F30800F300503E9C0E012047A7B
:10072000300503D0E0F9D0E0B56CCC3005177F3050
:10073000B9100C12047A7F583004077F788003B90F
:10074000080312047A3002057F2D02047A7F2020EC
:1007500008F87F2B2006F322920280CF286E756C5A
:100760006C2900D20112043F3001F8C201786C30CC
:10077000D50108F60204E52D5043495812043F24E0
:1007800003B405004001E49007779312046B743AB8
:1007900012046BD203756C040205CAE547C39403C7
:1007A0005007121DBBEF600122122135E4F526F53A
:1007B00025F524F523121803EF600A121F9512186D
:1007C00003EF600122900000E0FF64EB6037EF640C
:1007D000E96032E4FDED6440602874C22DF582E4E6
:1007E0003401F583E06015ED7E0024C6FFEE340190
:1007F000FE1221169002001212F2801374102DFDC9
:1008000080D37F9222900200121317000000009004
:100810000200E0FCA3E0FDA3E0FEA3E0F5268E25A8
:100820008D248C23121803EF600122900000E0FF5A
:1008300064EB6008EF64E960037FA12290000DE0A3
:10084000F52230E605752E06802E30E505752E055D
:10085000802630E405752E04801E30E305752E03D6
:10086000801630E205752E02800E30E105752E01EE
:100870008006752201E4F52E7E007F1612214E902F
:100880000206EEF0A3EFF04E70287E007F241221C6
:10089000168F328E318D308C2FE4FBFA7901F8D32C
:1008A00012129650037FA222900206E531F0A3E5D2
:1008B00032F0900014E0FF900013E04F60127E00D1
:1008C0007F1312214EE48F3F8E3EF53DF53C800FA5
:1008D0007E007F201221168F3F8E3E8D3D8C3C7E08
:1008E000007F1112214EEF240FFFE43EC4F854F0B4
:1008F000C868FEEFC4540F48FFE4FCFD90020C12E0
:1009000012F27E007F0E12214EE48F368E35F534C2
:10091000F533900206E0FEA3E0FFEF2536FFEE354B
:1009200035FEE43534FDE43533FC90020CE0F8A3E9
:10093000E0F9A3E0FAA3E02FF546EA3EF545E93DEC
:10094000F544E83CF543900010E0D3940140219039
:100950000206E0FEA3E0FFE4FCFDE5462FF546E5D8
:10096000453EF545ED3544F544EC3543F543800708
:10097000E4900206F0A3F0C3E53F9546FFE53E95FF
:1009800045FEE53D9544FDE53C9543FCA82E12123D
:10099000A79002081212F2E47BF57AFFF9F8D3125D
:1009A0001296401FE4900204F0A3F090020AE0FEC9
:1009B000A3E094F5EE940F5005754C018024754C1E
:1009C00002801F7E007F3012214E900204EEF0A3C1
:1009D000EFF07E007F2C12211690020C1212F2759D
:1009E0004C03900200E0FCA3E0FDA3E0FEA3E025A1
:1009F00036F536EE3535F535ED3534F534EC353341
:100A0000F533900200A3A3A3E02546F546EE354555
:100A1000F545ED3544F544EC3543F5437D107F0352
:100A2000122059228D5CEFC8E54CB402071212CD9A
:100A300078018008B403121212CD78021212BA8F14
:100A4000608E5F8D5E8C5D80231212CD8E5D8F5E19
:100A5000EF139209E55DC313FEE55E13255EFFE526
:100A60005D3EFEE48F608E5FF55EF55DEE5401FE47
:100A7000EF2400F52DEE3400F52CAF60AE5FAD5ED7
:100A8000AC5D122158EF2536F560EE3535F55FED9A
:100A90003534F55EEC3533F55DE560652A7012E5B9
:100AA0005F6529700CE55E65287006E55D65276069
:100AB0001D300A07121C1DEF600122855D23855E33
:100AC00024855F25856026121803EF600122E55C0E
:100AD0006023B4FF028006E55CB4010BE4F560F529
:100AE0005FF55EF55D800C852F6085305F85315E3A
:100AF00085325DD20AE54C6402703F852D82852CDB
:100B000083E0F538A3E0F53985383B85393AE4F5DB
:100B100038F539AE3AAF3BC3EF94F7EE94FF40039C
:100B2000D38001C39209E55C600D852D82852C83FD
:100B3000E55DF0A3E55EF07F0022E54C6403705AAA
:100B4000852D82852C83E0FCA3E0FDA3E0FEA3E0DD
:100B5000F53B8E3A8D398C38E53B54F0FFE5605417
:100B60000F4FF560E53B540F85383BF538AF3A85BC
:100B7000393A8F39AF38EFC3940F4003D38001C3A4
:100B80009209E55C6011AF60AE5FAD5EAC5D852D36
:100B900082852C831212F27F0022535E0FC3E52D53
:100BA0009400FFE52C9400FEEFF47003EE64016006
:100BB0004D852D82852C83E0F538A3E0F539E55C81
:100BC0007003020C73300923E55DC454F0FFE5386F
:100BD000540F4F852D82852C83F0E55EC454F0FFC1
:100BE000E55DC4540F4FA3F0020C73852D82852C54
:100BF00083E55DF0E53954F0455EA3F08075852D01
:100C000082852C83E0F538E55C602230090EE55DD5
:100C1000C454F0FFE538540F4FFF8002AF5D852DBF
:100C200082852C83EFF0121C1DEF600122E52A243F
:100C300001F526E43529F525E43528F524E43527A2
:100C4000F523121803EF600122900000E0F539E56A
:100C50005C602030090FE55EC454F0FFE55DC454CC
:100C60000F4FFF8007E53954F0455EFF900000EF1D
:100C7000F0D20A300913E539C454F0FFE538C45402
:100C80000F4FF53BE539C4800585383BE539540FF6
:100C9000F53AE4F538F539AE3AAF3BC3EF94F7EEE9
:100CA000940F4003D38001C392097F0022120003F6
:100CB0008F37E537700A1218A3EF7003020DF62282
:100CC000E53764426003AF3722C3E54294E0E54173
:100CD00094015003020DF6E53F700FE53C700BE503
:100CE0003D7007E53E7003020D94C3E5509546FF45
:100CF000E52214FE5FF537E5426008EE65376003D4
:100D0000020DF67F3CE4FD120A24EF600122200967
:100D100003020DF6121607EF6001227F3C7D0212DE
:100D20000A24EF600122121C1DEF600122122135FE
:100D3000E4FFFEEE64024F601374002FF58274002E
:100D40003EF583E4F00FBF00010E80E7E4F53712B3
:100D50001EF4E5427010F541F54285265085254F79
:100D600085244E85234D852238E5386020121946AA
:100D7000EF600122E5262401F526E43525F525E47A
:100D80003524F524E43523F523153880DC121C883E
:100D9000EF606322E542705EE55024FFF550E54FB9
:100DA00034FFF54FE54E34FFF54EE54D34FFF54D7C
:100DB000F5231217FAEF600122E4F541F542C3E58D
:100DC000419402502E74002542FF740035418F82F9
:100DD000F583E0B4E510E582240BF582E43583F574
:100DE00083E0540E601074202542F542E43541F54D
:100DF0004180CB7FB222121607EF600122121C1D28
:100E0000EF60012285323F85313E85303D852F3CA4
:100E1000121C88EF6001221217F7EF6001227400A4
:100E20002542FF74003541FEE4FDEDC3940B5004F0
:100E30007C2080027C00EF2DF582E43EF583ECF00F
:100E40000DBD20E6EF2418F582E43EF5837421F011
:100E5000A37430F0EF241CF582E43EF5837401F0B6
:100E6000E4FDEDC3940B5021A82BE6FC601BECB411
:100E70002E047D08052BA82BE6FCEF2DF582E43E21
:100E8000F583ECF00D052B80D9853F38853E3985FB
:100E90003D3A853C3BEF241AF582E43EF583E53884
:100EA000F0A3E539F0EF2414F582E43E12193DEF8A
:100EB000600122853F32853E31853D30853C2FE4FF
:100EC000F54BF54AF549F548F555F554F553F55206
:100ED000F5377D147F1012205922D294C29412212A
:100EE00026D2941221057BFF7A1379E31204A11212
:100EF00020338F561220777BFF7A1379EA1204A1F0
:100F0000E54764026005121F6A80F5C2941221262B
:100F1000122126E4F5561221267BFF7A1379F61268
:100F200004A1121E14EF60090556E556C39405404E
:100F3000E5C2957BFF7A1379FF1204A17F707C14C0
:100F40007D051220F21200038F56E55664B3600649
:100F5000E55664427077E556B4B308755A14755B6C
:100F6000158006755A14755B18755FFF855A608584
:100F70005B617BFF7A1479241204A1E4F5577F703A
:100F8000AD5BAC5A1220F28F5674702FF8A6571230
:100F900000038F56E55664427003021066E556B4AE
:100FA000431A755F0085576075610075620075634F
:100FB000707BFF7A1479321204A18005AF560210BB
:100FC000630557E557C394FE40B4021066AF56124E
:100FD00020777558027559587BFF7A14794A8558DD
:100FE0005F8559601204A1E55945586068D3E559F9
:100FF000941DE5589400400575571D800385595789
:101000007870A6571214F28F561220777870E6FF88
:10101000C3E5599FF559E5589400F558E4F556E5B0
:101020005678706660157BFF7A147967747125565F
:10103000F8E6F55F1204A1055680E47870E6C395E2
:101040005750A47BFF7A14796A1204A17BFF7A14AB
:10105000796C1204A17BFF7A14797A1204A1121C14
:10106000F38F56122077C2967BFF7A14798112048F
:10107000A17F707C147D891220F2120CAD8F561264
:1010800020777BFF7A1479961204A1755A14755B48
:101090009DE4F556855B82855A83E493F557747118
:1010A0002556F8A657E557600F055BE55B7002050E
:1010B0005A0556E556B41DDCE556600E7870A65606
:1010C0001211028F5612207780C77BFF7A14797A2B
:1010D0001204A178707601121CF38F56122077D279
:1010E00096D2957BFF7A1479E81204A1E547640152
:1010F0006005121F6A80F5D2941221261221260261
:101100000EF7E54764156007121FC0EF60012278F3
:1011100070E6F52B7006300B03021290E47870F63F
:10112000E52B7003021288E537F47077E53F700C09
:10113000E53C7008E53D7004E53E60258532558547
:101140003154853053852F52121613EF6001227FE0
:10115000527D02120A24EF600122121C1DEF60086A
:1011600022121B44EF6001228532558531548530AF
:1011700053852F5274FFF532F531F530F52F121CDF
:1011800092CBEFCB85553285543185533085522F24
:10119000EB600122854B55854A5485495385485259
:1011A000E4F537121EF4121803EF600122AF55E583
:1011B000545401FEC3E49FFD74029EFCC3ED952BC5
:1011C000EC94004005852B388006E555F404F5388D
:1011D00074002FF58274003EAF82F52C8F2DAF384E
:1011E000E4FCFDFEE5552FF555EE3554F554ED358F
:1011F00053F553EC3552F552C3E52B9538F52B7862
:1012000070E62471FFE53826F6C8EFC8E6852D8222
:10121000852C83F0052DE52D7002052C0FD538E9BE
:10122000121946EF600122AF55AE54AD53AC52AB2C
:101230004BAA4AA949A848C3121296500E85554B8D
:1012400085544A855349855248D20BE5545401458B
:101250005560030211200537E537C395225003027C
:1012600011207F2FE4FD120A24EF600122300906CD
:101270007537FF02112085382F853930853A318541
:101280003B32E4F537021120E54030E406300B0331
:10129000021EAD7F0022EB9FF5F0EA9E42F0E99D31
:1012A00042F0E89C45F022E8600FECC313FCED131C
:1012B000FDEE13FEEF13FFD8F122E8600FEFC3330A
:1012C000FFEE33FEED33FDEC33FCD8F122E6FC08F3
:1012D000E6FD08E6FE08E6FF22E6FB08E6F908E67A
:1012E000FA08E6CBF822ECF608EDF608EEF608EF81
:1012F000F622ECF0A3EDF0A3EEF0A3EFF022D08302
:10130000D082E493F608740193F608740293F60809
:10131000740393F6740473A8828583F0D083D0821B
:1013200012132E12132E12132E12132EE473E493A3
:10133000A3C583C5F0C583C8C582C8F0A3C583C54E
:10134000F0C583C8C582C822BB010689828A83E0B2
:10135000225002E722BBFE02E32289828A83E493C1
:1013600022BB010CE58229F582E5833AF583E02270
:101370005006E92582F8E622BBFE06E92582F8E25E
:1013800022E58229F582E5833AF583E49322BB01C5
:101390000689828A83F0225002F722BBFE01F322E3
:1013A000FAE6FB0808E6F925F0F618E6CA3AF6224E
:1013B000D083D082F8E4937012740193700DA3A3CC
:1013C00093F8740193F5828883E4737402936860E0
:1013D000EFA3A3A380DF4572726F723A20253032EB
:1013E000580A0053746172740A0057616974205579
:1013F0006469736B0A005265616479203F0A004F8B
:1014000070656E0A002F4335312F43483337354816
:1014100046542E43002F2A002F4335312F434833A3
:1014200037352A004C6973742066696C6520257312
:101430000A0020206D617463682066696C65202550
:10144000303364233A2025730A00B4D3CEC4BCFEE3
:10145000D6D0B6C1B3F6B5C4C7B02564B8F6D7D6F2
:10146000B7FBCAC73A0A002543000A00CEC4BCFE37
:10147000D2D1BEADBDE1CAF80A00436C6F73650AF4
:10148000004372656174650A002F4E455746494C0A
:10149000452E5458540057726974650A004E6F7493
:1014A000653A200D0AD5E2B8F6B3CCD0F2CAC7D25D
:1014B000D4D7D6BDDACEAAB5A5CEBBBDF8D0D0550F
:1014C000C5CCCEC4BCFEB6C1D0B42CB5A5C6ACBB91
:1014D000FAD6BBD0E8D2AAD3D0363030D7D6BDDAD0
:1014E000B5C452414D0D0A0054616B65206F75748F
:1014F0000A00E54764156007121FC0EF60012278FB
:1015000070E6F52BE4F6E52B7003021604E554545F
:1015100001FEC3E49555FF74029EFEC3EF952BEECA
:1015200094004005852B388006E555F404F538C352
:10153000E54B9555FBE54A9554FAE5499553F9E590
:10154000489552F8AF38E4FCFDFED3121296500CC9
:10155000C3E54B9555F5387003021604121EF412BC
:101560001803EF600122E5545401FE74002555F57F
:101570008274003EAF82F52C8F2DAF38E4FCFDFE67
:10158000E5552FF555EE3554F554ED3553F553EC3F
:101590003552F552C3E52B9538F52B7870E624715A
:1015A000FFE53826F6852D82852C83E0C8EFC8F646
:1015B0000F052DE52D7002052CD538E9E5545401B1
:1015C000455560030215060537E537C395225003DC
:1015D0000215067F2FE4FD120A24EF600122300974
:1015E000117537FF85554B85544A855349855248B7
:1015F000801285382F853930853A31853B32E4F5C4
:10160000370215067F0022853F32853E31853D3009
:10161000853C2F900208E0FCA3E0FDA3E0FEA3E0E0
:10162000FFAB32AA31A930A82FD312129640037F04
:10163000B122E5322401F532E43531F531E43530BB
:10164000F530E4352FF52F7F2FE4FD120A24EF60EB
:101650000122E53B700FE538700BE5397007E53A7C
:1016600070030216FAE54C640160A8752C00752D14
:1016700000E54C640270337538FF7402252DF52D9A
:10168000F582E4352CF52CF583E07015A3E070119C
:10169000852D82852C8374FFF0A3F0E538F4048057
:1016A00049D538D67532FF02161375387F74042574
:1016B0002DF52DF582E4352CF52CF583E07032A361
:1016C000E0702EA3E0702AA3E0540F7024852D82D1
:1016D000852C8374FFF0A3F0A3F0A3E0440FF0E5A2
:1016E000325480FFC3748095384FF532D20A7F00A0
:1016F00022D538B943327F0216137F2F7DFF120A9D
:101700002422E547C3941350037FB4221217F7EF46
:10171000600122C20A74002542FB74003541FA7848
:1017200078E6FFEB240BF582E43AF583E0F6EFF47C
:1017300060138B828A83E582240BF582E43583F57E
:1017400083EFF0D20A7876E6F53B08E6F53AEB242B
:1017500016FFE43AFE12214E18EEF608EFF6E53ACF
:10176000F4FEE53BF44E6012EB2416F582E43AF504
:1017700083E53AF0A3E53BF0D20A7874E6F53B083E
:10178000E6F53AEB2418FFE43AFE12214E18EEF685
:1017900008EFF6E53AF4FEE53BF44E6012EB241850
:1017A000F582E43AF583E53AF0A3E53BF0D20A7816
:1017B000701212CD787C1212E6EB241CFFE43AFE84
:1017C00012211678701212E6787CE6F4601E12126E
:1017D000CD8F4B8E4A8D498C4812216CEB241CF521
:1017E00082E43AF5831212F2D20AC20B300A05C221
:1017F0000A0219467F0022854D23854E24854F25F8
:10180000855026E526652A7015E5256529700FE5C2
:101810002465287009E523652770030218A0E4F504
:101820003A90BDF17454F000000000E4F55190BC12
:10183000F0E526F00000E525F00000E524F00000CA
:10184000E523F000007401F0752700752800753954
:1018500008121F6AE551641D702BAF28AE27121ABB
:10186000D48E278F2890BDF17455F0D539E38523A8
:101870002785242885252985262A121F6AE551B443
:1018800014037F0022E53AC39405500EE53AC39451
:10189000014003121BB1053A8087122135021BB1AA
:1018A0007F0022E547C394135007120003EF600145
:1018B00022122055EF6001221217F7EF6001227407
:1018C000002542FF740035418F82F58374E5F012E4
:1018D0001946EF600122AF3FAE3EAD3DAC3C8F3BC1
:1018E0008E3A8D398C38EC4D4E4F604EE53F24FFDB
:1018F000F53FE53E34FFF53EE53D34FFF53DE53C83
:1019000034FFF53CE4F532F531F530F52F7F387DC5
:1019100001120A24EF600122E5322401F532E43598
:1019200031F531E43530F530E4352FF52F3009DD70
:10193000121C1DEF600122021C927F0022F583E53C
:101940003AF0A3E53BF0E4F53A90BDF17456F000AF
:10195000000000E4F55190BCF0E526F00000E5251C
:10196000F00000E524F00000E523F000007401F031
:10197000752700752800753908121F6AE551641E25
:101980007033AF28AE27121A628E278F2890BDF1D0
:101990007457F0D539E385232785242885252985A3
:1019A000262A121F6AE551B4140BE54020E5031204
:1019B00021787F0022E53AC39405500FE53AC3949D
:1019C000014003121BB1053A021949122135021BCD
:1019D000B1E53F700CE53C7008E53D7004E53E6004
:1019E00072853F32853E31853D30853C2FAF22E404
:1019F000FCFDFE78701212D9C312129640387F2F68
:101A0000E4FD120A24EF60012220094785382F8562
:101A10003930853A31853B3278701212CDAB22C312
:101A2000EF9BFFEE9400FEED9400FDEC9400FC783B
:101A3000701212E680B77873E6FFE522145FF5377F
:101A4000121EF4AF26AE25AD24AC2378701212E638
:101A50007F00227537FF78701212FEFFFFFFFF7FB5
:101A6000002290BDF1742BF0E4F551E5405403647D
:101A700003FD744090BCF0F0CD602A1460118F8299
:101A80008E83E090BCF0F00FBF00010EDDF0220568
:101A9000A28F828E83E0A305A2F005A2DDF7AF82BC
:101AA000AE8305A222EFC582F9EEC583C5A0F5F08D
:101AB0007D08E0A3F3E0A3F3E0A3F3E0A3F3E0A346
:101AC000F3E0A3F3E0A3F3E0A3F3DDE685F0A0AF3A
:101AD00082AE832290BDF17428F0E4F551E54054C4
:101AE000036403FD90BCF0E0CD602A14601190BC4B
:101AF000F0E08F828E83F00FBF00010EDDF0220533
:101B0000A28F828E8305A2E005A2F0A3DDF7AF824B
:101B1000AE8305A222EFC582F9EEC583C5A0F5F01C
:101B20007D08E3F0A3E3F0A3E3F0A3E3F0A3E3F085
:101B3000A3E3F0A3E3F0A3E3F0A3DDE685F0A0AF19
:101B400082AE8322121613EF600122121C1DEF6079
:101B5000012285323F85313E85303D852F3C12176D
:101B6000F7EF60012274002542FF74003541FEF555
:101B700083EF241CF582E43583F5837401F0853FFF
:101B800038853E39853D3A853C3B8F828E83E582A0
:101B9000241AF582E43583F583E538F0A3E539F0BE
:101BA0008F828E83E5822414F582E4358312193DF9
:101BB00022753932122173D539FA90BDF17422F0B1
:101BC0000000000090BCF0E0E5516416600FE547AE
:101BD000640160097F201220B1EF20E506754701FE
:101BE0007F8222300C19E547C39403401285513996
:101BF000E4F55190BDF1745AF0121F6A853951E530
:101C000047B41205754703800AE547D39410400393
:101C1000754710E55170037F1022AF5122852723AD
:101C2000852824852925852A26121946EF60012258
:101C3000900206E0FEA3E0FF4E6048E4FCFDE526CE
:101C40002FF526E5253EF525ED3524F524EC352345
:101C5000F523121946EF600122900206E0FAA3E094
:101C6000FBC3E5269BF526E5259AF525E52494009A
:101C7000F524E5239400F523F527852428852529D7
:101C800085262AC20A7F002274FFF532F531F5302D
:101C9000F52F900204E0FEA3E0FF4E700122E4FC69
:101CA000FD900200E0F8A3E0F9A3E0FAA3E02FF52D
:101CB00026EA3EF525ED39F524EC38F52312180314
:101CC000EF6001227E017FE8122116E5322FF53206
:101CD000E5313EF531E5303DF530E52F3CF52FAFF0
:101CE00032AE31AD30FC12216C9001E81212F212CA
:101CF000194622E547C3941250037FB422E547B446
:101D00001239E54C6403603390020FE0F522E54A96
:101D1000C313FF7E00E4FCFD90020C1212F290024D
:101D20000FE0FFE4FCFDFEE5462FF546EE3545F5F8
:101D300045ED3544F544EC3543F543E547D394137D
:101D4000400AE547B414077870E67002C20B300B06
:101D500007121EADEF600122122055227537057D56
:101D6000067F651220DEE4F54790BCF0E0B49A0FE0
:101D70007D067F9A1220DE90BCF0E0646560091257
:101D8000200FD537DA7F812290BDF17401F0000079
:101D90000000C20C90BCF0E0C394A24002D20C75CB
:101DA00047017D157F061220DE7F011220C890BCFE
:101DB000F0E0B45F037F81227F0022121F33EF60C7
:101DC000037F82227F51122095E551703D7D037F74
:101DD00002122059300C307F381220B1EF602812E7
:101DE0002162900000E0B4051E90BDF1740BF0007C
:101DF00000000090BCF07434F000007401F07F58D3
:101E0000122095E55170037F00227D027F0212208F
:101E100059021BB1121F33EF60037F8222E547C3D3
:101E20009403501B121DBBEF600C7F321220C812AE
:101E30001DBBEF600122121F95EF6003021BB13042
:101E40000C207F59122095AF518F38EF7002FF227E
:101E50007F0A1220C87F5A1220957F021220C8AF35
:101E600038227F0022E54764156007121FC0EF602B
:101E7000012278701212CD8F558E548D538C52AB37
:101E80004BAA4AA949A848C3121296500C854B5533
:101E9000854A54854953854852AF55AE54AD53AC2D
:101EA0005212215878701212E61219D122C20BE593
:101EB00047C39414403B1217F7EF600122740025CA
:101EC00042FB74003541FAF583EB240BF582E435CF
:101ED00083F583E020E41AAF4BAE4AAD49AC48121B
:101EE000216CEB241CF582E43AF5831212F20219FC
:101EF000467F0022E53224FEFFE53134FFFEE53067
:101F000034FFFDE52F34FFFCA82E1212BAEF254650
:101F1000FBEE3545FAED3544F9EC3543F8E4FCFDCC
:101F2000FEEB2537F526EE3AF525ED39F524EC38AC
:101F3000F5232290BDF17422F00000000090BCF067
:101F4000E0E4F5517F201220B1EF30E517E547C3FB
:101F50009402400A7F1B1220B1EF547F7003754733
:101F6000027F00227547017F822220B2FD90BDF1E1
:101F70007422F0535180E5516003E4F55190BCF0B8
:101F8000E0F551E551B4160475470122E551B41549
:101F900003754702227538087F53122095AF518F81
:101FA0003BEF7002FF227F0A1220C8300C057F5AD7
:101FB0001220957F141220C8D538DDAF3B8F5122F7
:101FC000E547641460037FB422853F32853E318546
:101FD0003D30853C2FE4F555F554F553F552F53772
:101FE0007D157F1412205922EFB40A07740D121FB9
:101FF000F3740A309811A899B8130CC2983098FD60
:10200000A899C298B811F63099FDC299F599227530
:102010003A8090BDF17401F00000000090BCF0E047
:10202000FFD53AEE90BDF17405F0000000007F325C
:102030000220C8E581D394F040037FFC227540055F
:10204000E4900000F012217DEFC3943050037FFF35
:1020500022121D5C227D107F10E547C39F40028D38
:1020600047E5476D7002FF22754701121F33EF608D
:10207000037F82227F8322EF601A7BFF7A1379D657
:10208000755F008F601204A1C294122126D29412AF
:10209000212680F422E4F55190BDF1EFF0121F6A81
:1020A000E551700475511022E551B41403E4F55163
:1020B0002290BDF1740AF00000000090BCF0EFF037
:1020C00000006003E0FF2222EF75F005A4F53AE579
:1020D0003A600A122173122173153A80F22290BDE0
:1020E000F1EDF000000000E4F55190BCF0EFF000DD
:1020F00000228D828C83A807E4FFE493F660050834
:10210000A30F80F622759850758780758920758D8C
:10211000F3D28ED299228F828E83E0FFA3E0FEA3BA
:10212000E0FDA3E0FC227FC87EC87403255CF55C5B
:10213000DEF8DFF42274FFF52AF529F528F527C229
:102140000A22787FE4F6D8FD75818D020EDA8F823F
:102150008E83E0FFA3E0FE22C3E4CC13CD13CE13A5
:10216000FF221221357E007F00021AD4EFCCFFEE51
:10217000CDFE227F96DFFE227FFADFFE227F302215
:01218000223C
:00000001FF
