:103B55004572726F723A20253032580A00537461EB
:0E3B650072740A0054616B65206F75740A005B
:0B3C4A0078847602087600122CAF226E
:0B3C55007884760208760012280A220C
:103A240020B2FD90BDF17422F0535180E551600342
:103A3400E4F55190BCF0E0F551E551B41604754736
:0B3A44000122E551B415037547022272
:053C85007F96DFFE2226
:053C8A007FFADFFE22BD
:013C9200220F
:013C9300220E
:013C9400220D
:103AEF00E581D394F040037FFC22754005E49000FC
:103AFF0000F0123C8FEFC3943050037FFF22123738
:023B0F0085220D
:103B8F00EF60177EC87403255AF55ADEF87EC874A5
:0B3B9F0003255AF55ADEF81F80E622CD
:103BEB008D828C83A807E4FFE493F6600508A30F8E
:033BFB0080F6222F
:103BFE008D828C83A807E4FFE0F6600508A30F8092
:023C0E00F7229B
:1039F5008E088F098C0A8D0BE4FF850B82850A835F
:103A0500E493850982850883F060130509E509704B
:0F3A1500020508050BE50B7002050A0F80DC2285
:103B1100EF601E7BFF7A3B7955755D008F5E121257
:103B2100CDC2947FC8123B8FD2947FC8123B8F8045
:023B3100F02280
:103C1000759850758780758921758DF3D28ED299EC
:013C20002281
:103A7A008E7A8F7BE4FFFEE57B2EF582E4357AF5BC
:103A8A0083E0FDEFC313FCEF30E0047B8080027B10
:0A3A9A0000EC2B2DFF0EBE0BDE2208
:1018D0008E6B8F6C8C6D8D6EE4F56F856C82856B75
:1018E00083E0FFB4E503021B9EEF7006E56F4480C2
:1018F000FF22E56C240BF582E4356BF583E0FFB441
:1019000008047E0180027E00EFB40F047F01800294
:101910007F00EF4E6003021B9EE56F14F571E56FCB
:101920007017856D75856E7675710F74E02576F587
:101930007674013575F575800CE56C24E0F576E577
:101940006B34FFF575AF6CAE6B123A7A8F727577A8
:1019500006757800E4F573757401E576240BF5825D
:10196000E43575F583E0B40F047F0180027F0085C4
:101970007682857583E064E560047E0180027E00E6
:10198000EE5FFFE576240DF582E43575F583E0B56D
:1019900072047E0180027E00EE5F7003021B97E4FA
:1019A000F570857682857583A375F002E570122C3B
:1019B00015E0FEA3E0FF4E70047D0180027D0085EE
:1019C0007882857783E0FAA3E0FB4A70047C01808B
:1019D000027C00ED4C7043EFF44E70047F018002F6
:1019E0007F00EB4A70047E0180027E00EF4E702A79
:1019F000857682857583A375F002E570122C15E05B
:101A0000FEA3E06B7002EE6A6005757301801374CB
:101A1000022578F578E43577F5770570E57064058B
:101A20007080E57364017003021B97E4F570E5763E
:101A3000240EF582E43575F58375F002E570122CFD
:101A400015E0FEA3E0FF4E70047D0180027D00855D
:101A50007882857783E0FAA3E0FB4A70047C0180FA
:101A6000027C00ED4C7047EFF44E70047F01800261
:101A70007F00EB4A70047E0180027E00EF4E702EE4
:101A8000E576240EF582E43575F58375F002E57090
:101A9000122C15E0FEA3E06B7002EA6E6005757310
:101AA00001801674022578F578E43577F5770570AE
:101AB000E57064066003021A2EE573640170030288
:101AC0001B97E4F570E576241CF582E43575F58303
:101AD00075F002E570122C15E0FEA3E0FF4E7004D5
:101AE0007D0180027D00857882857783E0FAA3E01E
:101AF000FB4A70047C0180027C00ED4C7047EFF4DF
:101B00004E70047F0180027F00EB4A70047E0180EA
:101B1000027E00EF4E702EE576241CF582E43575CA
:101B2000F58375F002E570122C15E0FEA3E06B70F2
:101B300002EA6E6005757301801674022578F578E7
:101B4000E43577F5770570E57064026003021AC525
:101B5000E57364016041857682857583E05440FFBA
:101B6000F579BF4005E4F574802DE5717018856D39
:101B700075856E7674E02576F57674013575F575A4
:101B800075710F02195A157174E02576F57674FF98
:101B90003575F57502195AE5747003AF6F2274201C
:101BA000256CF56CE4356BF56B056FE56F641060C3
:071BB000030218DB7FFF2296
:103500008F6B756CFFE4FF747C2FF8E66017747C9A
:103510002FF8E6645C6008747C2FF8E6B42F028F05
:103520006C0FBF1EE2E4FFE56C6009B40218787D01
:10353000E6B43A12787C762FE408F6120E2FEF6488
:10354000417025FF8022E56CF4601D747C256CF8C9
:10355000E4F6120E2FEF70047FB38005BF4102E442
:0D356000FF747C256CF8765CA86BA66C22CD
:1029C800123C31E4F55E747C255EF8E6FF746A25F6
:1029D8005EF582E43406F583EFF0055EE55EB41E2D
:1029E800E57F5D123500A907E96003022B5EF55A01
:1029F800C200F55BF55C90040074E5F0755EFF308D
:102A080000067E047F0080047E027F008E618F6254
:102A18003000067E027F0080047E047F008E5F8F78
:102A280060787C76013000067E047F0080047E0298
:102A38007F007884A60608A607B200122CAFA90763
:102A4800787CE67005755EFF8012AD60AC5FAF62A2
:102A5800AE611218D08F5EE55EF460A3E55EC394A4
:102A6800104003022B56E55E75F020A4AEF02562F7
:102A7800F562EE3561F561E55DF4602BE4F55EE540
:102A88005D2401FFE433FEE55E6F7001EE601874AB
:102A98006A255EF582E43406F583E0FF747C255EE2
:102AA800F8A607055E80D8747D255DF8E4F9E5622F
:102AB80029F582E43561F583E0FF64206003A60709
:102AC8000809B908E9E56229F582E43561F583E08A
:102AD80064206003762E08E9640B6016E56229F528
:102AE80082E43561F583E0FF64206003A6070809E6
:102AF80080E5E4F6F55EE55D2401FFE433FEE55E7E
:102B08006F7001EE6018747C255EF8E6FF746A2524
:102B18005EF582E43406F583EFF0055E80D812375F
:102B28001CA907E4F55EE55D2401FFE433FEE55EDC
:102B38006F7001EE601B746A255EF582E43406F559
:102B480083E0FF747C255EF8A607055E80D8755E75
:0B2B5800FF12371C8002895EAF5E2276
:10000300A3F0A3E4F0A37447F0A3E4F0A37448F0CF
:10001300A3E4F0A37441F0A3E4F0A37463F0A3E4B6
:10002300F0A37462F0A3E4F0A37461F0A3E4F0A37B
:10003300E558F0A3E559F0A3E558F0A3E559F0A37B
:10004300742EF0A3E4F0A37443F0A3E4F0A3F0A3AD
:01005300F0BC
:10005400123C31E4F55F747C255FF8E6FF746A2591
:100064005FF582E43406F583EFF0055FE55FB41EC7
:10007400E57F5E1235008F5DE55D6003020E29F5B4
:100084005AC200F55BF55C90040074E5F0755FFFFF
:100094003000067E047F0080047E027F008E658F20
:1000A400663000067E027F0080047E047F008E633B
:1000B4008F64787C76013000067E047F0080047EA5
:1000C400027F007884A60608A607B200122CAF8F20
:1000D4005D787CE67005755FFF8020055CE55C70EB
:1000E40002055BAD64AC63AF66AE651218D08F5F7A
:1000F400855F6253620FE55FF46095E55FC394101A
:1001040040030201A9E55F75F020A4AEF02566F571
:1001140066EE3565F565E55EF4602BE4F55FE55E56
:100124002401FFE433FEE55F6F7001EE6018746A2A
:10013400255FF582E43406F583E0FF747C255FF8DF
:10014400A607055F80D8747D255EF8E4F55DE56655
:10015400255DF582E43565F583E0FF64206003A640
:100164000708055DE55DB408E5E566255DF582E40F
:100174003565F583E064206003762E08E55D640B45
:100184006018E566255DF582E43565F583E0FF6476
:10019400206003A60708055D80E212371C8F5D12FC
:1001A40025DD8F5D22E55FB4FF0BE4F562055CE5B8
:1001B4005C7002055B12371C8F5DE4F55F746A2581
:1001C4005FF582E43406F583E0FF747C255FF8A6CE
:1001D40007055FE55FB41EE5756031756131755DD6
:1001E400317483255EF8A65D7482255EF8767E748C
:1001F40081255EF8A6617480255EF8A660120E2F34
:10020400EF701B055DE55DB43AD70561E561B43A6D
:10021400CD0560E560B43AC3755DFF020E29122571
:10022400DD8F5DE4F55F747C255FF8E6FF746A2575
:100234005FF582E43406F583EFF0055FE55FB41EF5
:10024400E57F5E1235008F5DE55C24FFFFE55B34DE
:10025400FFFEE4FCFD787C122BB312383D8F5D78F1
:100264007C760178847602087600756502756600EE
:10027400E56275F020A4AEF02566F566EE3565F509
:1002840065122CAF8F5DE4F55DE55D25E02400F596
:1002940082E43406F583E0FEA3E04E6007055DE5E5
:1002A4005DB435E5E55D04F55FE55F64356016E54D
:1002B4005F25E02400F582E43406F58374FFF0A39F
:1002C400F0055F80E4756904756A00856A82856952
:1002D40083E4F0A3F0856A82856983F0A3F0E55D89
:1002E40075F00D84F55FE55D75F00D8485F05DE5D1
:1002F4005D6002055F855F5DE55D2562F55FC39422
:10030400105033756702756800E55F75F020A4AE80
:10031400F02568F568EE3567F56775630275640066
:10032400E55F24FFFFE434FFFEEF7805C333CE33EB
:10033400CED8F90203C0E55FB4103D756704756853
:1003440000FD7C0024F0FFEC34FFFEEF7805C3339E
:10035400CE33CED8F92568F568EE3567F567756351
:1003640002756400ED24FFFFEC34FFFEEF7805C353
:1003740033CE33CED8F98044E55FD394104046752C
:100384006704756800E55FFD7C0024F0FFEC34FF32
:10039400FEEF7805C333CE33CED8F92568F568EE81
:1003A4003567F567756304756400ED24EFFFEC347D
:1003B400FFFEEF7805C333CE33CED8F92564F56458
:1003C400EE3563F563E566240CF582E43565F58363
:1003D400E0FFE568240CF582E43567F583EFF0E58A
:1003E40066240DF582E43565F583E0FFE568240DA8
:1003F400F582E43567F583EFF0E566240EF582E4D3
:100404003565F583E0FEA3E0FFE568240EF582E49C
:100414003567F583EEF0A3EFF0E5662410F582E48A
:100424003565F583E0FEA3E0FFE5682410F582E47A
:100434003567F583EEF0A3EFF0E5662412F582E468
:100444003565F583E0FEA3E0FFE5682412F582E458
:100454003567F583EEF0A3EFF0E5662414F582E446
:100464003565F583E0FEA3E0FFE5682414F582E436
:100474003567F583EEF0A3EFF0E5662416F582E424
:100484003565F583E0FEA3E0FFE5682416F582E414
:100494003567F583EEF0A3EFF0E5662418F582E402
:1004A4003565F583E0FEA3E0FFE5682418F582E4F2
:1004B4003567F583EEF0A3EFF0E566241AF582E4E0
:1004C4003565F583E0FEA3E0FFE568241AF582E4D0
:1004D4003567F583EEF0A3EFF0E566241CF582E4BE
:1004E4003565F583E0FCA3E0FDA3E0FEA3E0FFE5B2
:1004F40068241CF582E43567F583122BBFE5662476
:100504000BF582E43565F583E0FFE568240BF5829D
:10051400E43567F583EFF0856682856583E0856859
:1005240082856783F0856682856583A3E08568821A
:10053400856783A3F0856682856583A3A3E08568C8
:1005440082856783A3A3F0856682856583A3A3A3BD
:10055400E0856882856783A3A3A3F0E5662404F598
:1005640082E43565F583E0FFE5682404F582E4352B
:1005740067F583EFF0E5662405F582E43565F583D8
:10058400E0FFE5682405F582E43567F583EFF0E5DF
:10059400662406F582E43565F583E0FFE568240604
:1005A400F582E43567F583EFF0E5662407F582E428
:1005B4003565F583E0FFE5682407F582E43567F5E2
:1005C40083EFF0E5662408F582E43565F583E0FF02
:1005D400E5682408F582E43567F583EFF0E56624E1
:1005E40009F582E43565F583E0FFE5682409F582C1
:1005F400E43567F583EFF0E566240AF582E43565B2
:10060400F583E0FFE568240AF582E43567F583EFB6
:10061400F0E566240AF582E43565F583E0FFE568D4
:10062400240AF582E43567F583EFF0AF68AE67120C
:100634003A7AAD07756906756A00756101E55FD39D
:10064400941050030208C9755D01E55F24F1FFE4CD
:1006540034FFFEE55D6F7001EE700302089C856453
:1006640082856383E561F0856A82856983E0FFA3FF
:10067400E0856482856383A3CFF0A3EFF074022541
:100684006AF56AE43569F569856A82F583E0FFA352
:10069400E0856482856383A3A3A3CFF0A3EFF07402
:1006A40002256AF56AE43569F569856A82F583E0AD
:1006B400FEA3E0FFE5642405F582E43563F583EEEB
:1006C400F0A3EFF07402256AF56AE43569F56985EB
:1006D4006A82F583E0FEA3E0FFE5642407F582E483
:1006E4003563F583EEF0A3EFF07402256AF56AE44E
:1006F4003569F569856A82F583E0FEA3E0FFE56468
:100704002409F582E43563F583EEF0A3EFF0740277
:10071400256AF56AE43569F569E564240BF582E434
:100724003563F583740FF0E564240CF582E43563D6
:10073400F583E4F0E564240DF582E43563F583ED97
:10074400F0856A82856983E0FEA3E0FFE564240EF8
:10075400F582E43563F583EEF0A3EFF07402256AC5
:10076400F56AE43569F569856A82F583E0FEA3E0FC
:10077400FFE5642410F582E43563F583EEF0A3EF1E
:10078400F07402256AF56AE43569F569856A82F5CB
:1007940083E0FEA3E0FFE5642412F582E43563F50B
:1007A40083EEF0A3EFF07402256AF56AE43569F587
:1007B40069856A82F583E0FEA3E0FFE5642414F50D
:1007C40082E43563F583EEF0A3EFF07402256AF555
:1007D4006AE43569F569856A82F583E0FEA3E0FF82
:1007E400E5642416F582E43563F583EEF0A3EFF0B7
:1007F4007402256AF56AE43569F569856A82F583C8
:10080400E0FEA3E0FFE5642418F582E43563F58394
:10081400EEF0A3EFF07402256AF56AE43569F56930
:10082400E564241AF582E43563F583E4F0E5642491
:100834001BF582E43563F583E4F0856A8285698378
:10084400E0FEA3E0FFE564241CF582E43563F58350
:10085400EEF0A3EFF07402256AF56AE43569F569F0
:10086400856A82F583E0FEA3E0FFE564241EF58239
:10087400E43563F583EEF0A3EFF07402256AF56ABC
:10088400E43569F56974E02564F56474FF3563F54E
:10089400630561055D02064E755F10755F10755F37
:1008A40010E4F55D756302F564E55F24FFFFE4344D
:1008B400FFFEEF7805C333CE33CED8F92564F56453
:1008C400EE3563F563E55FD394104003755F1075EF
:1008D4005D01C3E55F9562655D7003020B1C856471
:1008E40082856383E561F0856A82856983E0FFA37D
:1008F400E0856482856383A3CFF0A3EFF0740225BF
:100904006AF56AE43569F569856A82F583E0FFA3CF
:10091400E0856482856383A3A3A3CFF0A3EFF0747F
:1009240002256AF56AE43569F569856A82F583E02A
:10093400FEA3E0FFE5642405F582E43563F583EE68
:10094400F0A3EFF07402256AF56AE43569F5698568
:100954006A82F583E0FEA3E0FFE5642407F582E400
:100964003563F583EEF0A3EFF07402256AF56AE4CB
:100974003569F569856A82F583E0FEA3E0FFE564E5
:100984002409F582E43563F583EEF0A3EFF07402F5
:10099400256AF56AE43569F569E564240BF582E4B2
:1009A4003563F583740FF0E564240CF582E4356354
:1009B400F583E4F0E564240DF582E43563F583ED15
:1009C400F0856A82856983E0FEA3E0FFE564240E76
:1009D400F582E43563F583EEF0A3EFF07402256A43
:1009E400F56AE43569F569856A82F583E0FEA3E07A
:1009F400FFE5642410F582E43563F583EEF0A3EF9C
:100A0400F07402256AF56AE43569F569856A82F548
:100A140083E0FEA3E0FFE5642412F582E43563F588
:100A240083EEF0A3EFF07402256AF56AE43569F504
:100A340069856A82F583E0FEA3E0FFE5642414F58A
:100A440082E43563F583EEF0A3EFF07402256AF5D2
:100A54006AE43569F569856A82F583E0FEA3E0FFFF
:100A6400E5642416F582E43563F583EEF0A3EFF034
:100A74007402256AF56AE43569F569856A82F58345
:100A8400E0FEA3E0FFE5642418F582E43563F58312
:100A9400EEF0A3EFF07402256AF56AE43569F569AE
:100AA400E564241AF582E43563F583E4F0E564240F
:100AB4001BF582E43563F583E4F0856A82856983F6
:100AC400E0FEA3E0FFE564241CF582E43563F583CE
:100AD400EEF0A3EFF07402256AF56AE43569F5696E
:100AE400856A82F583E0FEA3E0FFE564241EF582B7
:100AF400E43563F583EEF0A3EFF07402256AF56A3A
:100B0400E43569F56974E02564F56474FF3563F5CB
:100B1400630561055D0208D6E5614440856482850C
:100B24006383F0856A82856983E0FFA3E08564823C
:100B3400856383A3CFF0A3EFF07402256AF56AE41A
:100B44003569F569856A82F583E0FFA3E0856482EF
:100B5400856383A3A3A3CFF0A3EFF07402256AF502
:100B64006AE43569F569856A82F583E0FEA3E0FFEE
:100B7400E5642405F582E43563F583EEF0A3EFF034
:100B84007402256AF56AE43569F569856A82F58334
:100B9400E0FEA3E0FFE5642407F582E43563F58312
:100BA400EEF0A3EFF07402256AF56AE43569F5699D
:100BB400856A82F583E0FEA3E0FFE5642409F582FB
:100BC400E43563F583EEF0A3EFF07402256AF56A69
:100BD400E43569F569E564240BF582E43563F5834E
:100BE400740FF0E564240CF582E43563F583E4F0D6
:100BF400E564240DF582E43563F583EDF0856A82BE
:100C0400856983E0FEA3E0FFE564240EF582E43504
:100C140063F583EEF0A3EFF07402256AF56AE43518
:100C240069F569856A82F583E0FEA3E0FFE5642443
:100C340010F582E43563F583EEF0A3EFF07402253A
:100C44006AF56AE43569F569856A82F583E0FEA38D
:100C5400E0FFE5642412F582E43563F583EEF0A346
:100C6400EFF07402256AF56AE43569F569856A82EC
:100C7400F583E0FEA3E0FFE5642414F582E4356324
:100C8400F583EEF0A3EFF07402256AF56AE43569A2
:100C9400F569856A82F583E0FEA3E0FFE564241626
:100CA400F582E43563F583EEF0A3EFF07402256A70
:100CB400F56AE43569F569856A82F583E0FEA3E0A7
:100CC400FFE5642418F582E43563F583EEF0A3EFC1
:100CD400F07402256AF56AE43569F569E564241A55
:100CE400F582E43563F583E4F0E564241BF582E4DE
:100CF4003563F583E4F0856A82856983E0FEA3E0C9
:100D0400FFE564241CF582E43563F583EEF0A3EF7C
:100D1400F07402256AF56AE43569F569856A82F535
:100D240083E0FEA3E0FFE564241EF582E43563F569
:100D340083EEF0A3EFF07402256AF56AE43569F5F1
:100D44006985676985686A7420256AF56AE4356986
:100D5400F569FEC394045025755D02856A82856930
:100D640083E4F0A3F07402256AF56AE43569F56951
:100D7400FCE4B56AE6ECB404E2055D8029C3EE94B4
:100D8400065023755D01856A82856983E4F0A3F0CA
:100D94007402256AF56AE43569F569FEE4B56AE624
:100DA400EEB406E2055DE55C24FFFFE55B34FFFE7F
:100DB400E4FCFD787C122BB3123C3112383D8F5D7C
:100DC400787C760178847602087600123C31122809
:100DD4000A8F5D123C31756904756A00856A8285E3
:100DE4006983E0FEA3E04E6013787C760178847614
:100DF4000408760012280A8F5D123C3112371C8FCA
:100E04005DE4F55F746A255FF582E43406F583E0FA
:100E1400FF747C255FF8A607055FE55FB41EE51245
:0B0E24000E2F8F5D22755DFE7FFE2209
:101BB700E4F560747C2560F8E6FF746A2560F582B9
:101BC700E43406F583EFF00560E560B41EE57F5F5A
:101BD7001235008F5EE55E6003021E62F55AC20091
:101BE700F55BF55C3000067E047F0080047E027F93
:101BF700008E618F62787C76013000067E047F005C
:101C070080047E027F007884A60608A607B2001229
:101C17002CAF8F5EE55E6003021E91787CE6700351
:101C2700021D03055CE55C7002055BE4F560746BFF
:101C3700255FF582E43406AF82FE85628285618383
:101C4700E0FD700975600F755D01021CE9EDB4E5F3
:101C570003021CDEE562240BF582E43561F583E0BF
:101C6700FDB408028071EDB40F02806BE4F55EE508
:101C770062255EF582E43561F583E0FD6420600D41
:101C87008F828E83E0B5050C0FBF00010E055EE560
:101C97005EB408DBE55E64086002803B8F828E835A
:101CA700E0B42E050FBF00010EE55E640B6022E570
:101CB70062255EF582E43561F583E0FD6420600D01
:101CC7008F828E83E0B505090FBF00010E055E8088
:101CD700D8E55E640B601674202562F562E4356111
:101CE700F5610560E56064106003021C35E55E641C
:101CF7000B600CE55D64016003021BEB756010E58A
:101D07006064107003021E62E4FAAF62AE61123AB9
:101D17007AAB073000067E027F0080047E047F00D6
:101D2700AD07AC06E56024FFFFE434FFFEEF78055E
:101D3700C333CE33CED8F92DFDEE3CFCE560701BE6
:101D47003000057E04FF80047E027F00AC06AD07ED
:101D570074E02DFD74013CFC75600FED240DF582D8
:101D6700E43CF583E0B503047F0180027F00ED24A6
:101D77000BF582E43CF583E0B40F047E0180027E1C
:101D870000EE5FFF8D828C83E064E560047E018056
:101D9700027E00EE5F60398D828C8374E5F00A1550
:101DA70060EA640F602AE560701A3000057E04FF60
:101DB70080047E027F00AC06AD0774E02DFD740140
:101DC7003CFC809774E02DFD74FF3CFC1560808B14
:101DD700E55C455B6041E55C155C7002155BAE5BDD
:101DE700AF5CE4FCFD787C122BB312383D8F5EE5C7
:101DF7005E6003021E91787C76013000067E027FCA
:101E07000080047E047F007884A60608A6071228AF
:101E17000A8F5EE55E7073E55C455B603EE55C15C9
:101E27005C7002155BAE5BAF5CE4FCFD787C122B4B
:101E3700B312383D8F5EE55E7050787C76013000D6
:101E4700067E047F0080047E027F007884A6060851
:101E5700A60712280A8F5EE55E702F123C311237F3
:101E67001C8F5E123C31E4F560746A2560F582E4EC
:101E77003406F583E0FF747C2560F8A6070560E566
:0D1E870060B41EE512325F8F5E22AF5E2256
:1015C700E4F561747C2561F8E6FF746A2561F582AC
:1015D700E43406F583EFF00561E561B41EE57F5F4E
:1015E7001235008F5EE55E60030218B0F55AC2003F
:1015F700F55BF55C3000067E047F0080047E027F89
:10160700008E658F66787C76013000067E047F0049
:1016170080047E027F007884A60608A607B200121F
:101627002CAF8F5EE55E60030218CD787CE6700311
:10163700021718055CE55C7002055BE4F561746BE5
:10164700255FF582E43406AF82FEE566255EF58206
:10165700E43565F583E0FD700975610F755D01027D
:1016670016FEEDB4E5030216F3E566240BF582E4F6
:101677003565F583E0FDB408028071EDB40F028093
:101687006BE4F55EE566255EF582E43565F583E096
:10169700FD6420600D8F828E83E0B5050C0FBF00BF
:1016A700010E055EE55EB408DBE55E640860028056
:1016B7003B8F828E83E0B42E050FBF00010EE55EDF
:1016C700640B6022E566255EF582E43565F583E007
:1016D700FD6420600D8F828E83E0B505090FBF0082
:1016E700010E055E80D8E55E640B601674202566E2
:1016F700F566E43565F5650561E56164106003022B
:101707001645E55E640B600CE55D64016003021538
:10171700FB756110E561641070030218B075670608
:10172700756800E4F560AF66AE65123A7A8F62308D
:1017370000067E027F0080047E047F008E638F6434
:10174700E56124FFFFE434FFFEEF7805C333CE33B2
:10175700CED8F92564F564EE3563F563E561701F4E
:101767003000057E04FF80047E027F008E638F6455
:1017770074E02564F56474013563F56375610FE5FD
:1017870064240DF582E43563F583E0B562047F01D7
:1017970080027F00E564240BF582E43563F583E07E
:1017A700B40F047E0180027E00EE5FFF85648285B0
:1017B7006383E064E560047E0180027E00EE5F7073
:1017C700030218B0E4F55F856482856383A375F02F
:1017D70002E55F122C15E0FFA3E085688285678329
:1017E700CFF0A3EFF074022568F568E43567F56775
:1017F700055FE55FB405D0E55F640B6035E55F75B0
:10180700F002A42404FFE435F0FEE5642FF582E539
:10181700633EF583E0FFA3E0856882856783CFF0A9
:10182700A3EFF074022568F568E43567F567055F8F
:1018370080C5E55F640D6035E55F75F002A4240699
:10184700FFE435F0FEE5642FF582E5633EF583E0BE
:10185700FFA3E0856882856783CFF0A3EFF074026A
:101867002568F568E43567F567055F80C50560E5B8
:1018770060640F6034E561701F3000057E04FF80EF
:10188700047E027F008E638F6474E02564F56474C0
:10189700013563F56302178674E02564F56474FF08
:1018A7003563F5631561021786856882856783E46A
:1018B700F0A3F074022568F568E43567F567123719
:0918C7001C8F5E7F0022AF5E223F
:1023A600D294C2947F64123B8FD294123C107BFF6E
:1023B6007A3B79621212CD123AEF8F56123B11E533
:1023C6004764026005123A2480F5C2947FC8123B26
:1023D6008FE4F5567F64123B8F1238E7EF600905EC
:1023E60056E556C3940540ECC2957558417559009B
:1023F600E4F557787C762F08764308762F087641E1
:1024060008764208764308764408764108767E08C0
:10241600763108763208762E087643E408F690067A
:10242600007441F0A3E4F0A37442F0A3E4F0A374B3
:1024360043F0A3E4F0A37444F0A3E4F0A37445F0DE
:10244600A3E4F074461200038F56E42559F5597437
:10245600013558F5580557E557640F70967558417C
:10246600755900E4F557787C762F08764108764250
:1024760008764308764408764108767E0876310861
:10248600763108762E087643E408F69006007461E5
:10249600F0A3E4F0A37442F0A3E4F0A37463F0A302
:1024A600E4F0A37444F0A3E4F0A37445F0A3E4F0CD
:1024B60074651200038F56E42559F5597401355891
:1024C600F5580557E557640F709C755841755900C6
:1024D600E4F557787C762F08764308762FE408F6DD
:1024E6009006007441F0A3E4F0A37442F0A3E4F074
:1024F600A37443F0A3E4F0A37444F0A3E4F0A3743C
:1025060045F0A3E4F0A37446F0A3E4F0A37447F007
:10251600A3E4F0A37448F0A3E4F0A37441F0A3E4A9
:10252600F0A37463F0A3E4F0A37462F0A3E4F0A351
:102536007461F0A3E4F0A3E558F0A3E559F0A3E530
:1025460058F0A3E559F0A3742EF0A3E4F0A3744366
:10255600F0A3E4F0A3F0A3F01229C88F56121BB71C
:102566008F56E42559F55974013558F5580557E540
:1025760057640460030224D9E4F558F559787C764B
:102586002F08764308762F08762A08A659E408F617
:1025960008F6120E2F8F56E55664426018E556B4BB
:1025A60043051215C78F560559E55970020558643B
:1025B600FE455870C8D296D2957BFF7A3B79691250
:1025C60012CDE54764016005123A2480F5D2947F66
:0725D600C8123B8F0223C570
:103C21008F828E83E0FFA3E0FEA3E0FDA3E0FC22F0
:0A3C60008F828E83E0FFA3E0FE22B6
:073C7E00EFCCFFEECDFE22AA
:0A3C6A00C3E4CC13CD13CE13FF22E8
:1034900090BDF17428F0E4F551E54054036403FD58
:1034A00090BCF0E0CD602A14601190BCF0E08F82F7
:1034B0008E83F00FBF00010EDDF02205A28F828EF9
:1034C0008305A2E005A2F0A3DDF7AF82AE8305A2DB
:1034D00022EFC582F9EEC583C5A0F5F07D08E3F0C3
:1034E000A3E3F0A3E3F0A3E3F0A3E3F0A3E3F0A3EB
:1034F000E3F0A3E3F0A3DDE685F0A0AF82AE832284
:10341E0090BDF1742BF0E4F551E54054036403FDC7
:10342E00744090BCF0F0CD602A1460118F828E83B0
:10343E00E090BCF0F00FBF00010EDDF02205A28F70
:10344E00828E83E0A305A2F005A2DDF7AF82AE83E4
:10345E0005A222EFC582F9EEC583C5A0F5F07D0861
:10346E00E0A3F3E0A3F3E0A3F3E0A3F3E0A3F3E020
:10347E00A3F3E0A3F3E0A3F3DDE685F0A0AF82AE05
:02348E00832297
:033C8F007F302261
:0A3C7400123C317E007F0002349004
:103BC100EF75F005A4F53AE53A600A123C85123C1E
:063BD10085153A80F22286
:103B33007D107F10E547C39F40028D47E5476D70B9
:103B430002FF227547011239BEEF60037F82227F95
:023B53008322CB
:103ACB00753A8090BDF17401F00000000090BCF0DD
:103ADB00E0FFD53AEE90BDF17405F0000000007FD9
:043AEB0032023BC1A7
:103785007537057D067F65123BD7E4F54790BCF09C
:10379500E0B49A0F7D067F9A123BD790BCF0E064A7
:1037A500656009123ACBD537DA7F812290BDF17475
:1037B50001F000000000C20C90BCF0E0C394A240F0
:1037C50002D20C7547017D157F06123BD77F01128A
:0F37D5003BC190BCF0E0B45F037F81227F0022F4
:0D3C310074FFF52AF529F528F527C20A22AF
:1039BE0090BDF17422F00000000090BCF0E0E4F540
:1039CE00517F20123BAAEF30E517E547C394024022
:1039DE000A7F1B123BAAEF547F70037547027F00CC
:0739EE00227547017F8222D0
:1037E4001239BEEF60037F82227F51123B73E55191
:1037F400703D7D037F02123B37300C307F38123B23
:10380400AAEF6028123C74900000E0B4051E90BD3D
:10381400F1740BF00000000090BCF07434F0000070
:103824007401F07F58123B73E55170037F00227DD1
:09383400027F02123B370235DA73
:1031B300854D23854E24854F25855026E526652A92
:1031C3007015E5256529700FE52465287009E52349
:1031D3006527700302325CE4F53A90BDF17454F054
:1031E30000000000E4F55190BCF0E526F00000E596
:1031F30025F00000E524F00000E523F00000740151
:10320300F0752700752800753908123A24E55164D2
:103213001D702BAF28AE271234908E278F2890BDB8
:10322300F17455F0D539E38523278524288525298D
:1032330085262A123A24E551B414037F0022E53A85
:10324300C39405500EE53AC3940140031235DA05E1
:0C3253003A8087123C310235DA7F0022FD
:1032F900F583E53AF0A3E53BF0E4F53A90BDF174C6
:1033090056F000000000E4F55190BCF0E526F0000D
:1033190000E525F00000E524F00000E523F00000B9
:103329007401F0752700752800753908123A24E5EB
:1033390051641E7033AF28AE2712341E8E278F2892
:1033490090BDF17457F0D539E38523278524288565
:10335900252985262A123A24E551B4140BE5402083
:10336900E503123C8A7F0022E53AC39405500FE534
:103379003AC3940140031235DA053A023305123C87
:04338900310235DAFE
:101E9400E547C3940350071237E4EF600122123C74
:101EA40031E4F526F525F524F5231231BFEF600A58
:101EB400123A4F1231BFEF600122900000E0FF643C
:101EC400EB6037EF64E96032E4FDED644060287450
:101ED400C22DF582E43401F583E06015ED7E002423
:101EE400C6FFEE3401FE123C21900688122BBF80FF
:101EF4001374102DFD80D37F9222900688122BE458
:101F040000000000900688E0FCA3E0FDA3E0FEA32F
:101F1400E0F5268E258D248C231231BFEF6001223B
:101F2400900000E0FF64EB6008EF64E960037FA1C8
:101F34002290000DE0F52230E605752E06802E3045
:101F4400E505752E05802630E405752E04801E30C7
:101F5400E305752E03801630E205752E02800E30DF
:101F6400E105752E018006752201E4F52E7E007FC1
:101F740016123C6090068EEEF0A3EFF04E70287EB1
:101F8400007F24123C218F328E318D308C2FE4FB64
:101F9400FA7901F8D3122B6350037FA22290068EA4
:101FA400E531F0A3E532F0900014E0FF900013E077
:101FB4004F60127E007F13123C60E48F3F8E3EF52B
:101FC4003DF53C800F7E007F20123C218F3F8E3EEA
:101FD4008D3D8C3C7E007F11123C60EF240FFFE4AA
:101FE4003EC4F854F0C868FEEFC4540F48FFE4FC44
:101FF400FD900694122BBF7E007F0E123C60E48F8E
:10200400368E35F534F53390068EE0FEA3E0FFEF0F
:102014002536FFEE3535FEE43534FDE43533FC90EA
:102024000694E0F8A3E0F9A3E0FAA3E02FF546EA6A
:102034003EF545E93DF544E83CF543900010E0D316
:102044009401402190068EE0FEA3E0FFE4FCFDE550
:10205400462FF546E5453EF545ED3544F544EC356A
:1020640043F5438007E490068EF0A3F0C3E53F9563
:1020740046FFE53E9545FEE53D9544FDE53C95432B
:0C208400FCA82E122B74900690122BBFAB
:10209000E47BF57AFFF9F8D3122B63401FE4900636
:1020A0008CF0A3F0900692E0FEA3E094F5EE940F7E
:1020B0005005754C018024754C02801F7E007F30D6
:1020C000123C6090068CEEF0A3EFF07E007F2C12A5
:1020D0003C21900694122BBF754C03900688E0FCBF
:1020E000A3E0FDA3E0FEA3E02536F536EE3535F599
:1020F00035ED3534F534EC3533F533900688A3A34C
:10210000A3E02546F546EE3545F545ED3544F54465
:0D211000EC3543F5437D107F03123B372271
:10364600852723852824852925852A26123302EFF6
:1036560060012290068EE0FEA3E0FF4E6048E4FC87
:10366600FDE5262FF526E5253EF525ED3524F52441
:10367600EC3523F523123302EF60012290068EE02B
:10368600FAA3E0FBC3E5269BF526E5259AF525E595
:10369600249400F524E5239400F523F527852428B2
:0B36A60085252985262AC20A7F002204
:10211D008D6DEFC8E54CB40207122B9A780180083B
:10212D00B40312122B9A7802122B878F718E708D39
:10213D006F8C6E8023122B9A8E6E8F6FEF13920918
:10214D00E56EC313FEE56F13256FFFE56E3EFEE4EE
:10215D008F718E70F56FF56EEE5401FEEF2400F564
:10216D002DEE3400F52CAF71AE70AD6FAC6E123C30
:10217D006AEF2536F571EE3535F570ED3534F56FC1
:10218D00EC3533F56EE571652A7012E570652970D1
:10219D000CE56F65287006E56E6527601D300A0732
:1021AD00123646EF600122856E23856F24857025DA
:1021BD008571261231BFEF600122E56D6023B4FFFA
:1021CD00028006E56DB4010BE4F571F570F56FF560
:1021DD006E800C852F7185307085316F85326ED292
:1021ED000AE54C6402703F852D82852C83E0F5381D
:1021FD00A3E0F53985383B85393AE4F538F539AE44
:10220D003AAF3BC3EF94F7EE94FF4003D38001C385
:10221D009209E56D600D852D82852C83E56EF0A309
:10222D00E56FF07F0022E54C6403705A852D8285A1
:10223D002C83E0FCA3E0FDA3E0FEA3E0F53B8E3A8A
:10224D008D398C38E53B54F0FFE571540F4FF57126
:10225D00E53B540F85383BF538AF3A85393A8F3920
:10226D00AF38EFC3940F4003D38001C39209E56DDE
:04227D006011AF71CC
:10228100AE70AD6FAC6E852D82852C83122BBF7F16
:102291000022536F0FC3E52D9400FFE52C9400FE3F
:1022A100EFF47003EE6401604D852D82852C83E08F
:1022B100F538A3E0F539E56D700302236C3009238D
:1022C100E56EC454F0FFE538540F4F852D82852CFF
:1022D10083F0E56FC454F0FFE56EC4540F4FA3F0D3
:1022E10002236C852D82852C83E56EF0E53954F04F
:1022F100456FA3F08075852D82852C83E0F538E547
:102301006D602230090EE56EC454F0FFE538540FBC
:102311004FFF8002AF6E852D82852C83EFF0123640
:1023210046EF600122E52A2401F526E43529F52549
:10233100E43528F524E43527F5231231BFEF600198
:1023410022900000E0F539E56D602030090FE56F5E
:10235100C454F0FFE56EC4540F4FFF8007E53954B4
:10236100F0456FFF900000EFF0D20A300913E53914
:10237100C454F0FFE538C4540F4FF53BE539C48030
:102381000585383BE539540FF53AE4F538F539AEB2
:102391003AAF3BC3EF94F7EE940F4003D38001C3F0
:0523A10092097F0022FB
:102DE300853F32853E31853D30853C2F900690E00E
:102DF300FCA3E0FDA3E0FEA3E0FFAB32AA31A930C0
:102E0300A82FD3122B6340037FB122E5322401F5AF
:102E130032E43531F531E43530F530E4352FF52F33
:102E23007F2FE4FD12211DEF600122E53B700FE5CA
:102E330038700BE5397007E53A7003022ED6E54C7E
:102E4300640160A8752C00752D00E54C6402703395
:102E53007538FF7402252DF52DF582E4352CF52CFC
:102E6300F583E07015A3E07011852D82852C8374A2
:102E7300FFF0A3F0E538F4048049D538D67532FF66
:102E8300022DEF75387F7404252DF52DF582E43579
:102E93002CF52CF583E07032A3E0702EA3E0702AAA
:102EA300A3E0540F7024852D82852C8374FFF0A337
:102EB300F0A3F0A3E0440FF0E5325480FFC3748025
:102EC30095384FF532D20A7F0022D538B943327F85
:0B2ED300022DEF7F2F7DFF12211D223A
:1036B10074FFF532F531F530F52F90068CE0FEA35D
:1036C100E0FF4E700122E4FCFD900688E0F8A3E0E3
:1036D100F9A3E0FAA3E02FF526EA3EF525ED39F549
:1036E10024EC38F5231231BFEF6001227E017FE81F
:1036F100123C21E5322FF532E5313EF531E5303D21
:10370100F530E52F3CF52FAF32AE31AD30FC123C38
:0B3711007E9001E8122BBF1233022251
:100E2F0090BDF17422F00000000090BCF0E0FFE5EF
:100E3F0047C394105007121E94EF600122123B33E8
:100E4F00EF600122C20B787CE6645C6004E6B42F8D
:100E5F0005752B7D8017787DE6643A6003020F0FCE
:100E6F0018E6C394435003020F0F752B7FE54CB464
:100E7F000310900694E0FCA3E0FDA3E0FEA3E0FFC7
:100E8F008005E4FFFEFDFC8F3F8E3E8D3D8C3CA820
:100E9F002BE6706F74FFF54BF54AF549F548E54CB5
:100EAF006403603F753F02900697E0FBC3E5469BE6
:100EBF00F546E5459400F545E5449400F544E543D2
:100ECF009400F543900696A3E025E0FEE4F54B8EE3
:100EDF004AF549F548AF22FCFDFE900694122BBF50
:100EEF00752280853F32853E31853D30853C2FE42C
:100EFF00F555F554F553F552F5377547127F4122E5
:100F0F00752B7CA82BE6B4E5027605E53F700CE562
:100F1F003C7008E53D7004E53E6032852237E53FC1
:100F2F0024FEFFE53E34FFFEE53D34FFFDE53C3496
:100F3F00FFFCA82E122B87EF2546F550EE3545F511
:100F4F004FED3544F54EEC3543F54D801F90069728
:100F5F00E0F537CBC3E5469BF550E5459400F54FDB
:100F6F00E5449400F54EE5439400F54DE5377003E5
:100F7F0002121E1231B3EF600122E4F541F542C3B4
:100F8F00E5419402400302120474002542F52D74CA
:100F9F00003541F52C852D82F583E0FF7003021299
:100FAF004BEF64E570030211F6BF05027FE5A82B36
:100FBF00E6FE6F6008EE642A60030211F6E4F53B6B
:0F0FCF00FFEFC3940B5078E52D2FF582E4352CFE
:100FDE00F583E0FEAD3BE52B2DF8EE66605DAD3B97
:100FEE00E52B2DF8E66015AD3BE52B2DF8E6645CA0
:100FFE00600AAD3BE52B2DF8E6B42F1FEE64207092
:10100E003FEFC394085010E52D2408F582E4352CEB
:10101E00F583E0642070297F0B8025AE3BE52B2EF7
:10102E00F8E6B42E1BE53B6408600EE52D2FF58225
:10103E00E4352CF583E0B420077F070F053B808253
:10104E00EFC3940B5003021137E52D240BF582E408
:10105E00352CF583E030E303021137C209E52D2468
:10106E001AFFE4352CFE123C60E48F3F8E3EF53DB8
:10107E00F53CE54CB40310E52D2414FFE4352CFEAD
:10108E00123C608E3C8F3DAF3BE52B2FF8E66006A1
:10109E0020090302112D853F32853E31853D308575
:1010AE003C2FE4F555F554F553F552F537E52D245F
:1010BE000BF582E4352CF583E030E41F74FFF54B1D
:1010CE00F54AF549F5487D137F10123B37EF600165
:1010DE00223009047F4380027F4122E52D241CFF2C
:1010EE00E4352CFE123C218F4B8E4A8D498C48E5FF
:1010FE003F7017E53C7013E53D700FE53E700B75C4
:10110E0037FFF54BF54AF549F5487D147F10123B34
:10111E0037EF6001223009047F4380027F0022E511
:10112E003B04252BF52B020F12AF3BE52B2FF8E6D8
:10113E00642A60030211F6E52D240BF582E4352CAA
:10114E00F583E030E3030211F6E53B04252BF8E6C8
:10115E007053E4FFF539E52D2FF582E4352CF58338
:10116E00E06420602FBF080AAE39E52B2EF8762EEC
:10117E000539E52D2FF582E4352CF583E0FEAD39EA
:10118E00E52B2DF8EEF6E5397008A82BE6B405022E
:10119E0076E505390FBF0BBEAF39E52B2FF8E4F618
:1011AE00D20902106BE53B04252BF8E6F47032E50C
:1011BE004B700CE5487008E5497004E54A6093E50C
:0111CE0048D8
:1011CF0030E703123C92E54B24FFF54BE54A34FF21
:1011DF00F54AE54934FFF549E54834FFF5488007FE
:1011EF00E53B04252BF81674202542F542E43541E2
:1011FF00F541020F8EE5502401F550E4354FF54FC0
:10120F00E4354EF54EE4354DF54D1537020F7BE5C0
:10121F003F700CE53C7008E53D7004E53E601D7FB6
:10122F003CE4FD12211DEF60012220090F85383C9F
:10123F0085393D853A3E853B3F020F12E4FFE52B92
:10124F002FF8E6FE6013642A600FEE645C6004EE14
:0C125F00B42F037FB3220F80E57F4222F2
:10371C00E547C3941250037FB422E547B41239E550
:10372C004C64036033900697E0F522E54AC313FF1F
:10373C007E00E4FCFD900694122BBF900697E0FFF0
:10374C00E4FCFDFEE5462FF546EE3545F545ED3539
:10375C0044F544EC3543F543E547D39413400AE56F
:10376C0047B41407787CE67002C20B300B07123991
:09377C0038EF600122123B3322F8
:10325F00E547C394135007120E2FEF600122123B64
:10326F0033EF6001221231B3EF6001227400254267
:10327F00FF740035418F82F58374E5F0123302EF4E
:10328F00600122AF3FAE3EAD3DAC3C8F3B8E3A8DE1
:10329F00398C38EC4D4E4F604EE53F24FFF53FE53E
:1032AF003E34FFF53EE53D34FFF53DE53C34FFF59B
:1032BF003CE4F532F531F530F52F7F387D011221E1
:1032CF001DEF600122E5322401F532E43531F5318D
:1032DF00E43530F530E4352FF52F3009DD12364661
:0A32EF00EF6001220236BB7F0022CF
:1025DD00120E2F8F37E537700A12325FEF7003023C
:1025ED00272622E53764426003AF3722C3E54294C4
:1025FD00E0E54194015003022726E53F700FE53CCD
:10260D00700BE53D7007E53E70030226C4C3E5502F
:10261D009546FFE52214FE5FF537E5426008EE654D
:10262D003760030227267F3CE4FD12211DEF600178
:10263D0022200903022726122DE3EF6001227F3CA1
:10264D007D0212211DEF600122123646EF6001223C
:10265D00123C31E4FFFEEE64024F601374002FF55F
:10266D008274003EF583E4F00FBF00010E80E7E4B5
:10267D00F53712397FE5427010F541F54285265048
:10268D0085254F85244E85234D852238E5386020DC
:10269D00123302EF600122E5262401F526E43525EB
:1026AD00F525E43524F524E43523F523153880DCB0
:1026BD001236B1EF606322E542705EE55024FFF5FE
:1026CD0050E54F34FFF54FE54E34FFF54EE54D34F3
:1026DD00FFF54DF5231231B6EF600122E4F541F51A
:1026ED0042C3E5419402502E74002542FF7400351B
:1026FD00418F82F583E0B4E510E582240BF582E489
:10270D003583F583E0540E601074202542F542E4C4
:10271D003541F54180CB7FB222122DE3EF600122CE
:10272D00123646EF60012285323F85313E85303DC0
:10273D00852F3C1236B1EF6001221231B3EF6001EB
:10274D002274002542FF74003541FEE4FDEDC39473
:10275D000B50047C2080027C00EF2DF582E43EF5C9
:10276D0083ECF00DBD20E6EF2418F582E43EF583F1
:10277D007421F0A37430F0EF241CF582E43EF58350
:10278D007401F0E4FDEDC3940B5021A82BE6FC6021
:10279D001BECB42E047D08052BA82BE6FCEF2DF5C4
:1027AD0082E43EF583ECF00D052B80D9853F38850D
:1027BD003E39853D3A853C3BEF241AF582E43EF5E2
:1027CD0083E538F0A3E539F0EF2414F582E43E12E9
:0227DD0032F9CF
:1027DF00EF600122853F32853E31853D30853C2FAC
:1027EF00E4F54BF54AF549F548F555F554F553F52C
:0B27FF0052F5377D147F10123B37228B
:102EDE00E547C3941350037FB4221231B3EF600160
:102EEE0022C20A74002542FB74003541FA7884E64A
:102EFE00FFEB240BF582E43AF583E0F6EFF4601372
:102F0E008B828A83E582240BF582E43583F583EF89
:102F1E00F0D20A7882E6F53B08E6F53AEB2416FF86
:102F2E00E43AFE123C6018EEF608EFF6E53AF4FECF
:102F3E00E53BF44E6012EB2416F582E43AF583E598
:102F4E003AF0A3E53BF0D20A7880E6F53B08E6F5C9
:102F5E003AEB2418FFE43AFE123C6018EEF608EF46
:102F6E00F6E53AF4FEE53BF44E6012EB2418F582DA
:102F7E00E43AF583E53AF0A3E53BF0D20A787C1209
:102F8E002B9A7888122BB3EB241CFFE43AFE123CEA
:102F9E0021787C122BB37888E6F4601E122B9A8F60
:102FAE004B8E4A8D498C48123C7EEB241CF582E4F4
:102FBE003AF583122BBFD20AC20B300A05C20A029F
:052FCE0033027F002228
:1035DA00753932123C85D539FA90BDF17422F00062
:1035EA0000000090BCF0E0E5516416600FE5476406
:1035FA000160097F20123BAAEF20E5067547017F8B
:10360A008222300C19E547C394034012855139E4EC
:10361A00F55190BDF1745AF0123A24853951E547B3
:10362A00B41205754703800AE547D3941040037521
:0C363A004710E55170037F1022AF5122B1
:10397F00E53224FEFFE53134FFFEE53034FFFDE58F
:10398F002F34FFFCA82E122B87EF2546FBEE354573
:10399F00FAED3544F9EC3543F8E4FCFDFEEB253741
:0F39AF00F526EE3AF525ED39F524EC38F523220F
:10393800C20BE547C39414403B1231B3EF60012238
:1039480074002542FB74003541FAF583EB240BF52E
:1039580082E43583F583E020E41AAF4BAE4AAD49E3
:10396800AC48123C7EEB241CF582E43AF583122B1A
:07397800BF0233027F0022B1
:103BAA0090BDF1740AF00000000090BCF0EFF00044
:073BBA00006003E0FF22227E
:1038E7001239BEEF60037F8222E547C39403501B62
:1038F7001237E4EF600C7F32123BC11237E4EF60FE
:103907000122123A4FEF60030235DA300C207F595B
:10391700123B73AF518F38EF7002FF227F0A123BC1
:10392700C17F5A123B737F02123BC1AF38227F001F
:01393700226D
:10338D00E53F700CE53C7008E53D7004E53E60726C
:10339D00853F32853E31853D30853C2FAF22E4FCA3
:1033AD00FDFE787C122BA6C3122B6340387F2FE4D1
:1033BD00FD12211DEF60012220094785382F853927
:1033CD0030853A31853B32787C122B9AAB22C3EF94
:1033DD009BFFEE9400FEED9400FDEC9400FC787CD8
:1033ED00122BB380B7787FE6FFE522145FF5371215
:1033FD00397FAF26AE25AD24AC23787C122BB37F5D
:10340D0000227537FF787C122BCBFFFFFFFF7F006B
:01341D00228C
:10356D00122DEFEF600122123646EF6001228532F7
:10357D003F85313E85303D852F3C1231B3EF6001E3
:10358D002274002542FF74003541FEF583EF241CA3
:10359D00F582E43583F5837401F0853F38853E3936
:1035AD00853D3A853C3B8F828E83E582241AF582D8
:1035BD00E43583F583E538F0A3E539F08F828E830A
:0D35CD00E5822414F582E435831232F922E0
:103A4F007538087F53123B73AF518F3BEF7002FFF6
:103A5F00227F0A123BC1300C057F5A123B737F1431
:0B3A6F00123BC1D538DDAF3B8F512268
:103BD70090BDF1EDF000000000E4F55190BCF0EF6E
:043BE700F0000022C8
:103B7300E4F55190BDF1EFF0123A24E5517004756C
:0C3B8300511022E551B41403E4F5512266
:10389400787EE67D0025E0FCE539AE387806C33352
:1038A400CE33CED8F9FFC3ED9FF539EC9EF538AE93
:1038B40038AF39CBEFCBCAEECAC3E5559FF555E512
:1038C400549AF554E5539400F553E5529400F55297
:1038D400C3E49539FFE49538FE7885EF26F618EEB3
:0338E40036F62293
:1030C800E4F53A90BDF17454F000000000E4F551C5
:1030D8007883E690BCF0F0000018E6F0000018E6EF
:1030E800F0000018E6F00000787EE6F085403BE549
:1030F8004013135403FFE54054FC4FF540E675F0C8
:1031080008A4F53985F038123A24E551641D707128
:10311800E53B540C60137884E6FE08E6FF12349011
:103128007884EEF608EFF6801590BDF17428F0006B
:10313800000000E4F55190BCF0E0FF123C9390BD14
:10314800F17455F0E5552440F555E43554F554E44B
:103158003553F553E43552F552E5396009D539A7A9
:10316800E538600880A115381539809B853B4012E9
:103178003A24E551B4140A787EE6787C26F67F0076
:1031880022853B40E53AC39405501C123894E5402B
:10319800540C7004FF123C93E53AC39401400312A7
:0B31A80035DA053A0230CB1235DA228E
:102FD300E4F53A90BDF17456F000000000E4F551B9
:102FE3007883E690BCF0F0000018E6F0000018E6E5
:102FF300F0000018E6F00000787EE6F085403BE53F
:103003004013135403FFE54054FC4FF540E675F0BD
:1030130008A4F53985F038123A24E551641E707B13
:10302300E53B540C60137884E6FE08E6FF12341E79
:103033007884EEF608EFF6801790BDF1742BF0005C
:10304300000000E4F55190BCF07440F0FF123C9492
:1030530090BDF17457F0E5552440F555E43554F52A
:1030630054E43553F553E43552F552E5396009D547
:1030730039A5E5386008809F153815398099853B57
:1030830040123A24E551B41412E54020E503123C02
:103093008A787EE6787C26F67F0022853B40E53AF7
:1030A300C39405501C123894E540540C7004FF126D
:1030B3003C94E53AC3940140031235DA053A022FF2
:0530C300D61235DA22EF
:10383D00E547C3941250037FB422AF4BAE4AAD4956
:10384D00AC48123C6A8F3B8E3A8D398C38787C129D
:10385D002BA6D3122B63400DAF3BAE3AAD39AC382E
:10386D00787C122BB3787C122B9A7801122B878FD0
:10387D003B8E3A8D398C38853952853A53853B5478
:07388D00E4F55512338D2212
:102CAF00E547D394145007E547C3941250037FB4FC
:102CBF0022787CE608F6E418F6787EF6C3E54B95A5
:102CCF0055FFE54A9554FEE5499553FDE548955264
:102CDF00FC123C6A8F3B8E3A8D398C38E539700483
:102CEF00E53A6006787F76FF8004787FA63B787D93
:102CFF00E67003022DD8787FE67003022DD8E537F2
:102D0F00F47003022DD812397F787EE6C3944050B9
:102D1F002FE66037E6FFE4FCFDFE7880122BA6EF6E
:102D2F002BFFEE3AFEED39FDEC38FCEF6526FFEE9A
:102D3F006525FEED6524FDEC6523FC4D4E4F600BC4
:102D4F001230C8EF600122E4787EF6787EE6700DCF
:102D5F00AF26AE25AD24AC237880122BB3C3E5226A
:102D6F009537FFF538787FE6FEEFD39E4003E6F503
:102D7F0038E538D3787D96400CE60826F618E62518
:102D8F0037F5378049C3787DE69538F608E538265C
:102D9F00F6C308E69538F6E5382537F5376522602E
:102DAF0003022CFD7F2FFD12211DEF600122300940
:102DBF00067537FF022CFD85382F853930853A315E
:102DCF00853B32E4F537022CFD787EE66003023056
:042DDF00C87F002287
:10280A00E547D394145007E547C3941250037FB4A5
:10281A0022787CE6FF08F67006300B030229C2E430
:10282A00787CF6787EF608F6787DE670030229460B
:10283A00E537F4704AE53F700CE53C7008E53D70F9
:10284A0004E53E602DE547B41209E54C64036003D4
:10285A007FB122AF32AE31AD30AC2F7886122BB3B6
:10286A00122DEFEF6001227F867D0212211DEF609B
:10287A00082212356DEF600122787F16E4F53712CF
:10288A00397F787EE6C39440502FE66037E6FFE44E
:10289A00FCFDFE7880122BA6EF2BFFEE3AFEED39F7
:1028AA00FDEC38FCEF6526FFEE6525FEED6524FD9F
:1028BA00EC6523FC4D4E4F600B122FD3EF600122C3
:1028CA00E4787EF6787EE6700DAF26AE25AD24ACB0
:1028DA00237880122BB3C3E5229537FF787DE6FE75
:1028EA00EFD39E400CE60826F618E62537F5378022
:1028FA004B787EEF26F6C318E69FF6E6701874004A
:10290A00788566700474001866700B122FD3EF6016
:10291A000122E4787EF67F2FE4FD12211DEF60018B
:10292A00223009067537FF02283285382F8539305B
:10293A00853A31853B32E4F537022832300A0712EC
:10294A003646EF600122787EE66007122FD3EF60E9
:10295A000122787FE66035AF32AE31AD30AC2F78E8
:10296A0086122BB3787FE6FFE4EFF53274FFF53178
:10297A00F530F52F1236BBCBEFCB7886122B9A8F18
:10298A00328E318D308C2FEB6002FF22AF55AE5460
:10299A00AD53AC52AB4BAA4AA949A848C3122B6300
:1029AA00500E85554B85544A855349855248D20B5A
:0E29BA00E54030E406300B030239387F00227E
:03000000023C3E81
:0C3C3E00787FE4F6D8FD7581990223A67A
:102B6300EB9FF5F0EA9E42F0E99D42F0E89C45F0C8
:012B7300223F
:102B7400E8600FECC313FCED13FDEE13FEEF13FF3F
:032B8400D8F12263
:102B8700E8600FEFC333FFEE33FEED33FDEC33FCAC
:032B9700D8F12250
:0C2B9A00E6FC08E6FD08E6FE08E6FF2267
:0D2BA600E6FB08E6F908E6FA08E6CBF8229F
:0C2BB300ECF608EDF608EEF608EFF6224E
:0C2BBF00ECF0A3EDF0A3EEF0A3EFF02289
:102BCB00D083D082E493F608740193F608740293D1
:092BDB00F608740393F674047308
:102BE400A8828583F0D083D082122BFB122BFB1298
:102BF4002BFB122BFBE473E493A3C583C5F0C583BD
:102C0400C8C582C8F0A3C583C5F0C583C8C582C83A
:012C1400229D
:0C2C1500A42582F582E5F03583F58322CA
:10126B00E569245DF8E6056922785A300702785D56
:10127B00E475F001122C79022C212000EB7F2ED289
:10128B00008018EF540F2490D43440D4FF30040B5B
:10129B00EF24BFB41A0050032461FFE56A60021506
:1012AB006A056DE56D7002056C30070D785AE475B3
:1012BB00F001122C79EF022C67023AA47403D207C7
:1012CB008003E4C207F5698B5A8A5B895CE4F56A93
:1012DB00F56CF56DE56A60077F201212A680F57537
:1012EB006BFFC201C200C202C203C205C206C20822
:1012FB00121274FF700D3007057F001212B7AF6D1D
:10130B00AE6C22B4255FC2D5C204121274FF24D076
:10131B00B40A00501A75F00A786A30D50508B6FF82
:10132B000106C6A426F620D5047002D20380D92468
:10133B00CFB41A00EF5004C2E5D2040214B7D201A5
:10134B0080C6D20080C0D20280BCD2D580BAD20572
:10135B0080B47F201212A62002077401B56A0040E8
:10136B00F112126BFF1212A60212DFD208D2068004
:10137B009512126BFB12126BFA12126BF94A4B702D
:10138B000679887A157BFF20022EE56A602A7E009B
:10139B008E82758300122C3A60060EEE656B70F030
:1013AB00C2D5EBC0E0EAC0E0E9C0E0EE1214FED01B
:1013BB00E0F9D0E0FAD0E0FB122C21FF60AAEBC0E1
:1013CB00E0EAC0E0E9C0E01212A6D0E02401F9D0B7
:1013DB00E03400FAD0E0FBE56B0460DCD56BD98020
:1013EB00877BFF7A1479FAD202809C79108002797C
:1013FB0008C206C2088008D2D5790A8004790AC2CD
:10140B00D5E56B047002F56BE4FAFDFEFF12126B6F
:10141B00FC7B0820011312126BFD7B1030000A12AB
:10142B00126BFE12126BFF7B20EC3382D592D550E0
:10143B0013C3E43000069FFFE49EFEE42001039DEE
:10144B00FDE49CFCE4CBF8C201EC700CCFCECDCC10
:10145B00E824F8F870F38017C3EF33FFEE33FEED9B
:10146B0033FDEC33FCEB33FB994002FB0FD8E9EB7C
:10147B00300105F8D0E0C448B201C0E00AEC4D4E93
:10148B004F78207B0070C2EAB56B0040BCC0E01205
:10149B001500D0F0D0E0200104C4C0E0C4B201C0FC
:1014AB00F012128FD0F0D5F0EB0212DF122C891351
:1014BB007C5313F658134D4C13494213FA4F140235
:0F14CB004414024913624314085513EC4613EC02
:1014DA004513EC4715A85013512D13552E13782B8D
:1014EA0013592313762015912A13114800001370FB
:1014FA003F3F3F00790AA2D5200314300509B910ED
:10150A00020404B9080104A2D520060250010420ED
:10151A0002689202B56A005034C0E07F2030031995
:10152A007F30A20272067205500F121557C202C20C
:10153A0006C205C2087F30800F300503E9C0E012F9
:10154A0012A6300503D0E0F9D0E0B56ACC30051711
:10155A007F30B9100C1212A67F583004077F7880AA
:10156A0003B908031212A63002057F2D0212A67FC4
:10157A00202008F87F2B2006F322920280CF286EC3
:10158A00756C6C2900D20112126B3001F8C2017815
:10159A006A30D50108F60213112D50434958121228
:1015AA006B2403B405004001E49015A3931212972B
:0D15BA00743A121297D203756A040213F6F8
:102C2100BB010689828A83E0225002E722BBFE02B1
:092C3100E32289828A83E49322E4
:102C3A00BB010CE58229F582E5833AF583E022504F
:102C4A0006E92582F8E622BBFE06E92582F8E22299
:0D2C5A00E58229F582E5833AF583E49322B3
:102C6700BB010689828A83F0225002F722BBFE014C
:022C7700F32246
:102C7900FAE6FB0808E6F925F0F618E6CA3AF6225C
:102C8900D083D082F8E4937012740193700DA3A3DA
:102C990093F8740193F5828883E4737402936860EE
:062CA900EFA3A3A380DFEE
:103AA400EFB40A07740D123AAF740A309811A8994A
:103AB400B8130CC2983098FDA899C298B811F63082
:073AC40099FDC299F599225A
:00000001FF
