:1000000002298802079E90BDF17422F000000000D2
:1000100090BCF0E0FFE547C394105007120A9DEF33
:1000200060012212282DEF600122C20B7876E6646F
:100030005C6004E6B42F05752B7780177877E6644B
:100040003A60030200E618E6C3944350030200E658
:10005000752B79E54CB4031090020CE0FCA3E0FD95
:10006000A3E0FEA3E0FF8005E4FFFEFDFC8F3F8ED2
:100070003E8D3D8C3CA82BE6706F74FFF54BF54A26
:10008000F549F548E54C6403603F753F0290020F67
:10009000E0FBC3E5469BF546E5459400F545E544A0
:1000A0009400F544E5439400F54390020EA3E02547
:1000B000E0FEE4F54B8E4AF549F548AF22FCFDFE23
:1000C00090020C1217CA752280853F32853E318519
:1000D0003D30853C2FE4F555F554F553F552F53791
:1000E0007547127F4122752B76A82BE6B4E5027680
:1000F00005E53F700CE53C7008E53D7004E53E60A9
:1001000032852237E53F24FEFFE53E34FFFEE53D24
:1001100034FFFDE53C34FFFCA82E121792EF254674
:10012000F550EE3545F54FED3544F54EEC3543F5DC
:100130004D801F90020FE0F537CBC3E5469BF5508D
:10014000E5459400F54FE5449400F54EE5439400F1
:10015000F54DE53770030203F5121DB3EF60012280
:10016000E4F541F542C3E541940240030203DB7428
:10017000002542F52D74003541F52C852D82F5833F
:10018000E0FF7003020422EF64E570030203CDBFB9
:1001900005027FE5A82BE6FE6F6008EE642A600387
:1001A0000203CDE4F53BFFEFC3940B5078E52D2F10
:1001B000F582E4352CF583E0FEAD3BE52B2DF8EE22
:1001C00066605DAD3BE52B2DF8E66015AD3BE52B9C
:1001D0002DF8E6645C600AAD3BE52B2DF8E6B42F04
:1001E0001FEE6420703FEFC394085010E52D2408E3
:1001F000F582E4352CF583E0642070297F0B80259F
:10020000AE3BE52B2EF8E6B42E1BE53B6408600EF2
:10021000E52D2FF582E4352CF583E0B420077F0728
:100220000F053B8082EFC3940B500302030EE52DB4
:10023000240BF582E4352CF583E030E30302030E52
:10024000C209E52D241AFFE4352CFE122994E48F0F
:100250003F8E3EF53DF53CE54CB40310E52D2414EE
:10026000FFE4352CFE1229948E3C8F3DAF3BE52BED
:100270002FF8E66006200903020304853F32853E1D
:1002800031853D30853C2FE4F555F554F553F55255
:10029000F537E52D240BF582E4352CF583E030E4C9
:1002A0001F74FFF54BF54AF549F5487D137F101291
:1002B0002831EF6001223009047F4380027F412210
:1002C000E52D241CFFE4352CFE12294E8F4B8E4A5F
:1002D0008D498C48E53F7017E53C7013E53D700F84
:1002E000E53E700B7537FFF54BF54AF549F5487D4E
:1002F000147F10122831EF6001223009047F4380FF
:10030000027F0022E53B04252BF52B0200E9AF3BE1
:10031000E52B2FF8E6642A60030203CDE52D240BBC
:10032000F582E4352CF583E030E3030203CDE53BB1
:1003300004252BF8E67053E4FFF539E52D2FF582FF
:10034000E4352CF583E06420602FBF080AAE39E560
:100350002B2EF8762E0539E52D2FF582E4352CF578
:1003600083E0FEAD39E52B2DF8EEF6E5397008A8EF
:100370002BE6B4050276E505390FBF0BBEAF39E5B4
:100380002B2FF8E4F6D209020242E53B04252BF8B4
:10039000E6F47032E54B700CE5487008E5497004EE
:1003A000E54A6093E54830E7031229D9E54B24FF7D
:1003B000F54BE54A34FFF54AE54934FFF549E54890
:1003C00034FFF5488007E53B04252BF816742025FB
:1003D00042F542E43541F541020165E5502401F55D
:1003E00050E4354FF54FE4354EF54EE4354DF54DBF
:1003F0001537020152E53F700CE53C7008E53D7091
:1004000004E53E601D7F3CE4FD120D26EF600122F5
:1004100020090F85383C85393D853A3E853B3F02B2
:1004200000E9E4FFE52B2FF8E6FE6013642A600F75
:10043000EE645C6004EEB42F037FB3220F80E57F8F
:100440004222E5712465F8E60571227862300702E0
:100450007865E475F0011218730217432000EB7FF2
:100460002ED2008018EF540F2490D43440D4FF30A3
:10047000040BEF24BFB41A0050032461FFE572603F
:100480000215720575E5757002057430070D786206
:10049000E475F001121873EF02175C02273574033C
:1004A000D2078003E4C207F5718B628A638964E432
:1004B000F572F574F575E57260077F2012047D8092
:1004C000F57573FFC201C200C202C203C205C206B3
:1004D000C20812044BFF700D3007057F0012048E16
:1004E000AF75AE7422B4255FC2D5C20412044BFFAF
:1004F00024D0B40A00501A75F00A787230D5050875
:10050000B6FF0106C6A426F620D5047002D20380E9
:10051000D924CFB41A00EF5004C2E5D20402068EEB
:10052000D20180C6D20080C0D20280BCD2D580BAAF
:10053000D20580B47F2012047D2002077401B572B9
:100540000040F1120442FF12047D0204B6D208D228
:10055000068095120442FB120442FA120442F94A40
:100560004B7006795F7A077BFF20022EE572602AC6
:100570007E008E8275830012184660060EEE65734B
:1005800070F0C2D5EBC0E0EAC0E0E9C0E0EE1206D0
:10059000D5D0E0F9D0E0FAD0E0FB121743FF60AA13
:1005A000EBC0E0EAC0E0E9C0E012047DD0E0240145
:1005B000F9D0E03400FAD0E0FBE5730460DCD573D9
:1005C000D980877BFF7A0679D1D202809C7910800E
:1005D000027908C206C2088008D2D5790A80047957
:1005E0000AC2D5E573047002F573E4FAFDFEFF124A
:1005F0000442FC7B08200113120442FD7B103000F2
:100600000A120442FE120442FF7B20EC3382D59290
:10061000D55013C3E43000069FFFE49EFEE42001A2
:10062000039DFDE49CFCE4CBF8C201EC700CCFCE42
:10063000CDCCE824F8F870F38017C3EF33FFEE3326
:10064000FEED33FDEC33FCEB33FB994002FB0FD89E
:10065000E9EB300105F8D0E0C448B201C0E00AEC93
:100660004D4E4F78207B0070C2EAB5730040BCC08D
:10067000E01206D7D0F0D0E0200104C4C0E0C4B23C
:1006800001C0F0120466D0F0D5F0EB0204B61218E7
:100690002005535305CD5805244C05204205D14F64
:1006A00005D94405D94905394305DF5505C3460534
:1006B000C34505C347077F5005282D052C2E054F40
:1006C0002B053023054D2007682A04E84800000563
:1006D000473F3F3F00790AA2D5200314300509B9EE
:1006E00010020404B9080104A2D520060250010436
:1006F0002002689202B572005034C0E07F203003BF
:10070000197F30A20272067205500F12072EC20224
:10071000C206C205C2087F30800F300503E9C0E081
:1007200012047D300503D0E0F9D0E0B572CC30057D
:10073000177F30B9100C12047D7F583004077F7882
:100740008003B9080312047D3002057F2D02047D69
:100750007F202008F87F2B2006F322920280CF28EA
:100760006E756C6C2900D2011204423001F8C2018E
:10077000787230D50108F60204E82D50434958122A
:1007800004422403B405004001E490077A93120464
:100790006E743A12046ED2037572040205CDC0E085
:1007A000C083C082C0D075D0087F2212296D7547E2
:1007B000001229B28F22E52264026003020A867FBA
:1007C0002812296D1229B28F4CE54C700612295E51
:1007D000020A947A00797675560075570075587636
:1007E0001229B2AB56AA57A958EF12175C7401250B
:1007F00058F558E43557F557D54CE57877E6F418B1
:10080000666003020A947876E620E7030209EEE6C2
:10081000540C6003020A48754C00E54C787C667005
:10082000030209E27E007B00747D254CF9EE340062
:10083000FA121743F5227876E6540314700302097E
:100840005B14700302097D1470030209A324036082
:10085000030209BD7878E612182008828008948780
:1008600008A68808B88908CA9008DC9808EE990993
:1008700000A00912A80924B00936B80946C800002A
:1008800009567876E630E6068522800209BD858025
:10089000220209BD7876E630E6068522870209BD88
:1008A0008587220209BD7876E630E6068522880231
:1008B00009BD8588220209BD7876E630E6068522E4
:1008C000890209BD8589220209BD7876E630E606EF
:1008D0008522900209BD8590220209BD7876E63016
:1008E000E6068522980209BD8598220209BD787620
:1008F000E630E6068522990209BD8599220209BDE6
:100900007876E630E6068522A00209BD85A022029F
:1009100009BD7876E630E6068522A80209BD85A8DD
:10092000220209BD7876E630E6068522B00209BDCE
:1009300085B0220209BD7876E630E6058522B880CA
:100940007C85B82280777876E630E6058522C880F7
:100950006C85C822806775220080627876E6787898
:1009600030E60DE6F97A007B00E52212175C804D37
:10097000E6F97A007B00121743F52280407876E68C
:10098000787930E60FE6FE18E6FDEDF5828E83E518
:1009900022F08029E6FE18E6FDEDF5828E83E0F573
:1009A00022801A7876E630E604768080107879E640
:1009B000FE18E6FDEDF5828E83E493F5227876E667
:1009C00020E6127E007B00747D254CF9EE3400FA9F
:1009D000E52212175C787806E670020806054C02DC
:1009E000081A7876E630E65A787C76008054787675
:1009F000E624F060142410704F787D76101876018C
:100A00007876760012295E8047787D7609754C00ED
:100A1000755928755A0B855A82855983E493FFE5E9
:100A20004C7C007B00247DF9EC3400FAEF12175C5B
:100A3000600C054C055AE55A70DC055980D8787C65
:100A4000760D787676008008787C760078767680E9
:100A50007F2B12296D787CE62407F54CFF1229655F
:100A6000755600755700755876AB56AA57A9581297
:100A70001743FF12296574012558F558E43557F5D9
:100A800057D54CE5800EE522B40A028002E5227FAC
:100A90002312296DD0D0D082D083D0E032E547C375
:100AA0009403500712242DEF60012212297BE4F5F4
:100AB00026F525F524F523121DBFEF600A1226E264
:100AC000121DBFEF600122900000E0FF64EB603771
:100AD000EF64E96032E4FDED6440602874C22DF5F6
:100AE00082E43401F583E06015ED7E0024C6FFEE5C
:100AF0003401FE12294E9002001217CA801374109E
:100B00002DFD80D37F92229002001217EF0000008B
:100B100000900200E0FCA3E0FDA3E0FEA3E0F526C8
:100B20008E258D248C23121DBFEF600122900000C2
:100B3000E0FF64EB6008EF64E960037FA1229000AE
:100B40000DE0F52230E605752E06802E30E50575A0
:100B50002E05802630E405752E04801E30E30575D1
:100B60002E03801630E205752E02800E30E10575E9
:100B70002E018006752201E4F52E7E007F161229D3
:100B800094900206EEF0A3EFF04E70287E007F24D2
:100B900012294E8F328E318D308C2FE4FBFA790181
:100BA000F8D312176E50037FA222900206E531F0AF
:100BB000A3E532F0900014E0FF900013E04F6012C4
:100BC0007E007F13122994E48F3F8E3EF53DF53C65
:100BD000800F7E007F2012294E8F3F8E3E8D3D8CF0
:100BE0003C7E007F11122994EF240FFFE43EC4F8ED
:100BF00054F0C868FEEFC4540F48FFE4FCFD9002B7
:100C00000C1217CA7E007F0E122994E48F368E359F
:100C1000F534F533900206E0FEA3E0FFEF2536FF42
:100C2000EE3535FEE43534FDE43533FC90020CE05E
:100C3000F8A3E0F9A3E0FAA3E02FF546EA3EF54574
:100C4000E93DF544E83CF543900010E0D3940140C1
:100C500021900206E0FEA3E0FFE4FCFDE5462FF54F
:100C600046E5453EF545ED3544F544EC3543F54361
:100C70008007E4900206F0A3F0C3E53F9546FFE548
:100C80003E9545FEE53D9544FDE53C9543FCA82E8B
:100C900012177F9002081217CAE47BF57AFFF9F861
:100CA000D312176E401FE4900204F0A3F090020AE2
:100CB000E0FEA3E094F5EE940F5005754C018024FE
:100CC000754C02801F7E007F30122994900204EE42
:100CD000F0A3EFF07E007F2C12294E90020C121729
:100CE000CA754C03900200E0FCA3E0FDA3E0FEA364
:100CF000E02536F536EE3535F535ED3534F534ECA1
:100D00003533F533900200A3A3A3E02546F546EE64
:100D10003545F545ED3544F544EC3543F5437D1057
:100D20007F03122831228D62EFC8E54CB40207120E
:100D300017A578018008B403121217A578021217BC
:100D4000928F668E658D648C6380231217A58E63E7
:100D50008F64EF139209E563C313FEE56413256402
:100D6000FFE5633EFEE48F668E65F564F563EE5441
:100D700001FEEF2400F52DEE3400F52CAF66AE65D4
:100D8000AD64AC6312299EEF2536F566EE3535F578
:100D900065ED3534F564EC3533F563E566652A7049
:100DA00012E5656529700CE56465287006E56365E4
:100DB00027601D300A071221D9EF600122856323C5
:100DC000856424856525856626121DBFEF60012296
:100DD000E5626023B4FF028006E562B4010BE4F52E
:100DE00066F565F564F563800C852F66853065854D
:100DF0003164853263D20AE54C6402703F852D82EE
:100E0000852C83E0F538A3E0F53985383B85393A00
:100E1000E4F538F539AE3AAF3BC3EF94F7EE94FF03
:100E20004003D38001C39209E562600D852D828560
:100E30002C83E563F0A3E564F07F0022E54C6403B6
:100E4000705A852D82852C83E0FCA3E0FDA3E0FE93
:100E5000A3E0F53B8E3A8D398C38E53B54F0FFE545
:100E600066540F4FF566E53B540F85383BF538AFB8
:100E70003A85393A8F39AF38EFC3940F4003D380A6
:100E800001C39209E5626011AF66AE65AD64AC6303
:100E9000852D82852C831217CA7F002253640FC3CD
:100EA000E52D9400FFE52C9400FEEFF47003EE6452
:100EB00001604D852D82852C83E0F538A3E0F5395E
:100EC000E5627003020F75300923E563C454F0FF37
:100ED000E538540F4F852D82852C83F0E564C4548A
:100EE000F0FFE563C4540F4FA3F0020F75852D8208
:100EF000852C83E563F0E53954F04564A3F08075F3
:100F0000852D82852C83E0F538E562602230090E5C
:100F1000E563C454F0FFE538540F4FFF8002AF6320
:100F2000852D82852C83EFF01221D9EF600122E517
:100F30002A2401F526E43529F525E43528F524E4AD
:100F40003527F523121DBFEF600122900000E0F568
:100F500039E562602030090FE564C454F0FFE563B1
:100F6000C4540F4FFF8007E53954F04564FF9000EB
:100F700000EFF0D20A300913E539C454F0FFE53828
:100F8000C4540F4FF53BE539C4800585383BE5393E
:100F9000540FF53AE4F538F539AE3AAF3BC3EF9468
:100FA000F7EE940F4003D38001C392097F00221211
:100FB00027C78F5B1227E97BFF7A1879901204A468
:100FC000E547C39402501A1227A5EF60097BFF7A08
:100FD0001879A10204A47F641228A6122621EF70BA
:100FE000DFC2957FFA1228A6E4F55B7F641228A67B
:100FF0007BFF7A1879B51204A41223D3EF60090598
:101000005BE55BC3940540E37BFF7A1879BE12046D
:10101000A47F767C187DC41229041200068F5BE53C
:101020005B64B36009E55B644260030210BAE55B90
:10103000B4B308755E18755FD48006755E18755F69
:10104000D77565FF855E66855F677BFF7A1879E3F4
:101050001204A4E4F560F5617F76AD5FAC5E122901
:10106000048F5B74762FF876FFE485614B85604AC8
:10107000F549F5481200068F5BE55B644270030298
:101080001140E55BB4431A8560658561667567004C
:101090007568007569767BFF7A1879F11204A4806F
:1010A00005AF5B02113D0561E56170020560C39407
:1010B00010E560942740A1021140AF5B1227E9754B
:1010C0005DC87BFF7A197909756500855D66120434
:1010D000A4E55D605AD3941D4005755C1D800385B1
:1010E0005D5C7876A65C1219BA8F5B1227E9C3E5BE
:1010F0005D787696F55DE4F55BE55B787666601580
:101100007BFF7A1979267477255BF8E6F56512047A
:10111000A4055B80E47876E6C3955C50B47BFF7AE7
:101120001979291204A47BFF7A19792B1204A47B64
:10113000FF7A1979391204A41222AF8F5B1227E9C2
:10114000C2967BFF7A1979401204A47F767C197DC0
:10115000481229041211E28F5B1227E97BFF7A19EA
:1011600079551204A4755E19755F5CE4F55B855FC3
:1011700082855E83E493F55C7477255BF8A65CE575
:101180005C600F055FE55F7002055E055BE55BB4C3
:101190001DDCE55B600E7876A65B1215AF8F5B12E7
:1011A00027E980C77BFF7A1979391204A47876760B
:1011B000011222AF8F5B1227E9D2967BFF7A197951
:1011C000A71204A4E547C39402400D122621EF7034
:1011D000077F641228A680ECD2957F641228A602AD
:1011E0000FB71200068F37E537700A121E5FEF70D7
:1011F0000302132B22E53764426003AF3722C3E5B5
:101200004294E0E5419401500302132BE53F700F37
:10121000E53C700BE53D7007E53E70030212C9C363
:10122000E5509546FFE52214FE5FF537E54260087C
:10123000EE6537600302132B7F3CE4FD120D26EFB1
:1012400060012220090302132B121ACFEF60012242
:101250007F3C7D02120D26EF6001221221D9EF6042
:10126000012212297BE4FFFEEE64024F601374003A
:101270002FF58274003EF583E4F00FBF00010E806D
:10128000E7E4F537122566E5427010F541F5428531
:10129000265085254F85244E85234D852238E538F7
:1012A0006020121F02EF600122E5262401F526E4EA
:1012B0003525F525E43524F524E43523F5231538C3
:1012C00080DC122244EF606322E542705EE5502428
:1012D000FFF550E54F34FFF54FE54E34FFF54EE591
:1012E0004D34FFF54DF523121DB6EF600122E4F5F4
:1012F00041F542C3E5419402502E74002542FF742B
:101300000035418F82F583E0B4E510E582240BF5CA
:1013100082E43583F583E0540E601074202542F595
:1013200042E43541F54180CB7FB222121ACFEF6003
:1013300001221221D9EF60012285323F85313E859D
:10134000303D852F3C122244EF600122121DB3EF85
:1013500060012274002542FF74003541FEE4FDED7A
:10136000C3940B50047C2080027C00EF2DF582E4B6
:101370003EF583ECF00DBD20E6EF2418F582E43E47
:10138000F5837421F0A37430F0EF241CF582E43E61
:10139000F5837401F0E4FDEDC3940B5021A82BE616
:1013A000FC601BECB42E047D08052BA82BE6FCEF9B
:1013B0002DF582E43EF583ECF00D052B80D9853FB9
:1013C00038853E39853D3A853C3BEF241AF582E469
:1013D0003EF583E538F0A3E539F0EF2414F582E417
:1013E0003E121EF9EF600122853F32853E31853D78
:1013F00030853C2FE4F54BF54AF549F548F555F5B0
:1014000054F553F552F5377D147F101228312230F0
:101410000C0302242D754701122621EF60037F8201
:10142000227D157F071229187F191228D890BCF049
:10143000E07D157F061229187F0A1228D890BCF08B
:10144000E07D8F7F251228EE753A647F021228D83E
:10145000122621EF6006D53AF27F82227F141228ED
:10146000D87D467F01122663E5516003AF51227F8C
:10147000011228D87D457F05122663E5516003AF30
:1014800051227D137F851229187F051228D87D46A9
:101490007F02122663E5516003AF51221229A89002
:1014A000000EE0640860037F1F2290000BE0FD7FC8
:1014B000301228EEE4F53AAF3AEF75F007A42414A1
:1014C000FFE5F034008F82F583E0F53BA3A3E064F1
:1014D000407020E53B30E70CE53BC454F04409FD87
:1014E0007F32800AE53BC454F04401FD7F3312286B
:1014F000EE80037F1F22053AE53AB402BA7F01125B
:1015000028D8900005E0FF7D49122663E55160036D
:10151000AF5122E4FD7F311228EE7F021228D87DE0
:101520002B7F0812291890BCF074A1F0000074FE03
:10153000F00000E4F00000F0000090000BE090BC30
:10154000F0F00000E4F0000004F00000E4F07D8022
:101550007F1E1228EE7D4F7F0D122663E551702409
:101560007F011228D87D4F7F09122663E551701440
:101570007D2BFF1229187DC07F1E1228EE7D4F7F24
:1015800001122663E551600C7F011228D87D41E4E9
:10159000FF1226637F021228D87D247F12121CBFFF
:1015A000E55170077D037F0202283112216D22E58B
:1015B000476415600712270DEF6001227876E6F583
:1015C0002B7006300B0302173DE47876F6E52B709E
:1015D00003021735E537F47077E53F700CE53C7092
:1015E00008E53D7004E53E6025853255853154851A
:1015F0003053852F52121ADBEF6001227F527D0299
:10160000120D26EF6001221221D9EF60082212216B
:1016100000EF600122853255853154853053852F86
:101620005274FFF532F531F530F52F12224ECBEF23
:10163000CB85553285543185533085522FEB60016F
:1016400022854B55854A54854953854852E4F537E0
:10165000122566121DBFEF600122AF55E5545401FB
:10166000FEC3E49FFD74029EFCC3ED952BEC940039
:101670004005852B388006E555F404F53874002FB5
:10168000F58274003EAF82F52C8F2DAF38E4FCFD5F
:10169000FEE5552FF555EE3554F554ED3553F5531C
:1016A000EC3552F552C3E52B9538F52B7876E624C8
:1016B00077FFE53826F6C8EFC8E6852D82852C83AE
:1016C000F0052DE52D7002052C0FD538E9121F020B
:1016D000EF600122AF55AE54AD53AC52AB4BAA4AAA
:1016E000A949A848C312176E500E85554B85544A18
:1016F000855349855248D20BE55454014555600342
:101700000215CD0537E537C3952250030215CD7F6D
:101710002FE4FD120D26EF6001223009067537FF18
:101720000215CD85382F853930853A31853B32E435
:10173000F5370215CDE54030E406300B0302251FD6
:101740007F0022BB010689828A83E0225002E722C1
:10175000BBFE02E32289828A83E49322BB010689CD
:10176000828A83F0225002F722BBFE01F322EB9F14
:10177000F5F0EA9E42F0E99D42F0E89C45F022E84F
:10178000600FECC313FCED13FDEE13FEEF13FFD857
:10179000F122E8600FEFC333FFEE33FEED33FDECD3
:1017A00033FCD8F122E6FC08E6FD08E6FE08E6FF79
:1017B00022E6FB08E6F908E6FA08E6CBF822ECF6A2
:1017C00008EDF608EEF608EFF622ECF0A3EDF0A334
:1017D000EEF0A3EFF022D083D082E493F6087401F8
:1017E00093F608740293F608740393F6740473A8CE
:1017F000828583F0D083D082121806121806121840
:1018000006121806E473E493A3C583C5F0C583C824
:10181000C582C8F0A3C583C5F0C583C8C582C822E8
:10182000D083D082F8E4937012740193700DA3A357
:1018300093F8740193F5828883E47374029368606B
:10184000EFA3A3A380DFBB010CE58229F582E5832A
:101850003AF583E0225006E92582F8E622BBFE062F
:10186000E92582F8E222E58229F582E5833AF583CB
:10187000E49322FAE6FB0808E6F925F0F618E6CA32
:101880003AF6224572726F723A20253032580A00B9
:10189000496E7365727420555342206469736B0AF4
:1018A00000457869742055534220686F7374206D29
:1018B0006F64650A005265616479203F0A004F70C9
:1018C000656E0A002F4335312F434833373548467C
:1018D000542E43002F2A002F4335312F43483337EE
:1018E000352A004C6973742066696C652025730A7B
:1018F0000020206D617463682066696C6520253066
:101900003464233A2025730A00B4D3CEC4BCFED677
:10191000D0B6C1B3F6B5C4C7B02564B8F6D7D6B74C
:10192000FBCAC73A0A002543000A00CEC4BCFED257
:10193000D1BEADBDE1CAF80A00436C6F73650A0001
:101940004372656174650A002F4E455746494C4500
:101950002E5458540057726974650A004E6F7465AE
:101960003A200D0AD5E2B8F6B3CCD0F2CAC7D2D429
:10197000D7D6BDDACEAAB5A5CEBBBDF8D0D055C559
:10198000CCCEC4BCFEB6C1D0B42CB5A5C6ACBBFA97
:10199000D6BBD0E8D2AAD3D0363030D7D6BDDAB550
:1019A000C452414D0D0A0054616B65206F7574205F
:1019B000555342206469736B0A00E547641560075C
:1019C00012270DEF6001227876E6F52BE4F6E52B81
:1019D0007003021ACCE5545401FEC3E49555FF741C
:1019E000029EFEC3EF952BEE94004005852B3880B8
:1019F00006E555F404F538C3E54B9555FBE54A95E6
:101A000054FAE5499553F9E5489552F8AF38E4FCA6
:101A1000FDFED312176E500CC3E54B9555F538708B
:101A200003021ACC122566121DBFEF600122E55495
:101A30005401FE74002555F58274003EAF82F52CEA
:101A40008F2DAF38E4FCFDFEE5552FF555EE3554EE
:101A5000F554ED3553F553EC3552F552C3E52B955E
:101A600038F52B7876E62477FFE53826F6852D8243
:101A7000852C83E0C8EFC8F60F052DE52D70020513
:101A80002CD538E9E5545401455560030219CE05BB
:101A900037E537C3952250030219CE7F2FE4FD129C
:101AA0000D26EF6001223009117537FF85554B85F2
:101AB000544A855349855248801285382F853930DC
:101AC000853A31853B32E4F5370219CE7F00228515
:101AD0003F32853E31853D30853C2F900208E0FC49
:101AE000A3E0FDA3E0FEA3E0FFAB32AA31A930A83A
:101AF0002FD312176E40037FB122E5322401F53255
:101B0000E43531F531E43530F530E4352FF52F7F0C
:101B10002FE4FD120D26EF600122E53B700FE53842
:101B2000700BE5397007E53A7003021BC2E54C649F
:101B30000160A8752C00752D00E54C6402703375AA
:101B400038FF7402252DF52DF582E4352CF52CF5A2
:101B500083E07015A3E07011852D82852C8374FFBE
:101B6000F0A3F0E538F4048049D538D67532FF0289
:101B70001ADB75387F7404252DF52DF582E4352C9C
:101B8000F52CF583E07032A3E0702EA3E0702AA359
:101B9000E0540F7024852D82852C8374FFF0A3F010
:101BA000A3F0A3E0440FF0E5325480FFC3748095A6
:101BB000384FF532D20A7F0022D538B943327F023E
:101BC0001ADB7F2F7DFF120D2622E547C3941350A9
:101BD000037FB422121DB3EF600122C20A740025F4
:101BE00042FB74003541FA787EE6FFEB240BF58268
:101BF000E43AF583E0F6EFF460138B828A83E582A2
:101C0000240BF582E43583F583EFF0D20A787CE685
:101C1000F53B08E6F53AEB2416FFE43AFE12299468
:101C200018EEF608EFF6E53AF4FEE53BF44E6012E6
:101C3000EB2416F582E43AF583E53AF0A3E53BF0B0
:101C4000D20A787AE6F53B08E6F53AEB2418FFE489
:101C50003AFE12299418EEF608EFF6E53AF4FEE59E
:101C60003BF44E6012EB2418F582E43AF583E53A32
:101C7000F0A3E53BF0D20A78761217A57882121706
:101C8000BEEB241CFFE43AFE12294E78761217BEF2
:101C90007882E6F4601E1217A58F4B8E4A8D498C10
:101CA000481229BBEB241CF582E43AF5831217CACB
:101CB000D20AC20B300A05C20A021F027F0022129A
:101CC000275C78761217D655534243E4787FF6089E
:101CD000F608F67883F6F53A7D2B7F1F1229187FD8
:101CE000767876753B1FE690BCF0F008D53BF77F21
:101CF000311228C1CDEFCD8D3B7F1E1228EE7F33F0
:101D00001228C17D4F122663E551B416037F82224B
:101D1000E551600FE53A6003021DA0122377753A82
:101D20000180B57F321228C18F3A633B40787EE64E
:101D3000602C122658E5516012E551642E706153F3
:101D40003B7F7D41AF3A1226638013633B807885E9
:101D5000E6B403077889E6641260031229A8122604
:101D600058E551703BE53B6480FD7F311228EE90D1
:101D7000BDF17428F0000000007F76787690BCF00A
:101D8000E0F53BF53AE53B600A90BCF0E0F608155B
:101D90003B80F2E53AB40D087882E6C3940240062F
:101DA00075511F0223777882E67002FF2275511F5A
:101DB0007F1F22854D23854E24854F25855026E59E
:101DC00026652A7015E5256529700FE524652870BC
:101DD00009E52365277003021E5CE4F53A90BDF126
:101DE0007454F000000000E4F55190BCF0E526F0DA
:101DF0000000E525F00000E524F00000E523F000F8
:101E0000007401F07527007528007539081226B78F
:101E1000E551641D702BAF28AE271220908E278FBE
:101E20002890BDF17455F0D539E385232785242802
:101E300085252985262A1226B7E551B414037F008B
:101E400022E53AC39405500EE53AC39401400312CB
:101E5000216D053A808712297B02216D7F0022E5E2
:101E600047C394135007120006EF60012212282D79
:101E7000EF600122121DB3EF60012274002542FFC2
:101E8000740035418F82F58374E5F0121F02EF6014
:101E90000122AF3FAE3EAD3DAC3C8F3B8E3A8D391B
:101EA0008C38EC4D4E4F604EE53F24FFF53FE53E4C
:101EB00034FFF53EE53D34FFF53DE53C34FFF53CB0
:101EC000E4F532F531F530F52F7F387D01120D261E
:101ED000EF600122E5322401F532E43531F531E4D9
:101EE0003530F530E4352FF52F3009DD1221D9EFEB
:101EF00060012202224E7F0022F583E53AF0A3E53D
:101F00003BF0E4F53A90BDF17456F000000000E4B7
:101F1000F55190BCF0E526F00000E525F00000E565
:101F200024F00000E523F000007401F0752700752F
:101F300028007539081226B7E551641E7033AF28A2
:101F4000AE2712201E8E278F2890BDF17457F0D532
:101F500039E385232785242885252985262A1226E5
:101F6000B7E551B4140BE54020E5031229C77F0003
:101F700022E53AC39405500FE53AC3940140031299
:101F8000216D053A021F0512297B02216DE53F7084
:101F90000CE53C7008E53D7004E53E6072853F321B
:101FA000853E31853D30853C2FAF22E4FCFDFE7837
:101FB000761217B1C312176E40387F2FE4FD120D51
:101FC00026EF60012220094785382F853930853A70
:101FD00031853B3278761217A5AB22C3EF9BFFEE1B
:101FE0009400FEED9400FDEC9400FC78761217BE90
:101FF00080B77879E6FFE522145FF537122566AFE2
:1020000026AE25AD24AC2378761217BE7F0022754C
:1020100037FF78761217D6FFFFFFFF7F002290BDB3
:10202000F1742BF0E4F551E54054036403FD744072
:1020300090BCF0F0CD602A1460118F828E83E09006
:10204000BCF0F00FBF00010EDDF02205A28F828EE2
:1020500083E0A305A2F005A2DDF7AF82AE8305A25F
:1020600022EFC582F9EEC583C5A0F5F07D08E0A397
:10207000F3E0A3F3E0A3F3E0A3F3E0A3F3E0A3F31F
:10208000E0A3F3E0A3F3DDE685F0A0AF82AE832208
:1020900090BDF17428F0E4F551E54054036403FD6C
:1020A00090BCF0E0CD602A14601190BCF0E08F820B
:1020B0008E83F00FBF00010EDDF02205A28F828E0D
:1020C0008305A2E005A2F0A3DDF7AF82AE8305A2EF
:1020D00022EFC582F9EEC583C5A0F5F07D08E3F0D7
:1020E000A3E3F0A3E3F0A3E3F0A3E3F0A3E3F0A3FF
:1020F000E3F0A3E3F0A3DDE685F0A0AF82AE832298
:10210000121ADBEF6001221221D9EF600122853221
:102110003F85313E85303D852F3C121DB3EF600178
:102120002274002542FF74003541FEF583EF241C24
:10213000F582E43583F5837401F0853F38853E39B7
:10214000853D3A853C3B8F828E83E582241AF58259
:10215000E43583F583E538F0A3E539F08F828E838B
:10216000E5822414F582E43583121EF92275393292
:102170001229C2D539FA90BDF17422F00000000096
:1021800090BCF0E0E5516416600FE547640160091A
:102190007F201228C1EF20E5067547017F8222309B
:1021A0000C19E547C394034012855139E4F5519069
:1021B000BDF1745AF01226B7853951E547B41205BE
:1021C000754703800AE547D394104003754710E52F
:1021D0005170037F1022AF51228527238528248543
:1021E0002925852A26121F02EF600122900206E0AF
:1021F000FEA3E0FF4E6048E4FCFDE5262FF526E552
:10220000253EF525ED3524F524EC3523F523121F65
:1022100002EF600122900206E0FAA3E0FBC3E5268C
:102220009BF526E5259AF525E5249400F524E5237C
:102230009400F523F52785242885252985262AC29B
:102240000A7F002274FFF532F531F530F52F900248
:1022500004E0FEA3E0FF4E700122E4FCFD900200CA
:10226000E0F8A3E0F9A3E0FAA3E02FF526EA3EF5B3
:1022700025ED39F524EC38F523121DBFEF6001225E
:102280007E017FE812294EE5322FF532E5313EF529
:1022900031E5303DF530E52F3CF52FAF32AE31ADB5
:1022A00030FC1229BB9001E81217CA121F0222E566
:1022B00047C3941250037FB422E547B41239E54C6A
:1022C0006403603390020FE0F522E54AC313FF7EFA
:1022D00000E4FCFD90020C1217CA90020FE0FFE42C
:1022E000FCFDFEE5462FF546EE3545F545ED35445A
:1022F000F544EC3543F543E547D39413400AE547ED
:10230000B414077876E67002C20B300B0712251F53
:10231000EF60012212282D227537057D067F651298
:102320002918E4F54790BCF0E0B49A0F7D067F9A37
:1023300012291890BCF0E064656009122781D53736
:10234000DA7F812290BDF17401F000000000C20C20
:1023500090BCF0E0C394A24002D20C7547017D15F9
:102360007F061229187F011228D890BCF0E0B45FD4
:10237000037F81227F002285513B7F031228D812E0
:102380002621EF60067551827F82227F5212288AB1
:10239000E551B416037F8222E551702D7F3112285A
:1023A000C1EF543FFD7F311228EE0F1228C1EFC458
:1023B000540F4480FF7D411226637F331228C1EF02
:1023C000C4540FFF7D411226637F021228D8AF3B11
:1023D0008F5122122621EF60037F8222E547C394AA
:1023E00003502812140FEF600C7F321228D81214F9
:1023F0000FEF6001221226E2EF6010200C06122877
:102400004F1226E2E551600302216D300C077F591F
:1024100012288A8009E4FDFF12275C121CC2AF510A
:102420008F38EF7002FF2212284FAF382212262178
:10243000EF60037F82227F5112288AE551703D7D33
:10244000037F02122831300C307F381228C1EF6030
:10245000281229A8900000E0B4051E90BDF1740B6D
:10246000F00000000090BCF07434F000007401F043
:102470007F5812288AE55170037F00227D027F0277
:1024800012283102216D122621EF60037F8222E59E
:1024900047C39403501B12242DEF600C7F32122887
:1024A000D812242DEF6001221226E2EF60030221F0
:1024B0006D300C207F5912288AAF518F38EF70028F
:1024C000FF227F0A1228D87F5A12288A7F021228F8
:1024D000D8AF38227F0022E5476415600712270D28
:1024E000EF60012278761217A58F558E548D538C8C
:1024F00052AB4BAA4AA949A848C312176E500C8583
:102500004B55854A54854953854852AF55AE54AD15
:1025100053AC5212299E78761217BE121F8D22C21A
:102520000BE547C39414403B121DB3EF60012274C6
:10253000002542FB74003541FAF583EB240BF5824C
:10254000E43583F583E020E41AAF4BAE4AAD49ACE5
:10255000481229BBEB241CF582E43AF5831217CA12
:10256000021F027F0022E53224FEFFE53134FFFE28
:10257000E53034FFFDE52F34FFFCA82E121792EF53
:102580002546FBEE3545FAED3544F9EC3543F8E4E4
:10259000FCFDFEEB2537F526EE3AF525ED39F52461
:1025A000EC38F52322D294C2947F641228A6D294E8
:1025B0007F641228A612292C7BFF7A2579E3120466
:1025C000A4D2AFC294D2977BFF7A2579F91204A4E2
:1025D000120FAFC2977BFF7A26790C1204A4122641
:1025E0008880E25374617274204348333735206425
:1025F000656D6F202E2E2E0A0053657420555342B0
:1026000020686F7374206D6F64650A0053657420D1
:1026100055534220646576696365206D6F64650A71
:102620000090BDF17422F00000000090BCF0E0E4E6
:10263000F5517F201228C1EF30E517E547C394021A
:10264000400A7F1B1228C1EF547F70037547027F39
:1026500000227547017F8222AD3B7F1E1228EE7D4E
:102660004FAF3A90BDF1EDF000000000E4F551905D
:10267000BCF0EFF01226B7E551700475511022E559
:1026800051B41403E4F5512212286DE4F5471227E2
:10269000A5EF6013E547C394FA400C7BFF7A2879D5
:1026A000171204A402293DE547C394FA50020547D6
:1026B0007F011228A680D720B2FD90BDF17422F0D0
:1026C000535180E5516003E4F55190BCF0E0F551C1
:1026D000E551B4160475470122E551B41503754759
:1026E00002227538087F5312288AAF518F3BEF7052
:1026F00002FF227F0A1228D8300C057F5A12288A3E
:102700007F141228D8D538DDAF3B8F5122E54764BE
:102710001460037FB422853F32853E31853D30858C
:102720003C2FE4F555F554F553F552F5377D157FFB
:102730001412283122EFB40A07740D122740740ACC
:10274000309811A899B8130CC2983098FDA899C276
:1027500098B811F63099FDC299F59922787EEDF678
:1027600060047E8080027E007882EEF678847606B1
:1027700008EFF6E408F608F608F608EDF6E408F6C1
:1027800022753A8090BDF17401F00000000090BC09
:10279000F0E0FFD53AEE90BDF17405F000000000C6
:1027A0007F320228D820B31CD2947F321228A62070
:1027B000B31030B3FD7F321228A630B3FDC2947F30
:1027C0000122C2947F0022E581D394F040037FFC74
:1027D00022754005E4900000F01229D6EFC3943032
:1027E00050037FFF2212231822EF601E7BFF7A180E
:1027F00079837565008F661204A4C2957F641228E0
:10280000A6D2957F641228A680F02243483337353C
:102810002B4D435335310045786974205553422080
:10282000646576696365206D6F64650A007D107F5D
:1028300010E547C39F40028D47E5476D7002FF22B8
:10284000754701122621EF60037F82227F83227F5A
:102850000A1228D8300C077F5A12288A80077D1266
:102860007F03121CBF7F021228D8AF51227F15129E
:10287000296D7F021229657E641229B2EF645160CE
:1028800002DEF6C288C289D2A822E4F55190BDF1D9
:10289000EFF01226B7E551700475511022E551B4DE
:1028A0001403E4F55122EF60177EC874032562F526
:1028B00062DEF87EC874032562F562DEF81F80E6EA
:1028C0002290BDF1740AF00000000090BCF0EFF01F
:1028D00000006003E0FF2222EF75F005A4F53AE561
:1028E0003A600A1229C21229C2153A80F22290BD1A
:1028F000F1740BF00000000090BCF0EFF00000ED70
:10290000F00000228D828C83C8EFC8E4FFE493F6C8
:10291000600508A30F80F62290BDF1EDF0000000E5
:1029200000E4F55190BCF0EFF0000022759850756E
:102930008780758921758DF3D28ED29922C2A87FA6
:102940001512296DE4FF1229657F0A0228A68F82DD
:102950008E83E0FFA3E0FEA3E0FDA3E0FC227F1D49
:1029600012296D7F0E90BCF0EFF00229CCCEEFCE95
:102970001229D190BDF1EEF00229D174FFF52AF5AC
:1029800029F528F527C20A22787FE4F6D8FD75815B
:10299000930225A58F828E83E0FFA3E0FE22C3E48D
:1029A000CC13CD13CE13FF2212297B7E007F0002B1
:1029B00020901229CC90BCF0E0FF22EFCCFFEECDAE
:1029C000FE227F96DFFE227FFADFFE227F01DFFEFE
:0A29D000227F03DFFE227F30222267
:00000001FF
