:1000000002279790BDF17422F00000000090BCF030
:10001000E0FFE547C39410500712079BEF600122F1
:100020001226A7EF600122C20B7873E6645C6004BD
:10003000E6B42F05752B7480177874E6643A600374
:100040000200E318E6C3944350030200E3752B76E5
:10005000E54CB4031090121CE0FCA3E0FDA3E0FE0D
:10006000A3E0FF8005E4FFFEFDFC8F3F8E3E8D3D4B
:100070008C3CA82BE6706F74FFF54BF54AF549F5FB
:1000800048E54C6403603F753F0290121FE0FBC3DC
:10009000E5469BF546E5459400F545E5449400F5B5
:1000A00044E5439400F54390121EA3E025E0FEE4EE
:1000B000F54B8E4AF549F548AF22FCFDFE90121C27
:1000C000120D1B752280853F32853E31853D30857E
:1000D0003C2FE4F555F554F553F552F537754712B5
:1000E0007F4122752B73A82BE6B4E5027605E53F28
:1000F000700CE53C7008E53D7004E53E60328522F9
:1001000037E53F24FEFFE53E34FFFEE53D34FFFDCD
:10011000E53C34FFFCA82E120CE3EF2546F550EE2B
:100120003545F54FED3544F54EEC3543F54D801F23
:1001300090121FE0F537CBC3E5469BF550E545949B
:1001400000F54FE5449400F54EE5439400F54DE588
:100150003770030203F2121D69EF600122E4F541DA
:10016000F542C3E541940240030203D874002542DE
:10017000F52D74003541F52C852D82F583E0FF7057
:100180000302041FEF64E570030203CABF05027F88
:10019000E5A82BE6FE6F6008EE642A60030203CA3E
:1001A000E4F53BFFEFC3940B5078E52D2FF582E487
:1001B000352CF583E0FEAD3BE52B2DF8EE66605D5A
:1001C000AD3BE52B2DF8E66015AD3BE52B2DF8E6B4
:1001D000645C600AAD3BE52B2DF8E6B42F1FEE649E
:1001E00020703FEFC394085010E52D2408F582E4F9
:1001F000352CF583E0642070297F0B8025AE3BE52C
:100200002B2EF8E6B42E1BE53B6408600EE52D2F7F
:10021000F582E4352CF583E0B420077F070F053B1A
:100220008082EFC3940B500302030BE52D240BF5E2
:1002300082E4352CF583E030E30302030BC209E5C9
:100240002D241AFFE4352CFE1227B9E48F3F8E3E91
:10025000F53DF53CE54CB40310E52D2414FFE435E1
:100260002CFE1227B98E3C8F3DAF3BE52B2FF8E6D5
:100270006006200903020301853F32853E31853D3A
:1002800030853C2FE4F555F554F553F552F537E537
:100290002D240BF582E4352CF583E030E41F74FF48
:1002A000F54BF54AF549F5487D137F101226ABEF63
:1002B0006001223009047F4380027F4122E52D2422
:1002C0001CFFE4352CFE12277A8F4B8E4A8D498C09
:1002D00048E53F7017E53C7013E53D700FE53E7053
:1002E0000B7537FFF54BF54AF549F5487D147F103E
:1002F0001226ABEF6001223009047F4380027F00A9
:1003000022E53B04252BF52B0200E6AF3BE52B2F26
:10031000F8E6642A60030203CAE52D240BF582E4A3
:10032000352CF583E030E3030203CAE53B04252BBB
:10033000F8E67053E4FFF539E52D2FF582E4352C0E
:10034000F583E06420602FBF080AAE39E52B2EF854
:10035000762E0539E52D2FF582E4352CF583E0FE68
:10036000AD39E52B2DF8EEF6E5397008A82BE6B48B
:10037000050276E505390FBF0BBEAF39E52B2FF827
:10038000E4F6D20902023FE53B04252BF8E6F470BF
:1003900032E54B700CE5487008E5497004E54A60A9
:1003A00093E54830E7031214DAE54B24FFF54BE5FB
:1003B0004A34FFF54AE54934FFF549E54834FFF58D
:1003C000488007E53B04252BF81674202542F542AA
:1003D000E43541F541020162E5502401F550E43570
:1003E0004FF54FE4354EF54EE4354DF54D153702DA
:1003F000014FE53F700CE53C7008E53D7004E53EBB
:10040000601D7F3CE4FD120A24EF60012220090FE9
:1004100085383C85393D853A3E853B3F0200E6E420
:10042000FFE52B2FF8E6FE6013642A600FEE645C94
:100430006004EEB42F037FB3220F80E57F4222E5F4
:100440006E2462F8E6056E22785F3007027862E477
:1004500075F001120EBE020E662000EB7F2ED20058
:100460008018EF540F2490D43440D4FF30040BEFA5
:1004700024BFB41A0050032461FFE56F6002156FBA
:100480000572E5727002057130070D785FE475F052
:1004900001120EBEEF020EAC0226187403D20780C2
:1004A00003E4C207F56E8B5F8A608961E4F56FF53E
:1004B00071F572E56F60077F2012047A80F5757020
:1004C000FFC201C200C202C203C205C206C20812B4
:1004D0000448FF700D3007057F0012048BAF72AE29
:1004E0007122B4255FC2D5C204120448FF24D0B4DF
:1004F0000A00501A75F00A786F30D50508B6FF016A
:1005000006C6A426F620D5047002D20380D924CFD3
:10051000B41A00EF5004C2E5D20402068BD2018067
:10052000C6D20080C0D20280BCD2D580BAD20580AB
:10053000B47F2012047A2002077401B56F0040F1E5
:1005400012043FFF12047A0204B3D208D206809547
:1005500012043FFB12043FFA12043FF94A4B7006A3
:10056000795C7A077BFF20022EE56F602A7E008E81
:1005700082758300120E7F60060EEE657070F0C209
:10058000D5EBC0E0EAC0E0E9C0E0EE1206D2D0E070
:10059000F9D0E0FAD0E0FB120E66FF60AAEBC0E0F3
:1005A000EAC0E0E9C0E012047AD0E02401F9D0E02A
:1005B0003400FAD0E0FBE5700460DCD570D98087A8
:1005C0007BFF7A0679CED202809C7910800279086E
:1005D000C206C2088008D2D5790A8004790AC2D539
:1005E000E570047002F570E4FAFDFEFF12043FFCB2
:1005F0007B0820011312043FFD7B1030000A120417
:100600003FFE12043FFF7B20EC3382D592D550137E
:10061000C3E43000069FFFE49EFEE42001039DFD3D
:10062000E49CFCE4CBF8C201EC700CCFCECDCCE85E
:1006300024F8F870F38017C3EF33FFEE33FEED3389
:10064000FDEC33FCEB33FB994002FB0FD8E9EB30B8
:100650000105F8D0E0C448B201C0E00AEC4D4E4FAD
:1006600078207B0070C2EAB5700040BCC0E0120682
:10067000D4D0F0D0E0200104C4C0E0C4B201C0F086
:10068000120463D0F0D5F0EB0204B3120ECE055085
:100690005305CA5805214C051D4205CE4F05D644C9
:1006A00005D64905364305DC5505C04605C0450558
:1006B000C047077C5005252D05292E054C2B052DFF
:1006C00023054A2007652A04E548000005443F3F0A
:1006D0003F00790AA2D5200314300509B91002049D
:1006E00004B9080104A2D5200602500104200268C2
:1006F0009202B56F005034C0E07F203003197F3084
:10070000A20272067205500F12072BC202C206C265
:1007100005C2087F30800F300503E9C0E012047A7B
:10072000300503D0E0F9D0E0B56FCC3005177F304D
:10073000B9100C12047A7F583004077F788003B90F
:10074000080312047A3002057F2D02047A7F2020EC
:1007500008F87F2B2006F322920280CF286E756C5A
:100760006C2900D20112043F3001F8C201786F30C9
:10077000D50108F60204E52D5043495812043F24E0
:1007800003B405004001E49007779312046B743AB8
:1007900012046BD203756F040205CAE547C39403C4
:1007A00050071223B1EF60012212278AE4F526F5E3
:1007B00025F524F523121D75EF600A1225ED121D93
:1007C00075EF600122900000E0FF64EB6037EF649A
:1007D000E96032E4FDED6440602874C22DF582E4E6
:1007E0003401F583E06015ED7E0024C6FFEE340190
:1007F000FE12277A901210120D1B801374102DFD1B
:1008000080D37F9222901210120D400000000090C1
:100810001210E0FCA3E0FDA3E0FEA3E0F5268E2588
:100820008D248C23121D75EF600122900000E0FFE3
:1008300064EB6008EF64E960037FA12290000DE0A3
:10084000F52230E605752E06802E30E505752E055D
:10085000802630E405752E04801E30E305752E03D6
:10086000801630E205752E02800E30E105752E01EE
:100870008006752201E4F52E7E007F161227B990BE
:100880001216EEF0A3EFF04E70287E007F241227A0
:100890007A8F328E318D308C2FE4FBFA7901F8D3C8
:1008A000120CBF50037FA222901216E531F0A3E58F
:1008B00032F0900014E0FF900013E04F60127E00D1
:1008C0007F131227B9E48F3F8E3EF53DF53C800F34
:1008D0007E007F2012277A8F3F8E3E8D3D8C3C7E9E
:1008E000007F111227B9EF240FFFE43EC4F854F043
:1008F000C868FEEFC4540F48FFE4FCFD90121C12C0
:100900000D1B7E007F0E1227B9E48F368E35F5342D
:10091000F533901216E0FEA3E0FFEF2536FFEE352B
:1009200035FEE43534FDE43533FC90121CE0F8A3C9
:10093000E0F9A3E0FAA3E02FF546EA3EF545E93DEC
:10094000F544E83CF543900010E0D3940140219039
:100950001216E0FEA3E0FFE4FCFDE5462FF546E5B8
:10096000453EF545ED3544F544EC3543F543800708
:10097000E4901216F0A3F0C3E53F9546FFE53E95DF
:1009800045FEE53D9544FDE53C9543FCA82E120C43
:10099000D0901218120D1BE47BF57AFFF9F8D312F0
:1009A0000CBF401FE4901214F0A3F090121AE0FE66
:1009B000A3E094F5EE940F5005754C018024754C1E
:1009C00002801F7E007F301227B9901214EEF0A330
:1009D000EFF07E007F2C12277A90121C120D1B75EF
:1009E0004C03901210E0FCA3E0FDA3E0FEA3E02581
:1009F00036F536EE3535F535ED3534F534EC353341
:100A0000F533901210A3A3A3E02546F546EE354535
:100A1000F545ED3544F544EC3543F5437D107F0352
:100A20001226AB228D5BEFC8E54CB40207120CF620
:100A300078018008B40312120CF67802120CE38FCE
:100A40005F8E5E8D5D8C5C8023120CF68E5C8F5DFC
:100A5000EF139209E55CC313FEE55D13255DFFE529
:100A60005C3EFEE48F5F8E5EF55DF55CEE5401FE4C
:100A7000EF2400F52DEE3400F52CAF5FAE5EAD5DDA
:100A8000AC5C1227C3EF2536F55FEE3535F55EED2C
:100A90003534F55DEC3533F55CE55F652A7012E5BC
:100AA0005E6529700CE55D65287006E55C6527606C
:100AB0001D300A07122213EF600122855C23855D39
:100AC00024855E25855F26121D75EF600122E55B9A
:100AD0006023B4FF028006E55BB4010BE4F55FF52B
:100AE0005EF55DF55C800C852F5F85305E85315D40
:100AF00085325CD20AE54C6402703F852D82852CDC
:100B000083E0F538A3E0F53985383B85393AE4F5DB
:100B100038F539AE3AAF3BC3EF94F7EE94FF40039C
:100B2000D38001C39209E55B600D852D82852C83FE
:100B3000E55CF0A3E55DF07F0022E54C6403705AAC
:100B4000852D82852C83E0FCA3E0FDA3E0FEA3E0DD
:100B5000F53B8E3A8D398C38E53B54F0FFE55F5418
:100B60000F4FF55FE53B540F85383BF538AF3A85BD
:100B7000393A8F39AF38EFC3940F4003D38001C3A4
:100B80009209E55B6011AF5FAE5EAD5DAC5C852D3B
:100B900082852C83120D1B7F0022535D0FC3E52D30
:100BA0009400FFE52C9400FEEFF47003EE64016006
:100BB0004D852D82852C83E0F538A3E0F539E55B82
:100BC0007003020C73300923E55CC454F0FFE53870
:100BD000540F4F852D82852C83F0E55DC454F0FFC2
:100BE000E55CC4540F4FA3F0020C73852D82852C55
:100BF00083E55CF0E53954F0455DA3F08075852D03
:100C000082852C83E0F538E55B602230090EE55CD7
:100C1000C454F0FFE538540F4FFF8002AF5C852DC0
:100C200082852C83EFF0122213EF600122E52A2443
:100C300001F526E43529F525E43528F524E43527A2
:100C4000F523121D75EF600122900000E0F539E5F3
:100C50005B602030090FE55DC454F0FFE55CC454CF
:100C60000F4FFF8007E53954F0455DFF900000EF1E
:100C7000F0D20A300913E539C454F0FFE538C45402
:100C80000F4FF53BE539C4800585383BE539540FF6
:100C9000F53AE4F538F539AE3AAF3BC3EF94F7EEE9
:100CA000940F4003D38001C392097F0022EF8DF09F
:100CB000A4A8F0CF8CF0A428CE8DF0A42EFE22EBB9
:100CC0009FF5F0EA9E42F0E99D42F0E89C45F02253
:100CD000E8600FECC313FCED13FDEE13FEEF13FF02
:100CE000D8F122E8600FEFC333FFEE33FEED33FDA2
:100CF000EC33FCD8F122E6FC08E6FD08E6FE08E647
:100D0000FF22E6FB08E6F908E6FA08E6CBF822EC53
:100D1000F608EDF608EEF608EFF622ECF0A3EDF09B
:100D2000A3EEF0A3EFF022D083D082E493F6087410
:100D30000193F608740293F608740393F67404732F
:100D4000A8828583F0D083D082120D57120D5712DE
:100D50000D57120D57E473E493A3C583C5F0C58303
:100D6000C8C582C8F0A3C583C5F0C583C8C582C8FD
:100D700022A42582F582E5F03583F58322E709F682
:100D80000870FA8046E709F20870FA803E88828C83
:100D900083E709F0A370FA807EE309F60870FA8011
:100DA00076E309F20870FA806E88828C83E309F09A
:100DB000A370FA806289828A83E0A3F60870FA80C1
:100DC0005689828A83E0A3F20870FA804A80D28032
:100DD000FA80C680D4806580F28031801080A68041
:100DE000EA809A80A880DA80E280CA803189828A8B
:100DF00083ECFAE493A3C8C582C8CCC583CCF0A326
:100E0000C8C582C8CCC583CC70E9800D89828A832D
:100E1000E493A3F60870F9ECFAA9F0EDFB228982BD
:100E20008A83ECFAE0A3C8C582C8CCC583CCF0A302
:100E3000C8C582C8CCC583CC70EA80DD89828A832C
:100E4000E493A3F20870F980CE88F0ED2402B40494
:100E50000050C4F582EB2402B4040050BA232345A9
:100E60008223900DCD73BB010689828A83E02250D4
:100E700002E722BBFE02E32289828A83E49322BB3B
:100E8000010CE58229F582E5833AF583E0225006DC
:100E9000E92582F8E622BBFE06E92582F8E222E592
:100EA0008229F582E5833AF583E49322BB01068922
:100EB000828A83F0225002F722BBFE01F322FAE677
:100EC000FB0808E6F925F0F618E6CA3AF622D083C0
:100ED000D082F8E4937012740193700DA3A393F879
:100EE000740193F5828883E4737402936860EFA3BE
:100EF000A3A380DF1200038F37E537700A121E1597
:100F0000EF700302103D22E53764426003AF3722E1
:100F1000C3E54294E0E5419401500302103DE53FF2
:100F2000700FE53C700BE53D7007E53E7003020F66
:100F3000DBC3E5509546FFE52214FE5FF537E54239
:100F40006008EE6537600302103D7F3CE4FD120A45
:100F500024EF60012220090302103D1218C2EF6045
:100F600001227F3C7D02120A24EF6001221222132B
:100F7000EF60012212278AE4FFFEEE64024F601345
:100F800074002FF58274003EF583E4F00FBF00017A
:100F90000E80E7E4F53712254CE5427010F541F577
:100FA0004285265085254F85244E85234D85223840
:100FB000E5386020121EB8EF600122E5262401F515
:100FC00026E43525F525E43524F524E43523F523F9
:100FD000153880DC12227EEF606322E542705EE508
:100FE0005024FFF550E54F34FFF54FE54E34FFF543
:100FF0004EE54D34FFF54DF523121D6CEF600122D7
:10100000E4F541F542C3E5419402502E74002542B7
:10101000FF740035418F82F583E0B4E510E582244A
:101020000BF582E43583F583E0540E6010742025BF
:1010300042F542E43541F54180CB7FB2221218C21D
:10104000EF600122122213EF60012285323F8531C9
:101050003E85303D852F3C12227EEF600122121D1D
:1010600069EF60012274002542FF74003541FEE4FF
:10107000FDEDC3940B50047C2080027C00EF2DF525
:1010800082E43EF583ECF00DBD20E6EF2418F582F6
:10109000E43EF5837421F0A37430F0EF241CF58254
:1010A000E43EF5837401F0E4FDEDC3940B5021A8F8
:1010B0002BE6FC601BECB42E047D08052BA82BE668
:1010C000FCEF2DF582E43EF583ECF00D052B80D985
:1010D000853F38853E39853D3A853C3BEF241AF5FE
:1010E00082E43EF583E538F0A3E539F0EF2414F50A
:1010F00082E43E121EAFEF600122853F32853E3111
:10110000853D30853C2FE4F54BF54AF549F548F52A
:1011100055F554F553F552F5377D147F101226AB73
:1011200022E4F508F509F558F559900404742FF0F8
:10113000E4A3F0900400120D4000000000900411A0
:101140007410F0750800750901C3E5599509E55853
:101150009508400302124D90041175F012E55912E2
:101160000D71E55875F012A42583F583E020E403A2
:10117000021242AE58AF597C007D12120CAD7404BD
:101180002FF974043EFA7B01C002C00178737C0021
:101190007D00D001D002120E4990040075F012E5D6
:1011A00059120D71E55875F012A42583F583E0FC02
:1011B000A3E0FDA3E0FEA3E0F53F8E3E8D3D8C3C19
:1011C0001200038F57E55770037FB322E557644140
:1011D0006003AF5722E5594558600E853F0D853EA7
:1011E0000C853D0B853C0A8025E54CB40317901215
:1011F0001CE0FCA3E0FDA3E0FEA3E0F50D8E0C8D4A
:101200000B8C0A8009E4F50DF50CF50BF50A12229A
:10121000E990040075F012E559120D71E55875F06A
:1012200012A42583F583E0FCA3E0FDA3E0FEA3E088
:10123000F53F8E3E8D3D8C3C121FD48F57E5576095
:1012400001220559E559700205580211497BFF7AC0
:101250001879048508628509631204A1E4F558F53C
:1012600059C3E5599509E5589508400302131B90A9
:10127000041175F012E559120D71E55875F012A4BC
:101280002583F583E030E403021310AE58AF597C98
:10129000007D12120CAD74042FF974043E756201C6
:1012A000F56389647BFF7A18792B1204A1AE58AFDD
:1012B000597C007D12120CAD74042FF974043EFAAF
:1012C0007B01C002C00178737C007D00D001D00298
:1012D000120E4990040075F012E559120D71E5588F
:1012E00075F012A42583F583E0FCA3E0FDA3E0FEE6
:1012F000A3E0F53F8E3E8D3D8C3C1200038F57E5F9
:1013000057700D787B762008F67873760112167682
:101310000559E5597002055802126122E547D39438
:10132000145007E547C3941250037FB4227873E644
:10133000FF08F67006300B030214D4E47873F678D5
:1013400075F608F67874E67003021458E537F47001
:101350004AE53F700CE53C7008E53D7004E53E60F1
:101360002DE547B41209E54C640360037FB122AF59
:1013700032AE31AD30AC2F787D120D0F1218CEEF9A
:101380006001227F7D7D02120A24EF600822122173
:101390003AEF600122787616E4F53712254C78751D
:1013A000E6C39440502FE66037E6FFE4FCFDFE788C
:1013B00077120D02EF2BFFEE3AFEED39FDEC38FC13
:1013C000EF6526FFEE6525FEED6524FDEC6523FC4B
:1013D0004D4E4F600B121AB2EF600122E47875F6A1
:1013E0007875E6700DAF26AE25AD24AC2378771264
:1013F0000D0FC3E5229537FF7874E6FEEFD39E40CC
:101400000CE60826F618E62537F537804B7875EF99
:1014100026F6C318E69FF6E670187400787C6670AE
:101420000474001866700B121AB2EF600122E4789F
:1014300075F67F2FE4FD120A24EF600122300906C1
:101440007537FF02134485382F853930853A318549
:101450003B32E4F537021344300A07122213EF60DF
:1014600001227875E66007121AB2EF6001227876E1
:10147000E66035AF32AE31AD30AC2F787D120D0F56
:101480007876E6FFE4EFF53274FFF531F530F52FAD
:10149000122288CBEFCB787D120CF68F328E318DF5
:1014A000308C2FEB6002FF22AF55AE54AD53AC52DF
:1014B000AB4BAA4AA949A848C3120CBF500E855588
:1014C0004B85544A855349855248D20BE54030E458
:1014D00006300B030225057F002274002542F55CCF
:1014E00074003541F55B855C82F583E0642E700302
:1014F000021675E55C240BF582E4355BF583E0208C
:10150000E449E55C2408F582E4355BF583E0FFB44B
:101510004813E55C2409F582E4355BF583E064203B
:101520007003021675EFB44522E55C2409F582E4E8
:10153000355BF583E0B45813E55C240AF582E435A5
:101540005BF583E06445700302167590040475F042
:1015500012E509120D71E50875F012A42583AF821A
:10156000F55D8F5EE4FFE55C2FF582E4355BF58386
:10157000E0FEEF7005BE05027EE5EE64206024BF4C
:101580000811855E82855D83742EF0055EE55E70D0
:1015900002055D855E82855D83EEF0055EE55E7029
:1015A00002055D0FBF0BBF855E82855D83E4F0AFF2
:1015B0000DAE0CAD0BAC0A90040075F012E50912EB
:1015C0000D71E50875F012A42583F583120D1BE556
:1015D0005C240BF582E4355BF583E0FF9004117524
:1015E000F012E509120D71E50875F012A42583F5D6
:1015F00083EFF0E55C240BF582E4355BF583E030A6
:10160000E427850862850963AE08AF097C007D1276
:10161000120CAD74042FF974043E756401F56589EC
:10162000667BFF7A18793A8025850862850963AE62
:1016300008AF097C007D12120CAD74042FF97404FC
:101640003E756401F56589667BFF7A187948120456
:10165000A10509E50970020508C394C8E5089400CE
:101660004013E4754B01F54AF549F5487BFF7A18BC
:1016700079561204A122E547D394145007E547C3D5
:10168000941250037FB4227873E608F6E418F678D3
:1016900075F6C3E54B9555FFE54A9554FEE549952A
:1016A00053FDE5489552FC1227C38F3B8E3A8D3986
:1016B0008C38E5397004E53A6006787676FF800468
:1016C0007876A63B7874E6700302179F7876E6700A
:1016D0000302179FE537F4700302179F12254C7819
:1016E00075E6C39440502FE66037E6FFE4FCFDFE4C
:1016F0007877120D02EF2BFFEE3AFEED39FDEC3854
:10170000FCEF6526FFEE6525FEED6524FDEC652307
:10171000FC4D4E4F600B121BA7EF600122E4787561
:10172000F67875E6700DAF26AE25AD24AC2378773C
:10173000120D0FC3E5229537FFF5387876E6FEEFF8
:10174000D39E4003E6F538E538D3787496400CE62E
:101750000826F618E62537F5378049C37874E695EC
:1017600038F608E53826F6C308E69538F6E5382554
:1017700037F537652260030216C47F2FFD120A2455
:10178000EF6001223009067537FF0216C485382F35
:10179000853930853A31853B32E4F5370216C47815
:1017A00075E66003021BA77F00224572726F723AD2
:1017B00020253032580A004C6973742044697265E0
:1017C00063746F72793A2025730A005375636365F9
:1017D00073732C206E65772046696C65436F756E58
:1017E00074203D2025640A004661696C65642C20E4
:1017F0006E65772046696C65436F756E74203D2079
:1018000025640A00546F74616C2066696C652664F7
:101810006972203D2025642C204F70656E2065760E
:101820006572792066696C653A0A004F70656E20B2
:1018300066696C653A2025730A0044697220253474
:1018400064233A2025730A0046696C6525346423B5
:101850003A2025730A0046696C654E616D65205318
:1018600074727563747572652046756C6C0A0053EA
:10187000746172740A005761697420556469736BEE
:101880000A005265616479203F0A00446576696305
:101890006520676F6E650A00556E6B6E6F776E2000
:1018A0006465766963650A004C69737420616C6CC9
:1018B0002066696C65200A0054616B65206F757441
:1018C0000A00853F32853E31853D30853C2F9012A0
:1018D00018E0FCA3E0FDA3E0FEA3E0FFAB32AA31D9
:1018E000A930A82FD3120CBF40037FB122E53224C8
:1018F00001F532E43531F531E43530F530E4352F9A
:10190000F52F7F2FE4FD120A24EF600122E53B70E2
:101910000FE538700BE5397007E53A70030219B529
:10192000E54C640160A8752C00752D00E54C64023F
:1019300070337538FF7402252DF52DF582E4352CB2
:10194000F52CF583E07015A3E07011852D82852CB0
:101950008374FFF0A3F0E538F4048049D538D675D8
:1019600032FF0218CE75387F7404252DF52DF582CF
:10197000E4352CF52CF583E07032A3E0702EA3E063
:10198000702AA3E0540F7024852D82852C8374FF68
:10199000F0A3F0A3F0A3E0440FF0E5325480FFC3BE
:1019A000748095384FF532D20A7F0022D538B9437A
:1019B000327F0218CE7F2F7DFF120A2422E547C313
:1019C000941350037FB422121D69EF600122C20AF2
:1019D00074002542FB74003541FA787BE6FFEB2466
:1019E0000BF582E43AF583E0F6EFF460138B828A1C
:1019F00083E582240BF582E43583F583EFF0D20A88
:101A00007879E6F53B08E6F53AEB2416FFE43AFE72
:101A10001227B918EEF608EFF6E53AF4FEE53BF4C6
:101A20004E6012EB2416F582E43AF583E53AF0A312
:101A3000E53BF0D20A7877E6F53B08E6F53AEB2489
:101A400018FFE43AFE1227B918EEF608EFF6E53A69
:101A5000F4FEE53BF44E6012EB2418F582E43AF50F
:101A600083E53AF0A3E53BF0D20A7873120CF678DE
:101A70007F120D0FEB241CFFE43AFE12277A7873D5
:101A8000120D0F787FE6F4601E120CF68F4B8E4A13
:101A90008D498C481227D7EB241CF582E43AF58354
:101AA000120D1BD20AC20B300A05C20A021EB87FF1
:101AB0000022E4F53A90BDF17456F000000000E415
:101AC000F551787AE690BCF0F0000018E6F00000DE
:101AD00018E6F0000018E6F000007875E6F08540A2
:101AE0003BE54013135403FFE54054FC4FF540E63B
:101AF00075F008A4F53985F0381225C2E551641E49
:101B0000707BE53B540C6013787BE6FE08E6FF1221
:101B10002058787BEEF608EFF6801790BDF1742B15
:101B2000F000000000E4F55190BCF07440F0FF12AA
:101B300027EC90BDF17457F0E5552440F555E43598
:101B400054F554E43553F553E43552F552E5396014
:101B500009D539A5E5386008809F15381539809971
:101B6000853B401225C2E551B41412E54020E5033F
:101B70001227E37875E6787326F67F0022853B40CE
:101B8000E53AC39405501C122461E540540C7004DE
:101B9000FF1227ECE53AC3940140031221A7053A4E
:101BA000021AB51221A722E4F53A90BDF17454F05F
:101BB00000000000E4F551787AE690BCF0F00000F7
:101BC00018E6F0000018E6F0000018E6F0000078D3
:101BD00075E6F085403BE54013135403FFE54054A0
:101BE000FC4FF540E675F008A4F53985F03812256C
:101BF000C2E551641D7071E53B540C6013787BE6BF
:101C0000FE08E6FF1220CA787BEEF608EFF6801594
:101C100090BDF17428F000000000E4F55190BCF094
:101C2000E0FF1227EB90BDF17455F0E5552440F527
:101C300055E43554F554E43553F553E43552F55233
:101C4000E5396009D539A7E538600880A115381550
:101C500039809B853B401225C2E551B4140A787542
:101C6000E6787326F67F0022853B40E53AC394056B
:101C7000501C122461E540540C7004FF1227EBE560
:101C80003AC3940140031221A7053A021BAA12216C
:101C9000A722D294C2947F641226E5D294122769B7
:101CA0007BFF7A18796F1204A11226638F561226D1
:101CB000857BFF7A1879761204A1E547C394025018
:101CC0000A12258B7F641226E580EFC2947FC8122A
:101CD00026E5E4F5567F321226E57BFF7A187982F5
:101CE0001204A11224B4EF601EE547C3940240170A
:101CF000E547C394034007E556D3940550090556BC
:101D0000E556C3946440CEE547C39402500B7BFF75
:101D10007A18798B1204A18098E547C39403500B7D
:101D20007BFF7A1879981204A1801A7F141226E595
:101D3000C2957BFF7A1879A81204A11211218F563F
:101D4000122685D2957BFF7A1879B81204A1E5474F
:101D5000C39402400A12258B7F641226E580EFD2DD
:101D6000947FC81226E5021CB1854D23854E24853B
:101D70004F25855026E526652A7015E525652970CD
:101D80000FE52465287009E52365277003021E12FC
:101D9000E4F53A90BDF17454F000000000E4F55110
:101DA00090BCF0E526F00000E525F00000E524F009
:101DB0000000E523F000007401F07527007528008D
:101DC0007539081225C2E551641D702BAF28AE2766
:101DD0001220CA8E278F2890BDF17455F0D539E3B3
:101DE00085232785242885252985262A1225C2E5CD
:101DF00051B414037F0022E53AC39405500EE53A2E
:101E0000C3940140031221A7053A808712278A0252
:101E100021A77F0022E547C394135007120003EF68
:101E20006001221226A7EF600122121D69EF6001F6
:101E30002274002542FF740035418F82F58374E5DA
:101E4000F0121EB8EF600122AF3FAE3EAD3DAC3C9C
:101E50008F3B8E3A8D398C38EC4D4E4F604EE53FBE
:101E600024FFF53FE53E34FFF53EE53D34FFF53D0B
:101E7000E53C34FFF53CE4F532F531F530F52F7FE4
:101E8000387D01120A24EF600122E5322401F53287
:101E9000E43531F531E43530F530E4352FF52F30C8
:101EA00009DD122213EF6001220222887F0022F551
:101EB00083E53AF0A3E53BF0E4F53A90BDF17456C2
:101EC000F000000000E4F55190BCF0E526F00000C1
:101ED000E525F00000E524F00000E523F0000074A3
:101EE00001F07527007528007539081225C2E551E3
:101EF000641E7033AF28AE271220588E278F28908B
:101F0000BDF17457F0D539E385232785242885252D
:101F10002985262A1225C2E551B4140BE54020E597
:101F2000031227E37F0022E53AC39405500FE53AF8
:101F3000C3940140031221A7053A021EBB12278A4F
:101F40000221A7E53F700CE53C7008E53D7004E513
:101F50003E6072853F32853E31853D30853C2FAFF6
:101F600022E4FCFDFE7873120D02C3120CBF403850
:101F70007F2FE4FD120A24EF6001222009478538F3
:101F80002F853930853A31853B327873120CF6ABA8
:101F900022C3EF9BFFEE9400FEED9400FDEC940055
:101FA000FC7873120D0F80B77876E6FFE522145F98
:101FB000F53712254CAF26AE25AD24AC237873122D
:101FC0000D0F7F00227537FF7873120D27FFFFFF7B
:101FD000FF7F00227562007563007564737BFF7A72
:101FE0001779B71204A17B007A00797312272D8F1D
:101FF0005AE55A60082472F8E6642F600AAF5A0561
:102000005A74732FF8762FAF5A055A74732FF876D7
:102010002A7473255AF876FF74FFF54BF54AF54993
:10202000F5481200038F5AE55A600964436005E5DC
:102030005AB442127BFF7A1779CB8508628509630F
:102040001204A17F00227BFF7A1779E88508628558
:1020500009631204A1AF5A2290BDF1742BF0E4F58C
:1020600051E54054036403FD744090BCF0F0CD6032
:102070002A1460118F828E83E090BCF0F00FBF00B5
:10208000010EDDF02205A28F828E83E0A305A2F06F
:1020900005A2DDF7AF82AE8305A222EFC582F9EE7D
:1020A000C583C5A0F5F07D08E0A3F3E0A3F3E0A3AA
:1020B000F3E0A3F3E0A3F3E0A3F3E0A3F3E0A3F3DF
:1020C000DDE685F0A0AF82AE832290BDF17428F0EA
:1020D000E4F551E54054036403FD90BCF0E0CD60AD
:1020E0002A14601190BCF0E08F828E83F00FBF0045
:1020F000010EDDF02205A28F828E8305A2E005A2EB
:10210000F0A3DDF7AF82AE8305A222EFC582F9EE20
:10211000C583C5A0F5F07D08E3F0A3E3F0A3E3F0E9
:10212000A3E3F0A3E3F0A3E3F0A3E3F0A3E3F0A3BE
:10213000DDE685F0A0AF82AE83221218CEEF6001FB
:1021400022122213EF60012285323F85313E853015
:102150003D852F3C121D69EF60012274002542FF6E
:1021600074003541FEF583EF241CF582E43583F5D8
:10217000837401F0853F38853E39853D3A853C3B87
:102180008F828E83E582241AF582E43583F583E518
:1021900038F0A3E539F08F828E83E5822414F5822E
:1021A000E43583121EAF227539321227DED539FA93
:1021B00090BDF17422F00000000090BCF0E0E55109
:1021C0006416600FE547640160097F20122700EF65
:1021D00020E5067547017F8222300C19E547C3943C
:1021E000034012855139E4F55190BDF1745AF01253
:1021F00025C2853951E547B41205754703800AE5C4
:1022000047D394104003754710E55170037F1022A7
:10221000AF5122852723852824852925852A261242
:102220001EB8EF600122901216E0FEA3E0FF4E60A0
:1022300048E4FCFDE5262FF526E5253EF525ED35A0
:1022400024F524EC3523F523121EB8EF600122900B
:102250001216E0FAA3E0FBC3E5269BF526E5259AD6
:10226000F525E5249400F524E5239400F523F527CE
:1022700085242885252985262AC20A7F002274FF05
:10228000F532F531F530F52F901214E0FEA3E0FFA2
:102290004E700122E4FCFD901210E0F8A3E0F9A3D7
:1022A000E0FAA3E02FF526EA3EF525ED39F524EC1A
:1022B00038F523121D75EF6001227E017FE8122799
:1022C0007AE5322FF532E5313EF531E5303DF53036
:1022D000E52F3CF52FAF32AE31AD30FC1227D79051
:1022E00001E8120D1B121EB822E547C394125003D9
:1022F0007FB422E547B41239E54C64036033901291
:102300001FE0F522E54AC313FF7E00E4FCFD9012B6
:102310001C120D1B90121FE0FFE4FCFDFEE5462F92
:10232000F546EE3545F545ED3544F544EC3543F5D8
:1023300043E547D39413400AE547B414077873E69E
:102340007002C20B300B07122505EF600122122626
:10235000A7227537057D067F65122742E4F5479071
:10236000BCF0E0B49A0F7D067F9A12274290BCF031
:10237000E06465600912263FD537DA7F812290BD7F
:10238000F17401F000000000C20C90BCF0E0C394B6
:10239000A24002D20C7547017D157F061227427FAD
:1023A0000112271790BCF0E0B45F037F81227F0009
:1023B0002212258BEF60037F82227F511226C9E50E
:1023C00051703D7D037F021226AB300C307F3812F6
:1023D0002700EF60281227CD900000E0B4051E9082
:1023E000BDF1740BF00000000090BCF07434F000FC
:1023F000007401F07F581226C9E55170037F002256
:102400007D027F021226AB0221A7E547C39412503A
:10241000037FB422AF4BAE4AAD49AC481227C38FFD
:102420003B8E3A8D398C387873120D02D3120CBF63
:10243000400DAF3BAE3AAD39AC387873120D0F7822
:1024400073120CF67801120CE38F3B8E3A8D398CA7
:1024500038853952853A53853B54E4F555121F436C
:10246000227875E67D0025E0FCE539AE387806C3B4
:1024700033CE33CED8F9FFC3ED9FF539EC9EF53856
:10248000AE38AF39CBEFCBCAEECAC3E5559FF55591
:10249000E5549AF554E5539400F553E5529400F54C
:1024A00052C3E49539FFE49538FE787CEF26F618A0
:1024B000EE36F62212258BEF60037F8222E547C3BA
:1024C0009403501B1223B1EF600C7F3212271712B6
:1024D00023B1EF6001221225EDEF60030221A73046
:1024E0000C207F591226C9AF518F38EF7002FF229E
:1024F0007F0A1227177F5A1226C97F02122717AFA9
:1025000038227F0022C20BE547C39414403B121DC2
:1025100069EF60012274002542FB74003541FAF531
:1025200083EB240BF582E43583F583E020E41AAFD6
:102530004BAE4AAD49AC481227D7EB241CF582E4D8
:102540003AF583120D1B021EB87F0022E53224FEED
:10255000FFE53134FFFEE53034FFFDE52F34FFFCAD
:10256000A82E120CE3EF2546FBEE3545FAED354477
:10257000F9EC3543F8E4FCFDFEEB2537F526EE3AA1
:10258000F525ED39F524EC38F5232290BDF17422C0
:10259000F00000000090BCF0E0E4F5517F2012272D
:1025A00000EF30E517E547C39402400A7F1B12276E
:1025B00000EF547F70037547027F00227547017F4B
:1025C000822220B2FD90BDF17422F0535180E5517A
:1025D0006003E4F55190BCF0E0F551E551B4160408
:1025E00075470122E551B415037547022275380875
:1025F0007F531226C9AF518F3BEF7002FF227F0A33
:10260000122717300C057F5A1226C97F141227177C
:10261000D538DDAF3B8F5122EFB40A07740D122677
:1026200023740A309811A899B8130CC2983098FDF9
:10263000A899C298B811F63099FDC299F5992275FA
:102640003A8090BDF17401F00000000090BCF0E011
:10265000FFD53AEE90BDF17405F0000000007F3226
:10266000022717E581D394F040037FFC22754005D3
:10267000E4900000F01227E8EFC3943050037FFF8E
:102680002212235222EF601E7BFF7A1779AA75620D
:10269000008F631204A1C2947FC81226E5D2947FF2
:1026A000C81226E580F0227D107F10E547C39F40C9
:1026B000028D47E5476D7002FF2275470112258B99
:1026C000EF60037F82227F8322E4F55190BDF1EF1A
:1026D000F01225C2E551700475511022E551B41471
:1026E00003E4F55122EF60177EC874032557F557B0
:1026F000DEF87EC874032557F557DEF81F80E62202
:1027000090BDF1740AF00000000090BCF0EFF00002
:10271000006003E0FF2222EF75F005A4F53AE53AE8
:10272000600A1227DE1227DE153A80F222E4FFFE4D
:10273000120E66600C0FEF70010E09E970F20A804C
:10274000EF2290BDF1EDF000000000E4F55190BCE7
:10275000F0EFF00000228D828C83A807E4FFE49361
:10276000F6600508A30F80F622759850758780756E
:102770008921758DF3D28ED299228F828E83E0FFCC
:10278000A3E0FEA3E0FDA3E0FC2274FFF52AF529F7
:10279000F528F527C20A22787FE4F6D8FD758190E6
:1027A000021C92787B760208760012167622787BDD
:1027B000760208760012131C228F828E83E0FFA31C
:1027C000E0FE22C3E4CC13CD13CE13FF2212278ADE
:1027D0007E007F000220CAEFCCFFEECDFE227F9666
:0D27E000DFFE227FFADFFE227F3022222260
:00000001FF
