:10000000021D45D294C2947F64121CB5D294121D75
:10001000247BFF7A107989120909121C378F561236
:100020001C597BFF7A107990120909E547C39402A5
:10003000500D121B37EF60077F14121CB580ECC205
:10004000947FFA121CB5E4F5567F64121CB57BFF51
:100050007A10799C120909121A0FEF60090556E50A
:1000600056C3940540E3C2957BFF7A1079A5120927
:10007000097F737C107DAB121D111204698F56E548
:100080005664B36009E5566442600302013DE556DB
:10009000B4B308755D10755EBB8006755D10755E46
:1000A000BE7562FF855D63855E647BFF7A1079CAE9
:1000B000120909E4F5577F73AD5EAC5D121D118F17
:1000C0005674732FF8A6571204698F56E55664428A
:1000D000602FE556B4431A75620085576375640056
:1000E0007565007566737BFF7A1079D812090980EF
:1000F00007AF56121C5980090557E557C394FE40B7
:10010000B5755D10755EF0E4F556855E82855D839C
:10011000E493FF74002556F582E43402F583EFF092
:10012000600F055EE55E7002055D0556E556B4FF9D
:10013000D975590085565A75580102025EAF56129C
:100140001C597BFF7A11790C120909E4FF7E78FDB6
:10015000FCAB4BAA4AA949A848D31211BF400B7562
:10016000583C755978755A00801FE54B24FFFFE510
:100170004A3401FEE43549FDE43548FC78091211A2
:10018000D08F58854A59854B5A7BFF7A1179128551
:100190004B65854A64854963854862855966855AF9
:1001A000677568008558691209097873A658E54B88
:1001B00024FFF54BE54A3401F54AE43549F549E4B5
:1001C0003548F548121D518F56C3E54B94FFF54B4A
:1001D000E54A9401F54AE5499400F549E54894005B
:1001E000F548121C597BFF7A11792C120909121A51
:1001F000608F56121C59900264E0F556E4F0756267
:10020000017563027564007BFF7A11793312090965
:10021000900264E556F0E4F55BF55CC3E55C955A45
:10022000E55B955950387400255CF5827402355BA6
:10023000F583E0F557C39461401AE557D3947A509B
:1002400013E55724E0FF7400255CF5827402355BEA
:10025000F583EFF0055CE55C70C1055B80BDC2967F
:100260007FC8121CB5D2967BFF7A11793F1209091B
:100270007F737C117D46121D111204698F56E5565D
:1002800064B36009E55664426003020395E4F557E0
:100290007BFF7A11795675620085576312090978D8
:1002A00073762F08762A0876FFE485574BF54AF5D2
:1002B00049F5481204698F56E5566443600302030A
:1002C0009574FFFFFEFDFCAB4BAA4AA949A848C3A1
:1002D0001211BF70030203777562007563007564C5
:1002E000737BFF7A117968120909E4F55674732556
:1002F00056F8E660070556E556B41EF1E556601F50
:10030000155674732556F8E6642E601374732556DB
:10031000F8E6642F600974732556F8E6B45CDD7462
:10032000732556F8E6642E7060055674732556F8EA
:10033000E6B4430874742556F8E66036747325569F
:10034000F8E6B4480874742556F8E66025747325F9
:1003500056F8E66454703274742556F8E6645870A2
:100360002874752556F8E6B4541F74762556F8E6B9
:100370007017E4F556801E7562007563007564732E
:100380007BFF7A1179771209090557E557C3946401
:100390005003020290E55664B37003020440E55630
:1003A00064427003020440AF56121C59755B00751D
:1003B0005CC87BFF7A117985855B62855C63120975
:1003C00009E55C455B6068D3E55C941DE55B9400E2
:1003D000400575571D8003855C577873A657121426
:1003E000338F56121C597873E6FFC3E55C9FF55CAA
:1003F000E55B9400F55BE4F556E5567873666015A9
:100400007BFF7A1179A274742556F8E6F562120919
:1004100009055680E47873E6C3955750A47BFF7AAC
:100420001179A51209097BFF7A1179A71209097BB5
:10043000FF7A11792C120909121A608F56121C5971
:10044000D2957BFF7A1179B5120909E547C3940269
:10045000400D121B37EF70077F64121CB580ECD281
:10046000947FC8121CB502002290BDF17422F000E6
:1004700000000090BCF0E0FFE547C3941050071265
:100480000C03EF6001227D107F10121C7BEF6001D6
:10049000227873E6645C6004E6B42F05752B7480E3
:1004A000177874E6643A600302054B18E6C3944378
:1004B000500302054B752B76E54CB40310907A0877
:1004C000E0FCA3E0FDA3E0FEA3E0FF8005E4FFFE67
:1004D000FDFC8F3F8E3E8D3D8C3CA82BE6706F74EB
:1004E000FFF54BF54AF549F548E54C6403603F7567
:1004F0003F02907A0BE0FBC3E5469BF546E5459449
:1005000000F545E5449400F544E5439400F5439037
:100510007A0AA3E025E0FEE4F54B8E4AF549F5485A
:10052000AF22FCFDFE907A0812121B752280853FD7
:1005300032853E31853D30853C2FE4F555F554F547
:1005400053F552F5377547127F4122752B73A82B4F
:10055000E6B4E5027605E53F700CE53C7008E53D44
:100560007004E53E6032852237E53F24FEFFE53E1C
:1005700034FFFEE53D34FFFDE53C34FFFCA82E12C0
:1005800011E3EF2546F550EE3545F54FED3544F5D1
:100590004EEC3543F54D801F907A0BE0F537CBC319
:1005A000E5469BF550E5459400F54FE5449400F58C
:1005B0004EE5439400F54DE537700302085A1216D4
:1005C00033EF600122E4F541F542C3E54194024076
:1005D0000302084074002542F52D74003541F52CC6
:1005E000852D82F583E0FF7003020887EF64E570D4
:1005F00003020832BF05027FE5A82BE6FE6F600804
:10060000EE642A6003020832E4F53BFFEFC3940B6B
:100610005078E52D2FF582E4352CF583E0FEAD3BD7
:10062000E52B2DF8EE66605DAD3BE52B2DF8E66021
:1006300015AD3BE52B2DF8E6645C600AAD3BE52B80
:100640002DF8E6B42F1FEE6420703FEFC3940850DE
:1006500010E52D2408F582E4352CF583E064207044
:10066000297F0B8025AE3BE52B2EF8E6B42E1BE54B
:100670003B6408600EE52D2FF582E4352CF583E010
:10068000B420077F070F053B8082EFC3940B500314
:10069000020773E52D240BF582E4352CF583E03059
:1006A000E303020773C209E52D241AFFE4352CFE8B
:1006B000121D67E48F3F8E3EF53DF53CE54CB403DB
:1006C00010E52D2414FFE4352CFE121D678E3C8F9F
:1006D0003DAF3BE52B2FF8E66006200903020769D2
:1006E000853F32853E31853D30853C2FE4F555F51B
:1006F00054F553F552F537E52D240BF582E4352CEE
:10070000F583E030E41F74FFF54BF54AF549F548F1
:100710007D137F10121C7BEF6001223009047F43A0
:1007200080027F4122E52D241CFFE4352CFE121DA2
:10073000358F4B8E4A8D498C48E53F7017E53C70EC
:1007400013E53D700FE53E700B7537FFF54BF54A2D
:10075000F549F5487D147F10121C7BEF60012230B3
:1007600009047F4380027F0022E53B04252BF52B03
:1007700002054EAF3BE52B2FF8E6642A6003020822
:1007800032E52D240BF582E4352CF583E030E303CC
:10079000020832E53B04252BF8E67053E4FFF539F7
:1007A000E52D2FF582E4352CF583E06420602FBF22
:1007B000080AAE39E52B2EF8762E0539E52D2FF5F2
:1007C00082E4352CF583E0FEAD39E52B2DF8EEF60D
:1007D000E5397008A82BE6B4050276E505390FBFA8
:1007E0000BBEAF39E52B2FF8E4F6D2090206A7E5D8
:1007F0003B04252BF8E6F47032E54B700CE54870AD
:1008000008E5497004E54A6093E54830E703121DA6
:100810008DE54B24FFF54BE54A34FFF54AE54934B5
:10082000FFF549E54834FFF5488007E53B04252BF3
:10083000F81674202542F542E43541F5410205CA17
:10084000E5502401F550E4354FF54FE4354EF54EB3
:10085000E4354DF54D15370205B7E53F700CE53C25
:100860007008E53D7004E53E601D7F3CE4FD120E1E
:1008700072EF60012220090F85383C85393D853AA9
:100880003E853B3F02054EE4FFE52B2FF8E6FE6078
:1008900013642A600FEE645C6004EEB42F037FB330
:1008A000220F80E57F4222E56E2462F8E6056E2283
:1008B000785F3007027862E475F0011212C9021203
:1008C000712000EB7F2ED2008018EF540F2490D4BB
:1008D0003440D4FF30040BEF24BFB41A005003247B
:1008E00061FFE56F6002156F0572E57270020571B8
:1008F00030070D785FE475F0011212C9EF0212B7EC
:10090000021BEC7403D2078003E4C207F56E8B5F11
:100910008A608961E4F56FF571F572E56F60077FB4
:10092000201208E280F57570FFC201C200C202C247
:1009300003C205C206C2081208B0FF700D300705D9
:100940007F001208F3AF72AE7122B4255FC2D5C228
:10095000041208B0FF24D0B40A00501A75F00A78C7
:100960006F30D50508B6FF0106C6A426F620D504CB
:100970007002D20380D924CFB41A00EF5004C2E52C
:10098000D204020AF3D20180C6D20080C0D2028013
:10099000BCD2D580BAD20580B47F201208E22002F2
:1009A000077401B56F0040F11208A7FF1208E202B8
:1009B000091BD208D20680951208A7FB1208A7FAD5
:1009C0001208A7F94A4B700679C47A0B7BFF200204
:1009D0002EE56F602A7E008E8275830012128A6077
:1009E000060EEE657070F0C2D5EBC0E0EAC0E0E93B
:1009F000C0E0EE120B3AD0E0F9D0E0FAD0E0FB1202
:100A00001271FF60AAEBC0E0EAC0E0E9C0E01208A2
:100A1000E2D0E02401F9D0E03400FAD0E0FBE57048
:100A20000460DCD570D980877BFF7A0B7936D202DF
:100A3000809C791080027908C206C2088008D2D54D
:100A4000790A8004790AC2D5E570047002F570E471
:100A5000FAFDFEFF1208A7FC7B082001131208A76D
:100A6000FD7B1030000A1208A7FE1208A7FF7B20AA
:100A7000EC3382D592D55013C3E43000069FFFE4D7
:100A80009EFEE42001039DFDE49CFCE4CBF8C20142
:100A9000EC700CCFCECDCCE824F8F870F38017C3FF
:100AA000EF33FFEE33FEED33FDEC33FCEB33FB991C
:100AB0004002FB0FD8E9EB300105F8D0E0C448B2A2
:100AC00001C0E00AEC4D4E4F78207B0070C2EAB5C1
:100AD000700040BCC0E0120B3CD0F0D0E02001041C
:100AE000C4C0E0C4B201C0F01208CBD0F0D5F0EB26
:100AF00002091B1212D909B8530A325809894C0944
:100B000085420A364F0A3E440A3E49099E430A443A
:100B1000550A28460A28450A28470BE450098D2D16
:100B200009912E09B42B09952309B2200BCD2A096E
:100B30004D48000009AC3F3F3F00790AA2D5200391
:100B400014300509B910020404B9080104A2D52023
:100B500006025001042002689202B56F005034C0B2
:100B6000E07F203003197F30A20272067205500F19
:100B7000120B93C202C206C205C2087F30800F303A
:100B80000503E9C0E01208E2300503D0E0F9D0E047
:100B9000B56FCC3005177F30B9100C1208E27F58C2
:100BA0003004077F788003B908031208E230020599
:100BB0007F2D0208E27F202008F87F2B2006F322F9
:100BC000920280CF286E756C6C2900D2011208A7A2
:100BD0003001F8C201786F30D50108F602094D2DB9
:100BE000504349581208A72403B405004001E4907B
:100BF0000BDF931208D3743A1208D3D203756F0433
:100C0000020A32E547C39403500712190CEF600142
:100C100022121D5CE4F526F525F524F52312163F76
:100C2000EF600A121B9912163FEF6001229000003C
:100C3000E0FF64EB6037EF64E96032E4FDED6440AF
:100C4000602874C22DF582E43401F583E06015ED6F
:100C50007E0024C6FFEE3401FE121D35907A00128C
:100C6000121B801374102DFD80D37F9222907A0086
:100C700012124000000000907A00E0FCA3E0FDA307
:100C8000E0FEA3E0F5268E258D248C2312163FEF7F
:100C9000600122900000E0FF64EB6008EF64E9600F
:100CA000037FA12290000DE0F52230E605752E06A7
:100CB000802E30E505752E05802630E405752E045E
:100CC000801E30E305752E03801630E205752E0276
:100CD000800E30E105752E018006752201E4F52EA7
:100CE0007E007F16121D678E418F42E5424541709E
:100CF000247E007F24121D358F328E318D308C2F53
:100D0000E4FBFA7901F8D31211BF50037FA22285C8
:100D10003141853242900014E0FF900013E04F60B3
:100D2000127E007F13121D67E48F3F8E3EF53DF566
:100D30003C800F7E007F20121D358F3F8E3E8D3D03
:100D40008C3C7E007F11121D67EF240FFFE43EC430
:100D5000F854F0C868FEEFC4540F48FFE4FCFD905F
:100D60007A0812121B7E007F0E121D67E48F368EEA
:100D700035F534F533E5422536FFE5413535FEE4FA
:100D80003534FDE43533FC907A08E0F8A3E0F9A3AC
:100D9000E0FAA3E02FF546EA3EF545E93DF544E8E3
:100DA0003CF543900010E0D39401E4401AFCFDE5CB
:100DB000462542F546E5453541F545ED3544F544D2
:100DC000EC3543F5438004F541F542C3E53F9546D4
:100DD000FFE53E9545FEE53D9544FDE53C9543FC2C
:100DE000A82E1211D0907A0412121BE47BF57AFF20
:100DF000F9F8D31211BF401DE4F541F542907A068F
:100E0000E0FEA3E094F5EE940F5005754C018020B0
:100E1000754C02801B7E007F30121D678E418F4211
:100E20007E007F2C121D35907A0812121B754C0320
:100E3000907A00E0FCA3E0FDA3E0FEA3E02536F5F8
:100E400036EE3535F535ED3534F534EC3533F533EF
:100E5000907A00A3A3A3E02546F546EE3545F54577
:100E6000ED3544F544EC3543F5437D107F03121C0A
:100E70007B228D5FEFC8E54CB402071211F67801B2
:100E80008008B403121211F678021211E38F638EF8
:100E9000628D618C6080231211F68E608F61EF137A
:100EA0009209E560C313FEE561132561FFE5603E2D
:100EB000FEE48F638E62F561F560EE5401FEEF246F
:100EC00000F52DEE3400F52CAF63AE62AD61AC6081
:100ED000121D71EF2536F563EE3535F562ED3534CB
:100EE000F561EC3533F560E563652A7012E56265FE
:100EF00029700CE56165287006E56065276013853B
:100F0000602385612485622585632612163FEF6084
:100F10000122E54C6402703F852D82852C83E0F52B
:100F200038A3E0F53985383B85393AE4F538F539A9
:100F3000AE3AAF3BC3EF94F7EE94FF4003D380018A
:100F4000C39209E55F600D852D82852C83E560F0F5
:100F5000A3E561F07F0022E54C6403705A852D8281
:100F6000852C83E0FCA3E0FDA3E0FEA3E0F53B8E2F
:100F70003A8D398C38E53B54F0FFE563540F4FF55B
:100F800063E53B540F85383BF538AF3A85393A8FE6
:100F900039AF38EFC3940F4003D38001C39209E502
:100FA0005F6011AF63AE62AD61AC60852D82852C50
:100FB0008312121B7F002253610FC3E52D9400FFA3
:100FC000E52C9400FEEFF47003EE64016049852D7A
:100FD00082852C83E0F538A3E0F539E55F60633066
:100FE0000922E560C454F0FFE538540F4F852D8287
:100FF000852C83F0E561C454F0FFE560C4540F4FC5
:10100000A3F0803E852D82852C83E560F0E5395480
:10101000F04561A3F0802B852D82852C83E0F53887
:10102000E52A2401F526E43529F525E43528F524BB
:10103000E43527F52312163FEF600122900000E00F
:10104000F539300913E539C454F0FFE538C4540FBD
:101050004FF53BE539C4800585383BE539540FF53C
:101060003AE4F538F539AE3AAF3BC3EF94F7EE9476
:101070000F4003D38001C392097F00224572726F33
:10108000723A20253032580A0053746172740A0093
:101090005761697420556469736B0A005265616415
:1010A00079203F0A004F70656E0A005C4335315C61
:1010B00043483337354846542E43005C2A005C438E
:1010C00035315C43483337352A004C6973742066E8
:1010D000696C652025730A0020206D6174636820A7
:1010E00066696C652025303364233A2025730A0035
:1010F000D5D2B2BBB5BD2F4335312F434833373539
:101100004846542E43CEC4BCFE0D0A0052656164AD
:101110000A0053697A653D256C642C204C656E3D50
:1011200025642C205365633D25640A00436C6F736E
:10113000650A004C696E6520313A2025730A004F1C
:1011400070656E320A002F4335312F4348333735EF
:101150004846542E4300456E756D20416E794669B0
:101160006C65202564230A0046696C654E616D65D7
:10117000205B25735D0A004469724E616D65205BDA
:1011800025735D0A00B4D3CEC4BCFED6D0B6C1B3BD
:10119000F6B5C4C7B02564B8F6D7D6B7FBCAC73A08
:1011A0000A002543000A00CEC4BCFED2D1BEADBDAC
:1011B000E1CAF80A0054616B65206F75740A00EB90
:1011C0009FF5F0EA9E42F0E99D42F0E89C45F0224E
:1011D000E8600FECC313FCED13FDEE13FEEF13FFFD
:1011E000D8F122E8600FEFC333FFEE33FEED33FD9D
:1011F000EC33FCD8F122E6FC08E6FD08E6FE08E642
:10120000FF22E6FB08E6F908E6FA08E6CBF822EC4E
:10121000F608EDF608EEF608EFF622ECF0A3EDF096
:10122000A3EEF0A3EFF022D083D082E493F608740B
:101230000193F608740293F608740393F67404732A
:10124000A8828583F0D083D08212125712125712CF
:101250001257121257E473E493A3C583C5F0C583F4
:10126000C8C582C8F0A3C583C5F0C583C8C582C8F8
:1012700022BB010689828A83E0225002E722BBFE5C
:1012800002E32289828A83E49322BB010CE582294E
:10129000F582E5833AF583E0225006E92582F8E6F7
:1012A00022BBFE06E92582F8E222E58229F582E5E5
:1012B000833AF583E49322BB010689828A83F02274
:1012C0005002F722BBFE01F322FAE6FB0808E6F91A
:1012D00025F0F618E6CA3AF622D083D082F8E493D5
:1012E0007012740193700DA3A393F8740193F582A7
:1012F0008883E4737402936860EFA3A3A380DFE59F
:1013000047D394145007E547C3941250037FB42287
:101310007873E608F6E418F67875F6C3E54B95554C
:10132000FFE54A9554FEE5499553FDE5489552FC85
:10133000121D718F3B8E3A8D398C38E5397004E57A
:101340003A6006787676FF80047876A63B7874E675
:1013500070030214287876E67003021428E537F447
:101360007003021428121AF87875E6C39440502FBF
:10137000E66037E6FFE4FCFDFE7877121202EF2B01
:10138000FFEE3AFEED39FDEC38FCEF6526FFEE6529
:1013900025FEED6524FDEC6523FC4D4E4F600B12E0
:1013A0001548EF600122E47875F67875E6700DAFA8
:1013B00026AE25AD24AC23787712120FC3E5229513
:1013C00037FFF5387876E6FEEFD39E4003E6F53832
:1013D000E538D3787496400CE60826F618E62537EB
:1013E000F5378049C37874E69538F608E53826F66F
:1013F000C308E69538F6E5382537F53765226003EA
:1014000002134D7F2FFD120E72EF6001223009068C
:101410007537FF02134D85382F853930853A318570
:101420003B32E4F53702134D7875E6600302154848
:101430007F0022E54764156007121BC4EF6001229C
:101440007873E6F52BE4F6E52B7003021545E554B9
:101450005401FEC3E49555FF74029EFEC3EF952B25
:10146000EE94004005852B388006E555F404F538E8
:10147000C3E54B9555FBE54A9554FAE5499553F973
:10148000E5489552F8AF38E4FCFDFED31211BF5089
:101490000CC3E54B9555F5387003021545121AF843
:1014A00012163FEF600122E5545401FE74002555E9
:1014B000F58274003EAF82F52C8F2DAF38E4FCFD31
:1014C000FEE5552FF555EE3554F554ED3553F553EE
:1014D000EC3552F552C3E52B9538F52B7873E6249D
:1014E00074FFE53826F6852D82852C83E0C8EFC889
:1014F000F60F052DE52D7002052CD538E9E554547D
:1015000001455560030214470537E537C39522505E
:10151000030214477F2FE4FD120E72EF60012230A8
:1015200009117537FF85554B85544A8553498552B6
:1015300048801285382F853930853A31853B32E431
:10154000F5370214477F0022E4F53A90BDF1745458
:10155000F000000000E4F551787AE690BCF0F0006D
:101560000018E6F0000018E6F0000018E6F00000B1
:101570007875E6F085403BE54013135403FFE540E2
:1015800054FC4FF540E675F008A4F53985F03812A3
:101590001B6EE551641D7071E53B540C6013787B44
:1015A000E6FE08E6FF121770787BEEF608EFF6808D
:1015B0001590BDF17428F000000000E4F55190BCD6
:1015C000F0E0FF121D8E90BDF17455F0E5552440FA
:1015D000F555E43554F554E43553F553E43552F5F7
:1015E00052E5396009D539A7E538600880A115387A
:1015F0001539809B853B40121B6EE551B4140A7867
:1016000075E6787326F67F0022853B40E53AC39461
:1016100005501C1219BCE540540C7004FF121D8EBD
:10162000E53AC3940140031217E0053A02154B1244
:1016300017E022854D23854E24854F25855026E5CC
:1016400026652A7015E5256529700FE52465287043
:1016500009E523652770030216DCE4F53A90BDF135
:101660007454F000000000E4F55190BCF0E526F061
:101670000000E525F00000E524F00000E523F0007F
:10168000007401F0752700752800753908121B6E6B
:10169000E551641D702BAF28AE271217708E278F6F
:1016A0002890BDF17455F0D539E38523278524288A
:1016B00085252985262A121B6EE551B414037F0067
:1016C00022E53AC39405500EE53AC3940140031253
:1016D00017E0053A8087121D5C0217E07F0022E5C3
:1016E0003F700CE53C7008E53D7004E53E60728596
:1016F0003F32853E31853D30853C2FAF22E4FCFDF5
:10170000FE7873121202C31211BF40387F2FE4FD1E
:10171000120E72EF60012220094785382F8539307B
:10172000853A31853B3278731211F6AB22C3EF9BB9
:10173000FFEE9400FEED9400FDEC9400FC78731233
:10174000120F80B77876E6FFE522145FF537121A9C
:10175000F8AF26AE25AD24AC23787312120F7F00AC
:10176000227537FF7873121227FFFFFFFF7F0022D9
:1017700090BDF17428F0E4F551E54054036403FD95
:1017800090BCF0E0CD602A14601190BCF0E08F8234
:101790008E83F00FBF00010EDDF02205A28F828E36
:1017A0008305A2E005A2F0A3DDF7AF82AE8305A218
:1017B00022EFC582F9EEC583C5A0F5F07D08E3F000
:1017C000A3E3F0A3E3F0A3E3F0A3E3F0A3E3F0A328
:1017D000E3F0A3E3F0A3DDE685F0A0AF82AE8322C1
:1017E000753932121D85D539FA90BDF17422F00099
:1017F00000000090BCF0E0E5516416600FE547641E
:101800000160097F20121CD0EF20E5067547017F9B
:101810008222300A19E547C394034012855139E406
:10182000F55190BDF1745AF0121B6E853951E547A0
:10183000B41205754703800AE547D3941040037539
:101840004710E55170037F1022AF5122E547C39442
:101850001350037FB422121633EF60012274002567
:1018600042FD74003541FCF583ED240BF582E4352F
:1018700083F583E0787BF6ED2416FFE43CFE121D31
:10188000677879EEF608EFF6ED2418FFE43CFE12D7
:101890001D677877EEF608EFF6ECCEED241CFFE43A
:1018A0003EFE121D35787312120F7F002275370528
:1018B0007D067F65121CFDE4F54790BCF0E0B49A0C
:1018C0000F7D067F9A121CFD90BCF0E064656009F4
:1018D000121C13D537DA7F812290BDF17401F0001C
:1018E000000000C20A90BCF0E0C394A24002D20AF9
:1018F0007547017D157F06121CFD7F01121CE790C4
:10190000BCF0E0B45F037F81227F0022121B37EF1F
:1019100060037F82227F51121C99E551703D7D0347
:101920007F02121C7B300A307F38121CD0EF6028F7
:10193000121D7B900000E0B4051E90BDF1740BF009
:101940000000000090BCF07434F000007401F07FDF
:1019500058121C99E55170037F00227D027F02120C
:101960001C7B0217E0E547C3941250037FB422AFFB
:101970004BAE4AAD49AC48121D718F3B8E3A8D3942
:101980008C387873121202D31211BF400DAF3BAEE8
:101990003AAD39AC38787312120F78731211F678A9
:1019A000011211E38F3B8E3A8D398C38853952857F
:1019B0003A53853B54E4F5551216DF227875E67DDF
:1019C0000025E0FCE539AE387806C333CE33CED8F7
:1019D000F9FFC3ED9FF539EC9EF538AE38AF39CB42
:1019E000EFCBCAEECAC3E5559FF555E5549AF554B9
:1019F000E5539400F553E5529400F552C3E495394C
:101A0000FFE49538FE787CEF26F618EE36F62212C3
:101A10001B37EF60037F8222E547C39403501B12FC
:101A2000190CEF600C7F32121CE712190CEF6001E9
:101A300022121B99EF60030217E0300A207F59122F
:101A40001C99AF518F38EF7002FF227F0A121CE7FA
:101A50007F5A121C997F02121CE7AF38227F0022A6
:101A6000E547C3941250037FB422E547B41239E529
:101A70004C64036033907A0BE0F522E54AC313FF10
:101A80007E00E4FCFD907A0812121B907A0BE0FFB6
:101A9000E4FCFDFEE5462FF546EE3545F545ED3512
:101AA00044F544EC3543F5437D107F10121C7B2236
:101AB000E54764156007121BC4EF600122787312BA
:101AC00011F68F558E548D538C52AB4BAA4AA949AF
:101AD000A848C31211BF500C854B55854A548549FF
:101AE00053854852AF55AE54AD53AC52121D717868
:101AF0007312120F1216DF22E53224FEFFE5313495
:101B0000FFFEE53034FFFDE52F34FFFCA82E121157
:101B1000E3EF2546FBEE3545FAED3544F9EC354368
:101B2000F8E4FCFDFEEB2537F526EE3AF525ED3918
:101B3000F524EC38F5232290BDF17422F00000006A
:101B40000090BCF0E0E4F5517F20121CD0EF30E5AE
:101B500017E547C39402400A7F1B121CD0EF547F45
:101B600070037547027F00227547017F822220B2F1
:101B7000FD90BDF17422F0535180E5516003E4F50E
:101B80005190BCF0E0F551E551B4160475470122BF
:101B9000E551B41503754702227538087F53121CAE
:101BA00099AF518F3BEF7002FF227F0A121CE73082
:101BB0000A057F5A121C997F14121CE7D538DDAF35
:101BC0003B8F5122E547641460037FB422853F3286
:101BD000853E31853D30853C2FE4F555F554F55370
:101BE000F552F5377D157F14121C7B22EFB40A07DE
:101BF000740D121BF7740A309811A899B8130CC20F
:101C0000983098FDA899C298B811F63099FDC299FC
:101C1000F59922753A8090BDF17401F00000000042
:101C200090BCF0E0FFD53AEE90BDF17405F00000F5
:101C300000007F32021CE7E581D394F040037FFC73
:101C400022754005E4900000F0121D8AEFC3943025
:101C500050037FFF221218AD22EF601E7BFF7A1027
:101C6000797C7562008F63120909C2947F64121C2B
:101C7000B5D2947F64121CB580F022E547C39F4023
:101C8000028D47E5476D7002FF22754701121B3731
:101C9000EF60037F82227F8322E4F55190BDF1EF54
:101CA000F0121B6EE551700475511022E551B41409
:101CB00003E4F55122EF60177EC87403255FF55FDA
:101CC000DEF87EC87403255FF55FDEF81F80E6222C
:101CD00090BDF1740AF00000000090BCF0EFF0003D
:101CE000006003E0FF2222EF75F005A4F53AE53A23
:101CF000600A121D85121D85153A80F22290BDF1F1
:101D0000EDF000000000E4F55190BCF0EFF00000B1
:101D1000228D828C83A807E4FFE493F6600508A374
:101D20000F80F622759850758780758920758DF320
:101D3000D28ED299228F828E83E0FFA3E0FEA3E0B1
:101D4000FDA3E0FC22787FE4F6D8FD7581900200C7
:101D500003787B76020876001212FF2274FFF52AC0
:101D6000F529F528F527228F828E83E0FFA3E0FE78
:101D700022C3E4CC13CD13CE13FF22121D5C7E00D0
:0F1D80007F000217707F96DFFE227F3022222223
:00000001FF
