:10000000D9C053C4F1C0F0C0EFC0EEC0EDC0ECC029
:10001000EBC029CBE9C0E8C0E7C0E6C0E5C0E4C05A
:10002000E3C0E2C0E1C07DC886C8B7C89DCA9CCA0B
:1000300044C99ACA99CA98CA97CA96CA95CA94CA0C
:1000400093CA92CADEC8EEC8FCC854C9DFC951C9F8
:10005000DCC923C9FBC821C9F9C8F8C8F7C838CA20
:1000600000004D656E7500000000000000000000FB
:1000700000000000010053686F7720496E666F0032
:100080000000000000005402010053657474696EA2
:1000900067730000000000000000000002005354DD
:1000A0004B35303020535720566572000000070250
:1000B0002E0056657273696F6E3A005461726765FF
:1000C0007420496E666F726D6174696F6E3A004498
:1000D000657669636520626974733A006E6F2064A7
:1000E00065766963652021002C0050726F6475632A
:1000F0007467726F75703A0041746D656C2041567B
:100100005200556E6B6E6F776E00466C617368209F
:100110004D656D6F72793A006B0010034100560017
:1001200052002D0049005300500020037700770053
:1001300077002E0075006C006C00690068006F008D
:100140006D0065002E0064006500040309041201BF
:10015000010102000008C016E105000101020001D2
:1001600009024300020100803C0904000001020270
:1001700001000524001001042402020524060001E8
:100180000524010301070583030800640904010035
:10019000020A0000000705010201000007058102B4
:1001A0000800000853544B3530305F3200726574DC
:1001B00075726E0011241FBECFE5D4E0DEBFCDBF47
:1001C00010E0A0E6B0E0E0EAFFE102C005900D9289
:1001D000A639B107D9F712E0A6E9B0E001C01D9237
:1001E000AB37B107E1F78AC00BCFCF93C82F8AE0B6
:1001F00080936D0082E080936C0090917602981756
:10020000B1F580919600882321F4CD3671F581E017
:1002100018C0813029F4C53641F59093960027C067
:10022000823021F4CE3609F583E00BC0833021F40F
:10023000C537D9F484E005C0843031F4C536A9F45B
:1002400085E08093960013C0853079F4CD3069F451
:1002500086E08093960092DD86DB1092D8011092A2
:10026000D70184E680936C0002C0109296008C2F18
:100270008BD9CF910895109268001092640099274D
:100280008130910519F0039729F008958FEF80933D
:100290006800089582E3809364000895813061F4DA
:1002A000A0E0B0E080918600082E5ADE8FEF8093A8
:1002B00064001092680008958091B300DCDF089517
:1002C0001092960085EF90E09093D8018093D7012B
:1002D0008FEF80936C0008952FD50895FDDFB3D57F
:1002E00053DD80919600863041F479D59C01832FAF
:1002F0009927892B11F4822FC8DC0895CFE5D4E02B
:10030000DEBFCDBFA1E0B0E023DE802D8093D4011D
:10031000A0E0B0E01DDE802D9927809386008150FB
:10032000873018F085E0809386005AD61FEF10932F
:100330006400BCDD8AEFBBD98AEFB9D98AEFB7D99F
:1003400085EF90E09093D8018093D701D0D48BE3D0
:1003500091E09093D6018093D5018EE491E0909343
:10036000DA018093D9011092640010936C0080E64A
:1003700091E09093DC018093DB01B0DFFECF0F931F
:100380001F93CF93DF93CDB7DEB723970FB6F894C3
:10039000DEBF0FBECDBF67E28DE0CAD98091670294
:1003A00040E150E0BE016F5F7F4F9927A2DD8E01D3
:1003B0000F5F1F4FF80101900020E9F73297E01717
:1003C000F10711F480E2E0D4C801EAD480EB90E0B8
:1003D000F5D48091680240E150E0B801992789DDA9
:1003E000F80101900020E9F73297E017F10711F4C6
:1003F00080E3CAD4C801D4D423960FB6F894DEBFE4
:100400000FBECDBFDF91CF911F910F9108950F9334
:1004100064E3862F7CD903E02EE04AE06DE18EE9AB
:1004200090E099D96EE18DE083D982EB90E0C6D45B
:10043000A6DF809196008630A9F5D1D49C01832F48
:100440009927892B51F5822FF4DB8230910571F4C5
:10045000809168028F3F11F08F5F17C08091670213
:100460008F5F809367021092680216C081309105F9
:1004700079F480916802882311F0815006C0809140
:1004800067028150809367028FEF8093680204C0F7
:10049000039711F4C1D506C072DF4ED48091960047
:1004A000863059F20F910895DF92EF92FF920F93E9
:1004B0001F93CF93DF93CDB7DEB726970FB6F8948F
:1004C000DEBF0FBECDBF64E3862F21D905E028E251
:1004D00047E064E18BEB90E03ED965E18AE028D902
:1004E0008FEC90E06BD4FFD440D5813019F48CEDC3
:1004F00090E04CC0DD24EE24FF248E010F5F1F4FDF
:100500000E0D1F1D8D2D57D5F80180838E010C5FB8
:100510001F4F40E150E0B8019927EBDCC80140D4FF
:10052000F2E0DF1619F088EE90E048D4D3940894F6
:10053000E11CF11C82E08D1500F765E18BE0F8D835
:100540008AEE90E03BD489818E3119F488EF90E0F7
:1005500002C082E091E032D465E18CE0E9D88AE023
:1005600091E02CD48A81282F3327205930404AE04B
:1005700050E0B80181E090E002C0880F991F2A95F1
:10058000E2F7B7DCC8010CD488E191E017D4BDD400
:1005900001C0D2D324D48D3021F0809196008630D2
:1005A000C1F326960FB6F894DEBF0FBECDBFDF9124
:1005B000CF911F910F91FF90EF90DF9008953BD363
:1005C000992708954FD39927089557D399270895C8
:1005D00057D30895CF93DC01C62F2BE49091AF0041
:1005E00090FD23EC8091720087FF04C09F5F909381
:1005F000AF0003C08FEF809372002093F401E5EF0A
:10060000F1E02C2F21502F3F19F08D918193FACFDB
:100610006C2F85EF91E00BD3CC5FC0937200CF912C
:100620000895CF93DC01C62F2BE49091B00090FD8C
:1006300023EC8091710087FF04C09F5F9093B0000E
:1006400003C08FEF809371002093E801E9EEF1E0A1
:100650002C2F21502F3F19F08D918193FACF6C2FC1
:1006600089EE91E0E4D2CC5FC0937100CF91089500
:100670001F93CF93DF9360910402662309F498C01F
:10068000635067FD8FC0C7E9D0E0C091F301CF5F31
:1006900090E010E88091010287FF03C0CE0198DF4F
:1006A00081C08D3209F067C0683009F077C0888159
:1006B000807609F056C026EE31E09093E6018981FC
:1006C000882321F49093E70192E03FC0853021F424
:1006D0008A818093050239C0863019F510EC8B8130
:1006E000813021F492E12EE431E02FC0823021F4F8
:1006F00093E420E631E029C0833039F58A818823EC
:1007000021F494E02AE431E020C0813021F490E229
:100710002AE231E01AC08230C1F490E12AE131E0EE
:1007200014C0883021F491E027E032E00EC0893017
:1007300021F48A818093070208C08A3011F491E085
:1007400004C08B3011F49093AF00309303022093D8
:1007500002028F81882311F58E818917F8F4982F72
:100760001DC0CE012CDF982F8F3FC1F4888187FFF9
:1007700014C09E8112C08091AD0087FD0FC0CE01D4
:1007800024DF9FEF891739F48EE18093DD0182E049
:100790008093730002C0811190E010E01093AD00CF
:1007A0009093740080910402181614F410920402BD
:1007B000909174009F3F09F44FC08091730087FFB0
:1007C0004BC0692F993008F068E0961B9093740035
:1007D0001BE48091AD0080FD13EC8F5F8093AD0032
:1007E000AEEDB1E087FF1BC0E0910202F091030281
:1007F000962F915086FF07C09F3F59F084918D93AB
:1008000031969150F9CF9F3F21F081918D93915076
:10081000FACFF0930302E0930202772709C0662320
:1008200029F0CD01CFDE682F772702C060E070E0AD
:10083000C62F693040F48EED91E0F9D19C2F9C5F7A
:10084000C83030F402C01EE192E08FEF8093740054
:100850001093DD019093730086B3837019F01092AA
:10086000AE0011C08091AE00882369F494E686B38F
:10087000837049F49150D9F781E08093AE00909352
:10088000050290930002DF91CF911F91089587E9AF
:1008900090E08093FF010B968093F30185B783600E
:1008A00085BF8BB780648BBF08950F930FB70F93ED
:1008B000B09BFECFB09B06C0B09B04C0B09B02C0F3
:1008C000000000C01F933F932F9331E012E006B366
:1008D000102710FD32E0102F3A95C9F700FDEBC04C
:1008E00006B3102720E010FB20F9DF9316B3012791
:1008F00000FB21F9CF93C091FF0106B3102710FB35
:1009000022F93BE0D0E04F9316B3012700FB23F917
:100910004FEF000055C0B09BFECFB09B06C0B09B10
:1009200004C0B09B02C0000000C0DF9100C0CDCF6A
:1009300016B3137079F14F7D206213C006B30370B4
:1009400049F14F7B206415C0037021F1102F2068FE
:1009500006B319C006B30370E9F04E7F216018C0DA
:1009600039F306B30370B1F0102710FB26F92230DB
:1009700028F316B3012700FB27F9422749934FEFCD
:1009800006B3243008F3102710FB20F9297F11F358
:1009900016B31370E1F1012700FB21F9237FF1F079
:1009A00006B30370A1F1102710FB22F9277EE1F0B6
:1009B00016B3012700FB23F93A9541F12F7CD1F0C2
:1009C00006B3037021F1102710FB24F92F79C1F031
:1009D00016B3012700FB25F92F73C2CF16B313708E
:1009E000B1F04D7F2260DCCF06B3037081F04B7F06
:1009F0002460DECF16B3137051F0477F2860E0CF3C
:100A000006B3037021F04F7E2061E2CF3DC03C2F42
:100A1000C091FF013C1B00E433300ABFA8F10881FC
:100A20001981412F1F77209100020D3289F1013E7B
:100A300079F10936C1F00777033431F510910602D8
:100A4000112311F1009104020030F1F53430FAF174
:100A500030930402109301020091F301C093F3015B
:100A60000093FF0134C0121779F447FD3EC0309166
:100A700073003F3F49F10FEF00937300CDEDD1E0DC
:100A800029C00027009306024F91CF91DF9113C038
:100A90001217B9F70F774078042B009306022AF05B
:100AA0000FEF00937400009373004F91CF910AB73A
:100AB00006FD31CFDF9100E40ABF2F913F911F91D6
:100AC0000F910FBF0F911895CFE6D0E002C0C0E79D
:100AD000D0E032E05F9308B30C7F016008BB53E0C5
:100AE00017B3136017BB20E825C00FEF1A8110FD64
:100AF00009C0309172003F3F39F300937200C4EF98
:100B0000D1E0E8CF309171003F3FF1F200937100E6
:100B1000C8EED1E0DFCF052710E008BB10C00527E5
:100B200010E0089408BB13C0052710E015C0052786
:100B300010E019C020FF052708BB279517951C3F1B
:100B400050F720FF0527279508BB17951C3F38F75E
:100B500020FF05272795179508BB1C3F28F720FF86
:100B60000527279517951C3F08BB08F700C049913A
:100B700020FF052708BB279517951C3F80F520FF10
:100B80000527279508BB17951C3F68F520FF05270B
:100B90002795179508BB1C3F58F520FF052727957B
:100BA00017951C3F08BB38F5242F3A9519F60C7F92
:100BB0005F9108BB32E03A95F1F710910502C157F9
:100BC000D04011F010930002016017B31C7F08BBE6
:100BD0000C7F4F91CF9117BB08BBDF916CCF0527DE
:100BE00010E008BBCACF052710E0089408BBCDCFA2
:100BF000052710E0CFCF052710E0D3CFA82FB92FBE
:100C00008FEF9FEF41E050EA615070F02D9138E096
:100C1000722F782796958795269570FF02C08427B6
:100C200095273A95A9F7F0CF809590950895E6DF3E
:100C30008D939D930895FC01808199278076907013
:100C4000809769F49181892F8052823018F48FEF58
:100C500090E00895923219F482E08093B20080E02F
:100C600090E00895E5E7F0E027E0DC0101900D92C7
:100C70002A95E1F787E090E0089581E090E00895FB
:100C80001F93CF93DF93EC01162F8FEF8093040215
:100C9000662349F1E091D701F091D801399130975D
:100CA00019F0832F09951DC020914902E22FFF27DB
:100CB000E75FFD4F308390910802291718F49F5F7A
:100CC00090930802822F8F5F80934902813448F00D
:100CD0001092490280910802882319F48F5F809353
:100CE00008021150B9F6DF91CF911F9108958CEF52
:100CF00088BB83E087BB6FEF80E08150F1F76150E4
:100D0000D9F767BB80E090E065DCC1DD7894089599
:100D10008091B100883020F0809172008F3FE1F720
:100D2000809172008F3F39F46091B1008AE492E0C3
:100D300051DC1092B1000895A8959ADC80910402CC
:100D400087FF02C010920402E3DF9091B200992362
:100D5000D1F0809171008F3FB1F4923021F468E0BE
:100D60008CE790E003C062E084E890E05ADC809178
:100D7000B20081508093B200E091DB01F091DC0180
:100D8000309709F0099508959091B100EAE4F2E0F6
:100D9000E90FF11D80839F5F9093B100B9DF089543
:100DA000CF93DF93EC018881882329F08991ECDFD0
:100DB00088818823D9F7DF91CF910895CF93DF936E
:100DC000EC01FC0121968491882331F0DDDFFE01E6
:100DD000219684918823D1F7DF91CF910895809156
:100DE000490220910802821789F0E22FFF27E75F6E
:100DF000FD4F8081482F5527822F8F5F80930802F7
:100E0000813410F010920802CA01089580E091E048
:100E10000895A99883E886B981E087B987B1806C85
:100E200087B9369A3699FECF84B195B1369A3699FC
:100E3000FECF84B195B1089624E0969587952A95C2
:100E4000E1F799270895CF93E4DF8E3210F0C1E0E7
:100E500009C0DFDF823028F0DCDF8D3210F4C3E020
:100E600001C0C2E08091B300C81751F0E091D501F4
:100E7000F091D601309711F08C2F0995C093B300F3
:100E8000CF910895C59A8CE291E0FC013197F1F77A
:100E9000C5980197F1F70895992784309105C1F01D
:100EA0008530910534F48230910561F0039761F04B
:100EB00008958630910581F0863091055CF00797A2
:100EC00081F0089583E501C082E58DB91EB80895CB
:100ED00082E503C081E5F9CF81E58DB981E08EB966
:100EE000089580E5F2CF87B38C6287BBC298C5981E
:100EF0008CE291E0FC013197F1F7C29A0197F1F78A
:100F0000C29880918600C8DF089587B3837D87BB30
:100F100088B3837D88BB1DB808950F931F93CF932B
:100F2000C82F10E080918600813089F407E0C7FF68
:100F300002C0C39A01C0C398CC0F110FB4991F5FB0
:100F4000A1DF015007FFF3CF812F99270AC0882323
:100F500019F481E090E005C0CFB9779BFECF8FB147
:100F60009927CF911F910F9108951F93CF93CFE1B0
:100F70008CEAD3DF83E5D1DF80E0CFDF182F80E07C
:100F8000CCDF133519F480E090E009C01DB87ADF9A
:100F90008091860081DFC15058F781E090E0CF91C9
:100FA0001F9108958CEAB9DF80E8B7DF80E0B5DFF4
:100FB00080E0B3DF08951F93182F80E3AEDF80E059
:100FC000ACDF812FAADF80E0A8DF99271F91089569
:100FD00080EFA3DF80E0A1DF9927817090700895F2
:100FE00092E090937602A2E0B0E0B2D7802D282F55
:100FF000332720936702A3E0B0E0AAD7802D809327
:1010000068022B3028F0909367028AE08093680290
:1010100081E0809366020895A2E0B0E080916702CB
:10102000082E9ED7A3E0B0E080916802082E98D7E2
:101030000895CF93DF9340E08BE18093B40020913B
:10104000D1013091D201832F99278093B6008091EE
:10105000D1018093B7008EE08093B8002A5F3F4FA4
:101060003093D2012093D101C4EBD0E02250304024
:101070008FEF2F3F380729F08991482721503040C2
:10108000F7CF4883C4EBD0E08091D1019091D20199
:1010900001979093D2018093D1018F5F9F4F71F0A0
:1010A000899172DE8091D1019091D2010197909344
:1010B000D2018093D1018F5F9F4F91F7DF91CF9144
:1010C0000895E9D207C080917702882319F481E856
:1010D00090E008957DDF8823B1F780E090E00895E7
:1010E0009F92AF92BF92CF92DF92EF92FF920F93B7
:1010F0001F93CF93DF9382E090E09093D20180938F
:10110000D10110E0012F8091B9009927AA27BB27B0
:10111000FC013197ED31F10508F026C2ED5EFF4F7D
:10112000099463EA71E08BEB90E0DCD61092BA0090
:101130008BE090E014C28091BA00E82FFF27EF7196
:10114000F070EA5AFD4F9091BB009083883909F006
:10115000CDC0892F992782309105B9F08330910550
:101160002CF40097B1F0019791F0C0C08C34910538
:1011700051F08D3491051CF4039729F0B7C08E3FD0
:10118000910509F0B3C081E005C082E003C084E0AE
:1011900001C086E080938600A9C08091BA0088399A
:1011A000E9F4809186009927863091054CF48430CB
:1011B00091056CF48130910531F00197A4F005C0E0
:1011C00008978CF408C08EEF03C082E001C081E074
:1011D00080936E0208C010926E0205C0843919F423
:1011E00018DE80936A028091BA00E82FFF27EF7122
:1011F000F070EA5AFD4F80818093BB001092BA00D4
:1012000059C0E091D901F091DA01309711F081E0F5
:10121000099581E08093760266DEA7DE882309F4D3
:10122000A4C1A2C172DE1092BA00E091D901F0917E
:10123000DA01309711F082E0099582E0809376021E
:1012400096C1B0DE8091BA0032D250C0EE24FF24A5
:10125000CAEBD0E08091BA0099270197E816F90609
:1012600021F489815ADE082F02C0898156DE089454
:10127000E11CF11C219684E0E816F10458F3C4E067
:10128000EC2EF12C1092BA000093BB001092BC001F
:10129000F092D201E092D1016AC1CAEBD0E089910B
:1012A0003CDEE0E0CD3BDE07D1F3C8F31092BA009C
:1012B0001092BB0083E090E052C18091BC0099275E
:1012C000382F22278091BD009927880F991F282B3E
:1012D000392BC901AA2797FDA095BA2F80935202F6
:1012E00090935302A0935402B09355021092BA0007
:1012F0003EC111E0A0905202B090530200E08091F4
:10130000BA009927D82FCC278091BB009927C82BEA
:10131000D92BEE24FF24EC16FD0608F073C0EAEB8F
:10132000CE2EE0E0DE2ED8D7112349F48E2D817029
:10133000880F880F880F9091BE00892B02C0809182
:10134000BE00EBDD8091520290915302A0915402B5
:10135000B0915502892F9A2FAB2FBB27DEDD8091EC
:101360005202DBDDF6018185D8DD112311F4E0FEA8
:1013700013C08091520290915302A0915402B091F7
:1013800055020196A11DB11D809352029093530204
:10139000A0935402B09355022091BC0020FF13C0CB
:1013A000CE010197E816F90618F127FF21C08091B8
:1013B000BF00B3DD8B2D9927B0DD8A2DAEDD80E037
:1013C000ACDD30E401C038E02091BC009091C10058
:1013D000F6018185981709F420E0022F032329F0F4
:1013E0008091BD006EDE082F03C08091BD005FD1EB
:1013F0000894E11CF11C0894C11CD11CEC16FD06DC
:1014000008F491CF0093BA00B2C011E08091BA0005
:101410009927D82FCC278091BB00C80FD11D0091F0
:10142000BC00EE24FF24EC16FD0608F045C04BEB93
:10143000A42E40E0B42E50D7112339F48E2D8170A4
:10144000880F880F880F802B01C0802F66DD809168
:10145000520290915302A0915402B0915502892FEB
:101460009A2FAB2FBB2759DD8091520256DD80E0C9
:1014700054DDF5018083112311F4E0FE13C0809147
:10148000520290915302A0915402B09155020196DC
:10149000A11DB11D8093520290935302A093540258
:1014A000B09355020894E11CF11C0894A11CB11CD6
:1014B000EC16FD0608F4BFCF1092BA00FE01EC5402
:1014C000FF4F17822396D093D201C093D1014FC012
:1014D0008091BA00C090BB009090BC0021E0D22E59
:1014E00091E0E92EF12CA82EBB24C5018E0D9F1D85
:1014F000E816F906E0F4CBEBD0E0892D9927E81641
:10150000F90650F00D2D11270C541F4F8B8105DD6E
:10151000F8018683D39402C08B81FFDC0894E11C20
:10152000F11C2196C5010196E816F90630F3DC148A
:1015300068F4CD2DDD27C654DF4FF701E654FF4F89
:101540008381EBDC8993D394DC14B8F31092BA0056
:101550008C2D9927FC01EC54FF4F17820396909332
:10156000D2018093D10103C080EC8093BA0061DD89
:10157000DF91CF911F910F91FF90EF90DF90CF906F
:10158000BF90AF909F900895E091CD01F091CE0172
:10159000309761F48B3109F065C08093B40081E02D
:1015A00090E09093CE018093CD01089521E0E93140
:1015B000F20708F053C09F01EC54FF4F80832F5F68
:1015C0003F4F3093CE012093CD012430310591F46B
:1015D0008091B6009927982F88272091B700820F15
:1015E000911D06969093D0018093CF018A5191402E
:1015F000C8F105C02530310539F48E3099F11092CB
:10160000CE011092CD0108952530310558F1809119
:10161000CF019091D0012817390721F590E0A4EB74
:10162000B0E02115310559F0F9018D9198273197D6
:10163000E1F7F093CE01E093CD01992311F450DD51
:10164000089580EB8093B9008093BA0083E090E026
:101650009093D2018093D101ECDC08951092CE01D9
:101660001092CD0108951F920F920FB60F92112480
:101670008F9382E382BF80917702815080937702BB
:1016800080917702882309F483BF8F910F900FBE5A
:101690000F901F90189578948093770282E382BF11
:1016A00083B7836083BF89B7816089BF0895F3DF03
:1016B000809177028823E1F70895CF93C82F80E3C4
:1016C000C43618F08F5FC456FBCF5EDB80E3CA30B0
:1016D00018F08F5FCA50FBCF57DB8C2F805D54DB37
:1016E000CF9108958BE150DB8BE54EDB82E34CDB41
:1016F0008AE44ADB08951F93182F8BE145DB8BE5C5
:1017000043DB812F41DB8DE63FDB1F9108950F9373
:101710001F93182F062F8BE137DB8BE535DB812FED
:1017200033DB802F31DB8DE62FDB1F910F91089586
:101730000F931F93182F062F8BE126DB8BE524DBFD
:10174000812FBBDF8BE320DB802FB7DF88E41CDB3E
:101750001F910F910895AF92BF92DF92EF92FF9287
:101760000F931F93CF935C01E62E142FF22ED02EF1
:10177000842FDEDF8AED08DBC0E0CF1520F484EC97
:1017800003DBCF5FFACF8FEBFFDA01E0D01688F0F2
:101790006E2D812F800FCCDF83EBF6DAC0E0CF1502
:1017A00020F480E2F1DACF5FFACF83EBEDDA0F5F5E
:1017B000EDCF8E2D8F5F682F812F8F5FB9DFC50131
:1017C000FDDA6E2D812F8E5FB3DF83ECDDDAC0E0B2
:1017D000CF1520F484ECD8DACF5FFACF84EBD4DADB
:1017E0001D0D6E2D812F8F5FA3DF80ECCDDAC0E061
:1017F000CF1520F484ECC8DACF5FFACF89EDC4DAD4
:10180000CF911F910F91FF90EF90DF90BF90AF901D
:101810000895FC0120E030E08491882321F02F5FBF
:101820003F4F3196F9CFC9010895CF93DF93EC0173
:10183000BC016F5F7F4FA0916000B09161006A179B
:101840007B0724F584E190E0689FA001699F500D1B
:10185000789F500D1124405A5F4FFA012491C89F80
:10186000F001C99FF00DD89FF00D1124E05AFF4FF1
:101870008491821758F4982FFA016F5F7F4F749606
:101880006A177B071CF484919817B8F36A177B07D3
:10189000D4F484E190E0689FF001699FF00D789F97
:1018A000F00D1124E05AFF4F2491C89FF001C99F09
:1018B000F00DD89FF00D1124E05AFF4F84912817A6
:1018C00011F4CB0102C08FEF9FEFDF91CF9108950C
:1018D000DC01BC01615070401616170624F584E146
:1018E00090E0689FA001699F500D789F500D1124D2
:1018F000405A5F4FFA012491A89FF001A99FF00D73
:10190000B89FF00D1124E05AFF4F8491821758F4CC
:10191000982FFA01615070407497161617061CF440
:1019200084919817B8F316161706D4F484E190E062
:10193000689FF001699FF00D789FF00D1124E05A27
:10194000FF4F2491A89FF001A99FF00DB89FF00DC3
:101950001124E05AFF4F8491281711F4CB01089508
:101960008FEF9FEF0895CF92DF92EF92FF920F9348
:101970001F93CF93DF9310E02DE0E22E00917902C8
:10198000F02E44E1049FF0011124E05AFF4F94919E
:101990000150049F90011124F901E05AFF4F8491F6
:1019A0008917B0F794E1D92EC9018E599F4F31DFC5
:1019B0001816190608F4182FC02E0F5F802F9927CC
:1019C000C0916000D0916100C817D9070CF43BC0EA
:1019D0000D9DF0011124E05AFF4F9491FD9CF00100
:1019E0001124E05AFF4F8491981768F184E1089F11
:1019F00090011124F901E05AFF4F9491F89EF001F3
:101A00001124E05AFF4F8491981761F4EA94C901B8
:101A10008E599F4FFEDE9C01812F992782179307D5
:101A200008F4122F0F5F802F9927C817D9075CF091
:101A300084E1089FF0011124E05AFF4F9491F89E31
:101A4000F0011124CECF80E356DE4CDE64E3862F16
:101A50005EDE84E1F82ECF9CD0011124FD01EC580C
:101A6000FF4F8491823008F0EA948FE08E19C12FE5
:101A7000C69597E29C1B082F1E5F212F4E2D692FC4
:101A8000CD018E599F4F67DE0C2D0F5F83E0E80E6E
:101A90000F9DF0011124E05AFF4F84918230C0F075
:101AA00088E28C1B682F8E2D43DE8091780288237C
:101AB00011F087E320DE8DEA91E080D980917802F1
:101AC000882329F080E317DE64E3862F20DEE39489
:101AD000202F332780916000909161008217930737
:101AE0000CF460C084E1089FA0011124FA01E05ABF
:101AF000FF4F9491E0917902E89F90011124F90140
:101B0000E05AFF4F8491981708F44CC0405A5F4F39
:101B1000FA019491205A3F4FF9018491981721F5C9
:101B200088E2682F6C1B8E2D03DE809179020817E6
:101B300031F480917802882311F487E3DCDD84E1BD
:101B4000089FC00111248E599F4F38D98091790286
:101B5000081749F480917802882329F480E3CBDDCB
:101B600064E3862FD4DDE3940F5F202F3327809129
:101B700060009091610082179307A4F084E1089FB0
:101B8000A0011124FA01E05AFF4F9491E0917902EB
:101B9000E89F90011124F901E05AFF4F84919817B2
:101BA00008F0B4CFDF91CF911F910F91FF90EF908C
:101BB000DF90CF90089580E39EDD94DD63E28EE0B8
:101BC000B7DD87E890E0ECD8089580E394DD8ADD06
:101BD00008951092780290917902492F552742304A
:101BE00051050CF184E1989FF0011124E05AFF4F58
:101BF0008491282F33272150304084E190E0489F82
:101C0000F001499FF00D589FF00D1124E05AFF4F4D
:101C1000849199272817390731F041505040749723
:101C200042305105ACF7409379029DDE08959BDE6A
:101C300008958D3029F41092D30183E090E0089547
:101C40009091D301992321F48B31D1F481E005C027
:101C5000913031F48B35A1F482E08093D30112C02E
:101C6000923071F4813429F41092D30181E090E034
:101C70000895823429F41092D30182E090E008950F
:101C80001092D30180E090E00895CF93DF93D1DFED
:101C90008230910521F1833091051CF4019721F0E8
:101CA0006AC0039791F167C080917902992710DE8D
:101CB000209179028F5F9F4F21F0822F992708DEB4
:101CC00021C084E1289FF0011124E05AFF4F849144
:101CD000823008F450C081E0809378024BC080913C
:101CE0007802813019F41092780244C08091790210
:101CF00099279BDD8F5F9F4F09F43DC0809179024A
:101D0000992793DD8093790235C0809178028130E4
:101D100011F45FDF30C06091790284E1689FA00117
:101D20001124FA01EC58FF4F8491282F3327FA0130
:101D3000E05AFF4F8491992701962817390721F41B
:101D40006F5F6093790216C0FA01EE58FF4FC5919C
:101D5000D491209761F42FDFFE012DE130E0CF0117
:101D60000197F1F72150304037FFF9CF03C02DDF45
:101D7000FE010995F8DDDF91CF91089581E0809310
:101D80007902109278020895CF9380917A02883771
:101D900020F48F5F80937A0287C010927A02A0E0CD
:101DA000C0916200AC1708F07FC061E070E0BFEF47
:101DB000E3E6F0E08181882309F467C08F3F41F4B6
:101DC000CB01008002C0880F991F0A94E2F74CC033
:101DD0008230D1F441E050E09A01008002C0220F2D
:101DE000331F0A94E2F785B3822B85BB8281882357
:101DF00049F5008002C0440F551F0A94E2F7942F62
:101E0000909585B389231BC08130F9F421E030E03F
:101E1000C901008002C0880F991F0A94E2F7982F29
:101E2000909585B3892385BB8281882359F40080EE
:101E300002C0220F331F0A94E2F785B3822B85BBC1
:101E4000B1832DC0815082832AC092819923D1F41D
:101E5000828383812081882361F4B383CB0102C014
:101E6000880F991F2A95E2F7982F909585B38923BB
:101E700015C09383CB0102C0880F991F2A95E2F702
:101E80009C010AC0915092830AC09B01008002C04D
:101E9000220F331F0A94E2F785B3822B85BBAF5F15
:101EA0003496AC1708F486CFCF91089590E0409116
:101EB0006200941790F461E070E0E3E6F0E0808166
:101EC00034969B0102C0220F331F8A95E2F784B338
:101ED000822B84BB9F5F941790F388E780937A02EC
:101EE00053DF0895FB01DC0105900D920020E1F71E
:101EF0000895FB019F01E8944230BCF04532ACF4F8
:101F00004A3029F497FB1EF4909581959F4F642FDA
:101F1000772732D0805D8A330CF0895D8193CB01C5
:101F20000097A9F716F45DE251931082C90100C031
:101F3000DC01FC0101900020E9F73297AE17BF07E2
:101F400030F47C916081708331976D93F7CF089561
:101F5000E199FECFBFBBAEBBE09A11960DB20895DA
:101F6000E199FECFBFBBAEBB0DBA11960FB6F89488
:101F7000E29AE19A0FBE0895AA1BBB1B51E107C06C
:101F8000AA1FBB1FA617B70710F0A61BB70B881F09
:101F9000991F5A95A9F780959095BC01CD01089598
:101FA0005000030000000001000000030000005A80
:101FB000D2FFFFFFFF80250000000008A1200000E5
:101FC000000002000300016E6F2066756E63746985
:061FD0006F6E20210000ED
:00000001FF
