:10000000020EF090BDF17422F00000000090BCF0F0
:10001000E0FFE546C39410500712072EEF6001225F
:100020001228ECEF600122C2027855E6645C60049D
:10003000E6B42F05752A5680177856E6643A6003B1
:100040000200E318E6C3944350030200E3752A5804
:10005000E54BB40310907A0CE0FCA3E0FDA3E0FEB6
:10006000A3E0FF8005E4FFFEFDFC8F3E8E3D8D3C4E
:100070008C3BA82AE6706F74FFF54AF549F548F500
:1000800047E54B6403603F753E02907A0FE0FBC387
:10009000E5459BF545E5449400F544E5439400F5BA
:1000A00043E5429400F542907A0EA3E025E0FEE499
:1000B000F54A8E49F548F547AF21FCFDFE907A0CD4
:1000C000121ABA752180853E31853D30853C2F85D9
:1000D0003B2EE4F554F553F552F551F536754612BD
:1000E0007F4122752A55A82AE6B4E5027605E53E49
:1000F000700CE53B7008E53C7004E53D60328521FD
:1001000036E53E24FEFFE53D34FFFEE53C34FFFDD1
:10011000E53B34FFFCA82D121A82EF2545F54FEE82
:100120003544F54EED3543F54DEC3542F54C801F29
:10013000907A0FE0F536CBC3E5459BF54FE5449447
:1001400000F54EE5439400F54DE5429400F54CE58D
:100150003670030203F2121EA8EF600122E4F5409C
:10016000F541C3E540940240030203D874002541E1
:10017000F52C74003540F52B852C82F583E0FF705B
:100180000302041FEF64E570030203CABF05027F88
:10019000E5A82AE6FE6F6008EE642A60030203CA3F
:1001A000E4F53AFFEFC3940B5078E52C2FF582E489
:1001B000352BF583E0FEAD3AE52A2DF8EE66605D5D
:1001C000AD3AE52A2DF8E66015AD3AE52A2DF8E6B8
:1001D000645C600AAD3AE52A2DF8E6B42F1FEE64A0
:1001E00020703FEFC394085010E52C2408F582E4FA
:1001F000352BF583E0642070297F0B8025AE3AE52E
:100200002A2EF8E6B42E1BE53A6408600EE52C2F82
:10021000F582E4352BF583E0B420077F070F053A1C
:100220008082EFC3940B500302030BE52C240BF5E3
:1002300082E4352BF583E030E30302030BC200E5D3
:100240002C241AFFE4352BFE1229BCE48F3E8E3D90
:10025000F53CF53BE54BB40310E52C2414FFE435E5
:100260002BFE1229BC8E3B8F3CAF3AE52A2FF8E6D5
:100270006006200003020301853E31853D30853C48
:100280002F853B2EE4F554F553F552F551F536E53F
:100290002C240BF582E4352BF583E030E41F74FF4A
:1002A000F54AF549F548F5477D137F101228F0EF20
:1002B0006001223000047F4380027F4122E52C242C
:1002C0001CFFE4352BFE12299F8F4A8E498D488CE6
:1002D00047E53E7017E53B7013E53C700FE53D7058
:1002E0000B7536FFF54AF549F548F5477D147F1043
:1002F0001228F0EF6001223000047F4380027F006B
:1003000022E53A04252AF52A0200E6AF3AE52A2F2B
:10031000F8E6642A60030203CAE52C240BF582E4A4
:10032000352BF583E030E3030203CAE53A04252ABE
:10033000F8E67053E4FFF538E52C2FF582E4352B11
:10034000F583E06420602FBF080AAE38E52A2EF856
:10035000762E0538E52C2FF582E4352BF583E0FE6B
:10036000AD38E52A2DF8EEF6E5387008A82AE6B48F
:10037000050276E505380FBF0BBEAF38E52A2FF82A
:10038000E4F6D20002023FE53A04252AF8E6F470CA
:1003900032E54A700CE5477008E5487004E54960AD
:1003A00093E54730E703121A38E54A24FFF54AE59A
:1003B0004934FFF549E54834FFF548E54734FFF592
:1003C000478007E53A04252AF81674202541F541AF
:1003D000E43540F540020162E54F2401F54FE43574
:1003E0004EF54EE4354DF54DE4354CF54C153602E1
:1003F000014FE53E700CE53B7008E53C7004E53DBF
:10040000601D7F3BE4FD1209B7EF60012220000F61
:1004100085373B85383C85393D853A3E0200E6E428
:10042000FFE52A2FF8E6FE6013642A600FEE645C95
:100430006004EEB42F037FB3220F80E57F42227861
:1004400059E6FE08E6FBCAEECA7855E670030205D7
:10045000B7AF3EAE3DAD3CAC3B8B828A83121ABA3D
:10046000AF4AAE49AD48AC4712282E2404122821C9
:10047000121ABAAF54AE53AD52AC5112282E240802
:10048000122821121ABA907A0C12274412282E240C
:100490000C122821121ABAAF45AE44AD43AC421239
:1004A000282E2410122821121ABAAF4FAE4EAD4D8D
:1004B000AC4C12282E2414122821121ABAAF29AEDD
:1004C00028AD27AC2612282E2418122821121ABA79
:1004D000907A0012274412282E241C122821121A66
:1004E000BAAF35AE34AD33AC3212282E24201228E8
:1004F00021121ABA907A0812274412282E242412A4
:100500002821121ABAAF31AE30AD2FAC2E12282EE0
:100510002428122821121ABAAF2AE4FCFDFE122860
:100520002E242C122821121ABA12282E2434122812
:1005300021E540F0A3E541F0907A04122829243601
:10054000122821EEF0A3EFF0907A06122829243821
:10055000122821EEF0A3EFF012282E243C122821BD
:10056000E546F012282E243D122821E53FF01228FE
:100570002E243E122821E54BF012282E243F12286B
:1005800021E521F012282E2440122821E52DF01219
:10059000282E2441122821E536F0A201E433122846
:1005A0002D2442122821EFF0A202E43312282D2438
:1005B00043122821EFF0228B828A831227448F3E38
:1005C0008E3D8D3C8C3B8B828A83EB240412283534
:1005D0001227448F4A8E498D488C478B828A83EB41
:1005E00024081228351227448F548E538D528C5173
:1005F0008B828A83EB240C122835122744907A0CC4
:1006000012283C24101228351227448F458E448D21
:10061000438C428B828A83EB2414122835122744A0
:100620008F4F8E4E8D4D8C4C8B828A83EB2418120B
:1006300028351227448F298E288D278C268B828A75
:1006400083EB241C122835122744907A0012283C90
:1006500024201228351227448F358E348D338C3266
:100660008B828A83EB2424122835122744907A083F
:1006700012283C24281228351227448F318E308DC1
:100680002F8C2E8B828A83EB242C12283512274440
:100690008F2A8B828A83EB2434122835E0F540A31D
:1006A000E0F5418B828A83EB2436122835E0FFA3E4
:1006B000E0907A041228452438122835E0FFA3E0A0
:1006C000907A06122845243C122835E0F5468B82A4
:1006D0008A83EB243D122835E0F53F8B828A83EB39
:1006E000243E122835E0F54B8B828A83EB243F129F
:1006F0002835E0F5218B828A83EB2440122835E0EF
:10070000F52D8B828A83EB2441122835E0F5368B58
:10071000828A83EB2442122835E024FF92018B82E7
:100720008A83EB2443122835E024FF920222E54617
:10073000C394035007122522EF6001221229AFE46F
:10074000F525F524F523F522121EB4EF600A1228D0
:1007500050121EB4EF600122900000E0FF64EB60D5
:1007600037EF64E96032E4FDED6440602874C22D27
:10077000F582E43401F583E06015ED7E0024C6FFC8
:10078000EE3401FE12299F907A00121ABA80137477
:10079000102DFD80D37F9222907A00122750000006
:1007A0000000907A00E0FCA3E0FDA3E0FEA3E0F5EA
:1007B000258E248D238C22121EB4EF60012290001E
:1007C00000E0FF64EB6008EF64E960037FA1229022
:1007D000000DE0F52130E605752D06802E30E5058B
:1007E000752D05802630E405752D04801E30E30547
:1007F000752D03801630E205752D02800E30E1055F
:10080000752D018006752101E4F52D7E007F1612FD
:1008100029BC907A06EEF0A3EFF04E70287E007FA0
:100820002412299F8F318E308D2F8C2EE4FBFA7984
:1008300001F8D3121A5E50037FA222907A06E530A7
:10084000F0A3E531F0900014E0FF900013E04F605A
:10085000127E007F131229BCE48F3E8E3DF53CF5DD
:100860003B800F7E007F2012299F8F3E8E3D8D3C66
:100870008C3B7E007F111229BCEF240FFFE43EC4A5
:10088000F854F0C868FEEFC4540F48FFE4FCFD9034
:100890007A0C121ABA7E007F0E1229BCE48F358EB4
:1008A00034F533F532907A06E0FEA3E0FFEF25350C
:1008B000FFEE3534FEE43533FDE43532FC907A0C3E
:1008C000E0F8A3E0F9A3E0FAA3E02FF545EA3EF54E
:1008D00044E93DF543E83CF542900010E0D3940133
:1008E0004021907A06E0FEA3E0FFE4FCFDE5452F01
:1008F000F545E5443EF544ED3543F543EC3542F529
:10090000428007E4907A06F0A3F0C3E53E9545FFE8
:10091000E53D9544FEE53C9543FDE53B9542FCA84D
:100920002D121A6F907A08121ABAE47BF57AFFF941
:10093000F8D3121A5E401FE4907A04F0A3F0907A84
:100940000AE0FEA3E094F5EE940F5005754B01808C
:1009500024754B02801F7E007F301229BC907A04E0
:10096000EEF0A3EFF07E007F2C12299F907A0C12FC
:100970001ABA754B03907A00E0FCA3E0FDA3E0FEF9
:10098000A3E02535F535EE3534F534ED3533F53363
:10099000EC3532F532907A00A3A3A3E02545F54566
:1009A000EE3544F544ED3543F543EC3542F5427DF3
:1009B000107F031228F0228D08EFC8E54BB4020720
:1009C000121A9578018008B40312121A957802124F
:1009D0001A828F0C8E0B8D0A8C098023121A958E29
:1009E000098F0AEF139200E509C313FEE50A1325E8
:1009F0000AFFE5093EFEE48F0C8E0BF50AF509EEC1
:100A00005401FEEF2400F52CEE3400F52BAF0CAEB4
:100A10000BAD0AAC091229C6EF2535F50CEE3534BD
:100A2000F50BED3533F50AEC3532F509E50C6529A2
:100A30007012E50B6528700CE50A65277006E5095C
:100A40006526601D3001071222CEEF600122850964
:100A500022850A23850B24850C25121EB4EF600124
:100A600022E5086023B4FF028006E508B4010BE428
:100A7000F50CF50BF50AF509800C852E0C852F0B6E
:100A800085300A853109D201E54B6402703F852C1F
:100A900082852B83E0F537A3E0F53885373A853832
:100AA00039E4F537F538AE39AF3AC3EF94F7EE9441
:100AB000FF4003D38001C39200E508600D852C82BE
:100AC000852B83E509F0A3E50AF07F0022E54B645E
:100AD00003705A852C82852B83E0FCA3E0FDA3E004
:100AE000FEA3E0F53A8E398D388C37E53A54F0FFA5
:100AF000E50C540F4FF50CE53A540F85373AF537AE
:100B0000AF398538398F38AF37EFC3940F4003D3EF
:100B10008001C39200E5086011AF0CAE0BAD0AACCA
:100B200009852C82852B83121ABA7F0022530A0F63
:100B3000C3E52C9400FFE52B9400FEEFF47003EE68
:100B40006401604D852C82852B83E0F537A3E0F5A9
:100B500038E5087003020C06300023E509C454F0A0
:100B6000FFE537540F4F852C82852B83F0E50AC4AF
:100B700054F0FFE509C4540F4FA3F0020C06852C76
:100B800082852B83E509F0E53854F0450AA3F0800F
:100B900075852C82852B83E0F537E50860223000CF
:100BA0000EE509C454F0FFE537540F4FFF8002AF44
:100BB00009852C82852B83EFF01222CEEF60012273
:100BC000E5292401F525E43528F524E43527F52326
:100BD000E43526F522121EB4EF600122900000E0F9
:100BE000F538E508602030000FE50AC454F0FFE551
:100BF00009C4540F4FFF8007E53854F0450AFF90B1
:100C00000000EFF0D201300013E538C454F0FFE5E6
:100C100037C4540F4FF53AE538C4800585373AE5B7
:100C200038540FF539E4F537F538AE39AF3AC3EF3C
:100C300094F7EE940F4003D38001C392007F00220B
:100C40001200038F36E536700A121F54EF7003024C
:100C50000D8922E53664426003AF3622C3E5419434
:100C6000E0E54094015003020D89E53E700FE53B3D
:100C7000700BE53C7007E53D7003020D27C3E54F9F
:100C80009545FFE52114FE5FF536E5416008EE6508
:100C9000366003020D897F3BE4FD1209B7EF600166
:100CA00022200003020D891218EAEF6001227F3B27
:100CB0007D021209B7EF6001221222CEEF600122FD
:100CC0001229AFE4FFFEEE64024F601374002FF5AB
:100CD0008274003EF583E4F00FBF00010E80E7E46C
:100CE000F536122705E5417010F540F54185254F91
:100CF00085244E85234D85224C852137E53760209C
:100D0000121FF7EF600122E5252401F525E43524C3
:100D1000F524E43523F523E43522F522153780DC6C
:100D2000122339EF606322E541705EE54F24FFF541
:100D30004FE54E34FFF54EE54D34FFF54DE54C34AF
:100D4000FFF54CF522121EABEF600122E4F540F5F1
:100D500041C3E5409402502E74002541FF740035D4
:100D6000408F82F583E0B4E510E582240BF582E440
:100D70003583F583E0540E601074202541F541E47D
:100D80003540F54080CB7FB2221218EAEF60012295
:100D90001222CEEF60012285313E85303D852F3C09
:100DA000852E3B122339EF600122121EA8EF60014D
:100DB0002274002541FF74003540FEE4FDEDC3942C
:100DC0000B50047C2080027C00EF2DF582E43EF580
:100DD00083ECF00DBD20E6EF2418F582E43EF583A8
:100DE0007421F0A37430F0EF241CF582E43EF58307
:100DF0007401F0E4FDEDC3940B5021A82AE6FC60D9
:100E00001BECB42E047D08052AA82AE6FCEF2DF57C
:100E100082E43EF583ECF00D052A80D9853E3785C6
:100E20003D38853C39853B3AEF241AF582E43EF59E
:100E300083E537F0A3E538F0EF2414F582E43E12A1
:100E40001FEEEF600122853E31853D30853C2F85C8
:100E50003B2EE4F54AF549F548F547F554F553F5C9
:100E600052F551F5367D147F101228F0225C43357F
:100E7000315C43483337354846542E4300D5D2B20F
:100E8000BBB5BD2F4335312F434833373548465422
:100E90002E43CEC4BCFE0D0A005C4E455746494C5D
:100EA000452E545854005C4D595F46494C45322EEE
:100EB000545854004F4B2120D5E2CAC7D0B4B5BD19
:100EC000D0C2CEC4BCFED6D0B5C40D0A007FC87E49
:100ED000C80000DEFCDFF822E493A3F60870F922D4
:100EE000EF700122C294120ECDD294120ECD80F476
:100EF0007581CFC294120ECDD294121A3D120EE01B
:100F0000E54664026005121A0D80F5C294120ECDFA
:100F1000120ECD750D05120ECD122625EF64006060
:100F200003D50DF200C2957855900E6D120ED812B1
:100F30000003EF64B3600AEF64426005120EE080C4
:100F4000257F00900200C082C083900E7DEF93D079
:100F500083D082F0A360040FBFFFEB750E008F0FEC
:100F6000750D01021003E5477014E5487010E5495E
:100F7000C3947840147007E54AC39400400B750D84
:100F80003C750E78750F008015E54AF50F24FFE5D6
:100F900049F50E3401FEE4354813EE13F50D78558E
:100FA000A60DC04AC049C048C047E54A24FFF54ADB
:100FB000E5493401F549E5483400F548E547340092
:100FC000F5471219E5120EE0D047D048D049D04A73
:100FD000785576001223A4120EE09002007E007F66
:100FE00000C3EF950FEE950E5019E0FDC3946140DC
:100FF0000AEDD3947A5004ED54DFF0A30FBF00E163
:101000000E80DEC2967855900E99120ED8120C40C2
:10101000120EE07855A60D1219EF120EE074FF784B
:101020005DF6785BF608F6785976300876B2785532
:10103000760008760008A60E08A60F121ADF120E18
:10104000E0785576001223A4120EE07855900EA693
:10105000120ED8120C40120EE07856900EB4120EFA
:10106000D8785576181213ED120EE07855760112E5
:1010700023A4120EE0D296D295E5466401600512D3
:101080001A0D80F5D294120ECD120ECD020F00E58E
:1010900046D394145007E546C3941250037FB422FC
:1010A0007855E6FF08F67006300203021247E4782E
:1010B00055F67857F608F67856E670030211CBE538
:1010C00036F4704AE53E700CE53B7008E53C700470
:1010D000E53D602DE546B41209E54B640360037FEE
:1010E000B122AF31AE30AD2FAC2E785F121AAE12F6
:1010F00018F6EF6001227F5F7D021209B7EF6008EA
:10110000221221F5EF600122785816E4F5361227F5
:10111000057857E6C39440502FE66037E6FFE4FCBD
:10112000FDFE7859121AA1EF2BFFEE3AFEED39FDC4
:10113000EC38FCEF6525FFEE6524FEED6523FDEC44
:101140006522FC4D4E4F600B121BD4EF600122E470
:101150007857F67857E6700DAF25AE24AD23AC2254
:101160007859121AAEC3E5219536FF7856E6FEEFA0
:10117000D39E400CE60826F618E62536F536804B59
:101180007857EF26F6C318E69FF6E67018740078D5
:101190005E66700474001866700B121BD4EF600159
:1011A00022E47857F67F2EE4FD1209B7EF600122A2
:1011B0003000067536FF0210B785372E85382F852B
:1011C0003930853A31E4F5360210B7300107122282
:1011D000CEEF6001227857E66007121BD4EF600162
:1011E000227858E66035AF31AE30AD2FAC2E785F47
:1011F000121AAE7858E6FFE4EFF53174FFF530F5DA
:101200002FF52E122343CBEFCB785F121A958F3137
:101210008E308D2F8C2EEB6002FF22AF54AE53AD7B
:1012200052AC51AB4AAA49A948A847C3121A5E500A
:101230000E85544A855349855248855147D202E567
:101240003F30E4063002030226BE7F002230030353
:101250000225227546011227BAEF60037F82227DA4
:10126000157F0712298B7F1912295F90BCF0E07D52
:10127000157F0612298B7F0A12295F90BCF0E07D52
:101280008F7F251229757539647F0212295F122715
:10129000BAEF6006D539F27F82227F1412295F7D72
:1012A000467F011227FCE5506003AF50227F0112F8
:1012B000295F7D457F051227FCE5506003AF502272
:1012C0007D137F8512298B7F0512295F7D467F0262
:1012D0001227FCE5506003AF50221229D090000E77
:1012E000E0640860037F1F2290000BE0FD7F301256
:1012F0002975E4F539AF39EF75F007A42414FFE53B
:10130000F034008F82F583E0F53AA3A3E0644070E7
:1013100020E53A30E70CE53AC454F04409FD7F3249
:10132000800AE53AC454F04401FD7F3312297580E8
:10133000037F1F220539E539B402BA7F0112295F04
:10134000900005E0FF7D491227FCE5506003AF5097
:1013500022E4FD7F311229757F0212295F7D2B7FE8
:101360000812298B90BCF074A1F0000074FEF0000C
:1013700000E4F00000F0000090000BE090BCF0F002
:101380000000E4F0000004F00000E4F07D807F1E27
:101390001229757D4F7F0D1227FCE55070247F01C7
:1013A00012295F7D4F7F091227FCE55070147D2BB9
:1013B000FF12298B7DC07F1E1229757D4F7F011280
:1013C00027FCE550600C7F0112295F7D41E4FF128C
:1013D00027FC7F0212295F7D247F12121CC9E55071
:1013E00070077D037F020228F012226222E5466424
:1013F00015600712287BEF6001227855E6F52A7008
:101400000630020302157BE47855F6E52A700302E4
:101410001573E536F47077E53E700CE53B7008E532
:101420003C7004E53D6025853154853053852F524D
:10143000852E511218F6EF6001227F517D021209AC
:10144000B7EF6001221222CEEF6008221221F5EFE1
:10145000600122853154853053852F52852E517479
:10146000FFF531F530F52FF52E122343CBEFCB8569
:10147000543185533085522F85512EEB60012285E2
:101480004A54854953854852854751E4F536122719
:1014900005121EB4EF600122AF54E5535401FEC3A0
:1014A000E49FFD74029EFCC3ED952AEC9400400578
:1014B000852A378006E554F404F53774002FF58249
:1014C00074003EAF82F52B8F2CAF37E4FCFDFEE5B8
:1014D000542FF554EE3553F553ED3552F552EC35A6
:1014E00051F551C3E52A9537F52A7855E62456FF7C
:1014F000E53726F6C8EFC8E6852C82852B83F005F4
:101500002CE52C7002052B0FD537E9121FF7EF6081
:101510000122AF54AE53AD52AC51AB4AAA49A948CF
:10152000A847C3121A5E500E85544A855349855206
:1015300048855147D202E5535401455460030214D3
:101540000B0536E536C39521500302140B7F2EE4BC
:10155000FD1209B7EF6001223000067536FF021454
:101560000B85372E85382F853930853A31E4F536AD
:1015700002140BE53F30E4063002030226BE7F0072
:1015800022E546D394145007E546C3941250037FD6
:10159000B4227855E608F6E418F67857F6C3E54A1B
:1015A0009554FFE5499553FEE5489552FDE547956D
:1015B00051FC1229C68F3A8E398D388C37E5387038
:1015C00004E5396006785876FF80047858A63A78A2
:1015D00056E670030216AA7858E670030216AAE5CA
:1015E00036F470030216AA1227057857E6C3944012
:1015F000502FE66037E6FFE4FCFDFE7859121AA191
:10160000EF2BFFEE3AFEED39FDEC38FCEF6525FFE0
:10161000EE6524FEED6523FDEC6522FC4D4E4F602A
:101620000B121DBDEF600122E47857F67857E67083
:101630000DAF25AE24AD23AC227859121AAEC3E506
:10164000219536FFF5377858E6FEEFD39E4003E646
:10165000F537E537D3785696400CE60826F618E6B7
:101660002536F5368049C37856E69537F608E537CE
:1016700026F6C308E69537F6E5372536F5366521B3
:1016800060030215CF7F2EFD1209B7EF60012230F3
:1016900000067536FF0215CF85372E85382F853920
:1016A00030853A31E4F5360215CF7857E66003020B
:1016B0001DBD7F0022122781EF600122E546C39401
:1016C00010500712072EEF6001227D107F101228A4
:1016D000F0EF6001227861A64B907A08E0FCA3E06D
:1016E000FDA3E0FEA3E0FFA92DC8E9C8121A827885
:1016F00059121AAE907A04E0FEA3E0FF4E603DE47A
:10170000FCFD907A00E0F8A3E0F9A3E0FAA3E02F53
:10171000F525EA3EF524ED39F523EC38F522121EC5
:10172000B4EF6001227E017FE812299FA92DC8E94C
:10173000C8121A82785D121AAE0217D2785D121A98
:10174000C600000000907A08E0FCA3E0FDA3E0FEE4
:10175000A3E02402F531E43EF530E43DF52FE43C0E
:10176000F52EE4753E02F53DF53CF53BE53E653171
:10177000FFE53D6530FEE53C652FFDE53B652EFC54
:101780004D4E4F604D7F3BE4FD1209B7EF600122E3
:10179000E53A7027E5377023E538701FE539701B8F
:1017A000785D121AA1E4FCFDFEEB2521FFEE3AFE66
:1017B000ED39FDEC38FC785D121AAEE53E2401F5FA
:1017C0003EE4353DF53DE4353CF53CE4353BF53B49
:1017D000809A7F0022E5466415600712287BEF603F
:1017E00001227855E6F52AE4F6E52A70030218E7A7
:1017F000E5535401FEC3E49554FF74029EFEC3EF0B
:10180000952AEE94004005852A378006E554F404B5
:10181000F537C3E54A9554FBE5499553FAE54895F4
:1018200052F9E5479551F8AF37E4FCFDFED3121AA3
:101830005E500CC3E54A9554F53770030218E71261
:101840002705121EB4EF600122E5535401FE740017
:101850002554F58274003EAF82F52B8F2CAF37E410
:10186000FCFDFEE5542FF554EE3553F553ED35529E
:10187000F552EC3551F551C3E52A9537F52A7855DF
:10188000E62456FFE53726F6852C82852B83E0C8B3
:10189000EFC8F60F052CE52C7002052BD537E9E5CE
:1018A000535401455460030217E90536E536C395E4
:1018B0002150030217E97F2EE4FD1209B7EF600102
:1018C000223000117536FF85544A855349855248A8
:1018D000855147801285372E85382F853930853AD6
:1018E00031E4F5360217E97F0022853E31853D302F
:1018F000853C2F853B2E907A08E0FCA3E0FDA3E019
:10190000FEA3E0FFAB31AA30A92FA82ED3121A5E96
:1019100040037FB122E5312401F531E43530F53063
:10192000E4352FF52FE4352EF52E7F2EE4FD120938
:10193000B7EF600122E53A700FE537700BE53870BC
:1019400007E53970030219DDE54B640160A8752BCA
:1019500000752C00E54B640270337537FF74022567
:101960002CF52CF582E4352BF52BF583E07015A3CF
:10197000E07011852C82852B8374FFF0A3F0E5378E
:10198000F4048049D537D67531FF0218F675377FD4
:101990007404252CF52CF582E4352BF52BF583E02A
:1019A0007032A3E0702EA3E0702AA3E0540F7024DD
:1019B000852C82852B8374FFF0A3F0A3F0A3E04471
:1019C0000FF0E5315480FFC3748095374FF531D265
:1019D000017F0022D537B943317F0218F67F2E7D73
:1019E000FF1209B722785D76020876000215817829
:1019F0005D760208760002108FC0D0C0E0C082C0C1
:101A000083121A10D083D082D0E0D0D03220B2FD21
:101A100090BDF17422F0A3A3A390BCF0E0F550B404
:101A2000160475460122B4150475460222227F96DB
:101A3000DFFE227FFADFFE227400222222E581D31C
:101A400094F040037FFC22753F05900000E01229CE
:101A5000E1EFC3943050037FFF2212240D22EB9F4D
:101A6000F5F0EA9E42F0E99D42F0E89C45F022E85C
:101A7000600FECC313FCED13FDEE13FEEF13FFD864
:101A8000F122E8600FEFC333FFEE33FEED33FDECE0
:101A900033FCD8F122E6FC08E6FD08E6FE08E6FF86
:101AA00022E6FB08E6F908E6FA08E6CBF822ECF6AF
:101AB00008EDF608EEF608EFF622ECF0A3EDF0A341
:101AC000EEF0A3EFF022D083D082E493F608740105
:101AD00093F608740293F608740393F6740473E59E
:101AE00046C3941350037FB422121EA8EF60012254
:101AF000C20174002541FB74003540FA785DE6FFB1
:101B0000EB240BF582E43AF583E0F6EFF460138BF7
:101B1000828A83E582240BF582E43583F583EFF036
:101B2000D201785BE6F53A08E6F539EB2416FFE4D6
:101B30003AFE1229BC18EEF608EFF6E539F4FEE598
:101B40003AF44E6012EB2416F582E43AF583E53957
:101B5000F0A3E53AF0D2017859E6F53A08E6F5390E
:101B6000EB2418FFE43AFE1229BC18EEF608EFF653
:101B7000E539F4FEE53AF44E6012EB2418F582E400
:101B80003AF583E539F0A3E53AF0D2017855121A17
:101B9000957861121AAEEB241CFFE43AFE12299FDD
:101BA0007855121AAE7861E6F4601E121A958F4AC3
:101BB0008E498D488C471229DAEB241CF582E43AD1
:101BC000F583121ABAD201C202300105C201021F06
:101BD000F77F0022E4F53990BDF17456F000000063
:101BE00000E4F550785CE690BCF0F0000018E6F0F8
:101BF000000018E6F0000018E6F000007857E6F064
:101C0000853F3AE53F13135403FFE53F54FC4FF57E
:101C10003FE675F008A4F53885F037121A0DE55047
:101C2000641E707BE53A540C6013785DE6FE08E6AE
:101C3000FF122113785DEEF608EFF6801790BDF1E4
:101C4000742BF000000000E4F55090BCF07440F0FC
:101C5000FF121A3C90BDF17457F0E5542440F5543E
:101C6000E43553F553E43552F552E43551F551E579
:101C7000386009D538A5E5376008809F15371538D5
:101C80008099853A3F121A0DE550B41412E53F20B1
:101C9000E503121A337857E6785526F67F00228539
:101CA0003A3FE539C39405501C1225D2E53F540C48
:101CB0007004FF121A3CE539C394014003122262FA
:101CC0000539021BD7122262221228A37855121A54
:101CD000C655534243E4785EF608F608F67862F695
:101CE000F5397D2B7F1F12298B7F557855753A1F4B
:101CF000E690BCF0F008D53AF77F31122948CDEFD5
:101D0000CD8D3A7F1E1229757F331229487D4F12DF
:101D100027FCE550B416037F8222E550600FE539B9
:101D20006003021DAA12246C75390180B57F32123E
:101D300029488F39633A40785DE6602C1227F1E537
:101D4000506012E550642E7061533A7F7D41AF3987
:101D50001227FC8013633A807864E6B4030778683E
:101D6000E6641260031229D01227F1E550703BE5BA
:101D70003A6480FD7F3112297590BDF17428F0001E
:101D80000000007F55785590BCF0E0F53AF539E554
:101D90003A600A90BCF0E0F608153A80F2E539B4F2
:101DA0000D087861E6C39402400675501F02246C4A
:101DB0007861E67002FF2275501F7F1F22E4F5391B
:101DC00090BDF17454F000000000E4F550785CE63A
:101DD00090BCF0F0000018E6F0000018E6F00000FB
:101DE00018E6F000007857E6F0853F3AE53F131318
:101DF0005403FFE53F54FC4FF53FE675F008A4F5AA
:101E00003885F037121A0DE550641D7071E53A54AB
:101E10000C6013785DE6FE08E6FF122185785DEE22
:101E2000F608EFF6801590BDF17428F00000000070
:101E3000E4F55090BCF0E0FF121A3B90BDF17455F0
:101E4000F0E5542440F554E43553F553E43552F5A8
:101E500052E43551F551E5386009D538A7E53760CA
:101E60000880A115371538809B853A3F121A0DE579
:101E700050B4140A7857E6785526F67F0022853A42
:101E80003FE539C39405501C1225D2E53F540C7030
:101E900004FF121A3BE539C3940140031222620584
:101EA00039021DC012226222854C22854D23854EA7
:101EB00024854F25E52565297015E5246528700FD3
:101EC000E52365277009E52265267003021F51E4AA
:101ED000F53990BDF17454F000000000E4F5509025
:101EE000BCF0E525F00000E524F00000E523F0005B
:101EF00000E522F000007401F075260075270075DA
:101F00003808121A0DE550641D702BAF27AE26124B
:101F100021858E268F2790BDF17455F0D538E38545
:101F20002226852327852428852529121A0DE55088
:101F3000B414037F0022E539C39405500EE539C37C
:101F400094014003122262053980871229AF0222D0
:101F5000627F0022E546C394135007120003EF602E
:101F600001221228ECEF600122121EA8EF6001226C
:101F700074002541FF740035408F82F58374E5F0CD
:101F8000121FF7EF600122AF3EAE3DAD3CAC3B8F80
:101F90003A8E398D388C37EC4D4E4F604EE53E24ED
:101FA000FFF53EE53D34FFF53DE53C34FFF53CE50E
:101FB0003B34FFF53BE4F531F530F52FF52E7F3757
:101FC0007D011209B7EF600122E5312401F531E40A
:101FD0003530F530E4352FF52FE4352EF52E300071
:101FE000DD1222CEEF6001220223437F0022F5831F
:101FF000E539F0A3E53AF0E4F53990BDF17456F017
:1020000000000000E4F55090BCF0E525F00000E58C
:1020100024F00000E523F00000E522F00000740148
:10202000F0752600752700753808121A0DE5506402
:102030001E7033AF27AE261221138E268F2790BD38
:10204000F17457F0D538E385222685232785242887
:10205000852529121A0DE550B4140BE53F20E50340
:10206000121A337F0022E539C39405500FE539C3B6
:10207000940140031222620539021FFA1229AF02AD
:102080002262E53E700CE53B7008E53C7004E53DDE
:102090006072853E31853D30853C2F853B2EAF21DA
:1020A000E4FCFDFE7855121AA1C3121A5E40387F77
:1020B0002EE4FD1209B7EF60012220004785372E7C
:1020C00085382F853930853A317855121A95AB21EC
:1020D000C3EF9BFFEE9400FEED9400FDEC9400FC3A
:1020E0007855121AAE80B77858E6FFE521145FF5EF
:1020F00036122705AF25AE24AD23AC227855121A2F
:10210000AE7F00227536FF7855121AC6FFFFFFFF1B
:102110007F002290BDF1742BF0E4F550E53F5403AD
:102120006403FD744090BCF0F0CD602A1460118F00
:10213000828E83E090BCF0F00FBF00010EDDF02234
:1021400005A28F828E83E0A305A2F005A2DDF7AF82
:1021500082AE8305A222EFC582F9EEC583C5A0F544
:10216000F07D08E0A3F3E0A3F3E0A3F3E0A3F3E042
:10217000A3F3E0A3F3E0A3F3E0A3F3DDE685F0A08F
:10218000AF82AE832290BDF17428F0E4F550E53FB4
:1021900054036403FD90BCF0E0CD602A14601190FC
:1021A000BCF0E08F828E83F00FBF00010EDDF022C5
:1021B00005A28F828E8305A2E005A2F0A3DDF7AF12
:1021C00082AE8305A222EFC582F9EEC583C5A0F5D4
:1021D000F07D08E3F0A3E3F0A3E3F0A3E3F0A3E3CF
:1021E000F0A3E3F0A3E3F0A3E3F0A3DDE685F0A022
:1021F000AF82AE83221218F6EF6001221222CEEFD8
:1022000060012285313E85303D852F3C852E3B1275
:102210001EA8EF60012274002541FF74003540FEC6
:10222000F583EF241CF582E43583F5837401F08592
:102230003E37853D38853C39853B3A8F828E83E534
:1022400082241AF582E43583F583E537F0A3E53877
:10225000F08F828E83E5822414F582E43583121F89
:10226000EE22753832121A2ED538FA90BDF174224A
:10227000F00000000090BCF0E0E5506416600FE54F
:1022800046640160097F20122948EF20E506754663
:10229000017F8222300319E546C394034012855022
:1022A00038E4F55090BDF1745AF0121A0D8538508B
:1022B000E546B41205754603800AE546D3941040FE
:1022C00003754610E55070037F1022AF502285261B
:1022D00022852723852824852925121FF7EF6001F1
:1022E00022907A06E0FEA3E0FF4E6048E4FCFDE5A4
:1022F000252FF525E5243EF524ED3523F523EC3592
:1023000022F522121FF7EF600122907A06E0FAA36D
:10231000E0FBC3E5259BF525E5249AF524E5239408
:1023200000F523E5229400F522F526852327852450
:1023300028852529C2017F002274FFF531F530F58B
:102340002FF52E907A04E0FEA3E0FF4E700122E408
:10235000FCFD907A00E0F8A3E0F9A3E0FAA3E02FF7
:10236000F525EA3EF524ED39F523EC38F522121E69
:10237000B4EF6001227E017FE812299FE5312FF53D
:1023800031E5303EF530E52F3DF52FE52E3CF52EBD
:10239000AF31AE30AD2FFC1229DA9001E8121ABA33
:1023A000121FF722E546C3941250037FB422E5467C
:1023B000B41239E54B64036033907A0FE0F521E500
:1023C00049C313FF7E00E4FCFD907A0C121ABA9008
:1023D0007A0FE0FFE4FCFDFEE5452FF545EE3544C0
:1023E000F544ED3543F543EC3542F542E546D394EB
:1023F00013400AE546B414077855E67002C202306D
:1024000002071226BEEF6001221228EC2275360563
:102410007D067F6512298BE4F54690BCF0E0B49A06
:102420000F7D067F9A12298B90BCF0E064656009ED
:102430001228C8D536DA7F812290BDF17401F000F0
:10244000000000C20390BCF0E0C394A24002D2039B
:102450007546017D157F0612298B7F0112295F9039
:10246000BCF0E0B45F037F81227F002285503A7F79
:102470000312295F1227BAEF60067550827F82220D
:102480007F5212292CE550B416037F8222E550704A
:102490002D7F31122948EF543FFD7F311229750FEE
:1024A000122948EFC4540F4480FF7D411227FC7F5E
:1024B00033122948EFC4540FFF7D411227FC7F02DD
:1024C00012295FAF3A8F50221227BAEF60037F8242
:1024D00022E546C39403502812124DEF600C7F3260
:1024E00012295F12124DEF600122122850EF601086
:1024F00020030612290E122850E5506003022262C2
:102500003003077F5912292C8009E4FDFF1228A30C
:10251000121CCCAF508F37EF7002FF2212290EAF82
:1025200037221227BAEF60037F82227F5112292CB3
:10253000E550703D7D037F021228F03003307F3874
:10254000122948EF60281229D0900000E0B4051E3F
:1025500090BDF1740BF00000000090BCF07434F0FA
:1025600000007401F07F5812292CE55070037F00A1
:10257000227D027F021228F0022262E546C39412F5
:1025800050037FB422AF4AAE49AD48AC471229C6CA
:102590008F3A8E398D388C377855121AA1D3121A8A
:1025A0005E400DAF3AAE39AD38AC377855121AAE41
:1025B0007855121A957801121A828F3A8E398D3811
:1025C0008C37853851853952853A53E4F5541220B9
:1025D00082227857E67D0025E0FCE538AE377806A4
:1025E000C333CE33CED8F9FFC3ED9FF538EC9EF55B
:1025F00037AE37AF38CBEFCBCAEECAC3E5549FF541
:1026000054E5539AF553E5529400F552E551940080
:10261000F551C3E49538FFE49537FE785EEF26F672
:1026200018EE36F6221227BAEF60037F8222E546C3
:10263000C39403501B122522EF600C7F3212295FD6
:10264000122522EF600122122850EF60030222625D
:102650003003207F5912292CAF508F37EF7002FFC3
:10266000227F0A12295F7F5A12292C7F0212295FCA
:10267000AF37227F0022E5466415600712287BEF02
:102680006001227855121A958F548E538D528C51B9
:10269000AB4AAA49A948A847C3121A5E500C854AFA
:1026A00054854953854852854751AF54AE53AD5276
:1026B000AC511229C67855121AAE12208222C202DB
:1026C000E546C39414403B121EA8EF60012274003B
:1026D0002541FB74003540FAF583EB240BF582E4C9
:1026E0003583F583E020E41AAF4AAE49AD48AC47E4
:1026F0001229DAEB241CF582E43AF583121ABA02A5
:102700001FF77F0022E53124FEFFE53034FFFEE5B0
:102710002F34FFFDE52E34FFFCA82D121A82EF2581
:1027200045FBEE3544FAED3543F9EC3542F8E4FC6F
:10273000FDFEEB2536F525EE3AF524ED39F523ECD3
:1027400038F52222E0FCA3E0FDA3E0FEA3E0FF2297
:10275000A8828583F0D083D0821227671227671260
:102760002767122767E473E493A3C583C5F0C58385
:10277000C8C582C8F0A3C583C5F0C583C8C582C8D3
:10278000221227BAEF60037F8222E546C3940350EA
:1027900007122522EF600122122850EF6003022267
:1027A000621229D0900000E0FCA3E0FDA3E0FEA3AC
:1027B000E0FF7855121AAE7F002290BDF17422F02E
:1027C0000000000090BCF0E0E4F5507F20122948A2
:1027D000EF30E517E546C39402400A7F1B122948F3
:1027E000EF547F70037546027F00227546017F8299
:1027F00022AD3A7F1E1229757D4FAF3990BDF1EDA4
:10280000F000000000E4F55090BCF0EFF0121A0D5B
:10281000E550700475501022E550B41403E4F550EF
:1028200022F582E43583F58322E0FEA3E0FF8B826C
:102830008A83E58222F582E43AF58322121ABA8B62
:10284000828A83EB22CFF0A3EFF08B828A83EB2284
:102850007537087F5312292CAF508F3AEF7002FF63
:10286000227F0A12295F3003057F5A12292C7F1418
:1028700012295FD537DDAF3A8F5022E546641460E8
:10288000037FB422853E31853D30853C2F853B2E2C
:10289000E4F554F553F552F551F5367D157F1412D4
:1028A00028F022785DEDF660047E8080027E00785C
:1028B00061EEF67863760608EFF6E408F608F608A7
:1028C000F608EDF6E408F62275398090BDF1740142
:1028D000F00000000090BCF0E0FFD539EE90BDF1B3
:1028E0007405F0000000007F3202295F7D107F1028
:1028F000E546C39F40028D46E5466D7002FF227596
:1029000046011227BAEF60037F82227F83227F0A6B
:1029100012295F3003077F5A12292C80077D127F0E
:1029200003121CC97F0212295FAF5022E4F55090B8
:10293000BDF1EFF0121A0DE550700475501022E54C
:1029400050B41403E4F5502290BDF1740AF0000075
:10295000000090BCF0EFF000006003E0FF2222EFE7
:1029600075F005A4F539E539600A121A2E121A2EEF
:10297000153980F22290BDF1740BF0000000009038
:10298000BCF0EFF00000EDF000002290BDF1EDF0A2
:1029900000000000E4F55090BCF0EFF00000228F42
:1029A000828E83E0FFA3E0FEA3E0FDA3E0FC22749F
:1029B000FFF529F528F527F526C201228F828E839F
:1029C000E0FFA3E0FE22C3E4CC13CD13CE13FF221D
:1029D0001229AF7E007F00022185EFCCFFEECDFEF5
:0429E000227F302200
:00000001FF
