:1000000002243C90BDF17422F00000000090BCF08E
:10001000E0FFE547C394105007120A85EF60012204
:1000200012234FEF600122C20B7871E6645C60041A
:10003000E6B42F05752B7280177872E6643A600378
:100040000200E318E6C3944350030200E3752B74E7
:10005000E54CB40310907A0CE0FCA3E0FDA3E0FEB5
:10006000A3E0FF8005E4FFFEFDFC8F3F8E3E8D3D4B
:100070008C3CA82BE6706F74FFF54BF54AF549F5FB
:1000800048E54C6403603F753F02907A0FE0FBC384
:10009000E5469BF546E5459400F545E5449400F5B5
:1000A00044E5439400F543907A0EA3E025E0FEE496
:1000B000F54B8E4AF549F548AF22FCFDFE907A0CCF
:1000C0001213DE752280853F32853E31853D3085B5
:1000D0003C2FE4F555F554F553F552F537754712B5
:1000E0007F4122752B71A82BE6B4E5027605E53F2A
:1000F000700CE53C7008E53D7004E53E60328522F9
:1001000037E53F24FEFFE53E34FFFEE53D34FFFDCD
:10011000E53C34FFFCA82E1213A6EF2546F550EE61
:100120003545F54FED3544F54EEC3543F54D801F23
:10013000907A0FE0F537CBC3E5469BF550E5459443
:1001400000F54FE5449400F54EE5439400F54DE588
:100150003770030203F2121AB7EF600122E4F5418F
:10016000F542C3E541940240030203D874002542DE
:10017000F52D74003541F52C852D82F583E0FF7057
:100180000302041FEF64E570030203CABF05027F88
:10019000E5A82BE6FE6F6008EE642A60030203CA3E
:1001A000E4F53BFFEFC3940B5078E52D2FF582E487
:1001B000352CF583E0FEAD3BE52B2DF8EE66605D5A
:1001C000AD3BE52B2DF8E66015AD3BE52B2DF8E6B4
:1001D000645C600AAD3BE52B2DF8E6B42F1FEE649E
:1001E00020703FEFC394085010E52D2408F582E4F9
:1001F000352CF583E0642070297F0B8025AE3BE52C
:100200002B2EF8E6B42E1BE53B6408600EE52D2F7F
:10021000F582E4352CF583E0B420077F070F053B1A
:100220008082EFC3940B500302030BE52D240BF5E2
:1002300082E4352CF583E030E30302030BC209E5C9
:100240002D241AFFE4352CFE12245EE48F3F8E3EEF
:10025000F53DF53CE54CB40310E52D2414FFE435E1
:100260002CFE12245E8E3C8F3DAF3BE52B2FF8E633
:100270006006200903020301853F32853E31853D3A
:1002800030853C2FE4F555F554F553F552F537E537
:100290002D240BF582E4352CF583E030E41F74FF48
:1002A000F54BF54AF549F5487D137F10122353EFBE
:1002B0006001223009047F4380027F4122E52D2422
:1002C0001CFFE4352CFE1224108F4B8E4A8D498C76
:1002D00048E53F7017E53C7013E53D700FE53E7053
:1002E0000B7537FFF54BF54AF549F5487D147F103E
:1002F000122353EF6001223009047F4380027F0004
:1003000022E53B04252BF52B0200E6AF3BE52B2F26
:10031000F8E6642A60030203CAE52D240BF582E4A3
:10032000352CF583E030E3030203CAE53B04252BBB
:10033000F8E67053E4FFF539E52D2FF582E4352C0E
:10034000F583E06420602FBF080AAE39E52B2EF854
:10035000762E0539E52D2FF582E4352CF583E0FE68
:10036000AD39E52B2DF8EEF6E5397008A82BE6B48B
:10037000050276E505390FBF0BBEAF39E52B2FF827
:10038000E4F6D20902023FE53B04252BF8E6F470BF
:1003900032E54B700CE5487008E5497004E54A60A9
:1003A00093E54830E703122490E54B24FFF54BE535
:1003B0004A34FFF54AE54934FFF549E54834FFF58D
:1003C000488007E53B04252BF81674202542F542AA
:1003D000E43541F541020162E5502401F550E43570
:1003E0004FF54FE4354EF54EE4354DF54D153702DA
:1003F000014FE53F700CE53C7008E53D7004E53EBB
:10040000601D7F3CE4FD120D0EEF60012220090FFC
:1004100085383C85393D853A3E853B3F0200E6E420
:10042000FFE52B2FF8E6FE6013642A600FEE645C94
:100430006004EEB42F037FB3220F80E57F4222E5F4
:100440006C2460F8E6056C22785D3007027860E481
:1004500075F00112148C0214342000EB7F2ED200B0
:100460008018EF540F2490D43440D4FF30040BEFA5
:1004700024BFB41A0050032461FFE56D6002156DBE
:100480000570E5707002056F30070D785DE475F05A
:100490000112148CEF02147A0222E27403D2078054
:1004A00003E4C207F56C8B5D8A5E895FE4F56DF548
:1004B0006FF570E56D60077F2012047A80F5756E28
:1004C000FFC201C200C202C203C205C206C20812B4
:1004D0000448FF700D3007057F0012048BAF70AE2B
:1004E0006F22B4255FC2D5C204120448FF24D0B4E1
:1004F0000A00501A75F00A786D30D50508B6FF016C
:1005000006C6A426F620D5047002D20380D924CFD3
:10051000B41A00EF5004C2E5D20402068BD2018067
:10052000C6D20080C0D20280BCD2D580BAD20580AB
:10053000B47F2012047A2002077401B56D0040F1E7
:1005400012043FFF12047A0204B3D208D206809547
:1005500012043FFB12043FFA12043FF94A4B7006A3
:10056000795C7A077BFF20022EE56D602A7E008E83
:100570008275830012144D60060EEE656E70F0C237
:10058000D5EBC0E0EAC0E0E9C0E0EE1206D2D0E070
:10059000F9D0E0FAD0E0FB121434FF60AAEBC0E01F
:1005A000EAC0E0E9C0E012047AD0E02401F9D0E02A
:1005B0003400FAD0E0FBE56E0460DCD56ED98087AC
:1005C0007BFF7A0679CED202809C7910800279086E
:1005D000C206C2088008D2D5790A8004790AC2D539
:1005E000E56E047002F56EE4FAFDFEFF12043FFCB6
:1005F0007B0820011312043FFD7B1030000A120417
:100600003FFE12043FFF7B20EC3382D592D550137E
:10061000C3E43000069FFFE49EFEE42001039DFD3D
:10062000E49CFCE4CBF8C201EC700CCFCECDCCE85E
:1006300024F8F870F38017C3EF33FFEE33FEED3389
:10064000FDEC33FCEB33FB994002FB0FD8E9EB30B8
:100650000105F8D0E0C448B201C0E00AEC4D4E4FAD
:1006600078207B0070C2EAB56E0040BCC0E0120684
:10067000D4D0F0D0E0200104C4C0E0C4B201C0F086
:10068000120463D0F0D5F0EB0204B312149C0550B1
:100690005305CA5805214C051D4205CE4F05D644C9
:1006A00005D64905364305DC5505C04605C0450558
:1006B000C047077C5005252D05292E054C2B052DFF
:1006C00023054A2007652A04E548000005443F3F0A
:1006D0003F00790AA2D5200314300509B91002049D
:1006E00004B9080104A2D5200602500104200268C2
:1006F0009202B56D005034C0E07F203003197F3086
:10070000A20272067205500F12072BC202C206C265
:1007100005C2087F30800F300503E9C0E012047A7B
:10072000300503D0E0F9D0E0B56DCC3005177F304F
:10073000B9100C12047A7F583004077F788003B90F
:10074000080312047A3002057F2D02047A7F2020EC
:1007500008F87F2B2006F322920280CF286E756C5A
:100760006C2900D20112043F3001F8C201786D30CB
:10077000D50108F60204E52D5043495812043F24E0
:1007800003B405004001E49007779312046B743AB8
:1007900012046BD203756D040205CAD294C294127E
:1007A0002420D2941223FF7BFF7A1879E81204A147
:1007B00012232D8F561223717BFF7A1879EF1204C2
:1007C000A1E547C39402500B122255EF6005122495
:1007D0002080EEC294122420122420E4F556122424
:1007E000207BFF7A1879FB1204A112217EEF6009A9
:1007F0000556E556C3940540E5C2957BFF7A197905
:10080000041204A17F717C197D0A1223EC120003EB
:100810008F56E55664B36009E556644260030208EA
:10082000D0E556B4B308755B19755C1A8006755B24
:1008300019755C1D7560FF855B61855C627BFF7A65
:100840001979291204A1E4F5577F71AD5CAC5B12F4
:1008500023EC8F5674712FF8A6571200038F56E5BC
:10086000566442602FE556B4431A7560008557619F
:100870007562007563007564717BFF7A19793712B0
:1008800004A18007AF5612237180090557E557C3AD
:1008900094FE40B5755B19755C4FE4F556855C8236
:1008A000855B83E493FF74002556F582E43402F5FA
:1008B00083EFF0600F055CE55C7002055B0556E5B3
:1008C00056B4FFD975590085565A7558010209E684
:1008D000AF561223717BFF7A19796B1204A1E4FFE2
:1008E0007E78FDFCAB4BAA4AA949A848D3121382D3
:1008F000400B75583C755978755A00801FE54B249C
:10090000FFFFE54A3401FEE43549FDE43548FC7853
:10091000091213938F58854A59854B5A7BFF7A19D0
:100920007971854B63854A6285496185486085593F
:1009300064855A657566008558671204A17871A6AA
:1009400058E54B24FFF54BE54A3401F54AE43549B7
:10095000F549E43548F5481224488F56C3E54B94D1
:10096000FFF54BE54A9401F54AE5499400F549E560
:10097000489400F5481223717BFF7A19798B120491
:10098000A1121FB38F56122371900264E0F556E452
:10099000F07560017561027562007BFF7A197992CA
:1009A0001204A1900264E556F0E4FFFEC3EF955AED
:1009B000EE9559503174002FF58274023EF583E0B4
:1009C000F557C394614018E557D3947A5011E55711
:1009D00024E0FD74002FF58274023EF583EDF00FE4
:1009E000BF00010E80C6C2967BFF7A19799E120461
:1009F000A17F717C197DA61223EC120F978F5612DE
:100A000023717BFF7A1979B31204A17871A6581269
:100A100024538F561223717BFF7A1979BA1204A1DD
:100A2000787976FF74FF7877F608F678757630086F
:100A300076B2AE59AF5AE4FCFD78711213D2121699
:100A4000F18F561223717BFF7A19798B1204A1E47E
:100A50007871F6121FB38F56122371D296D2957BFE
:100A6000FF7A1979C21204A1E547C39402400B1220
:100A70002255EF700512242080EED2941224201209
:100A800024200207B8E547C39403500712207BEFE8
:100A900060012212242FE4F526F525F524F5231212
:100AA0001AC3EF600A1222B7121AC3EF6001229034
:100AB0000000E0FF64EB6037EF64E96032E4FDEDD5
:100AC0006440602874C22DF582E43401F583E0604F
:100AD00015ED7E0024C6FFEE3401FE122410907A3C
:100AE000001213DE801374102DFD80D37F922290AC
:100AF0007A0012140300000000907A00E0FCA3E0EA
:100B0000FDA3E0FEA3E0F5268E258D248C23121A8A
:100B1000C3EF600122900000E0FF64EB6008EF6427
:100B2000E960037FA12290000DE0F52230E6057513
:100B30002E06802E30E505752E05802630E40575DD
:100B40002E04801E30E305752E03801630E20575F5
:100B50002E02800E30E105752E018006752201E41B
:100B6000F52E7E007F1612245E907A06EEF0A3EF3B
:100B7000F04E70287E007F241224108F328E318D2B
:100B8000308C2FE4FBFA7901F8D312138250037FE3
:100B9000A222907A06E531F0A3E532F0900014E04D
:100BA000FF900013E04F60127E007F1312245EE47A
:100BB0008F3F8E3EF53DF53C800F7E007F20122456
:100BC000108F3F8E3E8D3D8C3C7E007F1112245E47
:100BD000EF240FFFE43EC4F854F0C868FEEFC4549D
:100BE0000F48FFE4FCFD907A0C1213DE7E007F0EAE
:100BF00012245EE48F368E35F534F533907A06E0B4
:100C0000FEA3E0FFEF2536FFEE3535FEE43534FD7B
:100C1000E43533FC907A0CE0F8A3E0F9A3E0FAA302
:100C2000E02FF546EA3EF545E93DF544E83CF5435D
:100C3000900010E0D394014021907A06E0FEA3E0FA
:100C4000FFE4FCFDE5462FF546E5453EF545ED356F
:100C500044F544EC3543F5438007E4907A06F0A36D
:100C6000F0C3E53F9546FFE53E9545FEE53D9544DD
:100C7000FDE53C9543FCA82E121393907A081213BD
:100C8000DEE47BF57AFFF9F8D3121382401FE4907B
:100C90007A04F0A3F0907A0AE0FEA3E094F5EE94D3
:100CA0000F5005754C018024754C02801F7E007F1B
:100CB0003012245E907A04EEF0A3EFF07E007F2CD9
:100CC000122410907A0C1213DE754C03907A00E017
:100CD000FCA3E0FDA3E0FEA3E02536F536EE3535B6
:100CE000F535ED3534F534EC3533F533907A00A332
:100CF000A3A3E02546F546EE3545F545ED3544F52B
:100D000044EC3543F5437D107F03122353228D5D60
:100D1000EFC8E54CB402071213B978018008B40398
:100D2000121213B978021213A68F618E608D5F8C38
:100D30005E80231213B98E5E8F5FEF139209E55E1A
:100D4000C313FEE55F13255FFFE55E3EFEE48F61A2
:100D50008E60F55FF55EEE5401FEEF2400F52DEE9A
:100D60003400F52CAF61AE60AD5FAC5E122468EF6D
:100D70002536F561EE3535F560ED3534F55FEC354A
:100D800033F55EE561652A7012E5606529700CE552
:100D90005F65287006E55E6527601D300A07121E34
:100DA000DDEF600122855E23855F248560258561F6
:100DB00026121AC3EF600122E55D6023B4FF0280B2
:100DC00006E55DB4010BE4F561F560F55FF55E8065
:100DD0000C852F6185306085315F85325ED20AE5F2
:100DE0004C6402703F852D82852C83E0F538A3E0AA
:100DF000F53985383B85393AE4F538F539AE3AAFFF
:100E00003BC3EF94F7EE94FF4003D38001C39209F4
:100E1000E55D600D852D82852C83E55EF0A3E55FA1
:100E2000F07F0022E54C6403705A852D82852C8367
:100E3000E0FCA3E0FDA3E0FEA3E0F53B8E3A8D3994
:100E40008C38E53B54F0FFE561540F4FF561E53B0D
:100E5000540F85383BF538AF3A85393A8F39AF387A
:100E6000EFC3940F4003D38001C39209E55D601185
:100E7000AF61AE60AD5FAC5E852D82852C831213B1
:100E8000DE7F0022535F0FC3E52D9400FFE52C9415
:100E900000FEEFF47003EE6401604D852D82852C19
:100EA00083E0F538A3E0F539E55D7003020F5D30AE
:100EB0000923E55EC454F0FFE538540F4F852D82B9
:100EC000852C83F0E55FC454F0FFE55EC4540F4FFA
:100ED000A3F0020F5D852D82852C83E55EF0E53958
:100EE00054F0455FA3F08075852D82852C83E0F555
:100EF00038E55D602230090EE55EC454F0FFE53848
:100F0000540F4FFF8002AF5E852D82852C83EFF05A
:100F1000121EDDEF600122E52A2401F526E43529C1
:100F2000F525E43528F524E43527F523121AC3EF17
:100F3000600122900000E0F539E55D602030090F86
:100F4000E55FC454F0FFE55EC4540F4FFF8007E532
:100F50003954F0455FFF900000EFF0D20A300913DA
:100F6000E539C454F0FFE538C4540F4FF53BE5397B
:100F7000C4800585383BE539540FF53AE4F538F57A
:100F800039AE3AAF3BC3EF94F7EE940F4003D380F2
:100F900001C392097F00221200038F37E537700AE0
:100FA000121B63EF70030210E022E5376442600316
:100FB000AF3722C3E54294E0E541940150030210AB
:100FC000E0E53F700FE53C700BE53D7007E53E70D6
:100FD0000302107EC3E5509546FFE52214FE5FF53F
:100FE00037E5426008EE653760030210E07F3CE4BD
:100FF000FD120D0EEF6001222009030210E0121510
:10100000F6EF6001227F3C7D02120D0EEF6001229F
:10101000121EDDEF60012212242FE4FFFEEE6402B7
:101020004F601374002FF58274003EF583E4F00FD7
:10103000BF00010E80E7E4F537122216E54270107A
:10104000F541F54285265085254F85244E85234D53
:10105000852238E5386020121C06EF600122E52663
:101060002401F526E43525F525E43524F524E43579
:1010700023F523153880DC121F48EF606322E54218
:10108000705EE55024FFF550E54F34FFF54FE54E17
:1010900034FFF54EE54D34FFF54DF523121ABAEF46
:1010A000600122E4F541F542C3E5419402502E74FB
:1010B000002542FF740035418F82F583E0B4E510CE
:1010C000E582240BF582E43583F583E0540E60104D
:1010D00074202542F542E43541F54180CB7FB222B0
:1010E0001215F6EF600122121EDDEF60012285323B
:1010F0003F85313E85303D852F3C121F48EF600112
:1011000022121AB7EF60012274002542FF740035E5
:1011100041FEE4FDEDC3940B50047C2080027C0072
:10112000EF2DF582E43EF583ECF00DBD20E6EF24D3
:1011300018F582E43EF5837421F0A37430F0EF24B7
:101140001CF582E43EF5837401F0E4FDEDC3940BDD
:101150005021A82BE6FC601BECB42E047D08052B67
:10116000A82BE6FCEF2DF582E43EF583ECF00D05AF
:101170002B80D9853F38853E39853D3A853C3BEF0C
:10118000241AF582E43EF583E538F0A3E539F0EF63
:101190002414F582E43E121BFDEF600122853F32EC
:1011A000853E31853D30853C2FE4F54BF54AF549C8
:1011B000F548F555F554F553F552F5377D147F1084
:1011C00012235322E547D394145007E547C39412E2
:1011D00050037FB4227871E6FF08F67006300B03E7
:1011E00002137CE47871F67873F608F67872E6708C
:1011F00003021300E537F4704AE53F700CE53C70DC
:1012000008E53D7004E53E602DE547B41209E54C64
:10121000640360037FB122AF32AE31AD30AC2F78C2
:101220007B1213D2121602EF6001227F7B7D021225
:101230000D0EEF600822121E04EF60012278741672
:10124000E4F5371222167873E6C39440502FE66017
:1012500037E6FFE4FCFDFE78751213C5EF2BFFEEB9
:101260003AFEED39FDEC38FCEF6526FFEE6525FE14
:10127000ED6524FDEC6523FC4D4E4F600B1217E627
:10128000EF600122E47873F67873E6700DAF26AE56
:1012900025AD24AC2378751213D2C3E5229537FF10
:1012A0007872E6FEEFD39E400CE60826F618E62597
:1012B00037F537804B7873EF26F6C318E69FF6E6CE
:1012C00070187400787A66700474001866700B12D7
:1012D00017E6EF600122E47873F67F2FE4FD120D2C
:1012E0000EEF6001223009067537FF0211EC8538D8
:1012F0002F853930853A31853B32E4F5370211ECE0
:10130000300A07121EDDEF6001227873E6600712D3
:1013100017E6EF6001227874E66035AF32AE31AD8A
:1013200030AC2F787B1213D27874E6FFE4EFF532FD
:1013300074FFF531F530F52F121F52CBEFCB787BD0
:101340001213B98F328E318D308C2FEB6002FF2259
:10135000AF55AE54AD53AC52AB4BAA4AA949A848BD
:10136000C3121382500E85554B85544A85534985C7
:101370005248D20BE54030E406300B030221CF7F08
:101380000022EB9FF5F0EA9E42F0E99D42F0E89CD6
:1013900045F022E8600FECC313FCED13FDEE13FEE5
:1013A000EF13FFD8F122E8600FEFC333FFEE33FEF7
:1013B000ED33FDEC33FCD8F122E6FC08E6FD08E64F
:1013C000FE08E6FF22E6FB08E6F908E6FA08E6CBA7
:1013D000F822ECF608EDF608EEF608EFF622ECF04F
:1013E000A3EDF0A3EEF0A3EFF022D083D082E4933C
:1013F000F608740193F608740293F608740393F6E2
:10140000740473A8828583F0D083D08212141A12D8
:10141000141A12141A12141AE473E493A3C583C5A0
:10142000F0C583C8C582C8F0A3C583C5F0C583C80D
:10143000C582C822BB010689828A83E0225002E766
:1014400022BBFE02E32289828A83E49322BB010C41
:10145000E58229F582E5833AF583E0225006E92505
:1014600082F8E622BBFE06E92582F8E222E582291F
:10147000F582E5833AF583E49322BB010689828AEB
:1014800083F0225002F722BBFE01F322FAE6FB08AA
:1014900008E6F925F0F618E6CA3AF622D083D0829B
:1014A000F8E4937012740193700DA3A393F8740180
:1014B00093F5828883E4737402936860EFA3A3A317
:1014C00080DFE547D394145007E547C394125003D7
:1014D0007FB4227871E608F6E418F67873F6C3E56F
:1014E0004B9555FFE54A9554FEE5499553FDE54872
:1014F0009552FC1224688F3B8E3A8D398C38E53931
:101500007004E53A6006787476FF80047874A63B30
:101510007872E670030215EB7874E670030215EB3F
:10152000E537F470030215EB1222167873E6C394C4
:1015300040502FE66037E6FFE4FCFDFE787512139D
:10154000C5EF2BFFEE3AFEED39FDEC38FCEF6526DA
:10155000FFEE6525FEED6524FDEC6523FC4D4E4F49
:10156000600B1219CCEF600122E47873F67873E611
:10157000700DAF26AE25AD24AC2378751213D2C3FF
:10158000E5229537FFF5387874E6FEEFD39E4003E9
:10159000E6F538E538D3787296400CE60826F6185A
:1015A000E62537F5378049C37872E69538F608E5C1
:1015B0003826F6C308E69538F6E5382537F5376559
:1015C0002260030215107F2FFD120D0EEF60012225
:1015D0003009067537FF02151085382F853930859B
:1015E0003A31853B32E4F5370215107873E6600333
:1015F0000219CC7F0022853F32853E31853D308502
:101600003C2F907A08E0FCA3E0FDA3E0FEA3E0FFFE
:10161000AB32AA31A930A82FD312138240037FB175
:1016200022E5322401F532E43531F531E43530F587
:1016300030E4352FF52F7F2FE4FD120D0EEF600102
:1016400022E53B700FE538700BE5397007E53A701D
:10165000030216E9E54C640160A8752C00752D00A5
:10166000E54C640270337538FF7402252DF52DF5B5
:1016700082E4352CF52CF583E07015A3E07011851C
:101680002D82852C8374FFF0A3F0E538F4048049A3
:10169000D538D67532FF02160275387F7404252DB1
:1016A000F52DF582E4352CF52CF583E07032A3E0BE
:1016B000702EA3E0702AA3E0540F7024852D82853C
:1016C0002C8374FFF0A3F0A3F0A3E0440FF0E53205
:1016D0005480FFC3748095384FF532D20A7F0022C0
:1016E000D538B943327F0216027F2F7DFF120D0ECF
:1016F00022E547C3941350037FB422121AB7EF6058
:101700000122C20A74002542FB74003541FA78793F
:10171000E6FFEB240BF582E43AF583E0F6EFF460A4
:10172000138B828A83E582240BF582E43583F5836B
:10173000EFF0D20A7877E6F53B08E6F53AEB2416A7
:10174000FFE43AFE12245E18EEF608EFF6E53AF4EE
:10175000FEE53BF44E6012EB2416F582E43AF58385
:10176000E53AF0A3E53BF0D20A7875E6F53B08E6EA
:10177000F53AEB2418FFE43AFE12245E18EEF60860
:10178000EFF6E53AF4FEE53BF44E6012EB2418F573
:1017900082E43AF583E53AF0A3E53BF0D20A7871AA
:1017A0001213B9787D1213D2EB241CFFE43AFE1217
:1017B000241078711213D2787DE6F4601E1213B9EA
:1017C0008F4B8E4A8D498C4812247CEB241CF58269
:1017D000E43AF5831213DED20AC20B300A05C20ABC
:1017E000021C067F0022E4F53A90BDF17456F00029
:1017F000000000E4F5517878E690BCF0F0000018A5
:10180000E6F0000018E6F0000018E6F0000078733B
:10181000E6F085403BE54013135403FFE54054FCDC
:101820004FF540E675F008A4F53985F03812228CA2
:10183000E551641E707BE53B540C60137879E6FE3D
:1018400008E6FF121D227879EEF608EFF680179071
:10185000BDF1742BF000000000E4F55190BCF07471
:1018600040F0FF12249290BDF17457F0E5552440EA
:10187000F555E43554F554E43553F553E43552F554
:1018800052E5396009D539A5E5386008809F1538DB
:1018900015398099853B4012228CE551B41412E52C
:1018A0004020E5031224887873E6787126F67F00DD
:1018B00022853B40E53AC39405501C12212BE5409C
:1018C000540C7004FF122492E53AC39401400312B1
:1018D0001E71053A0217E9121E71224572726F726B
:1018E0003A20253032580A0053746172740A005746
:1018F00061697420556469736B0A0052656164798B
:10190000203F0A004F70656E0A005C4335315C432E
:10191000483337354846542E43005C2A005C433533
:10192000315C43483337352A004C6973742066694B
:101930006C652025730A0020206D61746368206641
:10194000696C652025303364233A2025730A00D55D
:10195000D2B2BBB5BD2F4335312F4348333735485D
:1019600046542E43CEC4BCFE0D0A00526561640A83
:101970000053697A653D256C642C204C656E3D25CD
:10198000642C205365633D25640A00436C6F7365C6
:101990000A004C696E6520313A2025730A004372B3
:1019A000656174650A005C4E455746494C452E54A6
:1019B00058540057726974650A004D6F64696679FE
:1019C0000A0054616B65206F75740A00E4F53A9063
:1019D000BDF17454F000000000E4F5517878E69011
:1019E000BCF0F0000018E6F0000018E6F000001867
:1019F000E6F000007873E6F085403BE540131354B1
:101A000003FFE54054FC4FF540E675F008A4F539B6
:101A100085F03812228CE551641D7071E53B540C41
:101A200060137879E6FE08E6FF121D947879EEF6E9
:101A300008EFF6801590BDF17428F000000000E476
:101A4000F55190BCF0E0FF12249190BDF17455F077
:101A5000E5552440F555E43554F554E43553F55334
:101A6000E43552F552E5396009D539A7E538600803
:101A700080A115381539809B853B4012228CE55199
:101A8000B4140A7873E6787126F67F0022853B400D
:101A9000E53AC39405501C12212BE540540C700408
:101AA000FF122491E53AC394014003121E71053AD6
:101AB0000219CF121E7122854D23854E24854F2594
:101AC000855026E526652A7015E5256529700FE500
:101AD0002465287009E52365277003021B60E4F57F
:101AE0003A90BDF17454F000000000E4F55190BC50
:101AF000F0E526F00000E525F00000E524F0000008
:101B0000E523F000007401F0752700752800753991
:101B10000812228CE551641D702BAF28AE27121DD0
:101B2000948E278F2890BDF17455F0D539E3852325
:101B30002785242885252985262A12228CE551B45B
:101B400014037F0022E53AC39405500EE53AC3948E
:101B5000014003121E71053A808712242F021E7164
:101B60007F0022E547C394135007120003EF600182
:101B70002212234FEF600122121AB7EF6001227484
:101B8000002542FF740035418F82F58374E5F01221
:101B90001C06EF600122AF3FAE3EAD3DAC3C8F3B3B
:101BA0008E3A8D398C38EC4D4E4F604EE53F24FF18
:101BB000F53FE53E34FFF53EE53D34FFF53DE53CC0
:101BC00034FFF53CE4F532F531F530F52F7F387D03
:101BD00001120D0EEF600122E5322401F532E435E9
:101BE00031F531E43530F530E4352FF52F3009DDAE
:101BF000121EDDEF600122021F527F0022F583E5F5
:101C00003AF0A3E53BF0E4F53A90BDF17456F000EC
:101C1000000000E4F55190BCF0E526F00000E52559
:101C2000F00000E524F00000E523F000007401F06E
:101C300075270075280075390812228CE551641E3D
:101C40007033AF28AE27121D228E278F2890BDF14A
:101C50007457F0D539E385232785242885252985E0
:101C6000262A12228CE551B4140BE54020E503121C
:101C700024887F0022E53AC39405500FE53AC394C7
:101C8000014003121E71053A021C0912242F021E84
:101C900071E53F700CE53C7008E53D7004E53E6081
:101CA00072853F32853E31853D30853C2FAF22E441
:101CB000FCFDFE78711213C5C312138240387F2FCA
:101CC000E4FD120D0EEF60012220094785382F85B3
:101CD0003930853A31853B3278711213B9AB22C362
:101CE000EF9BFFEE9400FEED9400FDEC9400FC7879
:101CF000711213D280B77874E6FFE522145FF537CE
:101D0000122216AF26AE25AD24AC2378711213D261
:101D10007F00227537FF78711213EAFFFFFFFF7F04
:101D2000002290BDF1742BF0E4F551E540540364BA
:101D300003FD744090BCF0F0CD602A1460118F82D6
:101D40008E83E090BCF0F00FBF00010EDDF02205A5
:101D5000A28F828E83E0A305A2F005A2DDF7AF82F9
:101D6000AE8305A222EFC582F9EEC583C5A0F5F0CA
:101D70007D08E0A3F3E0A3F3E0A3F3E0A3F3E0A383
:101D8000F3E0A3F3E0A3F3E0A3F3DDE685F0A0AF77
:101D900082AE832290BDF17428F0E4F551E5405401
:101DA000036403FD90BCF0E0CD602A14601190BC88
:101DB000F0E08F828E83F00FBF00010EDDF0220570
:101DC000A28F828E8305A2E005A2F0A3DDF7AF8289
:101DD000AE8305A222EFC582F9EEC583C5A0F5F05A
:101DE0007D08E3F0A3E3F0A3E3F0A3E3F0A3E3F0C3
:101DF000A3E3F0A3E3F0A3E3F0A3DDE685F0A0AF57
:101E000082AE8322121602EF600122121EDDEF6005
:101E1000012285323F85313E85303D852F3C121AA7
:101E2000B7EF60012274002542FF74003541FEF5D2
:101E300083EF241CF582E43583F5837401F0853F3C
:101E400038853E39853D3A853C3B8F828E83E582DD
:101E5000241AF582E43583F583E538F0A3E539F0FB
:101E60008F828E83E5822414F582E43583121BFD74
:101E700022753932122483D539FA90BDF17422F0DB
:101E80000000000090BCF0E0E5516416600FE547EB
:101E9000640160097F201223ABEF20E5067547013E
:101EA0007F8222300C19E547C394034012855139D3
:101EB000E4F55190BDF1745AF012228C853951E548
:101EC00047B41205754703800AE547D394104003D1
:101ED000754710E55170037F1022AF5122852723EB
:101EE000852824852925852A26121C06EF600122D3
:101EF000907A06E0FEA3E0FF4E6048E4FCFDE52694
:101F00002FF526E5253EF525ED3524F524EC352382
:101F1000F523121C06EF600122907A06E0FAA3E096
:101F2000FBC3E5269BF526E5259AF525E5249400D7
:101F3000F524E5239400F523F52785242885252914
:101F400085262AC20A7F002274FFF532F531F5306A
:101F5000F52F907A04E0FEA3E0FF4E700122E4FC2E
:101F6000FD907A00E0F8A3E0F9A3E0FAA3E02FF5F2
:101F700026EA3EF525ED39F524EC38F523121AC38F
:101F8000EF6001227E017FE8122410E5322FF53246
:101F9000E5313EF531E5303DF530E52F3CF52FAF2D
:101FA00032AE31AD30FC12247C9001E81213DE1207
:101FB0001C0622E547C3941250037FB422E547B4C0
:101FC0001239E54C64036033907A0FE0F522E54A5C
:101FD000C313FF7E00E4FCFD907A0C1213DE907AAE
:101FE0000FE0FFE4FCFDFEE5462FF546EE3545F536
:101FF00045ED3544F544EC3543F543E547D39413BB
:10200000400AE547B414077871E67002C20B300B42
:10201000071221CFEF60012212234F227537057D71
:10202000067F651223D8E4F54790BCF0E0B49A0F20
:102030007D067F9A1223D890BCF0E0646560091297
:102040002309D537DA7F812290BDF17401F00000B9
:102050000000C20C90BCF0E0C394A24002D20C7508
:1020600047017D157F061223D87F011223C290BC41
:10207000F0E0B45F037F81227F0022122255EF60DF
:10208000037F82227F5112238FE551703D7D037FB4
:1020900002122353300C307F381223ABEF6028122A
:1020A0002472900000E0B4051E90BDF1740BF000A6
:1020B00000000090BCF07434F000007401F07F5810
:1020C00012238FE55170037F00227D027F021223CD
:1020D00053021E71E547C3941250037FB422AF4BE5
:1020E000AE4AAD49AC481224688F3B8E3A8D398C8C
:1020F0003878711213C5D3121382400DAF3BAE3A3C
:10210000AD39AC3878711213D278711213B97801E5
:102110001213A68F3B8E3A8D398C38853952853A09
:1021200053853B54E4F555121C91227873E67D00EB
:1021300025E0FCE539AE387806C333CE33CED8F986
:10214000FFC3ED9FF539EC9EF538AE38AF39CBEFD4
:10215000CBCAEECAC3E5559FF555E5549AF554E54B
:10216000539400F553E5529400F552C3E49539FFBA
:10217000E49538FE787AEF26F618EE36F62212222B
:1021800055EF60037F8222E547C39403501B122062
:102190007BEF600C7F321223C212207BEF600122A2
:1021A0001222B7EF6003021E71300C207F591223F8
:1021B0008FAF518F38EF7002FF227F0A1223C27F48
:1021C0005A12238F7F021223C2AF38227F0022C20D
:1021D0000BE547C39414403B121AB7EF6001227419
:1021E000002542FB74003541FAF583EB240BF582A0
:1021F000E43583F583E020E41AAF4BAE4AAD49AC39
:102200004812247CEB241CF582E43AF5831213DE99
:10221000021C067F0022E53224FEFFE53134FFFE7A
:10222000E53034FFFDE52F34FFFCA82E1213A6EF96
:102230002546FBEE3545FAED3544F9EC3543F8E437
:10224000FCFDFEEB2537F526EE3AF525ED39F524B4
:10225000EC38F5232290BDF17422F00000000090CC
:10226000BCF0E0E4F5517F201223ABEF30E517E539
:1022700047C39402400A7F1B1223ABEF547F7003C5
:102280007547027F00227547017F822220B2FD90B0
:10229000BDF17422F0535180E5516003E4F5519093
:1022A000BCF0E0F551E551B4160475470122E55143
:1022B000B41503754702227538087F5312238FAF78
:1022C000518F3BEF7002FF227F0A1223C2300C05B0
:1022D0007F5A12238F7F141223C2D538DDAF3B8F74
:1022E0005122EFB40A07740D1222ED740A309811CE
:1022F000A899B8130CC2983098FDA899C298B81143
:10230000F63099FDC299F59922753A8090BDF17425
:1023100001F00000000090BCF0E0FFD53AEE90BD67
:10232000F17405F0000000007F320223C2E581D382
:1023300094F040037FFC22754005E4900000F01209
:10234000248DEFC3943050037FFF2212201C227D86
:10235000107F10E547C39F40028D47E5476D70022F
:10236000FF22754701122255EF60037F82227F838F
:1023700022EF601A7BFF7A1879DB7560008F61129B
:1023800004A1C294122420D29412242080F422E4C6
:10239000F55190BDF1EFF012228CE55170047551AA
:1023A0001022E551B41403E4F5512290BDF1740AF2
:1023B000F00000000090BCF0EFF000006003E0FFD0
:1023C0002222EF75F005A4F53AE53A600A1224835B
:1023D000122483153A80F22290BDF1EDF000000046
:1023E00000E4F55190BCF0EFF00000228D828C8368
:1023F000A807E4FFE493F6600508A30F80F62275B2
:102400009850758780758920758DF3D28ED2992268
:102410008F828E83E0FFA3E0FEA3E0FDA3E0FC2219
:102420007FC87EC87403255DF55DDEF8DFF4227495
:10243000FFF52AF529F528F527C20A22787FE4F668
:10244000D8FD75818E02079B787976020876001296
:1024500014C222787976020876001211C4228F8283
:102460008E83E0FFA3E0FE22C3E4CC13CD13CE1392
:10247000FF2212242F7E007F00021D94EFCCFFEE7E
:10248000CDFE227F96DFFE227FFADFFE227F302202
:03249000222222E3
:00000001FF
