:100000000220EC90BDF17422F00000000090BCF0E2
:10001000E0FFE547C39410500712079BEF600122F1
:10002000122011EF600122C20B7873E6645C600459
:10003000E6B42F05752B7480177874E6643A600374
:100040000200E318E6C3944350030200E3752B76E5
:10005000E54CB4031090020CE0FCA3E0FDA3E0FE2D
:10006000A3E0FF8005E4FFFEFDFC8F3F8E3E8D3D4B
:100070008C3CA82BE6706F74FFF54BF54AF549F5FB
:1000800048E54C6403603F753F0290020FE0FBC3FC
:10009000E5469BF546E5459400F545E5449400F5B5
:1000A00044E5439400F54390020EA3E025E0FEE40E
:1000B000F54B8E4AF549F548AF22FCFDFE90020C47
:1000C00012129F752280853F32853E31853D3085F5
:1000D0003C2FE4F555F554F553F552F537754712B5
:1000E0007F4122752B73A82BE6B4E5027605E53F28
:1000F000700CE53C7008E53D7004E53E60328522F9
:1001000037E53F24FEFFE53E34FFFEE53D34FFFDCD
:10011000E53C34FFFCA82E121267EF2546F550EEA1
:100120003545F54FED3544F54EEC3543F54D801F23
:1001300090020FE0F537CBC3E5469BF550E54594BB
:1001400000F54FE5449400F54EE5439400F54DE588
:100150003770030203F2121791EF600122E4F541B8
:10016000F542C3E541940240030203D874002542DE
:10017000F52D74003541F52C852D82F583E0FF7057
:100180000302041FEF64E570030203CABF05027F88
:10019000E5A82BE6FE6F6008EE642A60030203CA3E
:1001A000E4F53BFFEFC3940B5078E52D2FF582E487
:1001B000352CF583E0FEAD3BE52B2DF8EE66605D5A
:1001C000AD3BE52B2DF8E66015AD3BE52B2DF8E6B4
:1001D000645C600AAD3BE52B2DF8E6B42F1FEE649E
:1001E00020703FEFC394085010E52D2408F582E4F9
:1001F000352CF583E0642070297F0B8025AE3BE52C
:100200002B2EF8E6B42E1BE53B6408600EE52D2F7F
:10021000F582E4352CF583E0B420077F070F053B1A
:100220008082EFC3940B500302030BE52D240BF5E2
:1002300082E4352CF583E030E30302030BC209E5C9
:100240002D241AFFE4352CFE1220F8E48F3F8E3E59
:10025000F53DF53CE54CB40310E52D2414FFE435E1
:100260002CFE1220F88E3C8F3DAF3BE52B2FF8E69D
:100270006006200903020301853F32853E31853D3A
:1002800030853C2FE4F555F554F553F552F537E537
:100290002D240BF582E4352CF583E030E41F74FF48
:1002A000F54BF54AF549F5487D137F10122015EFFF
:1002B0006001223009047F4380027F4122E52D2422
:1002C0001CFFE4352CFE1220CF8F4B8E4A8D498CBB
:1002D00048E53F7017E53C7013E53D700FE53E7053
:1002E0000B7537FFF54BF54AF549F5487D147F103E
:1002F000122015EF6001223009047F4380027F0045
:1003000022E53B04252BF52B0200E6AF3BE52B2F26
:10031000F8E6642A60030203CAE52D240BF582E4A3
:10032000352CF583E030E3030203CAE53B04252BBB
:10033000F8E67053E4FFF539E52D2FF582E4352C0E
:10034000F583E06420602FBF080AAE39E52B2EF854
:10035000762E0539E52D2FF582E4352CF583E0FE68
:10036000AD39E52B2DF8EEF6E5397008A82BE6B48B
:10037000050276E505390FBF0BBEAF39E52B2FF827
:10038000E4F6D20902023FE53B04252BF8E6F470BF
:1003900032E54B700CE5487008E5497004E54A60A9
:1003A00093E54830E70312212AE54B24FFF54BE59E
:1003B0004A34FFF54AE54934FFF549E54834FFF58D
:1003C000488007E53B04252BF81674202542F542AA
:1003D000E43541F541020162E5502401F550E43570
:1003E0004FF54FE4354EF54EE4354DF54D153702DA
:1003F000014FE53F700CE53C7008E53D7004E53EBB
:10040000601D7F3CE4FD120A24EF60012220090FE9
:1004100085383C85393D853A3E853B3F0200E6E420
:10042000FFE52B2FF8E6FE6013642A600FEE645C94
:100430006004EEB42F037FB3220F80E57F4222E5F4
:100440006E2462F8E6056E22785F3007027862E477
:1004500075F00112134D0212F52000EB7F2ED20031
:100460008018EF540F2490D43440D4FF30040BEFA5
:1004700024BFB41A0050032461FFE56F6002156FBA
:100480000572E5727002057130070D785FE475F052
:100490000112134DEF02133B021F827403D2078037
:1004A00003E4C207F56E8B5F8A608961E4F56FF53E
:1004B00071F572E56F60077F2012047A80F5757020
:1004C000FFC201C200C202C203C205C206C20812B4
:1004D0000448FF700D3007057F0012048BAF72AE29
:1004E0007122B4255FC2D5C204120448FF24D0B4DF
:1004F0000A00501A75F00A786F30D50508B6FF016A
:1005000006C6A426F620D5047002D20380D924CFD3
:10051000B41A00EF5004C2E5D20402068BD2018067
:10052000C6D20080C0D20280BCD2D580BAD20580AB
:10053000B47F2012047A2002077401B56F0040F1E5
:1005400012043FFF12047A0204B3D208D206809547
:1005500012043FFB12043FFA12043FF94A4B7006A3
:10056000795C7A077BFF20022EE56F602A7E008E81
:100570008275830012130E60060EEE657070F0C275
:10058000D5EBC0E0EAC0E0E9C0E0EE1206D2D0E070
:10059000F9D0E0FAD0E0FB1212F5FF60AAEBC0E060
:1005A000EAC0E0E9C0E012047AD0E02401F9D0E02A
:1005B0003400FAD0E0FBE5700460DCD570D98087A8
:1005C0007BFF7A0679CED202809C7910800279086E
:1005D000C206C2088008D2D5790A8004790AC2D539
:1005E000E570047002F570E4FAFDFEFF12043FFCB2
:1005F0007B0820011312043FFD7B1030000A120417
:100600003FFE12043FFF7B20EC3382D592D550137E
:10061000C3E43000069FFFE49EFEE42001039DFD3D
:10062000E49CFCE4CBF8C201EC700CCFCECDCCE85E
:1006300024F8F870F38017C3EF33FFEE33FEED3389
:10064000FDEC33FCEB33FB994002FB0FD8E9EB30B8
:100650000105F8D0E0C448B201C0E00AEC4D4E4FAD
:1006600078207B0070C2EAB5700040BCC0E0120682
:10067000D4D0F0D0E0200104C4C0E0C4B201C0F086
:10068000120463D0F0D5F0EB0204B312135D0550F1
:100690005305CA5805214C051D4205CE4F05D644C9
:1006A00005D64905364305DC5505C04605C0450558
:1006B000C047077C5005252D05292E054C2B052DFF
:1006C00023054A2007652A04E548000005443F3F0A
:1006D0003F00790AA2D5200314300509B91002049D
:1006E00004B9080104A2D5200602500104200268C2
:1006F0009202B56F005034C0E07F203003197F3084
:10070000A20272067205500F12072BC202C206C265
:1007100005C2087F30800F300503E9C0E012047A7B
:10072000300503D0E0F9D0E0B56FCC3005177F304D
:10073000B9100C12047A7F583004077F788003B90F
:10074000080312047A3002057F2D02047A7F2020EC
:1007500008F87F2B2006F322920280CF286E756C5A
:100760006C2900D20112043F3001F8C201786F30C9
:10077000D50108F60204E52D5043495812043F24E0
:1007800003B405004001E49007779312046B743AB8
:1007900012046BD203756F040205CAE547C39403C4
:1007A0005007121D55EF6001221220DFE4F526F5F7
:1007B00025F524F52312179DEF600A121F2F12173B
:1007C0009DEF600122900000E0FF64EB6037EF6472
:1007D000E96032E4FDED6440602874C22DF582E4E6
:1007E0003401F583E06015ED7E0024C6FFEE340190
:1007F000FE1220CF90020012129F801374102DFD64
:1008000080D37F92229002001212C4000000009058
:100810000200E0FCA3E0FDA3E0FEA3E0F5268E25A8
:100820008D248C2312179DEF600122900000E0FFC1
:1008300064EB6008EF64E960037FA12290000DE0A3
:10084000F52230E605752E06802E30E505752E055D
:10085000802630E405752E04801E30E305752E03D6
:10086000801630E205752E02800E30E105752E01EE
:100870008006752201E4F52E7E007F161220F89086
:100880000206EEF0A3EFF04E70287E007F241220C7
:10089000CF8F328E318D308C2FE4FBFA7901F8D373
:1008A00012124350037FA222900206E531F0A3E525
:1008B00032F0900014E0FF900013E04F60127E00D1
:1008C0007F131220F8E48F3F8E3EF53DF53C800FFC
:1008D0007E007F201220CF8F3F8E3E8D3D8C3C7E50
:1008E000007F111220F8EF240FFFE43EC4F854F00B
:1008F000C868FEEFC4540F48FFE4FCFD90020C12E0
:10090000129F7E007F0E1220F8E48F368E35F5346C
:10091000F533900206E0FEA3E0FFEF2536FFEE354B
:1009200035FEE43534FDE43533FC90020CE0F8A3E9
:10093000E0F9A3E0FAA3E02FF546EA3EF545E93DEC
:10094000F544E83CF543900010E0D3940140219039
:100950000206E0FEA3E0FFE4FCFDE5462FF546E5D8
:10096000453EF545ED3544F544EC3543F543800708
:10097000E4900206F0A3F0C3E53F9546FFE53E95FF
:1009800045FEE53D9544FDE53C9543FCA82E12123D
:100990005490020812129FE47BF57AFFF9F8D31203
:1009A0001243401FE4900204F0A3F090020AE0FE1C
:1009B000A3E094F5EE940F5005754C018024754C1E
:1009C00002801F7E007F301220F8900204EEF0A318
:1009D000EFF07E007F2C1220CF90020C12129F7538
:1009E0004C03900200E0FCA3E0FDA3E0FEA3E025A1
:1009F00036F536EE3535F535ED3534F534EC353341
:100A0000F533900200A3A3A3E02546F546EE354555
:100A1000F545ED3544F544EC3543F5437D107F0352
:100A2000122015228D5FEFC8E54CB4020712127A2E
:100A300078018008B4031212127A78021212678FBA
:100A4000638E628D618C60802312127A8E608F615A
:100A5000EF139209E560C313FEE561132561FFE51D
:100A6000603EFEE48F638E62F561F560EE5401FE38
:100A7000EF2400F52DEE3400F52CAF63AE62AD61CE
:100A8000AC60122102EF2536F563EE3535F562EDE7
:100A90003534F561EC3533F560E563652A7012E5B0
:100AA000626529700CE56165287006E56065276060
:100AB0001D300A07121BB7EF600122856023856194
:100AC0002485622585632612179DEF600122E55F6C
:100AD0006023B4FF028006E55FB4010BE4F563F523
:100AE00062F561F560800C852F6385306285316128
:100AF000853260D20AE54C6402703F852D82852CD8
:100B000083E0F538A3E0F53985383B85393AE4F5DB
:100B100038F539AE3AAF3BC3EF94F7EE94FF40039C
:100B2000D38001C39209E55F600D852D82852C83FA
:100B3000E560F0A3E561F07F0022E54C6403705AA4
:100B4000852D82852C83E0FCA3E0FDA3E0FEA3E0DD
:100B5000F53B8E3A8D398C38E53B54F0FFE5635414
:100B60000F4FF563E53B540F85383BF538AF3A85B9
:100B7000393A8F39AF38EFC3940F4003D38001C3A4
:100B80009209E55F6011AF63AE62AD61AC60852D27
:100B900082852C8312129F7F002253610FC3E52DA3
:100BA0009400FFE52C9400FEEFF47003EE64016006
:100BB0004D852D82852C83E0F538A3E0F539E55F7E
:100BC0007003020C73300923E560C454F0FFE5386C
:100BD000540F4F852D82852C83F0E561C454F0FFBE
:100BE000E560C4540F4FA3F0020C73852D82852C51
:100BF00083E560F0E53954F04561A3F08075852DFB
:100C000082852C83E0F538E55F602230090EE560CF
:100C1000C454F0FFE538540F4FFF8002AF60852DBC
:100C200082852C83EFF0121BB7EF600122E52A24A6
:100C300001F526E43529F525E43528F524E43527A2
:100C4000F52312179DEF600122900000E0F539E5D1
:100C50005F602030090FE561C454F0FFE560C454C3
:100C60000F4FFF8007E53954F04561FF900000EF1A
:100C7000F0D20A300913E539C454F0FFE538C45402
:100C80000F4FF53BE539C4800585383BE539540FF6
:100C9000F53AE4F538F539AE3AAF3BC3EF94F7EEE9
:100CA000940F4003D38001C392097F0022120003F6
:100CB0008F37E537700A12183DEF7003020DF622E8
:100CC000E53764426003AF3722C3E54294E0E54173
:100CD00094015003020DF6E53F700FE53C700BE503
:100CE0003D7007E53E7003020D94C3E5509546FF45
:100CF000E52214FE5FF537E5426008EE65376003D4
:100D0000020DF67F3CE4FD120A24EF600122200967
:100D100003020DF61215A1EF6001227F3C7D021245
:100D20000A24EF600122121BB7EF6001221220DFBC
:100D3000E4FFFEEE64024F601374002FF58274002E
:100D40003EF583E4F00FBF00010E80E7E4F53712B3
:100D50001E8EE5427010F541F54285265085254FDF
:100D600085244E85234D852238E53860201218E011
:100D7000EF600122E5262401F526E43525F525E47A
:100D80003524F524E43523F523153880DC121C22A4
:100D9000EF606322E542705EE55024FFF550E54FB9
:100DA00034FFF54FE54E34FFF54EE54D34FFF54D7C
:100DB000F523121794EF600122E4F541F542C3E5F3
:100DC000419402502E74002542FF740035418F82F9
:100DD000F583E0B4E510E582240BF582E43583F574
:100DE00083E0540E601074202542F542E43541F54D
:100DF0004180CB7FB2221215A1EF600122121BB7F6
:100E0000EF60012285323F85313E85303D852F3CA4
:100E1000121C22EF600122121791EF600122740070
:100E20002542FF74003541FEE4FDEDC3940B5004F0
:100E30007C2080027C00EF2DF582E43EF583ECF00F
:100E40000DBD20E6EF2418F582E43EF5837421F011
:100E5000A37430F0EF241CF582E43EF5837401F0B6
:100E6000E4FDEDC3940B5021A82BE6FC601BECB411
:100E70002E047D08052BA82BE6FCEF2DF582E43E21
:100E8000F583ECF00D052B80D9853F38853E3985FB
:100E90003D3A853C3BEF241AF582E43EF583E53884
:100EA000F0A3E539F0EF2414F582E43E1218D7EFF1
:100EB000600122853F32853E31853D30853C2FE4FF
:100EC000F54BF54AF549F548F555F554F553F55206
:100ED000F5377D147F1012201522D294C2947F64BE
:100EE00012204FD2941220BE7BFF7A1479A51204EF
:100EF000A1121FCD8F56121FEF7BFF7A1479AC120F
:100F000004A1E547C39402500D121ECDEF60077F88
:100F10006412204F80ECC2947FC812204FE4F55633
:100F20007F6412204F7BFF7A1479B81204A1121D3E
:100F3000AEEF60090556E556C3940A40E3C2957BBF
:100F4000FF7A1479C11204A17F737C147DC712202B
:100F5000AB1200038F56E556702C7BFF7A1479D3C1
:100F6000854B65854A648549638548621204A17B87
:100F7000FF7A1479E41204A178731212ABFFFFFF19
:100F8000FF121DFF8013E556B44212C2967BFF7A12
:100F90001479F11204A1120CAD8F568002AF5612D3
:100FA0001FEFC2967BFF7A1479F91204A17562FFD4
:100FB000756315756406854B68854A67854966853E
:100FC00048657B007A00797412049B8F567873A66B
:100FD000561210AF8F56121FEF7BFF7A15791F1232
:100FE00004A1D28C755808755705E58B541F7559A7
:100FF00000F55AAF8CEFAD8AF55BEDF55C7562FFDD
:1010000075631575642F7565008557668559678505
:101010005A6875690085586A855B6BF56C7B007A48
:1010200000797412049B8E5D8F5E7873A607121090
:10103000AF8F56121FEF7BFF7A157947855565856F
:1010400054648553638552621204A10558E558B46F
:1010500014957BFF7A15796D1204A17F747C157D40
:10106000781220AB8F567873A6561210AF8F561297
:101070001FEF7BFF7A1579901204A1787376011225
:101080001C8D8F56121FEFD296D2957BFF7A157961
:10109000971204A1E547C39402400A121ECD7F6453
:1010A00012204F80EFD2947FC812204F020EF9E534
:1010B0004764156007121F5AEF6001227873E6F546
:1010C0002B7006300B0302123DE47873F6E52B70AB
:1010D00003021235E537F47077E53F700CE53C709C
:1010E00008E53D7004E53E6025853255853154851F
:1010F0003053852F521215ADEF6001227F527D02D1
:10110000120A24EF600122121BB7EF600822121AA4
:10111000DEEF600122853255853154853053852FAD
:101120005274FFF532F531F530F52F121C2CCBEF50
:10113000CB85553285543185533085522FEB600174
:1011400022854B55854A54854953854852E4F537E5
:10115000121E8E12179DEF600122AF55E554540107
:10116000FEC3E49FFD74029EFCC3ED952BEC94003E
:101170004005852B388006E555F404F53874002FBA
:10118000F58274003EAF82F52C8F2DAF38E4FCFD64
:10119000FEE5552FF555EE3554F554ED3553F55321
:1011A000EC3552F552C3E52B9538F52B7873E624D0
:1011B00074FFE53826F6C8EFC8E6852D82852C83B6
:1011C000F0052DE52D7002052C0FD538E91218E039
:1011D000EF600122AF55AE54AD53AC52AB4BAA4AAF
:1011E000A949A848C3121243500E85554B85544A4D
:1011F000855349855248D20BE55454014555600347
:101200000210CD0537E537C3952250030210CD7F7C
:101210002FE4FD120A24EF6001223009067537FF22
:101220000210CD85382F853930853A31853B32E43F
:10123000F5370210CDE54030E406300B03021E47BF
:101240007F0022EB9FF5F0EA9E42F0E99D42F0E834
:101250009C45F022E8600FECC313FCED13FDEE1388
:10126000FEEF13FFD8F122E8600FEFC333FFEE3338
:10127000FEED33FDEC33FCD8F122E6FC08E6FD0878
:10128000E6FE08E6FF22E6FB08E6F908E6FA08E6CD
:10129000CBF822ECF608EDF608EEF608EFF622ECB5
:1012A000F0A3EDF0A3EEF0A3EFF022D083D082E420
:1012B00093F608740193F608740293F60874039386
:1012C000F6740473A8828583F0D083D0821212DB77
:1012D0001212DB1212DB1212DBE473E493A3C58358
:1012E000C5F0C583C8C582C8F0A3C583C5F0C58352
:1012F000C8C582C822BB010689828A83E0225002C7
:10130000E722BBFE02E32289828A83E49322BB01A7
:101310000CE58229F582E5833AF583E0225006E95F
:101320002582F8E622BBFE06E92582F8E222E58264
:1013300029F582E5833AF583E49322BB010689828D
:101340008A83F0225002F722BBFE01F322FAE6FB69
:101350000808E6F925F0F618E6CA3AF622D083D056
:1013600082F8E4937012740193700DA3A393F87440
:101370000193F5828883E4737402936860EFA3A3FA
:10138000A380DFE54764156007121F5AEF60012252
:101390007873E6F52BE4F6E52B7003021495E5541B
:1013A0005401FEC3E49555FF74029EFEC3EF952BD6
:1013B000EE94004005852B388006E555F404F53899
:1013C000C3E54B9555FBE54A9554FAE5499553F924
:1013D000E5489552F8AF38E4FCFDFED312124350B5
:1013E0000CC3E54B9555F5387003021495121E8E0B
:1013F00012179DEF600122E5545401FE740025553B
:10140000F58274003EAF82F52C8F2DAF38E4FCFDE1
:10141000FEE5552FF555EE3554F554ED3553F5539E
:10142000EC3552F552C3E52B9538F52B7873E6244D
:1014300074FFE53826F6852D82852C83E0C8EFC839
:10144000F60F052DE52D7002052CD538E9E554542D
:1014500001455560030213970537E537C3952250C0
:10146000030213977F2FE4FD120A24EF600122305C
:1014700009117537FF85554B85544A855349855267
:1014800048801285382F853930853A31853B32E4E2
:10149000F5370213977F00224572726F723A20254A
:1014A0003032580A0053746172740A0057616974CB
:1014B00020556469736B0A005265616479203F0AA4
:1014C000004F70656E0A002F4D595F4144432E5402
:1014D00058540046696C652073697A65203D202563
:1014E0006C640A004C6F63617465207461696C0AF6
:1014F000004372656174650A005772697465206201
:101500006567696E0A00B4CBC7B0CEC4BCFEB3A495
:10151000B6C83D20256C6420D7D6BDDA0D0A005729
:10152000726974652041444320646174610A002536
:101530003032642E253032642E253032642041440E
:10154000433D25750D0A0043757272656E74206FF8
:10155000666673657420282066696C6520706F6903
:101560006E74202920697320256C640A0057726903
:10157000746520656E640A00BDF1CCECB5C44144CD
:1015800043CAFDBEDDB5BDB4CBBDE1CAF80D0A004E
:10159000436C6F73650A0054616B65206F75740A44
:1015A00000853F32853E31853D30853C2F900208D5
:1015B000E0FCA3E0FDA3E0FEA3E0FFAB32AA31A96B
:1015C00030A82FD312124340037FB122E532240109
:1015D000F532E43531F531E43530F530E4352FF5C9
:1015E0002F7F2FE4FD120A24EF600122E53B700FEC
:1015F000E538700BE5397007E53A7003021694E59B
:101600004C640160A8752C00752D00E54C640270D7
:10161000337538FF7402252DF52DF582E4352CF550
:101620002CF583E07015A3E07011852D82852C8345
:1016300074FFF0A3F0E538F4048049D538D675324C
:10164000FF0215AD75387F7404252DF52DF582E464
:10165000352CF52CF583E07032A3E0702EA3E070FA
:101660002AA3E0540F7024852D82852C8374FFF00B
:10167000A3F0A3F0A3E0440FF0E5325480FFC3745D
:101680008095384FF532D20A7F0022D538B94332DF
:101690007F0215AD7F2F7DFF120A2422E547C394F8
:1016A0001350037FB422121791EF600122C20A7413
:1016B000002542FB74003541FA787BE6FFEB240BF2
:1016C000F582E43AF583E0F6EFF460138B828A83C7
:1016D000E582240BF582E43583F583EFF0D20A78B6
:1016E00079E6F53B08E6F53AEB2416FFE43AFE12FC
:1016F00020F818EEF608EFF6E53AF4FEE53BF44E76
:101700006012EB2416F582E43AF583E53AF0A3E59E
:101710003BF0D20A7877E6F53B08E6F53AEB241879
:10172000FFE43AFE1220F818EEF608EFF6E53AF478
:10173000FEE53BF44E6012EB2418F582E43AF583A3
:10174000E53AF0A3E53BF0D20A787312127A787F7B
:10175000121293EB241CFFE43AFE1220CF7873128E
:101760001293787FE6F4601E12127A8F4B8E4A8DA8
:10177000498C48122116EB241CF582E43AF58312B9
:10178000129FD20AC20B300A05C20A0218E07F007B
:1017900022854D23854E24854F25855026E52665D7
:1017A0002A7015E5256529700FE52465287009E57F
:1017B000236527700302183AE4F53A90BDF174549A
:1017C000F000000000E4F55190BCF0E526F00000C8
:1017D000E525F00000E524F00000E523F0000074AA
:1017E00001F0752700752800753908121F04E551AE
:1017F000641D702BAF28AE27121A6E8E278F28908B
:10180000BDF17455F0D539E3852327852428852536
:101810002985262A121F04E551B414037F0022E50E
:101820003AC39405500EE53AC394014003121B4B92
:10183000053A80871220DF021B4B7F0022E547C359
:1018400094135007120003EF600122122011EF6081
:101850000122121791EF60012274002542FF7400EB
:1018600035418F82F58374E5F01218E0EF600122B4
:10187000AF3FAE3EAD3DAC3C8F3B8E3A8D398C38A0
:10188000EC4D4E4F604EE53F24FFF53FE53E34FF03
:10189000F53EE53D34FFF53DE53C34FFF53CE4F530
:1018A00032F531F530F52F7F387D01120A24EF60D3
:1018B0000122E5322401F532E43531F531E43530E9
:1018C000F530E4352FF52F3009DD121BB7EF60013D
:1018D00022021C2C7F0022F583E53AF0A3E53BF0C1
:1018E000E4F53A90BDF17456F000000000E4F551C3
:1018F00090BCF0E526F00000E525F00000E524F0BE
:101900000000E523F000007401F075270075280041
:10191000753908121F04E551641E7033AF28AE27D5
:101920001219FC8E278F2890BDF17457F0D539E33A
:1019300085232785242885252985262A121F04E545
:1019400051B4140BE54020E5031221227F0022E56B
:101950003AC39405500FE53AC394014003121B4B60
:10196000053A0218E31220DF021B4BE53F700CE53D
:101970003C7008E53D7004E53E6072853F32853E6F
:1019800031853D30853C2FAF22E4FCFDFE7873129B
:101990001286C312124340387F2FE4FD120A24EF4F
:1019A00060012220094785382F853930853A3185F5
:1019B0003B32787312127AAB22C3EF9BFFEE940096
:1019C000FEED9400FDEC9400FC787312129380B746
:1019D0007876E6FFE522145FF537121E8EAF26AE4D
:1019E00025AD24AC2378731212937F00227537FF44
:1019F00078731212ABFFFFFFFF7F002290BDF174DE
:101A00002BF0E4F551E54054036403FD744090BCB1
:101A1000F0F0CD602A1460118F828E83E090BCF0CC
:101A2000F00FBF00010EDDF02205A28F828E83E051
:101A3000A305A2F005A2DDF7AF82AE8305A222EFD7
:101A4000C582F9EEC583C5A0F5F07D08E0A3F3E0FB
:101A5000A3F3E0A3F3E0A3F3E0A3F3E0A3F3E0A395
:101A6000F3E0A3F3DDE685F0A0AF82AE832290BD64
:101A7000F17428F0E4F551E54054036403FD90BC93
:101A8000F0E0CD602A14601190BCF0E08F828E836C
:101A9000F00FBF00010EDDF02205A28F828E8305BC
:101AA000A2E005A2F0A3DDF7AF82AE8305A222EF8C
:101AB000C582F9EEC583C5A0F5F07D08E3F0A3E388
:101AC000F0A3E3F0A3E3F0A3E3F0A3E3F0A3E3F0D8
:101AD000A3E3F0A3DDE685F0A0AF82AE832212156A
:101AE000ADEF600122121BB7EF60012285323F8506
:101AF000313E85303D852F3C121791EF60012274F5
:101B0000002542FF74003541FEF583EF241CF58269
:101B1000E43583F5837401F0853F38853E39853D92
:101B20003A853C3B8F828E83E582241AF582E43528
:101B300083F583E538F0A3E539F08F828E83E58263
:101B40002414F582E435831218D722753932122114
:101B50001DD539FA90BDF17422F00000000090BC50
:101B6000F0E0E5516416600FE547640160097F20ED
:101B700012206AEF20E5067547017F8222300C199A
:101B8000E547C394034012855139E4F55190BDF106
:101B9000745AF0121F04853951E547B41205754790
:101BA00003800AE547D394104003754710E5517050
:101BB000037F1022AF5122852723852824852925DC
:101BC000852A261218E0EF600122900206E0FEA3AB
:101BD000E0FF4E6048E4FCFDE5262FF526E5253EB6
:101BE000F525ED3524F524EC3523F5231218E0EF27
:101BF000600122900206E0FAA3E0FBC3E5269BF514
:101C000026E5259AF525E5249400F524E52394009E
:101C1000F523F52785242885252985262AC20A7FCC
:101C2000002274FFF532F531F530F52F900204E013
:101C3000FEA3E0FF4E700122E4FCFD900200E0F8FC
:101C4000A3E0F9A3E0FAA3E02FF526EA3EF525ED9F
:101C500039F524EC38F52312179DEF6001227E013F
:101C60007FE81220CFE5322FF532E5313EF531E540
:101C7000303DF530E52F3CF52FAF32AE31AD30FCC5
:101C80001221169001E812129F1218E022E547C3B4
:101C9000941250037FB422E547B41239E54C640333
:101CA000603390020FE0F522E54AC313FF7E00E4A3
:101CB000FCFD90020C12129F90020FE0FFE4FCFD6D
:101CC000FEE5462FF546EE3545F545ED3544F54440
:101CD000EC3543F543E547D39413400AE547B41484
:101CE000077873E67002C20B300B07121E47EF60D5
:101CF0000122122011227537057D067F651220977B
:101D0000E4F54790BCF0E0B49A0F7D067F9A12206C
:101D10009790BCF0E064656009121FA9D537DA7F9F
:101D2000812290BDF17401F000000000C20C90BC53
:101D3000F0E0C394A24002D20C7547017D157F06E6
:101D40001220977F0112208190BCF0E0B45F037FE6
:101D500081227F0022121ECDEF60037F82227F51FD
:101D6000122033E551703D7D037F02122015300CA7
:101D7000307F3812206AEF602812210C900000E0BA
:101D8000B4051E90BDF1740BF00000000090BCF093
:101D90007434F000007401F07F58122033E5517064
:101DA000037F00227D027F02122015021B4B121EB0
:101DB000CDEF60037F8222E547C39403501B121DC1
:101DC00055EF600C7F32122081121D55EF60012209
:101DD000121F2FEF6003021B4B300C207F59122083
:101DE00033AF518F38EF7002FF227F0A1220817FBC
:101DF0005A1220337F02122081AF38227F0022E561
:101E00004764156007121F5AEF600122787312129F
:101E10007A8F558E548D538C52AB4BAA4AA949A840
:101E200048C3121243500C854B55854A548549537B
:101E3000854852AF55AE54AD53AC5212210278735F
:101E400012129312196B22C20BE547C39414403B44
:101E5000121791EF60012274002542FB7400354196
:101E6000FAF583EB240BF582E43583F583E020E477
:101E70001AAF4BAE4AAD49AC48122116EB241CF503
:101E800082E43AF58312129F0218E07F0022E532C5
:101E900024FEFFE53134FFFEE53034FFFDE52F344D
:101EA000FFFCA82E121267EF2546FBEE3545FAED32
:101EB0003544F9EC3543F8E4FCFDFEEB2537F52617
:101EC000EE3AF525ED39F524EC38F5232290BDF1F5
:101ED0007422F00000000090BCF0E0E4F5517F2097
:101EE00012206AEF30E517E547C39402400A7F1BD2
:101EF00012206AEF547F70037547027F00227547F6
:101F0000017F822220B2FD90BDF17422F0535180F6
:101F1000E5516003E4F55190BCF0E0F551E551B4B2
:101F2000160475470122E551B41503754702227561
:101F300038087F53122033AF518F3BEF7002FF22DE
:101F40007F0A122081300C057F5A1220337F141231
:101F50002081D538DDAF3B8F5122E5476414600303
:101F60007FB422853F32853E31853D30853C2FE46C
:101F7000F555F554F553F552F5377D157F141220BC
:101F80001522EFB40A07740D121F8D740A309811D0
:101F9000A899B8130CC2983098FDA899C298B811A6
:101FA000F63099FDC299F59922753A8090BDF17489
:101FB00001F00000000090BCF0E0FFD53AEE90BDCB
:101FC000F17405F0000000007F32022081E581D32A
:101FD00094F040037FFC22754005E4900000F0126D
:101FE0002127EFC3943050037FFF22121CF622EF0B
:101FF000601E7BFF7A1479987562008F631204A1CA
:10200000C2947F6412204FD2947F6412204F80F0DC
:10201000227D107F10E547C39F40028D47E5476D45
:102020007002FF22754701121ECDEF60037F8222EE
:102030007F8322E4F55190BDF1EFF0121F04E551CA
:10204000700475511022E551B41403E4F55122EFE8
:1020500060177EC87403255FF55FDEF87EC87403E1
:10206000255FF55FDEF81F80E62290BDF1740AF06F
:102070000000000090BCF0EFF000006003E0FF22E1
:1020800022EF75F005A4F53AE53A600A12211D1217
:10209000211D153A80F22290BDF1EDF00000000004
:1020A000E4F55190BCF0EFF00000228D828C83A803
:1020B00007E4FFE493F6600508A30F80F622759805
:1020C00050758780758921758DF3D28ED299228FB4
:1020D000828E83E0FFA3E0FEA3E0FDA3E0FC227478
:1020E000FFF52AF529F528F527C20A22787FE4F6BC
:1020F000D8FD758196020EDA8F828E83E0FFA3E011
:10210000FE22C3E4CC13CD13CE13FF221220DF7EB8
:10211000007F00021A6EEFCCFFEECDFE227F96DF2D
:0B212000FE227FFADFFE227F30222229
:00000001FF
