:10000000B6C0CFC0CEC0CDC0CCC0CBC0CAC0C9C0A6
:10001000C8C0C7C0C6C0C5C0C4C0C3C0C2C0C1C0BC
:10002000C0C0BFC0BEC023C136C14CC19AC499C4B0
:1000300080C179C296C495C494C493C492C491C437
:1000400090C48FC4AAC113C215C23CC2C3C339C273
:10005000C0C314C426C412C424C423C422C442C4CA
:100060005BC157C17EC47DC47CC47BC47AC479C4DF
:1000700078C477C476C475C474C473C472C471C4BC
:1000800045C12FC131C16DC432C134C13FC141C16D
:1000900034C167C441C165C464C43EC131C133C108
:1000A0001B5B306D1B5B324A1B5B303B3066004193
:1000B00076725573623530302D312E35207465726D
:1000C0006D696E616C206D6F64650D0A00456E741C
:1000D00065722053572056657273696F6E204D61AB
:1000E0006A6F7220696E20686578205B005D3A2037
:1000F00000456E7465722053572056657273696FA0
:100100006E204D696E6F7220696E20686578205B85
:10011000005D3A20000D0A4F4B2C206D792053577B
:100120002076657273696F6E206973206E6F773AFF
:1001300020002028686578290D0A005265616479DD
:100140002E204A75737420636C6F73652074686524
:10015000207465726D696E616C2E204E6F20726521
:10016000736574206E65656465642E0D0A00112444
:100170001FBECFE5D4E0DEBFCDBF10E0A0E6B0E00B
:10018000E2E9FFE002C005900D92AC36B107D9F765
:1001900011E0ACE6B0E001C01D92AF39B107E1F764
:1001A000CCC42ECFDF92EF92FF920F931F93CF9389
:1001B000DF93182FEB01CB0101978D51914028F06F
:1001C000C2E0D0E080EC809376008BE161D69BE1C9
:1001D000D92E812F5DD6D1268D2F9927182F58D64D
:1001E000D1268C2F55D6DC268EE052D68EE0D8262E
:1001F00044D6EE24FF24EC16FD0678F405E710E063
:10020000F801808145D6F80181918F01D8260894A4
:10021000E11CF11CEC16FD0698F38D2D39D6DF910B
:10022000CF911F910F91FF90EF90DF9008955F9213
:100230006F927F928F929F92AF92BF92CF92DF92F6
:10024000EF92FF920F931F93CF93DF93582E71E09D
:10025000672E809175009927AA27BB27FC0131974B
:10026000ED31F10508F07DC3ED5EFF4F099481E0AB
:10027000809375001092760088E08093770089E083
:10028000A1E6B0E0E8E7F0E00D9001928A95E1F791
:100290000BE010E06BC380917600883921F48091E7
:1002A0007700EED409C18E3929F4809177008093CC
:1002B000600002C18F3909F0FFC080917700809300
:1002C0007400FAC0809176009927AA27BB27FC0109
:1002D000E058F040E032F10508F043C3E05DFF4F25
:1002E0000994C0909D011AC0C0909E0117C062E39E
:1002F000C62E18C059E1C52E15C0FCD4C82E0EC09C
:10030000C09060000BC0C090740008C042E0C42ED2
:1003100009C031E0C32E06C0CC2404C08FEFC8163C
:1003200009F41FC303E010E010927600C09277003A
:100330001DC3809176009927AA27BB27B82FAA272B
:100340009927882720917700332744275527A9012B
:1003500033272227822B932BA42BB52B20917800B7
:10036000332744275527542F432F322F2227822B00
:10037000932BA42BB52B20917900332744275527A5
:10038000822B932BA42BB52B80937000909371003C
:10039000A0937200B09373008FC0A898C7D48091C7
:1003A000770099274ED502E010E080EC809376002C
:1003B000EE24FF2480917900813318F080E380934C
:1003C000790080917A00882319F481E080937A0083
:1003D000809179009927E816F90608F0C7C24DD533
:1003E000A8988091780099272CD50894E11CF11CDD
:1003F00080917D00B3D480917A00992722D5809195
:100400007E00ACD480917A0099271BD5A89A809160
:100410007F00A4D4C82E80917A00992712D58091AC
:1004200080009CD4782E90917C00933039F4809198
:100430007B00C81669F4109276000AC080917B0098
:10044000781611F410927600992311F490937600A7
:1004500080917600882331F4A89880917900E82E65
:10046000FF24B6CF4BD484E190E0EBD4B1CFE0D4FD
:10047000A89A22C08091780071D4809179006ED4BE
:1004800080917A006BD480917B0068D48091770052
:10049000882329F4809176009927D3D40DC0C6E92A
:1004A000DC2E01C0DA9460E070E080E090EFA4D42C
:1004B00080FF02C0DD20B1F702E010E0109276006C
:1004C00055C26624882499245401B6E9DB2E809114
:1004D0007900843018F484E0809379008091790069
:1004E000813218F080E280937900809170009091C1
:1004F0007100A0917200B091730080936C00909392
:100500006D00A0936E00B0936F00809176009927E4
:10051000D82FCC27809177009927C82BD92B91E031
:10052000C931D90720F002E010E080EC1DC2A5D44B
:1005300070907800CC24872D9927809590959C0108
:100540002170307080FF94C0EE24FF24EC16FD066D
:1005500008F03AC105E710E0662031F0E0FE04C083
:1005600080917A00886002C080917A00F7D38091F0
:1005700070009091710034D4F8018285EFD390918E
:100580007D00F8018285981799F080907000909016
:100590007100A0907200B09073008FEF9FEFA0E009
:1005A000B0E088229922AA22BB227092780003C070
:1005B00082E08093780061D4662019F482E090E0B4
:1005C00040D480917800992782FF19C0F6E9DF2E88
:1005D000662031F0E0FE04C080917C00886002C09B
:1005E00080917C00BBD3C401FBD380E0B7D3DA9405
:1005F00090917D008917B9F4DD2051F714C083FF75
:100600000EC0E6E9DE2E01C0DA9460E070E080E022
:1006100090EFF2D380FF07C0DD20B1F704C08091D6
:10062000790099270ED4662011F0E0FE13C0809166
:10063000700090917100A0917200B09173000196CA
:10064000A11DB11D8093700090937100A093720062
:10065000B0937300DD2011F470E8C72E0894E11CFC
:10066000F11C0F5F1F4FEC16FD0608F475CFACC0F0
:1006700079012C173D0708F053C005E710E0FDD3C2
:10068000662031F0E0FE04C080917A00886002C0EC
:1006900080917A0063D38091700090917100A0D313
:1006A000F80182855BD390917D00F80182859817CF
:1006B00089F08090700090907100A0907200B090CE
:1006C00073008FEF9FEFA0E0B0E088229922AA226A
:1006D000BB2206C08091780080788061809378008A
:1006E000662011F0E0FE13C08091700090917100BF
:1006F000A0917200B09173000196A11DB11D80936D
:10070000700090937100A0937200B09373000894EE
:10071000E11CF11C0F5F1F4FEC16FD0608F4AFCF74
:10072000ACD38091780087FF4FC080917B0016D3B7
:1007300080916C0090916D0053D380E00FD36620C0
:1007400019F481E090E07DD366E9D62E809178009F
:1007500085FF24C081149104A104B104F9F0D501EE
:10076000C40181709070A070B070892B21F08091CD
:100770007C00886002C080917C00F0D2C40130D33C
:1007800080E0ECD2DA9490917D00891711F4DD209D
:1007900031F7DD20C9F450E8C52E16C086FF10C021
:1007A00001C0DA9460E070E080E090EF25D380FF34
:1007B00002C0DD20B1F7DD2039F441E8C42E04C0C9
:1007C0008091790099273DD302E010E0C092760035
:1007D000CDC06624809176009927D82FCC278091B0
:1007E00077009927C82BD92BC090780091E0C931A8
:1007F000D90710F0C8E1D1E0EE24FF24EC16FD0685
:10080000A0F507E710E039D3662029F0E0FE03C029
:100810008C2D886001C08C2DA1D2809170009091A8
:100820007100DED280E09AD2D8018C93662011F05C
:10083000E0FE13C08091700090917100A091720051
:10084000B09173000196A11DB11D8093700090932B
:100850007100A0937200B09373000894E11CF11C26
:100860000F5F1F4FEC16FD0670F28E010D5F1F4FDC
:1008700010927600CB58DF4F1A8278C080917600B4
:100880006DD2809177006AD28091780067D2809192
:10089000790064D203E010E01092760010927700A5
:1008A00065C007E710E0C0E0D0E023E0D22EF801F9
:1008B00081918F0153D2C82E80917600992721967D
:1008C0008C179D0711F4C092770085E090E0B9D2B3
:1008D000DA94D7FEECCF04E010E01092760010928C
:1008E000780044C0C090770070907800DD24CD2D52
:1008F00080917600D81600F585E090E0A2D2C71569
:1009000080F0DC1470F40D2D11270B581F4FEC2FC5
:10091000FF27EB58FF4F848121D2F8018283D394C3
:1009200006C0EC2FFF27EB58FF4F848117D2CF5F13
:1009300080917600C81700F3DC1440F4ED2DFF27FA
:10094000E958FF4F1192D394DC14E0F3ED2DFF270B
:100950008F010D5F1F4F10927600EB58FF4F1282F0
:1009600005C002E010E089EC80937600B801852D87
:1009700019DCDF91CF911F910F91FF90EF90DF90E5
:10098000CF90BF90AF909F908F907F906F905F902F
:100990000895EF92FF920F931F93CF93B1E0FB2E38
:1009A000A2E0EA2E1FEF8111FE2C81E094D2C82F25
:1009B0008D30D1F18A30C1F10C2F00530A3038F05C
:1009C0008C2F8154863018F08052863020F51F3FDE
:1009D00009F410E08C2F5CD20A3028F41295107FB5
:1009E0001C0F105317C08C2F8154212F33278630B2
:1009F00048F4F4E0220F331FFA95E1F71C2F120F91
:100A0000175308C0E4E0220F331FEA95E1F71C2FCB
:100A1000120F1755EA9481E05ED2C82F8D3021F075
:100A20008A3011F0EE2041F6CD3011F0CA3009F4D1
:100A3000FA94FF2019F081E04ED2FACF812F992746
:100A4000CF911F910F91FF90EF9008958BE120D2ED
:100A500085E41ED20895CF93C82F80EA90E02AD271
:100A60008FEA90E027D28DEC90E024D280919D0116
:100A700040E150E065E770E099273FD285E790E0DC
:100A80000BD28DEE90E016D28C2F83DF8F3F11F0CA
:100A900080939D01DBDF81EF90E00CD280919E017D
:100AA00040E150E065E770E0992727D285E790E0C4
:100AB000F3D181E191E0FED18C2F6BDF8F3F11F0FC
:100AC00080939E01C3DFA1E0B0E080919E01082EDB
:100AD00040D2A2E0B0E080919D01082E3AD2A0E081
:100AE000B0E084E1082E35D285E191E0E3D1809138
:100AF0009D0140E150E065E770E09927FED185E770
:100B000090E0CAD18EE2C4D180919E01803110F470
:100B100080E3BED180919E0140E150E065E770E046
:100B20009927EBD185E790E0B7D182E391E0C2D17C
:100B30008BE391E0BFD1CF910895CFE5D4E0DEBF44
:100B4000CDBFDD24BD2CCD2CC0E0D0E07E0197D1FF
:100B50008AD1A09AA89A789484E080939E0182E03A
:100B600080939D01A0E0B0E0ECD1802D843161F450
:100B7000A1E0B0E0E6D1802D80939E01A2E0B0E03C
:100B8000E0D1802D80939D0181E0A5D104C080E05B
:100B9000A2D1112321F58B3119F411E0082FF7CFE1
:100BA0008D3019F08A3009F065C02196BB2039F4E8
:100BB0008A3029F49DE0D91611F401E0B02ED82E28
:100BC000BB2029F0C430D105F9F681E004C0C23061
:100BD000D105D1F68B2D3FDFC0E0D0E0D5CF11306D
:100BE00021F4C82E082712E0D2CF123031F40827A2
:100BF0009927F82EEE2413E0CACF133031F40827DA
:100C00009927E82AF92A14E0C2CF143041F40827C2
:100C10008E3009F0B9CF15E0C0E0D0E0B8CF153084
:100C2000A1F4CE15DF0534F591E0C831D90714F5EC
:100C30000827FE01EB58FF4F80832196A895CE151B
:100C4000DF0509F0A4CF16E0A2CF163099F4801783
:100C500039F41E141F0424F4A8958C2DE8DA0AC078
:100C600080EB8093750081EC8093760062E070E009
:100C70008C2D98DAEE24FF24DD24CD2CE70184CFDF
:100C800010929C01843048F081E080939C018CE0BC
:100C900080936A008CE090E00895833048F070986B
:100CA000699A689A83E080936A0083E090E00895EF
:100CB000823048F07098699A689882E080936A0060
:100CC00082E090E00895813041F470986998689AC4
:100CD00080936A0081E090E00895882341F4709841
:100CE0006898699880936A0080E090E0089581E0B8
:100CF00090E0089580916A00992708952DB11DB85C
:100D0000C5988CE590E0FC013197F1F7C59A019701
:100D1000F1F7C5982DB90895C29A8CE590E0019736
:100D2000F1F7C29884E190E08CD00895BA9AC29A03
:100D3000BB9AC398BD9AC59884E190E082D0809117
:100D40009C01882329F481E58DB980916A0098DFA0
:100D5000C29884E190E075D0DFDF0895CF93DF93F0
:100D6000982F70E080919C01882331F49FB9779B84
:100D7000FECF8FB1992731C0C59867E0492F55271D
:100D8000ACE5B0E0C0E0D0E0E1E0F0E027E030E04A
:100D9000CA01022E02C0959587950A94E2F780FF5A
:100DA00002C0C39A01C0C398CD010197F1F7C59A5B
:100DB000CD010197F1F7C598B49B08C0CF01022E71
:100DC00002C0880F991F0A94E2F7782B61502150D6
:100DD000304067FFDDCF872F9927DF91CF910895AE
:100DE0000F931F938C01812F9927B8DF802FB6DFD7
:100DF00099271F910F910895EF92FF920F931F93E0
:100E00007B018C01892F9927AA27BB27A7DFC8015F
:100E1000AA27BB27A3DFBB27A12F902F8F2D9EDFF3
:100E20008E2D9CDF99271F910F91FF90EF900895D1
:100E30001DB8C29ABB98C398BD98C598BA98C29875
:100E40000895CF93DF939C01892B51F0A4E7B3E081
:100E5000C0E0D0E0CD010197F1F721503040D1F74B
:100E6000DF91CF91089588E190E02FE00FB6F894DC
:100E7000A89581BD0FBE21BD0895A895089510BC09
:100E800081E090E089B988E18AB986E880BD08955B
:100E90005D9BFECF8CB90895CF93DF93EC018881E1
:100EA000882329F08991F4DF88818823D9F7DF919D
:100EB000CF910895CF93DF93EC01FC0121968491AB
:100EC000882331F0E5DFFE01219684918823D1F754
:100ED000DF91CF910895CF93C82F5F9904C0C111BE
:100EE000CCDF5F9BFCCF8CB19927CF9108955F9B9E
:100EF00003C08CB15F99FDCF0895FB019F01423083
:100F00006CF045325CF4642F77272FD0805D8A33F4
:100F10000CF0895D8193CB010097A9F71082C9017C
:100F200000C0DC01FC0101900020E9F73297AE1708
:100F3000BF0730F47C916081708331976D93F7CF58
:100F40000895E199FECFBFBBAEBBE09A11960DB2FA
:100F50000895E199FECFBFBBAEBB0DBA11960FB697
:100F6000F894E29AE19A0FBE0895AA1BBB1B51E1C7
:100F700007C0AA1FBB1FA617B70710F0A61BB70B09
:100F8000881F991F5A95A9F780959095BC01CD01AE
:020F90000895C2
:0C0F9200014156524953505F32000100EB
:00000001FF
