:1000000002241390BDF17422F00000000090BCF0B7
:10001000E0FFE547C394105007120A5BEF6001222E
:10002000122319EF600122C20B7871E6645C600450
:10003000E6B42F05752B7280177872E6643A600378
:100040000200E318E6C3944350030200E3752B74E7
:10005000E54CB4031090020CE0FCA3E0FDA3E0FE2D
:10006000A3E0FF8005E4FFFEFDFC8F3F8E3E8D3D4B
:100070008C3CA82BE6706F74FFF54BF54AF549F5FB
:1000800048E54C6403603F753F0290020FE0FBC3FC
:10009000E5469BF546E5459400F545E5449400F5B5
:1000A00044E5439400F54390020EA3E025E0FEE40E
:1000B000F54B8E4AF549F548AF22FCFDFE90020C47
:1000C0001213B4752280853F32853E31853D3085DF
:1000D0003C2FE4F555F554F553F552F537754712B5
:1000E0007F4122752B71A82BE6B4E5027605E53F2A
:1000F000700CE53C7008E53D7004E53E60328522F9
:1001000037E53F24FEFFE53E34FFFEE53D34FFFDCD
:10011000E53C34FFFCA82E12137CEF2546F550EE8B
:100120003545F54FED3544F54EEC3543F54D801F23
:1001300090020FE0F537CBC3E5469BF550E54594BB
:1001400000F54FE5449400F54EE5439400F54DE588
:100150003770030203F2121A81EF600122E4F541C5
:10016000F542C3E541940240030203D874002542DE
:10017000F52D74003541F52C852D82F583E0FF7057
:100180000302041FEF64E570030203CABF05027F88
:10019000E5A82BE6FE6F6008EE642A60030203CA3E
:1001A000E4F53BFFEFC3940B5078E52D2FF582E487
:1001B000352CF583E0FEAD3BE52B2DF8EE66605D5A
:1001C000AD3BE52B2DF8E66015AD3BE52B2DF8E6B4
:1001D000645C600AAD3BE52B2DF8E6B42F1FEE649E
:1001E00020703FEFC394085010E52D2408F582E4F9
:1001F000352CF583E0642070297F0B8025AE3BE52C
:100200002B2EF8E6B42E1BE53B6408600EE52D2F7F
:10021000F582E4352CF583E0B420077F070F053B1A
:100220008082EFC3940B500302030BE52D240BF5E2
:1002300082E4352CF583E030E30302030BC209E5C9
:100240002D241AFFE4352CFE122435E48F3F8E3E18
:10025000F53DF53CE54CB40310E52D2414FFE435E1
:100260002CFE1224358E3C8F3DAF3BE52B2FF8E65C
:100270006006200903020301853F32853E31853D3A
:1002800030853C2FE4F555F554F553F552F537E537
:100290002D240BF582E4352CF583E030E41F74FF48
:1002A000F54BF54AF549F5487D137F1012231DEFF4
:1002B0006001223009047F4380027F4122E52D2422
:1002C0001CFFE4352CFE1223DA8F4B8E4A8D498CAD
:1002D00048E53F7017E53C7013E53D700FE53E7053
:1002E0000B7537FFF54BF54AF549F5487D147F103E
:1002F00012231DEF6001223009047F4380027F003A
:1003000022E53B04252BF52B0200E6AF3BE52B2F26
:10031000F8E6642A60030203CAE52D240BF582E4A3
:10032000352CF583E030E3030203CAE53B04252BBB
:10033000F8E67053E4FFF539E52D2FF582E4352C0E
:10034000F583E06420602FBF080AAE39E52B2EF854
:10035000762E0539E52D2FF582E4352CF583E0FE68
:10036000AD39E52B2DF8EEF6E5397008A82BE6B48B
:10037000050276E505390FBF0BBEAF39E52B2FF827
:10038000E4F6D20902023FE53B04252BF8E6F470BF
:1003900032E54B700CE5487008E5497004E54A60A9
:1003A00093E54830E703122470E54B24FFF54BE555
:1003B0004A34FFF54AE54934FFF549E54834FFF58D
:1003C000488007E53B04252BF81674202542F542AA
:1003D000E43541F541020162E5502401F550E43570
:1003E0004FF54FE4354EF54EE4354DF54D153702DA
:1003F000014FE53F700CE53C7008E53D7004E53EBB
:10040000601D7F3CE4FD120CE4EF60012220090F27
:1004100085383C85393D853A3E853B3F0200E6E420
:10042000FFE52B2FF8E6FE6013642A600FEE645C94
:100430006004EEB42F037FB3220F80E57F4222E5F4
:100440006C2460F8E6056C22785D3007027860E481
:1004500075F00112146202140A2000EB7F2ED20004
:100460008018EF540F2490D43440D4FF30040BEFA5
:1004700024BFB41A0050032461FFE56D6002156DBE
:100480000570E5707002056F30070D785DE475F05A
:1004900001121462EF0214500222AC7403D20780DE
:1004A00003E4C207F56C8B5D8A5E895FE4F56DF548
:1004B0006FF570E56D60077F2012047A80F5756E28
:1004C000FFC201C200C202C203C205C206C20812B4
:1004D0000448FF700D3007057F0012048BAF70AE2B
:1004E0006F22B4255FC2D5C204120448FF24D0B4E1
:1004F0000A00501A75F00A786D30D50508B6FF016C
:1005000006C6A426F620D5047002D20380D924CFD3
:10051000B41A00EF5004C2E5D20402068BD2018067
:10052000C6D20080C0D20280BCD2D580BAD20580AB
:10053000B47F2012047A2002077401B56D0040F1E7
:1005400012043FFF12047A0204B3D208D206809547
:1005500012043FFB12043FFA12043FF94A4B7006A3
:10056000795C7A077BFF20022EE56D602A7E008E83
:100570008275830012142360060EEE656E70F0C261
:10058000D5EBC0E0EAC0E0E9C0E0EE1206D2D0E070
:10059000F9D0E0FAD0E0FB12140AFF60AAEBC0E049
:1005A000EAC0E0E9C0E012047AD0E02401F9D0E02A
:1005B0003400FAD0E0FBE56E0460DCD56ED98087AC
:1005C0007BFF7A0679CED202809C7910800279086E
:1005D000C206C2088008D2D5790A8004790AC2D539
:1005E000E56E047002F56EE4FAFDFEFF12043FFCB6
:1005F0007B0820011312043FFD7B1030000A120417
:100600003FFE12043FFF7B20EC3382D592D550137E
:10061000C3E43000069FFFE49EFEE42001039DFD3D
:10062000E49CFCE4CBF8C201EC700CCFCECDCCE85E
:1006300024F8F870F38017C3EF33FFEE33FEED3389
:10064000FDEC33FCEB33FB994002FB0FD8E9EB30B8
:100650000105F8D0E0C448B201C0E00AEC4D4E4FAD
:1006600078207B0070C2EAB56E0040BCC0E0120684
:10067000D4D0F0D0E0200104C4C0E0C4B201C0F086
:10068000120463D0F0D5F0EB0204B31214720550DB
:100690005305CA5805214C051D4205CE4F05D644C9
:1006A00005D64905364305DC5505C04605C0450558
:1006B000C047077C5005252D05292E054C2B052DFF
:1006C00023054A2007652A04E548000005443F3F0A
:1006D0003F00790AA2D5200314300509B91002049D
:1006E00004B9080104A2D5200602500104200268C2
:1006F0009202B56D005034C0E07F203003197F3086
:10070000A20272067205500F12072BC202C206C265
:1007100005C2087F30800F300503E9C0E012047A7B
:10072000300503D0E0F9D0E0B56DCC3005177F304F
:10073000B9100C12047A7F583004077F788003B90F
:10074000080312047A3002057F2D02047A7F2020EC
:1007500008F87F2B2006F322920280CF286E756C5A
:100760006C2900D20112043F3001F8C201786D30CB
:10077000D50108F60204E52D5043495812043F24E0
:1007800003B405004001E49007779312046B743AB8
:1007900012046BD203756D040205CAD294C294127E
:1007A00023EAD2941223C97BFF7A1979A91204A1F2
:1007B0001222F78F5612233B7BFF7A1979B012046D
:1007C000A1E5476402600512225680F5C294122307
:1007D000EA1223EAE4F5561223EA7BFF7A1979BC80
:1007E0001204A1122148EF60090556E556C394058D
:1007F00040E5C2957BFF7A1979C51204A17F717C0F
:10080000197DCB1223B61200038F56E55664B360F0
:1008100006E55664427077E556B4B308755B197502
:100820005CDB8006755B19755CDE7560FF855B615E
:10083000855C627BFF7A1979EA1204A1E4F5577F9F
:1008400071AD5CAC5B1223B68F5674712FF8A6574E
:100850001200038F56E55664427003020972E55692
:10086000B4431A7560008557617562007563007541
:1008700064717BFF7A1979F81204A18005AF5602E2
:10088000096F0557E557C394FF40B4020972AF568C
:1008900012233B7BFF7A1A79101204A1E4FF7E0633
:1008A000FDFCAB4BAA4AA949A848D3121358400BE8
:1008B000755803755906755A00801FE54B24FFFFD4
:1008C000E54A3401FEE43549FDE43548FC78091277
:1008D00013698F58854A59854B5A7BFF7A1A7916C6
:1008E000854B63854A628549618548608559648581
:1008F0005A657566008558671204A1E54B24FFF51B
:100900004BE54A3401F54AE43549F549E43548F503
:1009100048E55860337871760112241F8F561223F0
:100920003B122406900064E0F556E4F07560017512
:1009300061007562007BFF7A1A79301204A1900081
:1009400064E556F0155880C9C3E54B94FFF54BE5B7
:100950004A9401F54AE5499400F549E5489400F5C3
:10096000487BFF7A1A793C1204A1121F7D8F561220
:10097000233BC296755908755A007558047BFF7A57
:100980001A79431204A17F717C1A7D4B1223B6128F
:100990000F6D8F5612233B7BFF7A1A79591204A1EF
:1009A000E4F556E5566558600E7871760112242AF2
:1009B00012233B055680EC7BFF7A1A79631204A15F
:1009C00078711213C00000000012209E8F5612236F
:1009D0003B7BFF7A1A79701204A1E4F55BF55CE5C4
:1009E000586040122406E4FFFE855C82855B83E448
:1009F00093FD74002FF58274003EF583EDF0055CE5
:100A0000E55C7002055B0FBF00010EE4B507DAEE8E
:100A1000B402D67871760112242A8F5612233B1520
:100A20005880BC7BFF7A1A793C1204A17871760158
:100A3000121F7D8F5612233BD296D2957BFF7A1AD6
:100A400079771204A1E5476401600512225680F50A
:100A5000D2941223EA1223EA0207B8E547C39403AB
:100A60005007122045EF600122122406E4F526F516
:100A700025F524F523121A8DEF600A122281121A2D
:100A80008DEF600122900000E0FF64EB6037EF64BF
:100A9000E96032E4FDED6440602874C22DF582E423
:100AA0003401F583E06015ED7E0024C6FFEE3401CD
:100AB000FE1223DA9002001213B4801374102DFD7D
:100AC00080D37F92229002001213D9000000009080
:100AD0000200E0FCA3E0FDA3E0FEA3E0F5268E25E6
:100AE0008D248C23121A8DEF600122900000E0FF0C
:100AF00064EB6008EF64E960037FA12290000DE0E1
:100B0000F52230E605752E06802E30E505752E059A
:100B1000802630E405752E04801E30E305752E0313
:100B2000801630E205752E02800E30E105752E012B
:100B30008006752201E4F52E7E007F161224359082
:100B40000206EEF0A3EFF04E70287E007F24122301
:100B5000DA8F328E318D308C2FE4FBFA7901F8D3A5
:100B600012135850037FA222900206E531F0A3E54C
:100B700032F0900014E0FF900013E04F60127E000E
:100B80007F13122435E48F3F8E3EF53DF53C800FF8
:100B90007E007F201223DA8F3F8E3E8D3D8C3C7E7F
:100BA000007F11122435EF240FFFE43EC4F854F007
:100BB000C868FEEFC4540F48FFE4FCFD90020C121D
:100BC00013B47E007F0E122435E48F368E35F53453
:100BD000F533900206E0FEA3E0FFEF2536FFEE3589
:100BE00035FEE43534FDE43533FC90020CE0F8A327
:100BF000E0F9A3E0FAA3E02FF546EA3EF545E93D2A
:100C0000F544E83CF543900010E0D3940140219076
:100C10000206E0FEA3E0FFE4FCFDE5462FF546E515
:100C2000453EF545ED3544F544EC3543F543800745
:100C3000E4900206F0A3F0C3E53F9546FFE53E953C
:100C400045FEE53D9544FDE53C9543FCA82E121379
:100C5000699002081213B4E47BF57AFFF9F8D31215
:100C60001358401FE4900204F0A3F090020AE0FE43
:100C7000A3E094F5EE940F5005754C018024754C5B
:100C800002801F7E007F30122435900204EEF0A314
:100C9000EFF07E007F2C1223DA90020C1213B47551
:100CA0004C03900200E0FCA3E0FDA3E0FEA3E025DE
:100CB00036F536EE3535F535ED3534F534EC35337E
:100CC000F533900200A3A3A3E02546F546EE354593
:100CD000F545ED3544F544EC3543F5437D107F0390
:100CE00012231D228D5DEFC8E54CB4020712138F4D
:100CF00078018008B4031212138F780212137C8FCC
:100D0000618E608D5F8C5E802312138F8E5E8F5F8D
:100D1000EF139209E55EC313FEE55F13255FFFE560
:100D20005E3EFEE48F618E60F55FF55EEE5401FE7F
:100D3000EF2400F52DEE3400F52CAF61AE60AD5F11
:100D4000AC5E12243FEF2536F561EE3535F560EDEA
:100D50003534F55FEC3533F55EE561652A7012E5F3
:100D6000606529700CE55F65287006E55E652760A3
:100D70001D300A07121EA7EF600122855E23855FE2
:100D800024856025856126121A8DEF600122E55DBC
:100D90006023B4FF028006E55DB4010BE4F561F564
:100DA00060F55FF55E800C852F6185306085315F71
:100DB00085325ED20AE54C6402703F852D82852C17
:100DC00083E0F538A3E0F53985383B85393AE4F519
:100DD00038F539AE3AAF3BC3EF94F7EE94FF4003DA
:100DE000D38001C39209E55D600D852D82852C833A
:100DF000E55EF0A3E55FF07F0022E54C6403705AE6
:100E0000852D82852C83E0FCA3E0FDA3E0FEA3E01A
:100E1000F53B8E3A8D398C38E53B54F0FFE5615453
:100E20000F4FF561E53B540F85383BF538AF3A85F8
:100E3000393A8F39AF38EFC3940F4003D38001C3E1
:100E40009209E55D6011AF61AE60AD5FAC5E852D6E
:100E500082852C831213B47F0022535F0FC3E52DCC
:100E60009400FFE52C9400FEEFF47003EE64016043
:100E70004D852D82852C83E0F538A3E0F539E55DBD
:100E80007003020F33300923E55EC454F0FFE538E8
:100E9000540F4F852D82852C83F0E55FC454F0FFFD
:100EA000E55EC4540F4FA3F0020F33852D82852CCD
:100EB00083E55EF0E53954F0455FA3F08075852D3C
:100EC00082852C83E0F538E55D602230090EE55E11
:100ED000C454F0FFE538540F4FFF8002AF5E852DFC
:100EE00082852C83EFF0121EA7EF600122E52A24F1
:100EF00001F526E43529F525E43528F524E43527E0
:100F0000F523121A8DEF600122900000E0F539E51B
:100F10005D602030090FE55FC454F0FFE55EC45406
:100F20000F4FFF8007E53954F0455FFF900000EF59
:100F3000F0D20A300913E539C454F0FFE538C4543F
:100F40000F4FF53BE539C4800585383BE539540F33
:100F5000F53AE4F538F539AE3AAF3BC3EF94F7EE26
:100F6000940F4003D38001C392097F002212000333
:100F70008F37E537700A121B2DEF70030210B6226F
:100F8000E53764426003AF3722C3E54294E0E541B0
:100F9000940150030210B6E53F700FE53C700BE57D
:100FA0003D7007E53E7003021054C3E5509546FFBF
:100FB000E52214FE5FF537E5426008EE6537600311
:100FC0000210B67F3CE4FD120CE4EF600122200920
:100FD000030210B61215CCEF6001227F3C7D021295
:100FE0000CE4EF600122121EA7EF6001221224061A
:100FF000E4FFFEEE64024F601374002FF58274006C
:101000003EF583E4F00FBF00010E80E7E4F53712F0
:1010100021E0E5427010F541F54285265085254FC7
:1010200085244E85234D852238E5386020121BD05B
:10103000EF600122E5262401F526E43525F525E4B7
:101040003524F524E43523F523153880DC121F12EE
:10105000EF606322E542705EE55024FFF550E54FF6
:1010600034FFF54FE54E34FFF54EE54D34FFF54DB9
:10107000F523121A84EF600122E4F541F542C3E53D
:10108000419402502E74002542FF740035418F8236
:10109000F583E0B4E510E582240BF582E43583F5B1
:1010A00083E0540E601074202542F542E43541F58A
:1010B0004180CB7FB2221215CCEF600122121EA715
:1010C000EF60012285323F85313E85303D852F3CE2
:1010D000121F12EF600122121A81EF6001227400C8
:1010E0002542FF74003541FEE4FDEDC3940B50042E
:1010F0007C2080027C00EF2DF582E43EF583ECF04D
:101100000DBD20E6EF2418F582E43EF5837421F04E
:10111000A37430F0EF241CF582E43EF5837401F0F3
:10112000E4FDEDC3940B5021A82BE6FC601BECB44E
:101130002E047D08052BA82BE6FCEF2DF582E43E5E
:10114000F583ECF00D052B80D9853F38853E398538
:101150003D3A853C3BEF241AF582E43EF583E538C1
:10116000F0A3E539F0EF2414F582E43E121BC7EF3B
:10117000600122853F32853E31853D30853C2FE43C
:10118000F54BF54AF549F548F555F554F553F55243
:10119000F5377D147F1012231D22E547D394145098
:1011A00007E547C3941250037FB4227871E6FF0825
:1011B000F67006300B03021352E47871F67873F67A
:1011C00008F67872E670030212D6E537F4704AE545
:1011D0003F700CE53C7008E53D7004E53E602DE590
:1011E00047B41209E54C640360037FB122AF32AE0D
:1011F00031AD30AC2F787B1213A81215D8EF6001F7
:10120000227F7B7D02120CE4EF600822121DCEEFDC
:10121000600122787416E4F5371221E07873E6C392
:101220009440502FE66037E6FFE4FCFDFE7875122F
:10123000139BEF2BFFEE3AFEED39FDEC38FCEF652A
:1012400026FFEE6525FEED6524FDEC6523FC4D4E85
:101250004F600B1217BCEF600122E47873F67873CD
:10126000E6700DAF26AE25AD24AC2378751213A819
:10127000C3E5229537FF7872E6FEEFD39E400CE679
:101280000826F618E62537F537804B7873EF26F6F3
:10129000C318E69FF6E670187400787A66700474D6
:1012A000001866700B1217BCEF600122E47873F629
:1012B0007F2FE4FD120CE4EF600122300906753740
:1012C000FF0211C285382F853930853A31853B328E
:1012D000E4F5370211C2300A07121EA7EF6001229F
:1012E0007873E660071217BCEF6001227874E6603D
:1012F00035AF32AE31AD30AC2F787B1213A8787495
:10130000E6FFE4EFF53274FFF531F530F52F121FEB
:101310001CCBEFCB787B12138F8F328E318D308CBC
:101320002FEB6002FF22AF55AE54AD53AC52AB4B26
:10133000AA4AA949A848C3121358500E85554B858F
:10134000544A855349855248D20BE54030E4063073
:101350000B030221997F0022EB9FF5F0EA9E42F0F9
:10136000E99D42F0E89C45F022E8600FECC313FCD5
:10137000ED13FDEE13FEEF13FFD8F122E8600FEF3F
:10138000C333FFEE33FEED33FDEC33FCD8F122E640
:10139000FC08E6FD08E6FE08E6FF22E6FB08E6F9A3
:1013A00008E6FA08E6CBF822ECF608EDF608EEF6C9
:1013B00008EFF622ECF0A3EDF0A3EEF0A3EFF0229D
:1013C000D083D082E493F608740193F608740293F4
:1013D000F608740393F6740473A8828583F0D083AF
:1013E000D0821213F01213F01213F01213F0E47300
:1013F000E493A3C583C5F0C583C8C582C8F0A3C55F
:1014000083C5F0C583C8C582C822BB010689828A0C
:1014100083E0225002E722BBFE02E32289828A8314
:10142000E49322BB010CE58229F582E5833AF5833A
:10143000E0225006E92582F8E622BBFE06E9258275
:10144000F8E222E58229F582E5833AF583E49322E6
:10145000BB010689828A83F0225002F722BBFE017B
:10146000F322FAE6FB0808E6F925F0F618E6CA3A90
:10147000F622D083D082F8E4937012740193700D39
:10148000A3A393F8740193F5828883E473740293A1
:101490006860EFA3A3A380DFE547D394145007E56A
:1014A00047C3941250037FB4227871E608F6E4181B
:1014B000F67873F6C3E54B9555FFE54A9554FEE57E
:1014C000499553FDE5489552FC12243F8F3B8E3AD7
:1014D0008D398C38E5397004E53A6006787476FF0A
:1014E00080047874A63B7872E670030215C17874A4
:1014F000E670030215C1E537F470030215C112212D
:10150000E07873E6C39440502FE66037E6FFE4FCD2
:10151000FDFE787512139BEF2BFFEE3AFEED39FDC1
:10152000EC38FCEF6526FFEE6525FEED6524FDEC4D
:101530006523FC4D4E4F600B1218B1EF600122E4A1
:101540007873F67873E6700DAF26AE25AD24AC2324
:1015500078751213A8C3E5229537FFF5387874E63D
:10156000FEEFD39E4003E6F538E538D37872964017
:101570000CE60826F618E62537F5378049C3787259
:10158000E69538F608E53826F6C308E69538F6E518
:10159000382537F537652260030214E67F2FFD12E8
:1015A0000CE4EF6001223009067537FF0214E6856E
:1015B000382F853930853A31853B32E4F5370214CE
:1015C000E67873E660030218B17F0022853F32851A
:1015D0003E31853D30853C2F900208E0FCA3E0FDC4
:1015E000A3E0FEA3E0FFAB32AA31A930A82FD312AB
:1015F000135840037FB122E5322401F532E435313E
:10160000F531E43530F530E4352FF52F7F2FE4FD4B
:10161000120CE4EF600122E53B700FE538700BE53A
:10162000397007E53A70030216BFE54C640160A803
:10163000752C00752D00E54C640270337538FF740D
:1016400002252DF52DF582E4352CF52CF583E0707F
:1016500015A3E07011852D82852C8374FFF0A3F013
:10166000E538F4048049D538D67532FF0215D875AF
:10167000387F7404252DF52DF582E4352CF52CF5F5
:1016800083E07032A3E0702EA3E0702AA3E0540F31
:101690007024852D82852C8374FFF0A3F0A3F0A322
:1016A000E0440FF0E5325480FFC3748095384FF565
:1016B00032D20A7F0022D538B943327F0215D87F53
:1016C0002F7DFF120CE422E547C3941350037FB42F
:1016D00022121A81EF600122C20A74002542FB74B3
:1016E000003541FA7879E6FFEB240BF582E43AF510
:1016F00083E0F6EFF460138B828A83E582240BF596
:1017000082E43583F583EFF0D20A7877E6F53B087B
:10171000E6F53AEB2416FFE43AFE12243518EEF60D
:1017200008EFF6E53AF4FEE53BF44E6012EB2416C2
:10173000F582E43AF583E53AF0A3E53BF0D20A7886
:1017400075E6F53B08E6F53AEB2418FFE43AFE129D
:10175000243518EEF608EFF6E53AF4FEE53BF44ED4
:101760006012EB2418F582E43AF583E53AF0A3E53C
:101770003BF0D20A787112138F787D1213A8EB24F4
:101780001CFFE43AFE1223DA78711213A8787DE682
:10179000F4601E12138F8F4B8E4A8D498C48122491
:1017A0005CEB241CF582E43AF5831213B4D20AC22E
:1017B0000B300A05C20A021BD07F0022E4F53A90E2
:1017C000BDF17456F000000000E4F5517878E69021
:1017D000BCF0F0000018E6F0000018E6F000001879
:1017E000E6F000007873E6F085403BE540131354C3
:1017F00003FFE54054FC4FF540E675F008A4F539C9
:1018000085F038122256E551641E707BE53B540C7E
:1018100060137879E6FE08E6FF121CEC7879EEF6A4
:1018200008EFF6801790BDF1742BF000000000E483
:10183000F55190BCF07440F0FF12247290BDF17429
:1018400057F0E5552440F555E43554F554E4355347
:10185000F553E43552F552E5396009D539A5E53837
:101860006008809F153815398099853B40122256B3
:10187000E551B41412E54020E5031224687873E6BC
:10188000787126F67F0022853B40E53AC3940550E7
:101890001C1220F5E540540C7004FF122472E53A46
:1018A000C394014003121E3B053A0217BF121E3BB0
:1018B00022E4F53A90BDF17454F000000000E4F524
:1018C000517878E690BCF0F0000018E6F0000018BF
:1018D000E6F0000018E6F000007873E6F085403B83
:1018E000E54013135403FFE54054FC4FF540E67503
:1018F000F008A4F53985F038122256E551641D70C0
:1019000071E53B540C60137879E6FE08E6FF121D82
:101910005E7879EEF608EFF6801590BDF17428F048
:1019200000000000E4F55190BCF0E0FF122471903B
:10193000BDF17455F0E5552440F555E43554F554A2
:10194000E43553F553E43552F552E5396009D5399C
:10195000A7E538600880A115381539809B853B4084
:10196000122256E551B4140A7873E6787126F67F90
:101970000022853B40E53AC39405501C1220F5E552
:1019800040540C7004FF122471E53AC394014003E3
:10199000121E3B053A0218B4121E3B224572726FAA
:1019A000723A20253032580A0053746172740A006A
:1019B0005761697420556469736B0A0052656164EC
:1019C00079203F0A004F70656E0A005C4335315C38
:1019D00043483337354846542E43005C2A005C4365
:1019E00035315C43483337352A004C6973742066BF
:1019F000696C652025730A0020206D61746368207E
:101A000066696C652025303364233A2025730A000B
:101A1000526561640A0053697A653D256C642C2027
:101A20004C656E3D25642C205365633D25640A009A
:101A30004C696E6520313A2025730A00436C6F7340
:101A4000650A004372656174650A005CB3CCD0F22C
:101A5000BFD5BCE42E42494E00507265577269747E
:101A6000650A004C6F6361746520686561640A00F3
:101A700057726974650A0054616B65206F75740A4A
:101A800000854D23854E24854F25855026E5266506
:101A90002A7015E5256529700FE52465287009E58C
:101AA0002365277003021B2AE4F53A90BDF17454B4
:101AB000F000000000E4F55190BCF0E526F00000D5
:101AC000E525F00000E524F00000E523F0000074B7
:101AD00001F0752700752800753908122256E55166
:101AE000641D702BAF28AE27121D5E8E278F2890A5
:101AF000BDF17455F0D539E3852327852428852544
:101B00002985262A122256E551B414037F0022E5C6
:101B10003AC39405500EE53AC394014003121E3BAC
:101B2000053A8087122406021E3B7F0022E547C348
:101B300094135007120003EF600122122319EF6083
:101B40000122121A81EF60012274002542FF740005
:101B500035418F82F58374E5F0121BD0EF600122CE
:101B6000AF3FAE3EAD3DAC3C8F3B8E3A8D398C38AD
:101B7000EC4D4E4F604EE53F24FFF53FE53E34FF10
:101B8000F53EE53D34FFF53DE53C34FFF53CE4F53D
:101B900032F531F530F52F7F387D01120CE4EF601E
:101BA0000122E5322401F532E43531F531E43530F6
:101BB000F530E4352FF52F3009DD121EA7EF600157
:101BC00022021F1C7F0022F583E53AF0A3E53BF0DB
:101BD000E4F53A90BDF17456F000000000E4F551D0
:101BE00090BCF0E526F00000E525F00000E524F0CB
:101BF0000000E523F000007401F07527007528004F
:101C0000753908122256E551641E7033AF28AE278D
:101C1000121CEC8E278F2890BDF17457F0D539E354
:101C200085232785242885252985262A122256E5FD
:101C300051B4140BE54020E5031224687F0022E52F
:101C40003AC39405500FE53AC394014003121E3B7A
:101C5000053A021BD3122406021E3BE53F700CE539
:101C60003C7008E53D7004E53E6072853F32853E7C
:101C700031853D30853C2FAF22E4FCFDFE787112AA
:101C8000139BC312135840387F2FE4FD120CE4EF6E
:101C900060012220094785382F853930853A318502
:101CA0003B32787112138FAB22C3EF9BFFEE94008F
:101CB000FEED9400FDEC9400FC78711213A880B73F
:101CC0007874E6FFE522145FF5371221E0AF26AE07
:101CD00025AD24AC2378711213A87F00227537FF3D
:101CE00078711213C0FFFFFFFF7F002290BDF174D7
:101CF0002BF0E4F551E54054036403FD744090BCBF
:101D0000F0F0CD602A1460118F828E83E090BCF0D9
:101D1000F00FBF00010EDDF02205A28F828E83E05E
:101D2000A305A2F005A2DDF7AF82AE8305A222EFE4
:101D3000C582F9EEC583C5A0F5F07D08E0A3F3E008
:101D4000A3F3E0A3F3E0A3F3E0A3F3E0A3F3E0A3A2
:101D5000F3E0A3F3DDE685F0A0AF82AE832290BD71
:101D6000F17428F0E4F551E54054036403FD90BCA0
:101D7000F0E0CD602A14601190BCF0E08F828E8379
:101D8000F00FBF00010EDDF02205A28F828E8305C9
:101D9000A2E005A2F0A3DDF7AF82AE8305A222EF99
:101DA000C582F9EEC583C5A0F5F07D08E3F0A3E395
:101DB000F0A3E3F0A3E3F0A3E3F0A3E3F0A3E3F0E5
:101DC000A3E3F0A3DDE685F0A0AF82AE8322121577
:101DD000D8EF600122121EA7EF60012285323F85F5
:101DE000313E85303D852F3C121A81EF600122740F
:101DF000002542FF74003541FEF583EF241CF58277
:101E0000E43583F5837401F0853F38853E39853D9F
:101E10003A853C3B8F828E83E582241AF582E43535
:101E200083F583E538F0A3E539F08F828E83E58270
:101E30002414F582E43583121BC72275393212242B
:101E400063D539FA90BDF17422F00000000090BC17
:101E5000F0E0E5516416600FE547640160097F20FA
:101E6000122375EF20E5067547017F8222300C1999
:101E7000E547C394034012855139E4F55190BDF113
:101E8000745AF0122256853951E547B41205754748
:101E900003800AE547D394104003754710E551705D
:101EA000037F1022AF5122852723852824852925E9
:101EB000852A26121BD0EF600122900206E0FEA3C5
:101EC000E0FF4E6048E4FCFDE5262FF526E5253EC3
:101ED000F525ED3524F524EC3523F523121BD0EF41
:101EE000600122900206E0FAA3E0FBC3E5269BF521
:101EF00026E5259AF525E5249400F524E5239400AC
:101F0000F523F52785242885252985262AC20A7FD9
:101F1000002274FFF532F531F530F52F900204E020
:101F2000FEA3E0FF4E700122E4FCFD900200E0F809
:101F3000A3E0F9A3E0FAA3E02FF526EA3EF525EDAC
:101F400039F524EC38F523121A8DEF6001227E0159
:101F50007FE81223DAE5322FF532E5313EF531E53F
:101F6000303DF530E52F3CF52FAF32AE31AD30FCD2
:101F700012245C9001E81213B4121BD022E547C36F
:101F8000941250037FB422E547B41239E54C640340
:101F9000603390020FE0F522E54AC313FF7E00E4B0
:101FA000FCFD90020C1213B490020FE0FFE4FCFD64
:101FB000FEE5462FF546EE3545F545ED3544F5444D
:101FC000EC3543F543E547D39413400AE547B41491
:101FD000077871E67002C20B300B07122199EF608F
:101FE0000122122319227537057D067F651223A26F
:101FF000E4F54790BCF0E0B49A0F7D067F9A122377
:10200000A290BCF0E0646560091222D3D537DA7F74
:10201000812290BDF17401F000000000C20C90BC60
:10202000F0E0C394A24002D20C7547017D157F06F3
:102030001223A27F0112238C90BCF0E0B45F037FD7
:1020400081227F002212221FEF60037F82227F51B4
:10205000122359E551703D7D037F0212231D300C80
:10206000307F38122375EF6028122449900000E079
:10207000B4051E90BDF1740BF00000000090BCF0A0
:102080007434F000007401F07F58122359E5517048
:10209000037F00227D027F0212231D021E3BE547C3
:1020A000C3941250037FB422AF4BAE4AAD49AC4843
:1020B00012243F8F3B8E3A8D398C38787112139BE6
:1020C000D3121358400DAF3BAE3AAD39AC387871EE
:1020D0001213A8787112138F780112137C8F3B8E24
:1020E0003A8D398C38853952853A53853B54E4F51D
:1020F00055121C5B227873E67D0025E0FCE539AEC5
:10210000387806C333CE33CED8F9FFC3ED9FF53907
:10211000EC9EF538AE38AF39CBEFCBCAEECAC3E58B
:10212000559FF555E5549AF554E5539400F553E55C
:10213000529400F552C3E49539FFE49538FE787A5D
:10214000EF26F618EE36F62212221FEF60037F828A
:1021500022E547C39403501B122045EF600C7F32E9
:1021600012238C122045EF600122122281EF6003BE
:10217000021E3B300C207F59122359AF518F38EF8C
:102180007002FF227F0A12238C7F5A1223597F028A
:1021900012238CAF38227F0022C20BE547C3941470
:1021A000403B121A81EF60012274002542FB74004B
:1021B0003541FAF583EB240BF582E43583F583E0B2
:1021C00020E41AAF4BAE4AAD49AC4812245CEB2474
:1021D0001CF582E43AF5831213B4021BD07F00226F
:1021E000E53224FEFFE53134FFFEE53034FFFDE546
:1021F0002F34FFFCA82E12137CEF2546FBEE35454D
:10220000FAED3544F9EC3543F8E4FCFDFEEB2537F7
:10221000F526EE3AF525ED39F524EC38F523229034
:10222000BDF17422F00000000090BCF0E0E4F55134
:102230007F20122375EF30E517E547C39402400A6B
:102240007F1B122375EF547F70037547027F0022B6
:102250007547017F822220B2FD90BDF17422F053B8
:102260005180E5516003E4F55190BCF0E0F551E593
:1022700051B4160475470122E551B41503754702A0
:10228000227538087F53122359AF518F3BEF7002EC
:10229000FF227F0A12238C300C057F5A1223597FAC
:1022A0001412238CD538DDAF3B8F5122EFB40A07CF
:1022B000740D1222B7740A309811A899B8130CC281
:1022C000983098FDA899C298B811F63099FDC29936
:1022D000F59922753A8090BDF17401F0000000007C
:1022E00090BCF0E0FFD53AEE90BDF17405F000002F
:1022F00000007F3202238CE581D394F040037FFC01
:102300002275400AE4900000F012246DEFC394306F
:1023100050037FFF22121FE6227D107F10E547C386
:102320009F40028D47E5476D7002FF2275470112FD
:10233000221FEF60037F82227F8322EF601A7BFFE0
:102340007A19799C7560008F611204A1C2941223DE
:10235000EAD2941223EA80F422E4F55190BDF1EF21
:10236000F0122256E551700475511022E551B41453
:1023700003E4F5512290BDF1740AF00000000090D2
:10238000BCF0EFF000006003E0FF2222EF75F005E3
:10239000A4F53AE53A600A122463122463153A80E0
:1023A000F22290BDF1EDF000000000E4F55190BC88
:1023B000F0EFF00000228D828C83A807E4FFE49305
:1023C000F6600508A30F80F6227598507587807512
:1023D0008920758DF3D28ED299228F828E83E0FF71
:1023E000A3E0FEA3E0FDA3E0FC227FC87EC8740347
:1023F000255DF55DDEF8DFF42278717F0976FF0850
:10240000DFFB1216C72274FFF52AF529F528F527F8
:10241000C20A22787FE4F6D8FD75818E02079B7888
:10242000797600087600121498227879760008767A
:102430000012119A228F828E83E0FFA3E0FE22C356
:10244000E4CC13CD13CE13FF221224067E007F00AE
:10245000021D5E120003BF4302E4FF22EFCCFFEE39
:10246000CDFE227F96DFFE227FFADFFE227F302222
:0324700022222203
:00000001FF
