:1000000002284690BDF17422F00000000090BCF080
:10001000E0FFE547C394105007120A63EF60012226
:1000200012276BEF600122C20B7873E6645C6004F8
:10003000E6B42F05752B7480177874E6643A600374
:100040000200E318E6C3944350030200E3752B76E5
:10005000E54CB4031090400CE0FCA3E0FDA3E0FEEF
:10006000A3E0FF8005E4FFFEFDFC8F3F8E3E8D3D4B
:100070008C3CA82BE6706F74FFF54BF54AF549F5FB
:1000800048E54C6403603F753F0290400FE0FBC3BE
:10009000E5469BF546E5459400F545E5449400F5B5
:1000A00044E5439400F54390400EA3E025E0FEE4D0
:1000B000F54B8E4AF549F548AF22FCFDFE90400C09
:1000C0001210C7752280853F32853E31853D3085CF
:1000D0003C2FE4F555F554F553F552F537754712B5
:1000E0007F4122752B73A82BE6B4E5027605E53F28
:1000F000700CE53C7008E53D7004E53E60328522F9
:1001000037E53F24FEFFE53E34FFFEE53D34FFFDCD
:10011000E53C34FFFCA82E12108FEF2546F550EE7B
:100120003545F54FED3544F54EEC3543F54D801F23
:1001300090400FE0F537CBC3E5469BF550E545947D
:1001400000F54FE5449400F54EE5439400F54DE588
:100150003770030203F2121E78EF600122E4F541CA
:10016000F542C3E541940240030203D874002542DE
:10017000F52D74003541F52C852D82F583E0FF7057
:100180000302041FEF64E570030203CABF05027F88
:10019000E5A82BE6FE6F6008EE642A60030203CA3E
:1001A000E4F53BFFEFC3940B5078E52D2FF582E487
:1001B000352CF583E0FEAD3BE52B2DF8EE66605D5A
:1001C000AD3BE52B2DF8E66015AD3BE52B2DF8E6B4
:1001D000645C600AAD3BE52B2DF8E6B42F1FEE649E
:1001E00020703FEFC394085010E52D2408F582E4F9
:1001F000352CF583E0642070297F0B8025AE3BE52C
:100200002B2EF8E6B42E1BE53B6408600EE52D2F7F
:10021000F582E4352CF583E0B420077F070F053B1A
:100220008082EFC3940B500302030BE52D240BF5E2
:1002300082E4352CF583E030E30302030BC209E5C9
:100240002D241AFFE4352CFE122868E48F3F8E3EE1
:10025000F53DF53CE54CB40310E52D2414FFE435E1
:100260002CFE1228688E3C8F3DAF3BE52B2FF8E625
:100270006006200903020301853F32853E31853D3A
:1002800030853C2FE4F555F554F553F552F537E537
:100290002D240BF582E4352CF583E030E41F74FF48
:1002A000F54BF54AF549F5487D137F1012276FEF9E
:1002B0006001223009047F4380027F4122E52D2422
:1002C0001CFFE4352CFE1228298F4B8E4A8D498C59
:1002D00048E53F7017E53C7013E53D700FE53E7053
:1002E0000B7537FFF54BF54AF549F5487D147F103E
:1002F00012276FEF6001223009047F4380027F00E4
:1003000022E53B04252BF52B0200E6AF3BE52B2F26
:10031000F8E6642A60030203CAE52D240BF582E4A3
:10032000352CF583E030E3030203CAE53B04252BBB
:10033000F8E67053E4FFF539E52D2FF582E4352C0E
:10034000F583E06420602FBF080AAE39E52B2EF854
:10035000762E0539E52D2FF582E4352CF583E0FE68
:10036000AD39E52B2DF8EEF6E5397008A82BE6B48B
:10037000050276E505390FBF0BBEAF39E52B2FF827
:10038000E4F6D20902023FE53B04252BF8E6F470BF
:1003900032E54B700CE5487008E5497004E54A60A9
:1003A00093E54830E70312289AE54B24FFF54BE527
:1003B0004A34FFF54AE54934FFF549E54834FFF58D
:1003C000488007E53B04252BF81674202542F542AA
:1003D000E43541F541020162E5502401F550E43570
:1003E0004FF54FE4354EF54EE4354DF54D153702DA
:1003F000014FE53F700CE53C7008E53D7004E53EBB
:10040000601D7F3CE4FD120CECEF60012220090F1F
:1004100085383C85393D853A3E853B3F0200E6E420
:10042000FFE52B2FF8E6FE6013642A600FEE645C94
:100430006004EEB42F037FB3220F80E57F4222E5F4
:100440006E2462F8E6056E22785F3007027862E477
:1004500075F00112117502111D2000EB7F2ED200E4
:100460008018EF540F2490D43440D4FF30040BEFA5
:1004700024BFB41A0050032461FFE56F6002156FBA
:100480000572E5727002057130070D785FE475F052
:1004900001121175EF0211630226DC7403D207808A
:1004A00003E4C207F56E8B5F8A608961E4F56FF53E
:1004B00071F572E56F60077F2012047A80F5757020
:1004C000FFC201C200C202C203C205C206C20812B4
:1004D0000448FF700D3007057F0012048BAF72AE29
:1004E0007122B4255FC2D5C204120448FF24D0B4DF
:1004F0000A00501A75F00A786F30D50508B6FF016A
:1005000006C6A426F620D5047002D20380D924CFD3
:10051000B41A00EF5004C2E5D20402068BD2018067
:10052000C6D20080C0D20280BCD2D580BAD20580AB
:10053000B47F2012047A2002077401B56F0040F1E5
:1005400012043FFF12047A0204B3D208D206809547
:1005500012043FFB12043FFA12043FF94A4B7006A3
:10056000795C7A077BFF20022EE56F602A7E008E81
:100570008275830012113660060EEE657070F0C24F
:10058000D5EBC0E0EAC0E0E9C0E0EE1206D2D0E070
:10059000F9D0E0FAD0E0FB12111DFF60AAEBC0E039
:1005A000EAC0E0E9C0E012047AD0E02401F9D0E02A
:1005B0003400FAD0E0FBE5700460DCD570D98087A8
:1005C0007BFF7A0679CED202809C7910800279086E
:1005D000C206C2088008D2D5790A8004790AC2D539
:1005E000E570047002F570E4FAFDFEFF12043FFCB2
:1005F0007B0820011312043FFD7B1030000A120417
:100600003FFE12043FFF7B20EC3382D592D550137E
:10061000C3E43000069FFFE49EFEE42001039DFD3D
:10062000E49CFCE4CBF8C201EC700CCFCECDCCE85E
:1006300024F8F870F38017C3EF33FFEE33FEED3389
:10064000FDEC33FCEB33FB994002FB0FD8E9EB30B8
:100650000105F8D0E0C448B201C0E00AEC4D4E4FAD
:1006600078207B0070C2EAB5700040BCC0E0120682
:10067000D4D0F0D0E0200104C4C0E0C4B201C0F086
:10068000120463D0F0D5F0EB0204B31211850550CB
:100690005305CA5805214C051D4205CE4F05D644C9
:1006A00005D64905364305DC5505C04605C0450558
:1006B000C047077C5005252D05292E054C2B052DFF
:1006C00023054A2007652A04E548000005443F3F0A
:1006D0003F00790AA2D5200314300509B91002049D
:1006E00004B9080104A2D5200602500104200268C2
:1006F0009202B56F005034C0E07F203003197F3084
:10070000A20272067205500F12072BC202C206C265
:1007100005C2087F30800F300503E9C0E012047A7B
:10072000300503D0E0F9D0E0B56FCC3005177F304D
:10073000B9100C12047A7F583004077F788003B90F
:10074000080312047A3002057F2D02047A7F2020EC
:1007500008F87F2B2006F322920280CF286E756C5A
:100760006C2900D20112043F3001F8C201786F30C9
:10077000D50108F60204E52D5043495812043F24E0
:1007800003B405004001E49007779312046B743AB8
:1007900012046BD203756F040205CAD294C2947F0F
:1007A000641227A9D2941228187BFF7A1579BD12FA
:1007B00004A11227278F561227497BFF7A1579C487
:1007C0001204A1E547C39402500D12264FEF6007B3
:1007D0007F641227A980ECC2947FC81227A9E4F590
:1007E000567F641227A97BFF7A1579D01204A112D3
:1007F000253FEF60090556E556C3940540E37BFFAE
:100800007A1579D91204A11226168F561227497B20
:10081000FF7A1579E378731210A2780B12107C8E90
:10082000628F631204A1C2957BFF7A1579F71204D7
:10083000A17F737C157DFD1228051200038F56E5FC
:100840005660030208DC7BFF7A167909854B6585C3
:100850004A648549638548621204A17BFF7A167950
:100860001A1204A178731210D3FFFFFFFF12249510
:100870008F56122749E54BFFE54A5401FEE48E08E6
:100880008F097BFF7A167927850862850963120430
:10089000A1E54B24FFF54BE54A3401F54AE435491F
:1008A000F549E43548F548787376011228528F5699
:1008B000122749C3E54B94FFF54BE54A9401F54AED
:1008C000E5499400F549E5489400F548787312101D
:1008D000D3FFFFFFFF1224958F568021E556B442C7
:1008E0001AC2967BFF7A1679421204A11211AB8FBD
:1008F00056122749E4F508F5098005AF5612274935
:10090000C2967BFF7A16794A1204A174002509F970
:1009100074023508FA7B017562FF756316756457BA
:10092000854B68854A6785496685486512049BEF53
:100930002509F509EE3508F508E4FF1219A57BFF36
:100940007A16798C1204A1D28C755701755801E57D
:100950008B541FF559AF8CEFFEAB8AEBFF7400256B
:1009600009F974023508FA7B017562FF7563167523
:10097000649C7565077566D47567008557687569E9
:100980000085586A756B0085596C8E6D8F6E1204E8
:100990009BEF2509F509EE3508F508E557B4060A79
:1009A000E558540F70047F018002E4FF1219A57B03
:1009B000FF7A1679D78508628509631204A1055864
:1009C000E558641E70890557E557640C60030209F9
:1009D0004C7BFF7A1679EC1204A174002509F97496
:1009E000023508FA7B017562FF7563167564F712AC
:1009F000049BEF2509F509EE3508F508FE7400257E
:100A000009F974023EFA7B017562FF75631775641C
:100A10001B12049BEF2509F509EE3508F5087F0147
:100A20001219A57BFF7A1779401204A1E47873F6B6
:100A30001223748F56122749D296D2957BFF7A17CC
:100A400079471204A1E547C39402400D12264FEFE7
:100A500070077F641227A980ECD2947FC81227A95F
:100A60000207BAE547C39403500712243CEF600124
:100A700022122839E4F526F525F524F523121E84E3
:100A8000EF600A1226B1121E84EF6001229000006E
:100A9000E0FF64EB6037EF64E96032E4FDED644051
:100AA000602874C22DF582E43401F583E06015ED11
:100AB0007E0024C6FFEE3401FE1228299040001269
:100AC00010C7801374102DFD80D37F9222904000B8
:100AD0001210EC00000000904000E0FCA3E0FDA339
:100AE000E0FEA3E0F5268E258D248C23121E84EFD4
:100AF000600122900000E0FF64EB6008EF64E960B1
:100B0000037FA12290000DE0F52230E605752E0648
:100B1000802E30E505752E05802630E405752E04FF
:100B2000801E30E305752E03801630E205752E0217
:100B3000800E30E105752E018006752201E4F52E48
:100B40007E007F16122868904006EEF0A3EFF04E6C
:100B500070287E007F241228298F328E318D308CB0
:100B60002FE4FBFA7901F8D312106B50037FA22215
:100B7000904006E531F0A3E532F0900014E0FF90DC
:100B80000013E04F60127E007F13122868E48F3F4D
:100B90008E3EF53DF53C800F7E007F201228298F88
:100BA0003F8E3E8D3D8C3C7E007F11122868EF24E5
:100BB0000FFFE43EC4F854F0C868FEEFC4540F4879
:100BC000FFE4FCFD90400C1210C77E007F0E12283F
:100BD00068E48F368E35F534F533904006E0FEA399
:100BE000E0FFEF2536FFEE3535FEE43534FDE43524
:100BF00033FC90400CE0F8A3E0F9A3E0FAA3E02F67
:100C0000F546EA3EF545E93DF544E83CF5439000FC
:100C100010E0D394014021904006E0FEA3E0FFE401
:100C2000FCFDE5462FF546E5453EF545ED3544F539
:100C300044EC3543F5438007E4904006F0A3F0C34D
:100C4000E53F9546FFE53E9545FEE53D9544FDE5CE
:100C50003C9543FCA82E12107C9040081210C7E46B
:100C60007BF57AFFF9F8D312106B401FE490400433
:100C7000F0A3F090400AE0FEA3E094F5EE940F504C
:100C800005754C018024754C02801F7E007F301258
:100C90002868904004EEF0A3EFF07E007F2C12282D
:100CA0002990400C1210C7754C03904000E0FCA343
:100CB000E0FDA3E0FEA3E02536F536EE3535F5354B
:100CC000ED3534F534EC3533F533904000A3A3A370
:100CD000E02546F546EE3545F545ED3544F544EC61
:100CE0003543F5437D107F0312276F228D5FEFC8D8
:100CF000E54CB402071210A278018008B403121266
:100D000010A2780212108F8F638E628D618C6080CA
:100D1000231210A28E608F61EF139209E560C31356
:100D2000FEE561132561FFE5603EFEE48F638E62A0
:100D3000F561F560EE5401FEEF2400F52DEE340070
:100D4000F52CAF63AE62AD61AC60122872EF253650
:100D5000F563EE3535F562ED3534F561EC3533F597
:100D600060E563652A7012E5626529700CE56165CE
:100D7000287006E5606527601D300A0712229EEF85
:100D800060012285602385612485622585632612A2
:100D90001E84EF600122E55F6023B4FF028006E558
:100DA0005FB4010BE4F563F562F561F560800C85D5
:100DB0002F63853062853161853260D20AE54C64EB
:100DC00002703F852D82852C83E0F538A3E0F5394C
:100DD00085383B85393AE4F538F539AE3AAF3BC34F
:100DE000EF94F7EE94FF4003D38001C39209E55FCF
:100DF000600D852D82852C83E560F0A3E561F07F91
:100E00000022E54C6403705A852D82852C83E0FC1A
:100E1000A3E0FDA3E0FEA3E0F53B8E3A8D398C38CC
:100E2000E53B54F0FFE563540F4FF563E53B540F8A
:100E300085383BF538AF3A85393A8F39AF38EFC34B
:100E4000940F4003D38001C39209E55F6011AF6343
:100E5000AE62AD61AC60852D82852C831210C77F98
:100E6000002253610FC3E52D9400FFE52C9400FE92
:100E7000EFF47003EE6401604D852D82852C83E0D4
:100E8000F538A3E0F539E55F7003020F3B30092325
:100E9000E560C454F0FFE538540F4F852D82852C52
:100EA00083F0E561C454F0FFE560C4540F4FA3F034
:100EB000020F3B852D82852C83E560F0E53954F0E7
:100EC0004561A3F08075852D82852C83E0F538E59A
:100ED0005F602230090EE560C454F0FFE538540F1E
:100EE0004FFF8002AF60852D82852C83EFF01222A8
:100EF0009EEF600122E52A2401F526E43529F52537
:100F0000E43528F524E43527F523121E84EF60012B
:100F100022900000E0F539E55F602030090FE561BF
:100F2000C454F0FFE560C4540F4FFF8007E5395407
:100F3000F04561FF900000EFF0D20A300913E53967
:100F4000C454F0FFE538C4540F4FF53BE539C48075
:100F50000585383BE539540FF53AE4F538F539AEF7
:100F60003AAF3BC3EF94F7EE940F4003D38001C335
:100F700092097F0022E709F608DFFA8046E709F2C6
:100F800008DFFA803E88828C83E709F0A3DFFA80CD
:100F900032E309F608DFFA8078E309F208DFFA8025
:100FA0007088828C83E309F0A3DFFA806489828AE7
:100FB00083E0A3F608DFFA805889828A83E0A3F2EF
:100FC00008DFFA804C80D280FA80C680D4806980A5
:100FD000F28033801080A680EA809A80A880DA8030
:100FE000E280CA803389828A83ECFAE493A3C8C57D
:100FF00082C8CCC583CCF0A3C8C582C8CCC583CC7D
:10100000DFE9DEE7800D89828A83E493A3F608DFB7
:10101000F9ECFAA9F0EDFB2289828A83ECFAE0A3CD
:10102000C8C582C8CCC583CCF0A3C8C582C8CCC50E
:1010300083CCDFEADEE880DB89828A83E493A3F253
:1010400008DFF980CC88F0EF60010E4E60C388F0B5
:10105000ED2402B4040050B9F582EB2402B404007C
:1010600050AF2323458223900FC573EB9FF5F0EA21
:101070009E42F0E99D42F0E89C45F022E8600FECCA
:10108000C313FCED13FDEE13FEEF13FFD8F122E8BE
:10109000600FEFC333FFEE33FEED33FDEC33FCD8CE
:1010A000F122E6FC08E6FD08E6FE08E6FF22E6FB84
:1010B00008E6F908E6FA08E6CBF822ECF608EDF6C1
:1010C00008EEF608EFF622ECF0A3EDF0A3EEF0A3A5
:1010D000EFF022D083D082E493F608740193F608EF
:1010E000740293F608740393F6740473A8828583DC
:1010F000F0D083D0821211031211031211031211C6
:1011000003E473E493A3C583C5F0C583C8C582C84F
:10111000F0A3C583C5F0C583C8C582C822BB01063C
:1011200089828A83E0225002E722BBFE02E3228901
:10113000828A83E49322BB010CE58229F582E58350
:101140003AF583E0225006E92582F8E622BBFE0646
:10115000E92582F8E222E58229F582E5833AF583E2
:10116000E49322BB010689828A83F0225002F7228F
:10117000BBFE01F322FAE6FB0808E6F925F0F618B3
:10118000E6CA3AF622D083D082F8E4937012740152
:1011900093700DA3A393F8740193F5828883E4738D
:1011A0007402936860EFA3A3A380DF1200038F375C
:1011B000E537700A121F24EF70030212F422E5379C
:1011C00064426003AF3722C3E54294E0E5419401F5
:1011D00050030212F4E53F700FE53C700BE53D70E3
:1011E00007E53E7003021292C3E5509546FFE522E3
:1011F00014FE5FF537E5426008EE653760030212C2
:10120000F47F3CE4FD120CECEF60012220090302A4
:1012100012F4121AA8EF6001227F3C7D02120CEC3E
:10122000EF60012212229EEF600122122839E4FFB2
:10123000FEEE64024F601374002FF58274003EF5D9
:1012400083E4F00FBF00010E80E7E4F5371225D7E5
:10125000E5427010F541F54285265085254F8524DD
:101260004E85234D852238E5386020121FC7EF6078
:101270000122E5262401F526E43525F525E435246B
:10128000F524E43523F523153880DC122309EF60BB
:101290006322E542705EE55024FFF550E54F34FFD0
:1012A000F54FE54E34FFF54EE54D34FFF54DF52392
:1012B000121E7BEF600122E4F541F542C3E5419443
:1012C00002502E74002542FF740035418F82F58351
:1012D000E0B4E510E582240BF582E43583F583E084
:1012E000540E601074202542F542E43541F54180EA
:1012F000CB7FB222121AA8EF60012212229EEF6069
:10130000012285323F85313E85303D852F3C1223B9
:1013100009EF600122121E78EF600122740025425D
:10132000FF74003541FEE4FDEDC3940B50047C20B6
:1013300080027C00EF2DF582E43EF583ECF00DBDDC
:1013400020E6EF2418F582E43EF5837421F0A374BF
:1013500030F0EF241CF582E43EF5837401F0E4FDE7
:10136000EDC3940B5021A82BE6FC601BECB42E04BB
:101370007D08052BA82BE6FCEF2DF582E43EF583D6
:10138000ECF00D052B80D9853F38853E39853D3AF7
:10139000853C3BEF241AF582E43EF583E538F0A363
:1013A000E539F0EF2414F582E43E121FBEEF600130
:1013B00022853F32853E31853D30853C2FE4F54B1B
:1013C000F54AF549F548F555F554F553F552F53715
:1013D0007D147F1012276F22E547D394145007E540
:1013E00047C3941250037FB4227873E6FF08F67067
:1013F00006300B03021590E47873F67875F608F65C
:101400007874E67003021514E537F4704AE53F700E
:101410000CE53C7008E53D7004E53E602DE547B401
:101420001209E54C640360037FB122AF32AE31ADE7
:1014300030AC2F787D1210BB121AB4EF6001227FFE
:101440007D7D02120CECEF6008221221C5EF6001D5
:1014500022787616E4F5371225D77875E6C39440DE
:10146000502FE66037E6FFE4FCFDFE78771210AE01
:10147000EF2BFFEE3AFEED39FDEC38FCEF6526FF71
:10148000EE6525FEED6524FDEC6523FC4D4E4F60B9
:101490000B121C98EF600122E47875F67875E670FF
:1014A0000DAF26AE25AD24AC2378771210BBC3E573
:1014B000229537FF7874E6FEEFD39E400CE60826AF
:1014C000F618E62537F537804B7875EF26F6C31802
:1014D000E69FF6E670187400787C66700474001855
:1014E00066700B121C98EF600122E47875F67F2F6E
:1014F000E4FD120CECEF6001223009067537FF02A3
:10150000140085382F853930853A31853B32E4F532
:1015100037021400300A0712229EEF60012278750C
:10152000E66007121C98EF6001227876E66035AF1E
:1015300032AE31AD30AC2F787D1210BB7876E6FF3D
:10154000E4EFF53274FFF531F530F52F122313CBAC
:10155000EFCB787D1210A28F328E318D308C2FEB35
:101560006002FF22AF55AE54AD53AC52AB4BAA4A0A
:10157000A949A848C312106B500E85554B85544A93
:10158000855349855248D20BE54030E406300B03C1
:101590000225907F00224572726F723A2025303208
:1015A000580A0043757272656E742066696C652016
:1015B00073697A6520697320256C640A005374612D
:1015C00072740A005761697420556469736B0A006C
:1015D0005265616479203F0A004469736B53697AEC
:1015E000650A00546F74616C53697A65203D20254B
:1015F00075204D42200A004F70656E0A002F4D592C
:101600005F4144432E5458540046696C6520736909
:101610007A65203D20256C640A004C6F6361746517
:10162000207461696C0A0052656164206C61737496
:10163000207461696C203D202564204279746573B3
:101640000A004372656174650A0057726974652007
:10165000626567696E0A00D4DAB1BEB4CECCEDBC67
:10166000D3CAFDBEDDD6AEC7B02CB8C3CEC4BCFE57
:10167000D2D1D3D0CAFDBEDDB5C4B3A4B6C8CAC7E3
:1016800020256C6420D7D6BDDA0D0A005772697424
:10169000652041444320646174610A0059656172A8
:1016A0003D253034642C204D6F6E74683D253032FA
:1016B000642C20446174653D253032642C20486FD1
:1016C00075723D253032642C204144435F6461745F
:1016D000613D25750D0A0043757272656E74207444
:1016E0006F74616C2069732025640A0057726974F5
:1016F0006520656E640A00202A2A2A2A2A2A2A2AB4
:101700002A2A2A2A2A2A2A2A2A2A2A2A2A2A2A2A39
:101710002A2A2A2A2A2A2A2A2A2000D5E2B4CEB541
:10172000C4414443CAFDBEDDB5BDB4CBBDE1CAF87A
:101730002CB3CCD0F2BCB4BDABCDCBB3F60D0A000C
:10174000436C6F73650A0054616B65206F75740A92
:1017500000E547D394145007E547C3941250037F24
:10176000B4227873E608F6E418F67875F6C3E54B0C
:101770009555FFE54A9554FEE5499553FDE5489595
:1017800052FC1228728F3B8E3A8D398C38E53970B5
:1017900004E53A6006787676FF80047876A63B7892
:1017A00074E6700302187A7876E6700302187AE518
:1017B00037F4700302187A1225D77875E6C394407F
:1017C000502FE66037E6FFE4FCFDFE78771210AE9E
:1017D000EF2BFFEE3AFEED39FDEC38FCEF6526FF0E
:1017E000EE6525FEED6524FDEC6523FC4D4E4F6056
:1017F0000B121D8DEF600122E47875F67875E670A6
:101800000DAF26AE25AD24AC2378771210BBC3E50F
:10181000229537FFF5387876E6FEEFD39E4003E653
:10182000F538E538D3787496400CE60826F618E6C5
:101830002537F5378049C37874E69538F608E538DA
:1018400026F6C308E69538F6E5382537F5376522DC
:10185000600302179F7F2FFD120CECEF6001223016
:1018600009067537FF02179F85382F853930853A6D
:1018700031853B32E4F53702179F7875E660030245
:101880001D8D7F0022122616EF600122E547C394CA
:10189000105007120A63EF6001227D107F1012279B
:1018A0006FEF600122787FA64C904008E0FCA3E037
:1018B000FDA3E0FEA3E0FFA92EC8E9C812108F78AF
:1018C000771210BB904004E0FEA3E0FF4E603DE4C1
:1018D000FCFD904000E0F8A3E0F9A3E0FAA3E02FBC
:1018E000F526EA3EF525ED39F524EC38F523121EF0
:1018F00084EF6001227E017FE8122829A92EC8E921
:10190000C812108F787B1210BB0219A2787B1210BC
:10191000D300000000904008E0FCA3E0FDA3E0FE3F
:10192000A3E02402F532E43EF531E43DF530E43C39
:10193000F52FE4753F02F53EF53DF53CE53F653298
:10194000FFE53E6531FEE53D6530FDE53C652FFC7C
:101950004D4E4F604D7F3CE4FD120CECEF600122D8
:10196000E53B7027E5387023E539701FE53A701BB9
:10197000787B1210AEE4FCFDFEEB2522FFEE3AFE72
:10198000ED39FDEC38FC787B1210BBE53F2401F506
:101990003FE4353EF53EE4353DF53DE4353CF53C70
:1019A000809A7F0022EF7003021A6FE50924FFE599
:1019B000083401C3137873F612285D8F5A12274931
:1019C0007F011227A9E5085401FEAF09E50854FE7E
:1019D000FC7D00ED2400F974023CFA7B0178007C68
:1019E000020D121045530801E5094508602AE42557
:1019F0004BFBE54A34FEFAE54934FFF9E54834FF8C
:101A0000F8E4FCFDEB2509F55EEA3508F55DED39F6
:101A1000F55CEC38F55B800C854B5E854A5D85494D
:101A20005C85485BAF5EAE5DAD5CAC5B78731210FD
:101A3000BB787B76FF74FF7879F608F67877F6083E
:101A4000F6121BA38F5A1227497BFF7A1579A385BB
:101A50004B65854A648549638548621204A17873A1
:101A60001210D3FFFFFFFF1224958F5A022749C39C
:101A7000E508943C4031E508137873F612285D8F31
:101A80005A122749E5085401FEAF09E50854FEFC47
:101A90007D00ED2400F974023CFA7B0178007C02A1
:101AA0000D12104553080122853F32853E31853D98
:101AB00030853C2F904008E0FCA3E0FDA3E0FEA3AE
:101AC000E0FFAB32AA31A930A82FD312106B40032C
:101AD0007FB122E5322401F532E43531F531E435C8
:101AE00030F530E4352FF52F7F2FE4FD120CECEFAD
:101AF000600122E53B700FE538700BE5397007E5B2
:101B00003A7003021B9BE54C640160A8752C0075BC
:101B10002D00E54C640270337538FF7402252DF5F5
:101B20002DF582E4352CF52CF583E07015A3E070DB
:101B300011852D82852C8374FFF0A3F0E538F40421
:101B40008049D538D67532FF021AB475387F7404CF
:101B5000252DF52DF582E4352CF52CF583E070323A
:101B6000A3E0702EA3E0702AA3E0540F7024852D0B
:101B700082852C8374FFF0A3F0A3F0A3E0440FF060
:101B8000E5325480FFC3748095384FF532D20A7F16
:101B90000022D538B943327F021AB47F2F7DFF125D
:101BA0000CEC22E547C3941350037FB422121E7835
:101BB000EF600122C20A74002542FB74003541FA2D
:101BC000787BE6FFEB240BF582E43AF583E0F6EF51
:101BD000F460138B828A83E582240BF582E43583DB
:101BE000F583EFF0D20A7879E6F53B08E6F53AEBB3
:101BF0002416FFE43AFE12286818EEF608EFF6E520
:101C00003AF4FEE53BF44E6012EB2416F582E43A1A
:101C1000F583E53AF0A3E53BF0D20A7877E6F53BA9
:101C200008E6F53AEB2418FFE43AFE12286818EEAD
:101C3000F608EFF6E53AF4FEE53BF44E6012EB24CD
:101C400018F582E43AF583E53AF0A3E53BF0D20AD1
:101C500078731210A2787F1210BBEB241CFFE43AB9
:101C6000FE12282978731210BB787FE6F4601E12EA
:101C700010A28F4B8E4A8D498C48122886EB241C6B
:101C8000F582E43AF5831210C7D20AC20B300A0576
:101C9000C20A021FC77F0022E4F53A90BDF17456D4
:101CA000F000000000E4F551787AE690BCF0F00016
:101CB0000018E6F0000018E6F0000018E6F000005A
:101CC0007875E6F085403BE54013135403FFE5408B
:101CD00054FC4FF540E675F008A4F53985F038124C
:101CE0002686E551641E707BE53B540C6013787BBF
:101CF000E6FE08E6FF1220E3787BEEF608EFF680BA
:101D00001790BDF1742BF000000000E4F55190BC79
:101D1000F07440F0FF12289C90BDF17457F0E55527
:101D20002440F555E43554F554E43553F553E43582
:101D300052F552E5396009D539A5E5386008809F2C
:101D4000153815398099853B40122686E551B41423
:101D500012E54020E5031228927875E6787326F69E
:101D60007F0022853B40E53AC39405501C1224ECC9
:101D7000E540540C7004FF12289CE53AC3940140DE
:101D800003122232053A021C9B12223222E4F53A57
:101D900090BDF17454F000000000E4F551787AE64B
:101DA00090BCF0F0000018E6F0000018E6F000002B
:101DB00018E6F000007875E6F085403BE540131327
:101DC0005403FFE54054FC4FF540E675F008A4F5D8
:101DD0003985F038122686E551641D7071E53B5453
:101DE0000C6013787BE6FE08E6FF122155787BEE47
:101DF000F608EFF6801590BDF17428F000000000A1
:101E0000E4F55190BCF0E0FF12289B90BDF17455B1
:101E1000F0E5552440F555E43554F554E43553F5D3
:101E200053E43552F552E5396009D539A7E53860F4
:101E30000880A115381539809B853B40122686E520
:101E400051B4140A7875E6787326F67F0022853B34
:101E500040E53AC39405501C1224ECE540540C7044
:101E600004FF12289BE53AC3940140031222320575
:101E70003A021D9012223222854D23854E24854F31
:101E800025855026E526652A7015E5256529700FFC
:101E9000E52465287009E52365277003021F21E406
:101EA000F53A90BDF17454F000000000E4F5519053
:101EB000BCF0E526F00000E525F00000E524F00088
:101EC00000E523F000007401F07527007528007507
:101ED0003908122686E551641D702BAF28AE2712F3
:101EE00021558E278F2890BDF17455F0D539E385A3
:101EF000232785242885252985262A122686E5512B
:101F0000B414037F0022E53AC39405500EE53AC3AA
:101F100094014003122232053A80871228390222A6
:101F2000327F0022E547C394135007120003EF608D
:101F3000012212276BEF600122121E78EF6001224E
:101F400074002542FF740035418F82F58374E5F0FB
:101F5000121FC7EF600122AF3FAE3EAD3DAC3C8FDC
:101F60003B8E3A8D398C38EC4D4E4F604EE53F2418
:101F7000FFF53FE53E34FFF53EE53D34FFF53DE539
:101F80003C34FFF53CE4F532F531F530F52F7F3880
:101F90007D01120CECEF600122E5322401F532E400
:101FA0003531F531E43530F530E4352FF52F300992
:101FB000DD12229EEF6001220223137F0022F583AF
:101FC000E53AF0A3E53BF0E4F53A90BDF17456F044
:101FD00000000000E4F55190BCF0E526F00000E5BB
:101FE00025F00000E524F00000E523F00000740176
:101FF000F0752700752800753908122686E55164AA
:102000001E7033AF28AE271220E38E278F2890BD95
:10201000F17457F0D539E3852327852428852529B0
:1020200085262A122686E551B4140BE54020E503E7
:102030001228927F0022E53AC39405500FE53AC377
:1020400094014003122232053A021FCA12283902B3
:102050002232E53F700CE53C7008E53D7004E53E3A
:102060006072853F32853E31853D30853C2FAF2201
:10207000E4FCFDFE78731210AEC312106B40387F83
:102080002FE4FD120CECEF60012220094785382F68
:10209000853930853A31853B3278731210A2AB22F4
:1020A000C3EF9BFFEE9400FEED9400FDEC9400FC6A
:1020B00078731210BB80B77876E6FFE522145FF5DF
:1020C000371225D7AF26AE25AD24AC237873121076
:1020D000BB7F00227537FF78731210D3FFFFFFFF1D
:1020E0007F002290BDF1742BF0E4F551E5405403DC
:1020F0006403FD744090BCF0F0CD602A1460118F31
:10210000828E83E090BCF0F00FBF00010EDDF02264
:1021100005A28F828E83E0A305A2F005A2DDF7AFB2
:1021200082AE8305A222EFC582F9EEC583C5A0F574
:10213000F07D08E0A3F3E0A3F3E0A3F3E0A3F3E072
:10214000A3F3E0A3F3E0A3F3E0A3F3DDE685F0A0BF
:10215000AF82AE832290BDF17428F0E4F551E540E2
:1021600054036403FD90BCF0E0CD602A146011902C
:10217000BCF0E08F828E83F00FBF00010EDDF022F5
:1021800005A28F828E8305A2E005A2F0A3DDF7AF42
:1021900082AE8305A222EFC582F9EEC583C5A0F504
:1021A000F07D08E3F0A3E3F0A3E3F0A3E3F0A3E3FF
:1021B000F0A3E3F0A3E3F0A3E3F0A3DDE685F0A052
:1021C000AF82AE8322121AB4EF60012212229EEF78
:1021D00060012285323F85313E85303D852F3C129E
:1021E0001E78EF60012274002542FF74003541FE25
:1021F000F583EF241CF582E43583F5837401F085C3
:102200003F38853E39853D3A853C3B8F828E83E55C
:1022100082241AF582E43583F583E538F0A3E539A5
:10222000F08F828E83E5822414F582E43583121FB9
:10223000BE2275393212288DD539FA90BDF174223B
:10224000F00000000090BCF0E0E5516416600FE57E
:1022500047640160097F201227C4EF20E506754717
:10226000017F8222300C19E547C394034012855147
:1022700039E4F55190BDF1745AF012268685395132
:10228000E547B41205754703800AE547D39410402B
:1022900003754710E55170037F1022AF5122852747
:1022A00023852824852925852A26121FC7EF60014A
:1022B00022904006E0FEA3E0FF4E6048E4FCFDE50E
:1022C000262FF526E5253EF525ED3524F524EC35BC
:1022D00023F523121FC7EF600122904006E0FAA306
:1022E000E0FBC3E5269BF526E5259AF525E5249434
:1022F00000F524E5239400F523F52785242885257A
:102300002985262AC20A7F002274FFF532F531F5AD
:1023100030F52F904004E0FEA3E0FF4E700122E470
:10232000FCFD904000E0F8A3E0F9A3E0FAA3E02F61
:10233000F526EA3EF525ED39F524EC38F523121E95
:1023400084EF6001227E017FE8122829E5322FF513
:1023500032E5313EF531E5303DF530E52F3CF52FE6
:10236000AF32AE31AD30FC1228869001E81210C7B2
:10237000121FC722E547C3941250037FB422E547DA
:10238000B41239E54C6403603390400FE0F522E568
:102390004AC313FF7E00E4FCFD90400C1210C7906E
:1023A000400FE0FFE4FCFDFEE5462FF546EE354527
:1023B000F545ED3544F544EC3543F543E547D39415
:1023C00013400AE547B414077873E67002C20B3075
:1023D0000B07122590EF60012212276B227537053B
:1023E0007D067F651227F1E4F54790BCF0E0B49AD2
:1023F0000F7D067F9A1227F190BCF0E064656009BA
:10240000122703D537DA7F812290BDF17401F000E5
:10241000000000C20C90BCF0E0C394A24002D20CB9
:102420007547017D157F061227F17F011227DB908A
:10243000BCF0E0B45F037F81227F002212264FEFC1
:1024400060037F82227F5112278DE551703D7D030D
:102450007F0212276F300C307F381227C4EF6028BC
:1024600012287C900000E0B4051E90BDF1740BF0C2
:102470000000000090BCF07434F000007401F07FA4
:102480005812278DE55170037F00227D027F0212D2
:10249000276F022232E547C3941250037FB422AF64
:1024A0004BAE4AAD49AC481228728F3B8E3A8D39FB
:1024B0008C3878731210AED312106B400DAF3BAE58
:1024C0003AAD39AC3878731210BB78731210A27819
:1024D0000112108F8F3B8E3A8D398C388539528599
:1024E0003A53853B54E4F555122052227875E67D27
:1024F0000025E0FCE539AE387806C333CE33CED8BC
:10250000F9FFC3ED9FF539EC9EF538AE38AF39CB06
:10251000EFCBCAEECAC3E5559FF555E5549AF5547D
:10252000E5539400F553E5529400F552C3E4953910
:10253000FFE49538FE787CEF26F618EE36F6221288
:10254000264FEF60037F8222E547C39403501B129E
:10255000243CEF600C7F321227DB12243CEF600139
:10256000221226B1EF6003022232300C207F591272
:10257000278DAF518F38EF7002FF227F0A1227DBC1
:102580007F5A12278D7F021227DBAF38227F00226D
:10259000C20BE547C39414403B121E78EF60012242
:1025A00074002542FB74003541FAF583EB240BF5EA
:1025B00082E43583F583E020E41AAF4BAE4AAD499F
:1025C000AC48122886EB241CF582E43AF5831210FD
:1025D000C7021FC77F0022E53224FEFFE53134FF2A
:1025E000FEE53034FFFDE52F34FFFCA82E12108FDE
:1025F000EF2546FBEE3545FAED3544F9EC3543F869
:10260000E4FCFDFEEB2537F526EE3AF525ED39F530
:1026100024EC38F5232212264FEF60037F8222E557
:1026200047C39403500712243CEF6001221226B1E5
:10263000EF600302223212287C900000E0FCA3E04D
:10264000FDA3E0FEA3E0FF78731210BB7F00229091
:10265000BDF17422F00000000090BCF0E0E4F55100
:102660007F201227C4EF30E517E547C39402400AE4
:102670007F1B1227C4EF547F70037547027F00222F
:102680007547017F822220B2FD90BDF17422F05384
:102690005180E5516003E4F55190BCF0E0F551E55F
:1026A00051B4160475470122E551B415037547026C
:1026B000227538087F5312278DAF518F3BEF700280
:1026C000FF227F0A1227DB300C057F5A12278D7FED
:1026D000141227DBD538DDAF3B8F5122EFB40A0748
:1026E000740D1226E7740A309811A899B8130CC219
:1026F000983098FDA899C298B811F63099FDC29902
:10270000F59922753A8090BDF17401F00000000047
:1027100090BCF0E0FFD53AEE90BDF17405F00000FA
:1027200000007F320227DBE581D394F040037FFC79
:102730002275400FE4900000F0122897EFC3943008
:1027400050037FFF221223DD22EF601E7BFF7A15EC
:1027500079967562008F631204A1C2947FC8122714
:10276000A9D2947FC81227A980F0227D107F10E59E
:1027700047C39F40028D47E5476D7002FF227547B2
:102780000112264FEF60037F82227F8322E4F551FE
:1027900090BDF1EFF0122686E551700475511022BC
:1027A000E551B41403E4F55122EF60177EC87403B9
:1027B000255FF55FDEF87EC87403255FF55FDEF800
:1027C0001F80E62290BDF1740AF00000000090BC6A
:1027D000F0EFF000006003E0FF2222EF75F005A4A7
:1027E000F53AE53A600A12288D12288D153A80F2E2
:1027F0002290BDF1EDF000000000E4F55190BCF036
:10280000EFF00000228D828C83A807E4FFE493F6AA
:10281000600508A30F80F62275985075878075892A
:1028200021758DF3D28ED299228F828E83E0FFA301
:10283000E0FEA3E0FDA3E0FC2274FFF52AF529F5F4
:1028400028F527C20A22787FE4F6D8FD7581900228
:10285000079B787B760208760012175122787B76E8
:10286000020876001213D8228F828E83E0FFA3E045
:10287000FE22C3E4CC13CD13CE13FF221228397EDF
:10288000007F00022155EFCCFFEECDFE227F96DFC8
:0D289000FE227FFADFFE227F30222222226C
:00000001FF
