:1000000002214490BDF17422F00000000090BCF089
:10001000E0FFE547C39410500712079BEF600122F1
:10002000122069EF600122C20B7856E6645C60041E
:10003000E6B42F05752B5780177857E6643A6003AE
:100040000200E318E6C3944350030200E3752B5902
:10005000E54CB4031090020CE0FCA3E0FDA3E0FE2D
:10006000A3E0FF8005E4FFFEFDFC8F3F8E3E8D3D4B
:100070008C3CA82BE6706F74FFF54BF54AF549F5FB
:1000800048E54C6403603F753F0290020FE0FBC3FC
:10009000E5469BF546E5459400F545E5449400F5B5
:1000A00044E5439400F54390020EA3E025E0FEE40E
:1000B000F54B8E4AF549F548AF22FCFDFE90020C47
:1000C0001210F5752280853F32853E31853D3085A1
:1000D0003C2FE4F555F554F553F552F537754712B5
:1000E0007F4122752B56A82BE6B4E5027605E53F45
:1000F000700CE53C7008E53D7004E53E60328522F9
:1001000037E53F24FEFFE53E34FFFEE53D34FFFDCD
:10011000E53C34FFFCA82E1210BDEF2546F550EE4D
:100120003545F54FED3544F54EEC3543F54D801F23
:1001300090020FE0F537CBC3E5469BF550E54594BB
:1001400000F54FE5449400F54EE5439400F54DE588
:100150003770030203F2121758EF600122E4F541F1
:10016000F542C3E541940240030203D874002542DE
:10017000F52D74003541F52C852D82F583E0FF7057
:100180000302041FEF64E570030203CABF05027F88
:10019000E5A82BE6FE6F6008EE642A60030203CA3E
:1001A000E4F53BFFEFC3940B5078E52D2FF582E487
:1001B000352CF583E0FEAD3BE52B2DF8EE66605D5A
:1001C000AD3BE52B2DF8E66015AD3BE52B2DF8E6B4
:1001D000645C600AAD3BE52B2DF8E6B42F1FEE649E
:1001E00020703FEFC394085010E52D2408F582E4F9
:1001F000352CF583E0642070297F0B8025AE3BE52C
:100200002B2EF8E6B42E1BE53B6408600EE52D2F7F
:10021000F582E4352CF583E0B420077F070F053B1A
:100220008082EFC3940B500302030BE52D240BF5E2
:1002300082E4352CF583E030E30302030BC209E5C9
:100240002D241AFFE4352CFE122150E48F3F8E3E00
:10025000F53DF53CE54CB40310E52D2414FFE435E1
:100260002CFE1221508E3C8F3DAF3BE52B2FF8E644
:100270006006200903020301853F32853E31853D3A
:1002800030853C2FE4F555F554F553F552F537E537
:100290002D240BF582E4352CF583E030E41F74FF48
:1002A000F54BF54AF549F5487D137F1012206DEFA7
:1002B0006001223009047F4380027F4122E52D2422
:1002C0001CFFE4352CFE1221278F4B8E4A8D498C62
:1002D00048E53F7017E53C7013E53D700FE53E7053
:1002E0000B7537FFF54BF54AF549F5487D147F103E
:1002F00012206DEF6001223009047F4380027F00ED
:1003000022E53B04252BF52B0200E6AF3BE52B2F26
:10031000F8E6642A60030203CAE52D240BF582E4A3
:10032000352CF583E030E3030203CAE53B04252BBB
:10033000F8E67053E4FFF539E52D2FF582E4352C0E
:10034000F583E06420602FBF080AAE39E52B2EF854
:10035000762E0539E52D2FF582E4352CF583E0FE68
:10036000AD39E52B2DF8EEF6E5397008A82BE6B48B
:10037000050276E505390FBF0BBEAF39E52B2FF827
:10038000E4F6D20902023FE53B04252BF8E6F470BF
:1003900032E54B700CE5487008E5497004E54A60A9
:1003A00093E54830E703122182E54B24FFF54BE546
:1003B0004A34FFF54AE54934FFF549E54834FFF58D
:1003C000488007E53B04252BF81674202542F542AA
:1003D000E43541F541020162E5502401F550E43570
:1003E0004FF54FE4354EF54EE4354DF54D153702DA
:1003F000014FE53F700CE53C7008E53D7004E53EBB
:10040000601D7F3CE4FD120A24EF60012220090FE9
:1004100085383C85393D853A3E853B3F0200E6E420
:10042000FFE52B2FF8E6FE6013642A600FEE645C94
:100430006004EEB42F037FB3220F80E57F4222E5F4
:1004400018240CF8E60518227809300702780CE425
:1004500075F00112117802106E2000EB7F2ED20091
:100460008018EF540F2490D43440D4FF30040BEFA5
:1004700024BFB41A0050032461FFE5196002151966
:10048000051CE51C7002051B30070D7809E475F0AA
:1004900001121178EF021087021F8F7403D20780B8
:1004A00003E4C207F5188B098A0A890BE4F519F5EC
:1004B0001BF51CE51960077F2012047A80F5751A78
:1004C000FFC201C200C202C203C205C206C20812B4
:1004D0000448FF700D3007057F0012048BAF1CAE7F
:1004E0001B22B4255FC2D5C204120448FF24D0B435
:1004F0000A00501A75F00A781930D50508B6FF01C0
:1005000006C6A426F620D5047002D20380D924CFD3
:10051000B41A00EF5004C2E5D20402068BD2018067
:10052000C6D20080C0D20280BCD2D580BAD20580AB
:10053000B47F2012047A2002077401B5190040F13B
:1005400012043FFF12047A0204B3D208D206809547
:1005500012043FFB12043FFA12043FF94A4B7006A3
:10056000795C7A077BFF20022EE519602A7E008ED7
:100570008275830012114B60060EEE651A70F0C290
:10058000D5EBC0E0EAC0E0E9C0E0EE1206D2D0E070
:10059000F9D0E0FAD0E0FB12106EFF60AAEBC0E0E9
:1005A000EAC0E0E9C0E012047AD0E02401F9D0E02A
:1005B0003400FAD0E0FBE51A0460DCD51AD9808754
:1005C0007BFF7A0679CED202809C7910800279086E
:1005D000C206C2088008D2D5790A8004790AC2D539
:1005E000E51A047002F51AE4FAFDFEFF12043FFC5E
:1005F0007B0820011312043FFD7B1030000A120417
:100600003FFE12043FFF7B20EC3382D592D550137E
:10061000C3E43000069FFFE49EFEE42001039DFD3D
:10062000E49CFCE4CBF8C201EC700CCFCECDCCE85E
:1006300024F8F870F38017C3EF33FFEE33FEED3389
:10064000FDEC33FCEB33FB994002FB0FD8E9EB30B8
:100650000105F8D0E0C448B201C0E00AEC4D4E4FAD
:1006600078207B0070C2EAB51A0040BCC0E01206D8
:10067000D4D0F0D0E0200104C4C0E0C4B201C0F086
:10068000120463D0F0D5F0EB0204B31211880550C8
:100690005305CA5805214C051D4205CE4F05D644C9
:1006A00005D64905364305DC5505C04605C0450558
:1006B000C047077C5005252D05292E054C2B052DFF
:1006C00023054A2007652A04E548000005443F3F0A
:1006D0003F00790AA2D5200314300509B91002049D
:1006E00004B9080104A2D5200602500104200268C2
:1006F0009202B519005034C0E07F203003197F30DA
:10070000A20272067205500F12072BC202C206C265
:1007100005C2087F30800F300503E9C0E012047A7B
:10072000300503D0E0F9D0E0B519CC3005177F30A3
:10073000B9100C12047A7F583004077F788003B90F
:10074000080312047A3002057F2D02047A7F2020EC
:1007500008F87F2B2006F322920280CF286E756C5A
:100760006C2900D20112043F3001F8C2017819301F
:10077000D50108F60204E52D5043495812043F24E0
:1007800003B405004001E49007779312046B743AB8
:1007900012046BD2037519040205CAE547C394031A
:1007A0005007121D1CEF600122122137E4F526F5D7
:1007B00025F524F523121764EF600A121F3C121767
:1007C00064EF600122900000E0FF64EB6037EF64AB
:1007D000E96032E4FDED6440602874C22DF582E4E6
:1007E0003401F583E06015ED7E0024C6FFEE340190
:1007F000FE1221279002001210F5801374102DFDB7
:1008000080D37F922290020012111A000000009003
:100810000200E0FCA3E0FDA3E0FEA3E0F5268E25A8
:100820008D248C23121764EF600122900000E0FFFA
:1008300064EB6008EF64E960037FA12290000DE0A3
:10084000F52230E605752E06802E30E505752E055D
:10085000802630E405752E04801E30E305752E03D6
:10086000801630E205752E02800E30E105752E01EE
:100870008006752201E4F52E7E007F16122150902D
:100880000206EEF0A3EFF04E70287E007F241221C6
:10089000278F328E318D308C2FE4FBFA7901F8D31B
:1008A00012109950037FA222900206E531F0A3E5D1
:1008B00032F0900014E0FF900013E04F60127E00D1
:1008C0007F13122150E48F3F8E3EF53DF53C800FA3
:1008D0007E007F201221278F3F8E3E8D3D8C3C7EF7
:1008E000007F11122150EF240FFFE43EC4F854F0B2
:1008F000C868FEEFC4540F48FFE4FCFD90020C12E0
:1009000010F57E007F0E122150E48F368E35F534BF
:10091000F533900206E0FEA3E0FFEF2536FFEE354B
:1009200035FEE43534FDE43533FC90020CE0F8A3E9
:10093000E0F9A3E0FAA3E02FF546EA3EF545E93DEC
:10094000F544E83CF543900010E0D3940140219039
:100950000206E0FEA3E0FFE4FCFDE5462FF546E5D8
:10096000453EF545ED3544F544EC3543F543800708
:10097000E4900206F0A3F0C3E53F9546FFE53E95FF
:1009800045FEE53D9544FDE53C9543FCA82E12103F
:10099000AA9002081210F5E47BF57AFFF9F8D31259
:1009A0001099401FE4900204F0A3F090020AE0FEC8
:1009B000A3E094F5EE940F5005754C018024754C1E
:1009C00002801F7E007F30122150900204EEF0A3BF
:1009D000EFF07E007F2C12212790020C1210F5758B
:1009E0004C03900200E0FCA3E0FDA3E0FEA3E025A1
:1009F00036F536EE3535F535ED3534F534EC353341
:100A0000F533900200A3A3A3E02546F546EE354555
:100A1000F545ED3544F544EC3543F5437D107F0352
:100A200012206D228D09EFC8E54CB402071210D0D8
:100A300078018008B403121210D078021210BD8F12
:100A40000D8E0C8D0B8C0A80231210D08E0A8F0B0A
:100A5000EF139209E50AC313FEE50B13250BFFE51F
:100A60000A3EFEE48F0D8E0CF50BF50AEE5401FEE6
:100A7000EF2400F52DEE3400F52CAF0DAE0CAD0BD0
:100A8000AC0A12215AEF2536F50DEE3535F50CED91
:100A90003534F50BEC3533F50AE50D652A7012E5B2
:100AA0000C6529700CE50B65287006E50A65276062
:100AB0001D300A07121B7EEF600122850A23850B79
:100AC00024850C25850D26121764EF600122E509A7
:100AD0006023B4FF028006E509B4010BE4F50DF5CF
:100AE0000CF50BF50A800C852F0D85300C85310B2C
:100AF00085320AD20AE54C6402703F852D82852C2E
:100B000083E0F538A3E0F53985383B85393AE4F5DB
:100B100038F539AE3AAF3BC3EF94F7EE94FF40039C
:100B2000D38001C39209E509600D852D82852C8350
:100B3000E50AF0A3E50BF07F0022E54C6403705A50
:100B4000852D82852C83E0FCA3E0FDA3E0FEA3E0DD
:100B5000F53B8E3A8D398C38E53B54F0FFE50D546A
:100B60000F4FF50DE53B540F85383BF538AF3A850F
:100B7000393A8F39AF38EFC3940F4003D38001C3A4
:100B80009209E5096011AF0DAE0CAD0BAC0A852DD5
:100B900082852C831210F57F0022530B0FC3E52DA5
:100BA0009400FFE52C9400FEEFF47003EE64016006
:100BB0004D852D82852C83E0F538A3E0F539E509D4
:100BC0007003020C73300923E50AC454F0FFE538C2
:100BD000540F4F852D82852C83F0E50BC454F0FF14
:100BE000E50AC4540F4FA3F0020C73852D82852CA7
:100BF00083E50AF0E53954F0450BA3F08075852DA7
:100C000082852C83E0F538E509602230090EE50A7B
:100C1000C454F0FFE538540F4FFF8002AF0A852D12
:100C200082852C83EFF0121B7EEF600122E52A24DF
:100C300001F526E43529F525E43528F524E43527A2
:100C4000F523121764EF600122900000E0F539E50A
:100C500009602030090FE50BC454F0FFE50AC454C5
:100C60000F4FFF8007E53954F0450BFF900000EF70
:100C7000F0D20A300913E539C454F0FFE538C45402
:100C80000F4FF53BE539C4800585383BE539540FF6
:100C9000F53AE4F538F539AE3AAF3BC3EF94F7EEE9
:100CA000940F4003D38001C392097F0022120003F6
:100CB0008F37E537700A121804EF7003020DF62221
:100CC000E53764426003AF3722C3E54294E0E54173
:100CD00094015003020DF6E53F700FE53C700BE503
:100CE0003D7007E53E7003020D94C3E5509546FF45
:100CF000E52214FE5FF537E5426008EE65376003D4
:100D0000020DF67F3CE4FD120A24EF600122200967
:100D100003020DF61213F5EF6001227F3C7D0212F3
:100D20000A24EF600122121B7EEF6001221221379C
:100D3000E4FFFEEE64024F601374002FF58274002E
:100D40003EF583E4F00FBF00010E80E7E4F53712B3
:100D50001E9BE5427010F541F54285265085254FD2
:100D600085244E85234D852238E53860201218A74A
:100D7000EF600122E5262401F526E43525F525E47A
:100D80003524F524E43523F523153880DC121BE9DE
:100D9000EF606322E542705EE55024FFF550E54FB9
:100DA00034FFF54FE54E34FFF54EE54D34FFF54D7C
:100DB000F52312175BEF600122E4F541F542C3E52C
:100DC000419402502E74002542FF740035418F82F9
:100DD000F583E0B4E510E582240BF582E43583F574
:100DE00083E0540E601074202542F542E43541F54D
:100DF0004180CB7FB2221213F5EF600122121B7EDD
:100E0000EF60012285323F85313E85303D852F3CA4
:100E1000121BE9EF600122121758EF6001227400E3
:100E20002542FF74003541FEE4FDEDC3940B5004F0
:100E30007C2080027C00EF2DF582E43EF583ECF00F
:100E40000DBD20E6EF2418F582E43EF5837421F011
:100E5000A37430F0EF241CF582E43EF5837401F0B6
:100E6000E4FDEDC3940B5021A82BE6FC601BECB411
:100E70002E047D08052BA82BE6FCEF2DF582E43E21
:100E8000F583ECF00D052B80D9853F38853E3985FB
:100E90003D3A853C3BEF241AF582E43EF583E53884
:100EA000F0A3E539F0EF2414F582E43E12189EEF2A
:100EB000600122853F32853E31853D30853C2FE4FF
:100EC000F54BF54AF549F548F555F554F553F55206
:100ED000F5377D147F1012206D22E54764156007F9
:100EE000121F67EF6001227856E6F52B7006300B73
:100EF00003021068E47856F6E52B7003021060E5F3
:100F000037F47077E53F700CE53C7008E53D700400
:100F1000E53E6025853255853154853053852F5205
:100F2000121401EF6001227F527D02120A24EF6049
:100F30000122121B7EEF600822121AA5EF60012227
:100F4000853255853154853053852F5274FFF532E3
:100F5000F531F530F52F121BF3CBEFCB85553285EC
:100F6000543185533085522FEB600122854B5585D6
:100F70004A54854953854852E4F537121E9B12178F
:100F800064EF600122AF55E5545401FEC3E49FFDB8
:100F900074029EFCC3ED952BEC94004005852B3824
:100FA0008006E555F404F53874002FF58274003E90
:100FB000AF82F52C8F2DAF38E4FCFDFEE5552FF503
:100FC00055EE3554F554ED3553F553EC3552F55295
:100FD000C3E52B9538F52B7856E62457FFE53826E0
:100FE000F6C8EFC8E6852D82852C83F0052DE52D0A
:100FF0007002052C0FD538E91218A7EF600122AF57
:1010000055AE54AD53AC52AB4BAA4AA949A848C3FC
:10101000121099500E85554B85544A855349855277
:1010200048D20BE554540145556003020EF80537CC
:10103000E537C395225003020EF87F2FE4FD120A14
:1010400024EF6001223009067537FF020EF885385B
:101050002F853930853A31853B32E4F537020EF879
:10106000E54030E406300B03021E0E7F0022BB0178
:101070000689828A83E0225002E722BBFE02E32235
:1010800089828A83E49322BB010689828A83F022C3
:101090005002F722BBFE01F322EB9FF5F0EA9E42DD
:1010A000F0E99D42F0E89C45F022E8600FECC313A4
:1010B000FCED13FDEE13FEEF13FFD8F122E8600FF5
:1010C000EFC333FFEE33FEED33FDEC33FCD8F122FA
:1010D000E6FC08E6FD08E6FE08E6FF22E6FB08E679
:1010E000F908E6FA08E6CBF822ECF608EDF608EE89
:1010F000F608EFF622ECF0A3EDF0A3EEF0A3EFF08C
:1011000022D083D082E493F608740193F608740227
:1011100093F608740393F6740473A8828583F0D061
:1011200083D082121131121131121131121131E4B6
:1011300073E493A3C583C5F0C583C8C582C8F0A373
:10114000C583C5F0C583C8C582C822BB010CE58232
:1011500029F582E5833AF583E0225006E92582F8F5
:10116000E622BBFE06E92582F8E222E58229F58225
:10117000E5833AF583E49322FAE6FB0808E6F925CD
:10118000F0F618E6CA3AF622D083D082F8E49370DB
:1011900012740193700DA3A393F8740193F58288E0
:1011A00083E4737402936860EFA3A3A380DFD294F7
:1011B000C2947F641220A7D2941221167BFF7A1664
:1011C00079AF1204A11220258F081220477BFF7AE5
:1011D0001679B61204A1E547C39402500A121EDA2A
:1011E0007F641220A780EFC2947FC81220A7E4F585
:1011F000087F641220A77BFF7A1679C21204A1121D
:101200001D75EF60090508E508C3940340E3C29526
:101210007BFF7A1679CB1204A11215E58F08E50839
:1012200064146018E508F460137BFF7A1679EB12FA
:1012300004A17F641220A71215E58F08E508641445
:1012400070637BFF7A1679F61204A1C2967BFF7A4F
:101250001779001204A17F567C177D0F122103120B
:101260000CAD8F081220477857764F08764B78568A
:101270007602120EDA8F081220477BFF7A17791C4C
:101280001204A1E47856F6121C548F08122047D29B
:1012900096121E557BFFBF14067A17792380117AA8
:1012A000177932800BE508B4FF0B7BFF7A1779437F
:1012B0001204A18005AF08122047D2957BFF7A1750
:1012C000794E1204A1E547C39402400A121EDA7F48
:1012D000641220A780EFD2947FC81220A70211CDFC
:1012E000E54764156007121F67EF6001227856E634
:1012F000F52BE4F6E52B70030213F2E5545401FEDE
:10130000C3E49555FF74029EFEC3EF952BEE940047
:101310004005852B388006E555F404F538C3E54BC8
:101320009555FBE54A9554FAE5499553F9E54895F5
:1013300052F8AF38E4FCFDFED3121099500CC3E50F
:101340004B9555F53870030213F2121E9B12176469
:10135000EF600122E5545401FE74002555F58274B6
:10136000003EAF82F52C8F2DAF38E4FCFDFEE55535
:101370002FF555EE3554F554ED3553F553EC355204
:10138000F552C3E52B9538F52B7856E62457FFE543
:101390003826F6852D82852C83E0C8EFC8F60F0528
:1013A0002DE52D7002052CD538E9E554540145553D
:1013B00060030212F40537E537C395225003021289
:1013C000F47F2FE4FD120A24EF6001223009117529
:1013D00037FF85554B85544A8553498552488012BD
:1013E00085382F853930853A31853B32E4F537022F
:1013F00012F47F0022853F32853E31853D30853CA9
:101400002F900208E0FCA3E0FDA3E0FEA3E0FFAB09
:1014100032AA31A930A82FD312109940037FB122EC
:10142000E5322401F532E43531F531E43530F5307B
:10143000E4352FF52F7F2FE4FD120A24EF600122FF
:10144000E53B700FE538700BE5397007E53A70033E
:101450000214E8E54C640160A8752C00752D00E5C8
:101460004C640270337538FF7402252DF52DF5821A
:10147000E4352CF52CF583E07015A3E07011852D73
:1014800082852C8374FFF0A3F0E538F4048049D5FD
:1014900038D67532FF02140175387F7404252DF596
:1014A0002DF582E4352CF52CF583E07032A3E07045
:1014B0002EA3E0702AA3E0540F7024852D82852C82
:1014C0008374FFF0A3F0A3F0A3E0440FF0E53254DF
:1014D00080FFC3748095384FF532D20A7F0022D541
:1014E00038B943327F0214017F2F7DFF120A242274
:1014F000E547C3941350037FB422121758EF6001DD
:1015000022C20A74002542FB74003541FA785EE677
:10151000FFEB240BF582E43AF583E0F6EFF4601379
:101520008B828A83E582240BF582E43583F583EF91
:10153000F0D20A785CE6F53B08E6F53AEB2416FFB4
:10154000E43AFE12215018EEF608EFF6E53AF4FE02
:10155000E53BF44E6012EB2416F582E43AF583E5A0
:101560003AF0A3E53BF0D20A785AE6F53B08E6F5F7
:101570003AEB2418FFE43AFE12215018EEF608EF79
:10158000F6E53AF4FEE53BF44E6012EB2418F582E2
:10159000E43AF583E53AF0A3E53BF0D20A78561237
:1015A00010D078621210E9EB241CFFE43AFE1221FD
:1015B0002778561210E97862E6F4601E1210D08F78
:1015C0004B8E4A8D498C4812216EEB241CF582E427
:1015D0003AF5831210F5D20AC20B300A05C20A028C
:1015E00018A77F0022200C037F1F22E4F55190BD35
:1015F000F17446F00000000090BCF07402F000129C
:101600001F11E5516414600302169FFB7A0079569E
:10161000121FDC7865E6FC785E761078627680785A
:1016200065BC060A761AE408F608763F8010765AFA
:10163000E408F608763F08F608F608F608F608F615
:1016400008761008F67B007A0079567D1F121FB6C7
:10165000E4F55190BDF17450F000000000121F112C
:10166000E551641470277A007956121FDCEFD39489
:10167000034017BC0604785880027859E6F509E55E
:101680000930E7037FFF227F14227F1F22AC519095
:10169000BDF1745AF000000000121F11AF0422AF18
:1016A00051224572726F723A20253032580A005327
:1016B000746172740A005761697420556469736BB0
:1016C0000A005265616479203F0A00436865636BD4
:1016D000204469736B2057726974652050726F746F
:1016E000656374203F202E2E2E0A00416761696ECB
:1016F000202E2E2E0A002E2E2E204E6F20210A0084
:1017000043726561746520612046696C650A005CFE
:101710004E455746494C452E54585400436C6F7300
:10172000650A00536166652052656D6F76652021FC
:101730000A00556E736166652052656D6F7665208F
:10174000210A002E2E2E2059657320210A00546193
:101750006B65206F75740A00854D23854E24854F77
:1017600025855026E526652A7015E5256529700F23
:10177000E52465287009E52365277003021801E454
:10178000F53A90BDF17454F000000000E4F551907A
:10179000BCF0E526F00000E525F00000E524F000AF
:1017A00000E523F000007401F0752700752800752E
:1017B0003908121F11E551641D702BAF28AE271296
:1017C0001A358E278F2890BDF17455F0D539E385F1
:1017D000232785242885252985262A121F11E551CE
:1017E000B414037F0022E53AC39405500EE53AC3D2
:1017F00094014003121B12053A8087122137021B05
:10180000127F0022E547C394135007120003EF60D4
:101810000122122069EF600122121758EF600122A5
:1018200074002542FF740035418F82F58374E5F022
:101830001218A7EF600122AF3FAE3EAD3DAC3C8F2A
:101840003B8E3A8D398C38EC4D4E4F604EE53F243F
:10185000FFF53FE53E34FFF53EE53D34FFF53DE560
:101860003C34FFF53CE4F532F531F530F52F7F38A7
:101870007D01120A24EF600122E5322401F532E4F1
:101880003531F531E43530F530E4352FF52F3009B9
:10189000DD121B7EEF600122021BF37F0022F58325
:1018A000E53AF0A3E53BF0E4F53A90BDF17456F06B
:1018B00000000000E4F55190BCF0E526F00000E5E2
:1018C00025F00000E524F00000E523F0000074019D
:1018D000F0752700752800753908121F11E551644D
:1018E0001E7033AF28AE271219C38E278F2890BDE4
:1018F000F17457F0D539E3852327852428852529D8
:1019000085262A121F11E551B4140BE54020E5038A
:1019100012217A7F0022E53AC39405500FE53AC3BD
:1019200094014003121B12053A0218AA1221370231
:101930001B12E53F700CE53C7008E53D7004E53E88
:101940006072853F32853E31853D30853C2FAF2228
:10195000E4FCFDFE78561210DCC312109940387F6B
:101960002FE4FD120A24EF60012220094785382F59
:10197000853930853A31853B3278561210D0AB220A
:10198000C3EF9BFFEE9400FEED9400FDEC9400FC91
:1019900078561210E980B77859E6FFE522145FF512
:1019A00037121E9BAF26AE25AD24AC2378561210FD
:1019B000E97F00227537FF7856121101FFFFFFFF04
:1019C0007F002290BDF1742BF0E4F551E540540303
:1019D0006403FD744090BCF0F0CD602A1460118F58
:1019E000828E83E090BCF0F00FBF00010EDDF0228C
:1019F00005A28F828E83E0A305A2F005A2DDF7AFDA
:101A000082AE8305A222EFC582F9EEC583C5A0F59B
:101A1000F07D08E0A3F3E0A3F3E0A3F3E0A3F3E099
:101A2000A3F3E0A3F3E0A3F3E0A3F3DDE685F0A0E6
:101A3000AF82AE832290BDF17428F0E4F551E54009
:101A400054036403FD90BCF0E0CD602A1460119053
:101A5000BCF0E08F828E83F00FBF00010EDDF0221C
:101A600005A28F828E8305A2E005A2F0A3DDF7AF69
:101A700082AE8305A222EFC582F9EEC583C5A0F52B
:101A8000F07D08E3F0A3E3F0A3E3F0A3E3F0A3E326
:101A9000F0A3E3F0A3E3F0A3E3F0A3DDE685F0A079
:101AA000AF82AE8322121401EF600122121B7EEF7F
:101AB00060012285323F85313E85303D852F3C12C5
:101AC0001758EF60012274002542FF74003541FE73
:101AD000F583EF241CF582E43583F5837401F085EA
:101AE0003F38853E39853D3A853C3B8F828E83E584
:101AF00082241AF582E43583F583E538F0A3E539CD
:101B0000F08F828E83E5822414F582E435831218E7
:101B10009E22753932122175D539FA90BDF17422A1
:101B2000F00000000090BCF0E0E5516416600FE5A5
:101B300047640160097F201220C2EF20E506754747
:101B4000017F8222300C19E547C39403401285516E
:101B500039E4F55190BDF1745AF0121F11853951D5
:101B6000E547B41205754703800AE547D394104052
:101B700003754710E55170037F1022AF512285276E
:101B800023852824852925852A261218A7EF600198
:101B900022900206E0FEA3E0FF4E6048E4FCFDE573
:101BA000262FF526E5253EF525ED3524F524EC35E3
:101BB00023F5231218A7EF600122900206E0FAA392
:101BC000E0FBC3E5269BF526E5259AF525E524945B
:101BD00000F524E5239400F523F5278524288525A1
:101BE0002985262AC20A7F002274FFF532F531F5D5
:101BF00030F52F900204E0FEA3E0FF4E700122E4D6
:101C0000FCFD900200E0F8A3E0F9A3E0FAA3E02FC6
:101C1000F526EA3EF525ED39F524EC38F5231217C3
:101C200064EF6001227E017FE8122127E5322FF563
:101C300032E5313EF531E5303DF530E52F3CF52F0D
:101C4000AF32AE31AD30FC12216E9001E81210F5CA
:101C50001218A722E547C3941250037FB422E54728
:101C6000B41239E54C6403603390020FE0F522E5CD
:101C70004AC313FF7E00E4FCFD90020C1210F590A5
:101C8000020FE0FFE4FCFDFEE5462FF546EE35458C
:101C9000F545ED3544F544EC3543F543E547D3943C
:101CA00013400AE547B414077856E67002C20B30B9
:101CB0000B07121E0EEF60012212206922753705F4
:101CC0007D067F651220EFE4F54790BCF0E0B49A02
:101CD0000F7D067F9A1220EF90BCF0E064656009EA
:101CE000122001D537DA7F812290BDF17401F00016
:101CF000000000C20C90BCF0E0C394A24002D20CE1
:101D00007547017D157F061220EF7F011220D990C3
:101D1000BCF0E0B45F037F81227F0022121EDAEF65
:101D200060037F82227F5112208BE551703D7D033D
:101D30007F0212206D300C307F381220C2EF6028F5
:101D4000122164900000E0B4051E90BDF1740BF008
:101D50000000000090BCF07434F000007401F07FCB
:101D60005812208BE55170037F00227D027F021202
:101D7000206D021B12121EDAEF60037F8222E547FC
:101D8000C39403501B121D1CEF600C7F321220D92C
:101D9000121D1CEF600122121F3CEF6003021B1298
:101DA000300C207F5912208BAF518F38EF7002FF1B
:101DB000227F0A1220D97F5A12208B7F021220D94B
:101DC000AF38227F0022E54764156007121F67EFD6
:101DD00060012278561210D08F558E548D538C523C
:101DE000AB4BAA4AA949A848C3121099500C854B7D
:101DF00055854A54854953854852AF55AE54AD5325
:101E0000AC5212215A78561210E912193222C20B22
:101E1000E547C39414403B121758EF600122740049
:101E20002542FB74003541FAF583EB240BF582E47F
:101E30003583F583E020E41AAF4BAE4AAD49AC4898
:101E400012216EEB241CF582E43AF5831210F502A0
:101E500018A77F0022E4F5097F641220A7121D75E0
:101E6000EF60090509E509C3940A40EC7F0A1220D6
:101E7000A790BDF17449F000000000E490BCF0F0C0
:101E800000121F117F0A1220A7E509C3940550080C
:101E9000E551B414037F14227FFF22E53224FEFFB4
:101EA000E53134FFFEE53034FFFDE52F34FFFCA8BB
:101EB0002E1210BDEF2546FBEE3545FAED3544F9FF
:101EC000EC3543F8E4FCFDFEEB2537F526EE3AF55C
:101ED00025ED39F524EC38F5232290BDF17422F07C
:101EE0000000000090BCF0E0E4F5517F201220C219
:101EF000EF30E517E547C39402400A7F1B1220C26A
:101F0000EF547F70037547027F00227547017F827F
:101F10002220B2FD90BDF17422F0535180E5516052
:101F200003E4F55190BCF0E0F551E551B4160475A9
:101F3000470122E551B41503754702227538087F21
:101F40005312208BAF518F3BEF7002FF227F0A129A
:101F500020D9300C057F5A12208B7F141220D9D53E
:101F600038DDAF3B8F5122E547641460037FB42214
:101F7000853F32853E31853D30853C2FE4F555F572
:101F800054F553F552F5377D157F1412206D22EF6D
:101F9000B40A07740D121F9A740A309811A899B8E0
:101FA000130CC2983098FDA899C298B811F63099D0
:101FB000FDC299F5992290BDF1742BF0000000004C
:101FC00090BCF0EDF000ED601212106E90BCF0F0DD
:101FD00000740129F9E43AFA1D80EB2290BDF174F6
:101FE00027F00000000090BCF0E0FFFEEE601190D2
:101FF000BCF0E0121087740129F9E43AFA1E80EC73
:1020000022753A8090BDF17401F00000000090BC90
:10201000F0E0FFD53AEE90BDF17405F0000000004D
:102020007F320220D9E581D394F040037FFC2275F2
:102030004005E4900000F012217FEFC3943050037C
:102040007FFF22121CBD22EF601E7BFF7A1679A251
:10205000750C008F0D1204A1C2947FC81220A7D264
:10206000947FC81220A780F0227D107F10E547C31F
:102070009F40028D47E5476D7002FF2275470112B0
:102080001EDAEF60037F82227F8322E4F55190BD48
:10209000F1EFF0121F11E551700475511022E55156
:1020A000B41403E4F55122EF60177EC87403250AC7
:1020B000F50ADEF87EC87403250AF50ADEF81F80EB
:1020C000E62290BDF1740AF00000000090BCF0EF31
:1020D000F000006003E0FF2222EF75F005A4F53A5E
:1020E000E53A600A122175122175153A80F22290A4
:1020F000BDF1EDF000000000E4F55190BCF0EFF010
:102100000000228D828C83A807E4FFE493F660052B
:1021100008A30F80F6227598507587807589217500
:102120008DF3D28ED299228F828E83E0FFA3E0FEC0
:10213000A3E0FDA3E0FC2274FFF52AF529F528F5BC
:1021400027C20A22787FE4F6D8FD7581860211AE97
:102150008F828E83E0FFA3E0FE22C3E4CC13CD1375
:10216000CE13FF221221377E007F00021A35EFCCFA
:10217000FFEECDFE227F96DFFE227FFADFFE227F7A
:03218000302222E8
:00000001FF
