:1000000002279390BDF17422F00000000090BCF034
:10001000E0FFE547C39410500712079BEF600122F1
:100020001226B8EF600122C20B7856E6645C6004C9
:10003000E6B42F05752B5780177857E6643A6003AE
:100040000200E318E6C3944350030200E3752B5902
:10005000E54CB4031090400CE0FCA3E0FDA3E0FEEF
:10006000A3E0FF8005E4FFFEFDFC8F3F8E3E8D3D4B
:100070008C3CA82BE6706F74FFF54BF54AF549F5FB
:1000800048E54C6403603F753F0290400FE0FBC3BE
:10009000E5469BF546E5459400F545E5449400F5B5
:1000A00044E5439400F54390400EA3E025E0FEE4D0
:1000B000F54B8E4AF549F548AF22FCFDFE90400C09
:1000C00012157C752280853F32853E31853D308515
:1000D0003C2FE4F555F554F553F552F537754712B5
:1000E0007F4122752B56A82BE6B4E5027605E53F45
:1000F000700CE53C7008E53D7004E53E60328522F9
:1001000037E53F24FEFFE53E34FFFEE53D34FFFDCD
:10011000E53C34FFFCA82E121544EF2546F550EEC1
:100120003545F54FED3544F54EEC3543F54D801F23
:1001300090400FE0F537CBC3E5469BF550E545947D
:1001400000F54FE5449400F54EE5439400F54DE588
:100150003770030203F2121D8EEF600122E4F541B5
:10016000F542C3E541940240030203D874002542DE
:10017000F52D74003541F52C852D82F583E0FF7057
:100180000302041FEF64E570030203CABF05027F88
:10019000E5A82BE6FE6F6008EE642A60030203CA3E
:1001A000E4F53BFFEFC3940B5078E52D2FF582E487
:1001B000352CF583E0FEAD3BE52B2DF8EE66605D5A
:1001C000AD3BE52B2DF8E66015AD3BE52B2DF8E6B4
:1001D000645C600AAD3BE52B2DF8E6B42F1FEE649E
:1001E00020703FEFC394085010E52D2408F582E4F9
:1001F000352CF583E0642070297F0B8025AE3BE52C
:100200002B2EF8E6B42E1BE53B6408600EE52D2F7F
:10021000F582E4352CF583E0B420077F070F053B1A
:100220008082EFC3940B500302030BE52D240BF5E2
:1002300082E4352CF583E030E30302030BC209E5C9
:100240002D241AFFE4352CFE1227B5E48F3F8E3E95
:10025000F53DF53CE54CB40310E52D2414FFE435E1
:100260002CFE1227B58E3C8F3DAF3BE52B2FF8E6D9
:100270006006200903020301853F32853E31853D3A
:1002800030853C2FE4F555F554F553F552F537E537
:100290002D240BF582E4352CF583E030E41F74FF48
:1002A000F54BF54AF549F5487D137F101226BCEF52
:1002B0006001223009047F4380027F4122E52D2422
:1002C0001CFFE4352CFE1227768F4B8E4A8D498C0D
:1002D00048E53F7017E53C7013E53D700FE53E7053
:1002E0000B7537FFF54BF54AF549F5487D147F103E
:1002F0001226BCEF6001223009047F4380027F0098
:1003000022E53B04252BF52B0200E6AF3BE52B2F26
:10031000F8E6642A60030203CAE52D240BF582E4A3
:10032000352CF583E030E3030203CAE53B04252BBB
:10033000F8E67053E4FFF539E52D2FF582E4352C0E
:10034000F583E06420602FBF080AAE39E52B2EF854
:10035000762E0539E52D2FF582E4352CF583E0FE68
:10036000AD39E52B2DF8EEF6E5397008A82BE6B48B
:10037000050276E505390FBF0BBEAF39E52B2FF827
:10038000E4F6D20902023FE53B04252BF8E6F470BF
:1003900032E54B700CE5487008E5497004E54A60A9
:1003A00093E54830E7031227E7E54B24FFF54BE5DB
:1003B0004A34FFF54AE54934FFF549E54834FFF58D
:1003C000488007E53B04252BF81674202542F542AA
:1003D000E43541F541020162E5502401F550E43570
:1003E0004FF54FE4354EF54EE4354DF54D153702DA
:1003F000014FE53F700CE53C7008E53D7004E53EBB
:10040000601D7F3CE4FD120A24EF60012220090FE9
:1004100085383C85393D853A3E853B3F0200E6E420
:10042000FFE52B2FF8E6FE6013642A600FEE645C94
:100430006004EEB42F037FB3220F80E57F4222E5F4
:1004400018240CF8E60518227809300702780CE425
:1004500075F00112162A0215D22000EB7F2ED20071
:100460008018EF540F2490D43440D4FF30040BEFA5
:1004700024BFB41A0050032461FFE5196002151966
:10048000051CE51C7002051B30070D7809E475F0AA
:100490000112162AEF0216180226297403D20780C9
:1004A00003E4C207F5188B098A0A890BE4F519F5EC
:1004B0001BF51CE51960077F2012047A80F5751A78
:1004C000FFC201C200C202C203C205C206C20812B4
:1004D0000448FF700D3007057F0012048BAF1CAE7F
:1004E0001B22B4255FC2D5C204120448FF24D0B435
:1004F0000A00501A75F00A781930D50508B6FF01C0
:1005000006C6A426F620D5047002D20380D924CFD3
:10051000B41A00EF5004C2E5D20402068BD2018067
:10052000C6D20080C0D20280BCD2D580BAD20580AB
:10053000B47F2012047A2002077401B5190040F13B
:1005400012043FFF12047A0204B3D208D206809547
:1005500012043FFB12043FFA12043FF94A4B7006A3
:10056000795C7A077BFF20022EE519602A7E008ED7
:10057000827583001215EB60060EEE651A70F0C2EC
:10058000D5EBC0E0EAC0E0E9C0E0EE1206D2D0E070
:10059000F9D0E0FAD0E0FB1215D2FF60AAEBC0E080
:1005A000EAC0E0E9C0E012047AD0E02401F9D0E02A
:1005B0003400FAD0E0FBE51A0460DCD51AD9808754
:1005C0007BFF7A0679CED202809C7910800279086E
:1005D000C206C2088008D2D5790A8004790AC2D539
:1005E000E51A047002F51AE4FAFDFEFF12043FFC5E
:1005F0007B0820011312043FFD7B1030000A120417
:100600003FFE12043FFF7B20EC3382D592D550137E
:10061000C3E43000069FFFE49EFEE42001039DFD3D
:10062000E49CFCE4CBF8C201EC700CCFCECDCCE85E
:1006300024F8F870F38017C3EF33FFEE33FEED3389
:10064000FDEC33FCEB33FB994002FB0FD8E9EB30B8
:100650000105F8D0E0C448B201C0E00AEC4D4E4FAD
:1006600078207B0070C2EAB51A0040BCC0E01206D8
:10067000D4D0F0D0E0200104C4C0E0C4B201C0F086
:10068000120463D0F0D5F0EB0204B312163A055011
:100690005305CA5805214C051D4205CE4F05D644C9
:1006A00005D64905364305DC5505C04605C0450558
:1006B000C047077C5005252D05292E054C2B052DFF
:1006C00023054A2007652A04E548000005443F3F0A
:1006D0003F00790AA2D5200314300509B91002049D
:1006E00004B9080104A2D5200602500104200268C2
:1006F0009202B519005034C0E07F203003197F30DA
:10070000A20272067205500F12072BC202C206C265
:1007100005C2087F30800F300503E9C0E012047A7B
:10072000300503D0E0F9D0E0B519CC3005177F30A3
:10073000B9100C12047A7F583004077F788003B90F
:10074000080312047A3002057F2D02047A7F2020EC
:1007500008F87F2B2006F322920280CF286E756C5A
:100760006C2900D20112043F3001F8C2017819301F
:10077000D50108F60204E52D5043495812043F24E0
:1007800003B405004001E49007779312046B743AB8
:1007900012046BD2037519040205CAE547C394031A
:1007A0005007122352EF600122122786E4F526F546
:1007B00025F524F523121D9AEF600A1225D6121D85
:1007C0009AEF600122900000E0FF64EB6037EF6475
:1007D000E96032E4FDED6440602874C22DF582E4E6
:1007E0003401F583E06015ED7E0024C6FFEE340190
:1007F000FE12277690400012157C801374102DFD98
:1008000080D37F92229040001215A100000000903A
:100810004000E0FCA3E0FDA3E0FEA3E0F5268E256A
:100820008D248C23121D9AEF600122900000E0FFBE
:1008300064EB6008EF64E960037FA12290000DE0A3
:10084000F52230E605752E06802E30E505752E055D
:10085000802630E405752E04801E30E305752E03D6
:10086000801630E205752E02800E30E105752E01EE
:100870008006752201E4F52E7E007F161227B590C2
:100880004006EEF0A3EFF04E70287E007F24122782
:10089000768F328E318D308C2FE4FBFA7901F8D3CC
:1008A00012152050037FA222904006E531F0A3E507
:1008B00032F0900014E0FF900013E04F60127E00D1
:1008C0007F131227B5E48F3F8E3EF53DF53C800F38
:1008D0007E007F201227768F3F8E3E8D3D8C3C7EA2
:1008E000007F111227B5EF240FFFE43EC4F854F047
:1008F000C868FEEFC4540F48FFE4FCFD90400C12A2
:10090000157C7E007F0E1227B5E48F368E35F534C8
:10091000F533904006E0FEA3E0FFEF2536FFEE350D
:1009200035FEE43534FDE43533FC90400CE0F8A3AB
:10093000E0F9A3E0FAA3E02FF546EA3EF545E93DEC
:10094000F544E83CF543900010E0D3940140219039
:100950004006E0FEA3E0FFE4FCFDE5462FF546E59A
:10096000453EF545ED3544F544EC3543F543800708
:10097000E4904006F0A3F0C3E53F9546FFE53E95C1
:1009800045FEE53D9544FDE53C9543FCA82E12153A
:100990003190400812157CE47BF57AFFF9F8D31208
:1009A0001520401FE4904004F0A3F090400AE0FEC0
:1009B000A3E094F5EE940F5005754C018024754C1E
:1009C00002801F7E007F301227B5904004EEF0A316
:1009D000EFF07E007F2C12277690400C12157C756C
:1009E0004C03904000E0FCA3E0FDA3E0FEA3E02563
:1009F00036F536EE3535F535ED3534F534EC353341
:100A0000F533904000A3A3A3E02546F546EE354517
:100A1000F545ED3544F544EC3543F5437D107F0352
:100A20001226BC228D12EFC8E54CB40207121557EE
:100A300078018008B4031212155778021215448FFA
:100A4000168E158D148C1380231215578E138F1448
:100A5000EF139209E513C313FEE514132514FFE504
:100A6000133EFEE48F168E15F514F513EE5401FEB9
:100A7000EF2400F52DEE3400F52CAF16AE15AD14B5
:100A8000AC131227BFEF2536F516EE3535F515ED0B
:100A90003534F514EC3533F513E516652A7012E597
:100AA000156529700CE51465287006E51365276047
:100AB0001D300A071221B4EF60012285132385142B
:100AC00024851525851626121D9AEF600122E51250
:100AD0006023B4FF028006E512B4010BE4F516F5BD
:100AE00015F514F513800C852F16853015853114F6
:100AF000853213D20AE54C6402703F852D82852C25
:100B000083E0F538A3E0F53985383B85393AE4F5DB
:100B100038F539AE3AAF3BC3EF94F7EE94FF40039C
:100B2000D38001C39209E512600D852D82852C8347
:100B3000E513F0A3E514F07F0022E54C6403705A3E
:100B4000852D82852C83E0FCA3E0FDA3E0FEA3E0DD
:100B5000F53B8E3A8D398C38E53B54F0FFE5165461
:100B60000F4FF516E53B540F85383BF538AF3A8506
:100B7000393A8F39AF38EFC3940F4003D38001C3A4
:100B80009209E5126011AF16AE15AD14AC13852DA8
:100B900082852C8312157C7F002253140FC3E52D10
:100BA0009400FFE52C9400FEEFF47003EE64016006
:100BB0004D852D82852C83E0F538A3E0F539E512CB
:100BC0007003020C73300923E513C454F0FFE538B9
:100BD000540F4F852D82852C83F0E514C454F0FF0B
:100BE000E513C4540F4FA3F0020C73852D82852C9E
:100BF00083E513F0E53954F04514A3F08075852D95
:100C000082852C83E0F538E512602230090EE51369
:100C1000C454F0FFE538540F4FFF8002AF13852D09
:100C200082852C83EFF01221B4EF600122E52A24A3
:100C300001F526E43529F525E43528F524E43527A2
:100C4000F523121D9AEF600122900000E0F539E5CE
:100C500012602030090FE514C454F0FFE513C454AA
:100C60000F4FFF8007E53954F04514FF900000EF67
:100C7000F0D20A300913E539C454F0FFE538C45402
:100C80000F4FF53BE539C4800585383BE539540FF6
:100C9000F53AE4F538F539AE3AAF3BC3EF94F7EEE9
:100CA000940F4003D38001C392097F0022120003F6
:100CB0008F37E537700A121E3AEF7003020DF622E5
:100CC000E53764426003AF3722C3E54294E0E54173
:100CD00094015003020DF6E53F700FE53C700BE503
:100CE0003D7007E53E7003020D94C3E5509546FF45
:100CF000E52214FE5FF537E5426008EE65376003D4
:100D0000020DF67F3CE4FD120A24EF600122200967
:100D100003020DF61219BEEF6001227F3C7D021224
:100D20000A24EF6001221221B4EF6001221227860B
:100D3000E4FFFEEE64024F601374002FF58274002E
:100D40003EF583E4F00FBF00010E80E7E4F53712B3
:100D50002535E5427010F541F54285265085254F31
:100D600085244E85234D852238E5386020121EDD0E
:100D7000EF600122E5262401F526E43525F525E47A
:100D80003524F524E43523F523153880DC12221FA1
:100D9000EF606322E542705EE55024FFF550E54FB9
:100DA00034FFF54FE54E34FFF54EE54D34FFF54D7C
:100DB000F523121D91EF600122E4F541F542C3E5F0
:100DC000419402502E74002542FF740035418F82F9
:100DD000F583E0B4E510E582240BF582E43583F574
:100DE00083E0540E601074202542F542E43541F54D
:100DF0004180CB7FB2221219BEEF6001221221B4D2
:100E0000EF60012285323F85313E85303D852F3CA4
:100E100012221FEF600122121D8EEF60012274006A
:100E20002542FF74003541FEE4FDEDC3940B5004F0
:100E30007C2080027C00EF2DF582E43EF583ECF00F
:100E40000DBD20E6EF2418F582E43EF5837421F011
:100E5000A37430F0EF241CF582E43EF5837401F0B6
:100E6000E4FDEDC3940B5021A82BE6FC601BECB411
:100E70002E047D08052BA82BE6FCEF2DF582E43E21
:100E8000F583ECF00D052B80D9853F38853E3985FB
:100E90003D3A853C3BEF241AF582E43EF583E53884
:100EA000F0A3E539F0EF2414F582E43E121ED4EFEE
:100EB000600122853F32853E31853D30853C2FE4FF
:100EC000F54BF54AF549F548F555F554F553F55206
:100ED000F5377D147F101226BC22E547D3941450B9
:100EE00007E547C3941250037FB4227856E6FF0803
:100EF000F67006300B03021092E47856F67858F636
:100F000008F67857E67003021016E537F4704AE5E4
:100F10003F700CE53C7008E53D7004E53E602DE552
:100F200047B41209E54C640360037FB122AF32AECF
:100F300031AD30AC2F78601215701219CAEF600114
:100F4000227F607D02120A24EF6008221220DBEF6C
:100F5000600122785916E4F5371225357858E6C332
:100F60009440502FE66037E6FFE4FCFDFE785A120D
:100F70001563EF2BFFEE3AFEED39FDEC38FCEF6523
:100F800026FFEE6525FEED6524FDEC6523FC4D4E48
:100F90004F600B121BAEEF600122E47858F67858D0
:100FA000E6700DAF26AE25AD24AC23785A1215702D
:100FB000C3E5229537FF7857E6FEEFD39E400CE657
:100FC0000826F618E62537F537804B7858EF26F6D1
:100FD000C318E69FF6E670187400785F66700474B4
:100FE000001866700B121BAEEF600122E47858F611
:100FF0007F2FE4FD120A24EF6001223009067537C5
:10100000FF020F0285382F853930853A31853B3212
:10101000E4F537020F02300A071221B4EF60012213
:101020007858E66007121BAEEF6001227859E6603F
:1010300035AF32AE31AD30AC2F78601215707859C3
:10104000E6FFE4EFF53274FFF531F530F52F1222AB
:1010500029CBEFCB78601215578F328E318D308CC3
:101060002FEB6002FF22AF55AE54AD53AC52AB4BE9
:10107000AA4AA949A848C3121520500E85554B8588
:10108000544A855349855248D20BE54030E4063036
:101090000B030224EE7F0022E54764156007122649
:1010A00001EF6001227856E6F52B7006300B030243
:1010B0001226E47856F6E52B700302121EE537F48B
:1010C0007077E53F700CE53C7008E53D7004E53E47
:1010D0006025853255853154853053852F5212193C
:1010E000CAEF6001227F527D02120A24EF600122C2
:1010F0001221B4EF6008221220DBEF60012285325A
:1011000055853154853053852F5274FFF532F531B2
:10111000F530F52F122229CBEFCB8555328554318E
:1011200085533085522FEB600122854B55854A54FB
:10113000854953854852E4F537122535121D9AEF3B
:10114000600122AF55E5545401FEC3E49FFD7402D3
:101150009EFCC3ED952BEC94004005852B38800652
:10116000E555F404F53874002FF58274003EAF8223
:10117000F52C8F2DAF38E4FCFDFEE5552FF555EE2F
:101180003554F554ED3553F553EC3552F552C3E56E
:101190002B9538F52B7856E62457FFE53826F6C808
:1011A000EFC8E6852D82852C83F0052DE52D700294
:1011B000052C0FD538E9121EDDEF600122AF55AEC8
:1011C00054AD53AC52AB4BAA4AA949A848C3121517
:1011D00020500E85554B85544A855349855248D237
:1011E0000BE5545401455560030210B60537E53749
:1011F000C3952250030210B67F2FE4FD120A24EF9C
:101200006001223009067537FF0210B685382F8538
:101210003930853A31853B32E4F5370210B6E54086
:1012200030E406300B030224EE7F00227509FFE450
:10123000FB74562BF8E6601774562BF8E6645C6076
:101240000874562BF8E6B42F028B090BBB1EE2E4A0
:10125000FBE5096009B402117857E6B43A0BE4F5EE
:101260000DF50CF50BF50A8030E509F4601F745696
:101270002509F8E4F6120003AB07EB70047BB3809A
:1012800005BB4102E4FB74562509F8765C853F0DE9
:10129000853E0C853D0B853C0AEB60030213A812CA
:1012A0000003AB07EB70057B430213A8BB4105E4C9
:1012B000FB0213A8EB644260030213A8120CADAB4F
:1012C00007EB60030213A8750E02750F007510136B
:1012D0007511B87B40851182851083E493850F8258
:1012E000850E83F0050FE50F7002050E0511E5115F
:1012F00070020510DBDF783FE690021AF018E6A3D3
:10130000F018E6900214F018E6A3F0780DE69002CB
:101310003AF018E6A3F018E6900234F018E6A3F0CD
:101320007BE0850F82850E83E4F0050FE50F7002E8
:10133000050EDBEE7BE0850F82850E83E4F0050F62
:10134000E50F7002050EDBEE785676011227AAAB88
:1013500007EB7054750E02750F007B40850F828578
:101360000E83E4F0050FE50F7002050EDBEE750944
:1013700001E50965226010785676011227AAAB07AD
:10138000EB7004050980EAE509B5221C78561215B0
:10139000880000000074FF785AF608F608F608F690
:1013A000087610121AB9AB07AF03224572726F723A
:1013B0003A20253032580A002E20202020202020DC
:1013C00020202010000000000000000000000000AD
:1013D00021300000000000002E2E202020202020A0
:1013E000202020100000000000000000000000008D
:1013F00021300000000000000053746172740A0084
:101400005761697420556469736B0A0052656164A1
:1014100079203F0A00437265617465204C657665EA
:101420006C2031204469726563746F7279202F5982
:1014300045415232303034200A002F594541523252
:1014400030303400437265617465204E6577204604
:10145000696C65202F59454152323030342F444554
:101460004D4F323030342E545854200A002F5945F5
:101470004152323030342F44454D4F323030342ECB
:1014800054585400577269746520736F6D652064F9
:1014900061746120746F2066696C652044454D4F0E
:1014A000323030342E545854200A00D1DDCABECA1E
:1014B000FDBEDD0D0A00436C6F73652066696C65C7
:1014C0002044454D4F323030342E545854200A00B9
:1014D000437265617465204C6576656C20322044EA
:1014E00069726563746F7279202F594541523230A9
:1014F00030342F4D4F4E54483035200A002F594577
:101500004152323030342F4D4F4E54483035004325
:101510006C6F73650A0054616B65206F75740A0007
:10152000EB9FF5F0EA9E42F0E99D42F0E89C45F021
:1015300022E8600FECC313FCED13FDEE13FEEF1376
:10154000FFD8F122E8600FEFC333FFEE33FEED3337
:10155000FDEC33FCD8F122E6FC08E6FD08E6FE08C7
:10156000E6FF22E6FB08E6F908E6FA08E6CBF822F1
:10157000ECF608EDF608EEF608EFF622ECF0A3ED37
:10158000F0A3EEF0A3EFF022D083D082E493F6082C
:10159000740193F608740293F608740393F67404C6
:1015A00073A8828583F0D083D0821215B81215B843
:1015B0001215B81215B8E473E493A3C583C5F0C53A
:1015C00083C8C582C8F0A3C583C5F0C583C8C582DA
:1015D000C822BB010689828A83E0225002E722BB2F
:1015E000FE02E32289828A83E49322BB010CE58216
:1015F00029F582E5833AF583E0225006E92582F851
:10160000E622BBFE06E92582F8E222E58229F58280
:10161000E5833AF583E49322BB010689828A83F04D
:10162000225002F722BBFE01F322FAE6FB0808E68D
:10163000F925F0F618E6CA3AF622D083D082F8E40B
:10164000937012740193700DA3A393F8740193F532
:10165000828883E4737402936860EFA3A3A380DF9E
:10166000E547D394145007E547C3941250037FB461
:10167000227856E608F6E418F67858F6C3E54B9556
:1016800055FFE54A9554FEE5499553FDE5489552C9
:10169000FC1227BF8F3B8E3A8D398C38E5397004A8
:1016A000E53A6006785976FF80047859A63B78576A
:1016B000E670030217897859E67003021789E53747
:1016C000F470030217891225357858E6C394405008
:1016D0002FE66037E6FFE4FCFDFE785A121563EF53
:1016E0002BFFEE3AFEED39FDEC38FCEF6526FFEE00
:1016F0006525FEED6524FDEC6523FC4D4E4F600B2A
:10170000121CA3EF600122E47858F67858E6700DB9
:10171000AF26AE25AD24AC23785A121570C3E5224E
:101720009537FFF5387859E6FEEFD39E4003E6F58E
:1017300038E538D3785796400CE60826F618E625A3
:1017400037F5378049C37857E69538F608E53826E7
:10175000F6C308E69538F6E5382537F53765226093
:10176000030216AE7F2FFD120A24EF60012230091A
:10177000067537FF0216AE85382F853930853A3128
:10178000853B32E4F5370216AE7858E66003021C5A
:10179000A37F0022D294C2947F641226F6D29412C0
:1017A00027657BFF7A1379F91204A11226748F083A
:1017B0001226967BFF7A1479001204A1E547640291
:1017C00060051225AB80F5C2947FC81226F6E4F5B9
:1017D000087F641226F67BFF7A14790C1204A1129A
:1017E0002455EF60090508E508C3940540E3C29558
:1017F0007BFF7A1479151204A17F567C147D3A126E
:101800002752C29612122C8F081226967BFF7A144A
:1018100079441204A17F567C147D6D122752120C5C
:10182000AD8F081226967BFF7A1479841204A17F6B
:10183000577C147DAB1227528F087856A6081210D9
:10184000988F081226967BFF7A1479B61204A17835
:1018500056760112228A8F081226967BFF7A147917
:10186000D01204A17F567C147DFD12275212122C37
:101870008F081226967BFF7A15790F1204A1E4785F
:1018800056F612228A8F08D296D2957BFF7A157966
:10189000161204A1E547640160051225AB80F5D25C
:1018A000947FC81226F60217B3E547641560071245
:1018B0002601EF6001227856E6F52BE4F6E52B7061
:1018C000030219BBE5545401FEC3E49555FF7402AD
:1018D0009EFEC3EF952BEE94004005852B388006C5
:1018E000E555F404F538C3E54B9555FBE54A9554A9
:1018F000FAE5499553F9E5489552F8AF38E4FCFD0F
:10190000FED3121520500CC3E54B9555F5387003E6
:101910000219BB122535121D9AEF600122E55454BD
:1019200001FE74002555F58274003EAF82F52C8FC0
:101930002DAF38E4FCFDFEE5552FF555EE3554F599
:1019400054ED3553F553EC3552F552C3E52B95382C
:10195000F52B7856E62457FFE53826F6852D828547
:101960002C83E0C8EFC8F60F052DE52D7002052C7D
:10197000D538E9E5545401455560030218BD0537D3
:10198000E537C3952250030218BD7F2FE4FD120AEC
:1019900024EF6001223009117537FF85554B8554BE
:1019A0004A855349855248801285382F85393085BC
:1019B0003A31853B32E4F5370218BD7F0022853F7E
:1019C00032853E31853D30853C2F904008E0FCA3B8
:1019D000E0FDA3E0FEA3E0FFAB32AA31A930A82FBF
:1019E000D312152040037FB122E5322401F532E401
:1019F0003531F531E43530F530E4352FF52F7F2FD3
:101A0000E4FD120A24EF600122E53B700FE5387017
:101A10000BE5397007E53A7003021AB1E54C640131
:101A200060A8752C00752D00E54C64027033753884
:101A3000FF7402252DF52DF582E4352CF52CF58368
:101A4000E07015A3E07011852D82852C8374FFF062
:101A5000A3F0E538F4048049D538D67532FF021971
:101A6000CA75387F7404252DF52DF582E4352CF5E3
:101A70002CF583E07032A3E0702EA3E0702AA3E07F
:101A8000540F7024852D82852C8374FFF0A3F0A35E
:101A9000F0A3E0440FF0E5325480FFC37480953822
:101AA0004FF532D20A7F0022D538B943327F02196E
:101AB000CA7F2F7DFF120A2422E547C394135003E7
:101AC0007FB422121D8EEF600122C20A74002542EB
:101AD000FB74003541FA785EE6FFEB240BF582E4F7
:101AE0003AF583E0F6EFF460138B828A83E5822473
:101AF0000BF582E43583F583EFF0D20A785CE6F5E6
:101B00003B08E6F53AEB2416FFE43AFE1227B51837
:101B1000EEF608EFF6E53AF4FEE53BF44E6012EB24
:101B20002416F582E43AF583E53AF0A3E53BF0D2DA
:101B30000A785AE6F53B08E6F53AEB2418FFE43A52
:101B4000FE1227B518EEF608EFF6E53AF4FEE53B8F
:101B5000F44E6012EB2418F582E43AF583E53AF08E
:101B6000A3E53BF0D20A7856121557786212157029
:101B7000EB241CFFE43AFE12277678561215707893
:101B800062E6F4601E1215578F4B8E4A8D498C48C1
:101B90001227D3EB241CF582E43AF58312157CD28C
:101BA0000AC20B300A05C20A021EDD7F0022E4F5DC
:101BB0003A90BDF17456F000000000E4F551785DF4
:101BC000E690BCF0F0000018E6F0000018E6F00027
:101BD0000018E6F000007858E6F085403BE5401339
:101BE000135403FFE54054FC4FF540E675F008A49C
:101BF000F53985F0381225ABE551641E707BE53B65
:101C0000540C6013785EE6FE08E6FF121FF9785E5A
:101C1000EEF608EFF6801790BDF1742BF00000008F
:101C200000E4F55190BCF07440F0FF1227E990BD3C
:101C3000F17457F0E5552440F555E43554F554E476
:101C40003553F553E43552F552E5396009D539A5D8
:101C5000E5386008809F153815398099853B40121A
:101C600025ABE551B41412E54020E5031227DF78D7
:101C700058E6785626F67F0022853B40E53AC39425
:101C800005501C122402E540540C7004FF1227E991
:101C9000E53AC394014003122148053A021BB112F0
:101CA000214822E4F53A90BDF17454F000000000A0
:101CB000E4F551785DE690BCF0F0000018E6F00025
:101CC0000018E6F0000018E6F000007858E6F0850D
:101CD000403BE54013135403FFE54054FC4FF540EF
:101CE000E675F008A4F53985F0381225ABE55164A6
:101CF0001D7071E53B540C6013785EE6FE08E6FF4C
:101D000012206B785EEEF608EFF6801590BDF17448
:101D100028F000000000E4F55190BCF0E0FF12272D
:101D2000E890BDF17455F0E5552440F555E435547F
:101D3000F554E43553F553E43552F552E53960096D
:101D4000D539A7E538600880A115381539809B85FD
:101D50003B401225ABE551B4140A7858E678562674
:101D6000F67F0022853B40E53AC39405501C1224BF
:101D700002E540540C7004FF1227E8E53AC39401D1
:101D80004003122148053A021CA612214822854D23
:101D900023854E24854F25855026E526652A701516
:101DA000E5256529700FE52465287009E523652779
:101DB0007003021E37E4F53A90BDF17454F0000050
:101DC0000000E4F55190BCF0E526F00000E525F0B8
:101DD0000000E524F00000E523F000007401F07538
:101DE00027007528007539081225ABE551641D7070
:101DF0002BAF28AE2712206B8E278F2890BDF17451
:101E000055F0D539E385232785242885252985267E
:101E10002A1225ABE551B414037F0022E53AC3949E
:101E200005500EE53AC394014003122148053A805B
:101E3000871227860221487F0022E547C39413506A
:101E400007120003EF6001221226B8EF6001221290
:101E50001D8EEF60012274002542FF740035418F12
:101E600082F58374E5F0121EDDEF600122AF3FAE14
:101E70003EAD3DAC3C8F3B8E3A8D398C38EC4D4EAF
:101E80004F604EE53F24FFF53FE53E34FFF53EE56C
:101E90003D34FFF53DE53C34FFF53CE4F532F531EA
:101EA000F530F52F7F387D01120A24EF600122E51D
:101EB000322401F532E43531F531E43530F530E4E2
:101EC000352FF52F3009DD1221B4EF6001220222F7
:101ED000297F0022F583E53AF0A3E53BF0E4F53AEB
:101EE00090BDF17456F000000000E4F55190BCF094
:101EF000E526F00000E525F00000E524F00000E50F
:101F000023F000007401F07527007528007539086A
:101F10001225ABE551641E7033AF28AE27121FF9AE
:101F20008E278F2890BDF17457F0D539E38523278C
:101F300085242885252985262A1225ABE551B41448
:101F40000BE54020E5031227DF7F0022E53AC3942A
:101F500005500FE53AC394014003122148053A02A7
:101F60001EE0122786022148E53F700CE53C700810
:101F7000E53D7004E53E6072853F32853E31853D2A
:101F800030853C2FAF22E4FCFDFE7856121563C36A
:101F900012152040387F2FE4FD120A24EF60012241
:101FA00020094785382F853930853A31853B32788D
:101FB00056121557AB22C3EF9BFFEE9400FEED9433
:101FC00000FDEC9400FC785612157080B77859E645
:101FD000FFE522145FF537122535AF26AE25AD2477
:101FE000AC2378561215707F00227537FF78561291
:101FF0001588FFFFFFFF7F002290BDF1742BF0E4F6
:10200000F551E54054036403FD744090BCF0F0CDFD
:10201000602A1460118F828E83E090BCF0F00FBFB5
:1020200000010EDDF02205A28F828E83E0A305A2BF
:10203000F005A2DDF7AF82AE8305A222EFC582F9DB
:10204000EEC583C5A0F5F07D08E0A3F3E0A3F3E0BF
:10205000A3F3E0A3F3E0A3F3E0A3F3E0A3F3E0A38F
:10206000F3DDE685F0A0AF82AE832290BDF1742847
:10207000F0E4F551E54054036403FD90BCF0E0CD7D
:10208000602A14601190BCF0E08F828E83F00FBF45
:1020900000010EDDF02205A28F828E8305A2E005ED
:1020A000A2F0A3DDF7AF82AE8305A222EFC582F9CD
:1020B000EEC583C5A0F5F07D08E3F0A3E3F0A3E34C
:1020C000F0A3E3F0A3E3F0A3E3F0A3E3F0A3E3F0D2
:1020D000A3DDE685F0A0AF82AE83221219CAEF60BD
:1020E00001221221B4EF60012285323F85313E8505
:1020F000303D852F3C121D8EEF6001227400254279
:10210000FF74003541FEF583EF241CF582E435832E
:10211000F5837401F0853F38853E39853D3A853C2D
:102120003B8F828E83E582241AF582E43583F58322
:10213000E538F0A3E539F08F828E83E5822414F52B
:1021400082E43583121ED4227539321227DAD5394A
:10215000FA90BDF17422F00000000090BCF0E0E5C0
:10216000516416600FE547640160097F2012271152
:10217000EF20E5067547017F8222300C19E547C341
:1021800094034012855139E4F55190BDF1745AF031
:102190001225AB853951E547B41205754703800A0E
:1021A000E547D394104003754710E55170037F1045
:1021B00022AF5122852723852824852925852A2693
:1021C000121EDDEF600122904006E0FEA3E0FF4E0C
:1021D0006048E4FCFDE5262FF526E5253EF525EDD6
:1021E0003524F524EC3523F523121EDDEF600122A2
:1021F000904006E0FAA3E0FBC3E5269BF526E52523
:102200009AF525E5249400F524E5239400F523F5BB
:102210002785242885252985262AC20A7F0022743D
:10222000FFF532F531F530F52F904004E0FEA3E0E4
:10223000FF4E700122E4FCFD904000E0F8A3E0F9BD
:10224000A3E0FAA3E02FF526EA3EF525ED39F524C3
:10225000EC38F523121D9AEF6001227E017FE8120F
:102260002776E5322FF532E5313EF531E5303DF5A3
:1022700030E52F3CF52FAF32AE31AD30FC1227D315
:102280009001E812157C121EDD22E547C39412501E
:10229000037FB422E547B41239E54C640360339000
:1022A000400FE0F522E54AC313FF7E00E4FCFD90F9
:1022B000400C12157C90400FE0FFE4FCFDFEE5466B
:1022C0002FF546EE3545F545ED3544F544EC3543FF
:1022D000F543E547D39413400AE547B4140778560D
:1022E000E67002C20B300B071224EEEF60012212DF
:1022F00026B8227537057D067F6512273EE4F5472F
:1023000090BCF0E0B49A0F7D067F9A12273E90BCF5
:10231000F0E064656009122650D537DA7F8122909B
:10232000BDF17401F000000000C20C90BCF0E0C3ED
:1023300094A24002D20C7547017D157F0612273EFC
:102340007F0112272890BCF0E0B45F037F81227FD9
:102350000022122574EF60037F82227F511226DA59
:10236000E551703D7D037F021226BC300C307F3872
:10237000122711EF60281227C9900000E0B4051E53
:1023800090BDF1740BF00000000090BCF07434F0CC
:1023900000007401F07F581226DAE55170037F00C7
:1023A000227D027F021226BC022148E547C3941217
:1023B00050037FB422AF4BAE4AAD49AC481227BFA1
:1023C0008F3B8E3A8D398C387856121563D312159F
:1023D00020400DAF3BAE3AAD39AC3878561215708F
:1023E000785612155778011215448F3B8E3A8D3965
:1023F0008C38853952853A53853B54E4F555121F84
:1024000068227858E67D0025E0FCE539AE3878068C
:10241000C333CE33CED8F9FFC3ED9FF539EC9EF52B
:1024200038AE38AF39CBEFCBCAEECAC3E5559FF50E
:1024300055E5549AF554E5539400F553E55294004C
:10244000F552C3E49539FFE49538FE785FEF26F640
:1024500018EE36F622122574EF60037F8222E547DC
:10246000C39403501B122352EF600C7F32122728B3
:10247000122352EF6001221225D6EF600302214899
:10248000300C207F591226DAAF518F38EF7002FFDF
:10249000227F0A1227287F5A1226DA7F0212272863
:1024A000AF38227F0022E54764156007122601EF4E
:1024B00060012278561215578F558E548D538C52C9
:1024C000AB4BAA4AA949A848C3121520500C854B0A
:1024D00055854A54854953854852AF55AE54AD533E
:1024E000AC521227BF7856121570121F6822C20B09
:1024F000E547C39414403B121D8EEF600122740027
:102500002542FB74003541FAF583EB240BF582E498
:102510003583F583E020E41AAF4BAE4AAD49AC48B1
:102520001227D3EB241CF582E43AF58312157C02C2
:102530001EDD7F0022E53224FEFFE53134FFFEE59B
:102540003034FFFDE52F34FFFCA82E121544EF2593
:1025500046FBEE3545FAED3544F9EC3543F8E4FC3D
:10256000FDFEEB2537F526EE3AF525ED39F524ECA1
:1025700038F5232290BDF17422F00000000090BCD9
:10258000F0E0E4F5517F20122711EF30E517E54721
:10259000C39402400A7F1B122711EF547F7003750A
:1025A00047027F00227547017F822220B2FD90BD45
:1025B000F17422F0535180E5516003E4F55190BC71
:1025C000F0E0F551E551B4160475470122E551B428
:1025D0001503754702227538087F531226DAAF516A
:1025E0008F3BEF7002FF227F0A122728300C057FF5
:1025F0005A1226DA7F14122728D538DDAF3B8F51C7
:1026000022E547641460037FB422853F32853E3162
:10261000853D30853C2FE4F555F554F553F552F5DD
:10262000377D157F141226BC22EFB40A07740D12F1
:102630002634740A309811A899B8130CC2983098AF
:10264000FDA899C298B811F63099FDC299F5992262
:10265000753A8090BDF17401F00000000090BCF06C
:10266000E0FFD53AEE90BDF17405F0000000007F68
:1026700032022728E581D394F040037FFC22754085
:1026800005E4900000F01227E4EFC3943050037F7C
:10269000FF221222F322EF601E7BFF7A1379AB75C3
:1026A0000C008F0D1204A1C2947FC81226F6D2949A
:1026B0007FC81226F680F0227D107F10E547C39F69
:1026C00040028D47E5476D7002FF227547011225D4
:1026D00074EF60037F82227F8322E4F55190BDF185
:1026E000EFF01225ABE551700475511022E551B49D
:1026F0001403E4F55122EF60177EC874032509F531
:1027000009DEF87EC874032509F509DEF81F80E6A6
:102710002290BDF1740AF00000000090BCF0EFF0D0
:1027200000006003E0FF2222EF75F005A4F53AE512
:102730003A600A1227DA1227DA153A80F22290BD9F
:10274000F1EDF000000000E4F55190BCF0EFF00076
:1027500000228D828C83A807E4FFE493F6600508CD
:10276000A30F80F622759850758780758921758D25
:10277000F3D28ED299228F828E83E0FFA3E0FEA354
:10278000E0FDA3E0FC2274FFF52AF529F528F527E2
:10279000C20A22787FE4F6D8FD7581730217947817
:1027A0005E760208760012166022785E760208765F
:1027B00000120EDA228F828E83E0FFA3E0FE22C396
:1027C000E4CC13CD13CE13FF221227867E007F00A8
:1027D00002206BEFCCFFEECDFE227F96DFFE227F44
:0A27E000FADFFE227F3022222222BF
:00000001FF
