:100000000223D090BDF17422F00000000090BCF0FB
:10001000E0FFE547C39410500712079BEF600122F1
:100020001222CFEF600122C20B7871E6645C60049B
:10003000E6B42F05752B7280177872E6643A600378
:100040000200E318E6C3944350030200E3752B74E7
:10005000E54CB4031090044CE0FCA3E0FDA3E0FEEB
:10006000A3E0FF8005E4FFFEFDFC8F3F8E3E8D3D4B
:100070008C3CA82BE6706F74FFF54BF54AF549F5FB
:1000800048E54C6403603F753F0290044FE0FBC3BA
:10009000E5469BF546E5459400F545E5449400F5B5
:1000A00044E5439400F54390044EA3E025E0FEE4CC
:1000B000F54B8E4AF549F548AF22FCFDFE90044C05
:1000C000121353752280853F32853E31853D308540
:1000D0003C2FE4F555F554F553F552F537754712B5
:1000E0007F4122752B71A82BE6B4E5027605E53F2A
:1000F000700CE53C7008E53D7004E53E60328522F9
:1001000037E53F24FEFFE53E34FFFEE53D34FFFDCD
:10011000E53C34FFFCA82E12131BEF2546F550EEEC
:100120003545F54FED3544F54EEC3543F54D801F23
:1001300090044FE0F537CBC3E5469BF550E5459479
:1001400000F54FE5449400F54EE5439400F54DE588
:100150003770030203F2121A04EF600122E4F54142
:10016000F542C3E541940240030203D874002542DE
:10017000F52D74003541F52C852D82F583E0FF7057
:100180000302041FEF64E570030203CABF05027F88
:10019000E5A82BE6FE6F6008EE642A60030203CA3E
:1001A000E4F53BFFEFC3940B5078E52D2FF582E487
:1001B000352CF583E0FEAD3BE52B2DF8EE66605D5A
:1001C000AD3BE52B2DF8E66015AD3BE52B2DF8E6B4
:1001D000645C600AAD3BE52B2DF8E6B42F1FEE649E
:1001E00020703FEFC394085010E52D2408F582E4F9
:1001F000352CF583E0642070297F0B8025AE3BE52C
:100200002B2EF8E6B42E1BE53B6408600EE52D2F7F
:10021000F582E4352CF583E0B420077F070F053B1A
:100220008082EFC3940B500302030BE52D240BF5E2
:1002300082E4352CF583E030E30302030BC209E5C9
:100240002D241AFFE4352CFE1223F2E48F3F8E3E5C
:10025000F53DF53CE54CB40310E52D2414FFE435E1
:100260002CFE1223F28E3C8F3DAF3BE52B2FF8E6A0
:100270006006200903020301853F32853E31853D3A
:1002800030853C2FE4F555F554F553F552F537E537
:100290002D240BF582E4352CF583E030E41F74FF48
:1002A000F54BF54AF549F5487D137F101222D3EF3F
:1002B0006001223009047F4380027F4122E52D2422
:1002C0001CFFE4352CFE1223A48F4B8E4A8D498CE3
:1002D00048E53F7017E53C7013E53D700FE53E7053
:1002E0000B7537FFF54BF54AF549F5487D147F103E
:1002F0001222D3EF6001223009047F4380027F0085
:1003000022E53B04252BF52B0200E6AF3BE52B2F26
:10031000F8E6642A60030203CAE52D240BF582E4A3
:10032000352CF583E030E3030203CAE53B04252BBB
:10033000F8E67053E4FFF539E52D2FF582E4352C0E
:10034000F583E06420602FBF080AAE39E52B2EF854
:10035000762E0539E52D2FF582E4352CF583E0FE68
:10036000AD39E52B2DF8EEF6E5397008A82BE6B48B
:10037000050276E505390FBF0BBEAF39E52B2FF827
:10038000E4F6D20902023FE53B04252BF8E6F470BF
:1003900032E54B700CE5487008E5497004E54A60A9
:1003A00093E54830E703122427E54B24FFF54BE59E
:1003B0004A34FFF54AE54934FFF549E54834FFF58D
:1003C000488007E53B04252BF81674202542F542AA
:1003D000E43541F541020162E5502401F550E43570
:1003E0004FF54FE4354EF54EE4354DF54D153702DA
:1003F000014FE53F700CE53C7008E53D7004E53EBB
:10040000601D7F3CE4FD120A24EF60012220090FE9
:1004100085383C85393D853A3E853B3F0200E6E420
:10042000FFE52B2FF8E6FE6013642A600FEE645C94
:100430006004EEB42F037FB3220F80E57F4222E5F4
:100440006C2460F8E6056C22785D3007027860E481
:1004500075F0011214010213A92000EB7F2ED200C7
:100460008018EF540F2490D43440D4FF30040BEFA5
:1004700024BFB41A0050032461FFE56D6002156DBE
:100480000570E5707002056F30070D785DE475F05A
:1004900001121401EF0213EF0222627403D20780EB
:1004A00003E4C207F56C8B5D8A5E895FE4F56DF548
:1004B0006FF570E56D60077F2012047A80F5756E28
:1004C000FFC201C200C202C203C205C206C20812B4
:1004D0000448FF700D3007057F0012048BAF70AE2B
:1004E0006F22B4255FC2D5C204120448FF24D0B4E1
:1004F0000A00501A75F00A786D30D50508B6FF016C
:1005000006C6A426F620D5047002D20380D924CFD3
:10051000B41A00EF5004C2E5D20402068BD2018067
:10052000C6D20080C0D20280BCD2D580BAD20580AB
:10053000B47F2012047A2002077401B56D0040F1E7
:1005400012043FFF12047A0204B3D208D206809547
:1005500012043FFB12043FFA12043FF94A4B7006A3
:10056000795C7A077BFF20022EE56D602A7E008E83
:10057000827583001213C260060EEE656E70F0C2C3
:10058000D5EBC0E0EAC0E0E9C0E0EE1206D2D0E070
:10059000F9D0E0FAD0E0FB1213A9FF60AAEBC0E0AB
:1005A000EAC0E0E9C0E012047AD0E02401F9D0E02A
:1005B0003400FAD0E0FBE56E0460DCD56ED98087AC
:1005C0007BFF7A0679CED202809C7910800279086E
:1005D000C206C2088008D2D5790A8004790AC2D539
:1005E000E56E047002F56EE4FAFDFEFF12043FFCB6
:1005F0007B0820011312043FFD7B1030000A120417
:100600003FFE12043FFF7B20EC3382D592D550137E
:10061000C3E43000069FFFE49EFEE42001039DFD3D
:10062000E49CFCE4CBF8C201EC700CCFCECDCCE85E
:1006300024F8F870F38017C3EF33FFEE33FEED3389
:10064000FDEC33FCEB33FB994002FB0FD8E9EB30B8
:100650000105F8D0E0C448B201C0E00AEC4D4E4FAD
:1006600078207B0070C2EAB56E0040BCC0E0120684
:10067000D4D0F0D0E0200104C4C0E0C4B201C0F086
:10068000120463D0F0D5F0EB0204B312141105503C
:100690005305CA5805214C051D4205CE4F05D644C9
:1006A00005D64905364305DC5505C04605C0450558
:1006B000C047077C5005252D05292E054C2B052DFF
:1006C00023054A2007652A04E548000005443F3F0A
:1006D0003F00790AA2D5200314300509B91002049D
:1006E00004B9080104A2D5200602500104200268C2
:1006F0009202B56D005034C0E07F203003197F3086
:10070000A20272067205500F12072BC202C206C265
:1007100005C2087F30800F300503E9C0E012047A7B
:10072000300503D0E0F9D0E0B56DCC3005177F304F
:10073000B9100C12047A7F583004077F788003B90F
:10074000080312047A3002057F2D02047A7F2020EC
:1007500008F87F2B2006F322920280CF286E756C5A
:100760006C2900D20112043F3001F8C201786D30CB
:10077000D50108F60204E52D5043495812043F24E0
:1007800003B405004001E49007779312046B743AB8
:1007900012046BD203756D040205CAE547C39403C6
:1007A0005007121FC8EF6001221223C3E4F526F59B
:1007B00025F524F523121A10EF600A122237121AB7
:1007C00010EF600122900000E0FF64EB6037EF64FF
:1007D000E96032E4FDED6440602874C22DF582E4E6
:1007E0003401F583E06015ED7E0024C6FFEE340190
:1007F000FE1223A4900440121353801374102DFD95
:1008000080D37F9222900440121378000000009061
:100810000440E0FCA3E0FDA3E0FEA3E0F5268E2566
:100820008D248C23121A10EF600122900000E0FF4B
:1008300064EB6008EF64E960037FA12290000DE0A3
:10084000F52230E605752E06802E30E505752E055D
:10085000802630E405752E04801E30E305752E03D6
:10086000801630E205752E02800E30E105752E01EE
:100870008006752201E4F52E7E007F161223F29089
:100880000446EEF0A3EFF04E70287E007F24122382
:10089000A48F328E318D308C2FE4FBFA7901F8D39E
:1008A0001212F750037FA222900446E531F0A3E52F
:1008B00032F0900014E0FF900013E04F60127E00D1
:1008C0007F131223F2E48F3F8E3EF53DF53C800FFF
:1008D0007E007F201223A48F3F8E3E8D3D8C3C7E78
:1008E000007F111223F2EF240FFFE43EC4F854F00E
:1008F000C868FEEFC4540F48FFE4FCFD90044C129E
:1009000013537E007F0E1223F2E48F368E35F534BA
:10091000F533900446E0FEA3E0FFEF2536FFEE3509
:1009200035FEE43534FDE43533FC90044CE0F8A3A7
:10093000E0F9A3E0FAA3E02FF546EA3EF545E93DEC
:10094000F544E83CF543900010E0D3940140219039
:100950000446E0FEA3E0FFE4FCFDE5462FF546E596
:10096000453EF545ED3544F544EC3543F543800708
:10097000E4900446F0A3F0C3E53F9546FFE53E95BD
:1009800045FEE53D9544FDE53C9543FCA82E12133C
:1009900008900448121353E47BF57AFFF9F8D31258
:1009A00012F7401FE4900444F0A3F090044AE0FEE4
:1009B000A3E094F5EE940F5005754C018024754C1E
:1009C00002801F7E007F301223F2900444EEF0A3D9
:1009D000EFF07E007F2C1223A490044C1213537569
:1009E0004C03900440E0FCA3E0FDA3E0FEA3E0255F
:1009F00036F536EE3535F535ED3534F534EC353341
:100A0000F533900440A3A3A3E02546F546EE354513
:100A1000F545ED3544F544EC3543F5437D107F0352
:100A20001222D3228D5DEFC8E54CB4020712132EBB
:100A300078018008B4031212132E780212131B8F50
:100A4000618E608D5F8C5E802312132E8E5E8F5FB1
:100A5000EF139209E55EC313FEE55F13255FFFE523
:100A60005E3EFEE48F618E60F55FF55EEE5401FE42
:100A7000EF2400F52DEE3400F52CAF61AE60AD5FD4
:100A8000AC5E1223FCEF2536F561EE3535F560EDF1
:100A90003534F55FEC3533F55EE561652A7012E5B6
:100AA000606529700CE55F65287006E55E65276066
:100AB0001D300A07121E2AEF600122855E23855F22
:100AC00024856025856126121A10EF600122E55DFC
:100AD0006023B4FF028006E55DB4010BE4F561F527
:100AE00060F55FF55E800C852F6185306085315F34
:100AF00085325ED20AE54C6402703F852D82852CDA
:100B000083E0F538A3E0F53985383B85393AE4F5DB
:100B100038F539AE3AAF3BC3EF94F7EE94FF40039C
:100B2000D38001C39209E55D600D852D82852C83FC
:100B3000E55EF0A3E55FF07F0022E54C6403705AA8
:100B4000852D82852C83E0FCA3E0FDA3E0FEA3E0DD
:100B5000F53B8E3A8D398C38E53B54F0FFE5615416
:100B60000F4FF561E53B540F85383BF538AF3A85BB
:100B7000393A8F39AF38EFC3940F4003D38001C3A4
:100B80009209E55D6011AF61AE60AD5FAC5E852D31
:100B900082852C831213537F0022535F0FC3E52DF0
:100BA0009400FFE52C9400FEEFF47003EE64016006
:100BB0004D852D82852C83E0F538A3E0F539E55D80
:100BC0007003020C73300923E55EC454F0FFE5386E
:100BD000540F4F852D82852C83F0E55FC454F0FFC0
:100BE000E55EC4540F4FA3F0020C73852D82852C53
:100BF00083E55EF0E53954F0455FA3F08075852DFF
:100C000082852C83E0F538E55D602230090EE55ED3
:100C1000C454F0FFE538540F4FFF8002AF5E852DBE
:100C200082852C83EFF0121E2AEF600122E52A2430
:100C300001F526E43529F525E43528F524E43527A2
:100C4000F523121A10EF600122900000E0F539E55B
:100C50005D602030090FE55FC454F0FFE55EC454C9
:100C60000F4FFF8007E53954F0455FFF900000EF1C
:100C7000F0D20A300913E539C454F0FFE538C45402
:100C80000F4FF53BE539C4800585383BE539540FF6
:100C9000F53AE4F538F539AE3AAF3BC3EF94F7EEE9
:100CA000940F4003D38001C392097F0022D294C2E3
:100CB000941223B4D2941223937BFF7A19794812A9
:100CC00004A11222AD8F561222F17BFF7A19794FBF
:100CD0001204A1E547C39402500B1221A2EF600554
:100CE0001223B480EEC2941223B41223B4E4F55656
:100CF0001223B47BFF7A19795B1204A11220CBEF87
:100D000060090556E556C3940540E5C2957BFF7A18
:100D10001979641204A17F717C197D6A12238012F3
:100D200000038F56E55664B36009E55664426003DC
:100D3000020DB2E556B4B308755B19755C7A80068E
:100D4000755B19755C7D7560FF855B61855C627B99
:100D5000FF7A1979891204A1E4F5577F71AD5CAC73
:100D60005B1223808F5674712FF8A6571200038FE1
:100D700056E5566442602FE556B4431A7560008507
:100D800057617562007563007564717BFF7A19792C
:100D9000971204A18007AF561222F180090557E58A
:100DA00057C394FF40B5755902755A007558010232
:100DB0000E6DAF561222F17BFF7A1979AF1204A1A2
:100DC0007F007EC87DFF7CFFAB4BAA4AA949A8489B
:100DD000D31212F7400B7558647559C8755A0080C4
:100DE0001FE54B24FFFFE54A3401FEE43549FDE4ED
:100DF0003548FC78091213088F58854A59854B5A93
:100E00007BFF7A1979B5854B63854A62854961858F
:100E10004860855964855A6575660085586712046F
:100E2000A17871A658E54B24FFF54BE54A3401F54E
:100E30004AE43549F549E43548F5481223DC8F5634
:100E4000C3E54B94FFF54BE54A9401F54AE5499417
:100E500000F549E5489400F5481222F17BFF7A1924
:100E600079CF1204A1121F008F561222F1C2967B75
:100E7000FF7A1979D61204A17F717C197DDE1223C5
:100E800080120F0C8F561222F17BFF7A1979EB1228
:100E900004A17871A6581223E78F561222F17BFF26
:100EA0007A1979F21204A1787976017877761808A0
:100EB00076E2787576300876B2AE59AF5AE4FCFD2A
:100EC00078711213471216668F561222F17BFF7A41
:100ED0001979CF1204A1E47871F6121F008F56120F
:100EE00022F1D296D2957BFF7A1979FA1204A1E504
:100EF00047C39402400B1221A2EF70051223B48065
:100F0000EED2941223B41223B4020CCA1200038F3F
:100F100037E537700A121AB0EF700302105522E558
:100F20003764426003AF3722C3E54294E0E5419461
:100F3000015003021055E53F700FE53C700BE53D95
:100F40007007E53E7003020FF3C3E5509546FFE5D9
:100F50002214FE5FF537E5426008EE653760030254
:100F600010557F3CE4FD120A24EF600122200903A2
:100F700002105512156BEF6001227F3C7D02120AB0
:100F800024EF600122121E2AEF6001221223C3E423
:100F9000FFFEEE64024F601374002FF58274003E72
:100FA000F583E4F00FBF00010E80E7E4F53712216E
:100FB00063E5427010F541F54285265085254F8541
:100FC000244E85234D852238E5386020121B53EFCF
:100FD000600122E5262401F526E43525F525E435D2
:100FE00024F524E43523F523153880DC121E95EF13
:100FF000606322E542705EE55024FFF550E54F3412
:10100000FFF54FE54E34FFF54EE54D34FFF54DF558
:1010100023121A07EF600122E4F541F542C3E541CE
:101020009402502E74002542FF740035418F82F5E2
:1010300083E0B4E510E582240BF582E43583F58383
:10104000E0540E601074202542F542E43541F5412C
:1010500080CB7FB22212156BEF600122121E2AEFA5
:1010600060012285323F85313E85303D852F3C121F
:101070001E95EF600122121A04EF60012274002510
:1010800042FF74003541FEE4FDEDC3940B50047C37
:101090002080027C00EF2DF582E43EF583ECF00D1C
:1010A000BD20E6EF2418F582E43EF5837421F0A319
:1010B0007430F0EF241CF582E43EF5837401F0E413
:1010C000FDEDC3940B5021A82BE6FC601BECB42E65
:1010D000047D08052BA82BE6FCEF2DF582E43EF5F8
:1010E00083ECF00D052B80D9853F38853E39853D51
:1010F0003A853C3BEF241AF582E43EF583E538F06F
:10110000A3E539F0EF2414F582E43E121B4AEF60A8
:101110000122853F32853E31853D30853C2FE4F507
:101120004BF54AF549F548F555F554F553F552F5A3
:10113000377D147F101222D322E547D39414500731
:10114000E547C3941250037FB4227871E6FF08F696
:101150007006300B030212F1E47871F67873F6082A
:10116000F67872E67003021275E537F4704AE53FCF
:10117000700CE53C7008E53D7004E53E602DE547E8
:10118000B41209E54C640360037FB122AF32AE3183
:10119000AD30AC2F787B121347121577EF60012228
:1011A0007F7B7D02120A24EF600822121D51EF603E
:1011B0000122787416E4F5371221637873E6C3943C
:1011C00040502FE66037E6FFE4FCFDFE7875121311
:1011D0003AEF2BFFEE3AFEED39FDEC38FCEF6526D9
:1011E000FFEE6525FEED6524FDEC6523FC4D4E4FBD
:1011F000600B12175BEF600122E47873F67873E6F8
:10120000700DAF26AE25AD24AC237875121347C3FD
:10121000E5229537FF7872E6FEEFD39E400CE60894
:1012200026F618E62537F537804B7873EF26F6C398
:1012300018E69FF6E670187400787A6670047400F9
:101240001866700B12175BEF600122E47873F67F6B
:101250002FE4FD120A24EF6001223009067537FFE2
:1012600002116185382F853930853A31853B32E46A
:10127000F537021161300A07121E2AEF6001227849
:1012800073E6600712175BEF6001227874E6603541
:10129000AF32AE31AD30AC2F787B1213477874E6A5
:1012A000FFE4EFF53274FFF531F530F52F121E9F94
:1012B000CBEFCB787B12132E8F328E318D308C2F6B
:1012C000EB6002FF22AF55AE54AD53AC52AB4BAA0C
:1012D0004AA949A848C31212F7500E85554B8554A8
:1012E0004A855349855248D20BE54030E406300B1D
:1012F0000302211C7F0022EB9FF5F0EA9E42F0E9F9
:101300009D42F0E89C45F022E8600FECC313FCED31
:1013100013FDEE13FEEF13FFD8F122E8600FEFC3C9
:1013200033FFEE33FEED33FDEC33FCD8F122E6FC67
:1013300008E6FD08E6FE08E6FF22E6FB08E6F908F7
:10134000E6FA08E6CBF822ECF608EDF608EEF60829
:10135000EFF622ECF0A3EDF0A3EEF0A3EFF022D035
:1013600083D082E493F608740193F608740293F62E
:1013700008740393F6740473A8828583F0D083D035
:101380008212138F12138F12138F12138FE473E4D0
:1013900093A3C583C5F0C583C8C582C8F0A3C58320
:1013A000C5F0C583C8C582C822BB010689828A836D
:1013B000E0225002E722BBFE02E32289828A83E414
:1013C0009322BB010CE58229F582E5833AF583E09F
:1013D000225006E92582F8E622BBFE06E92582F8BE
:1013E000E222E58229F582E5833AF583E49322BB84
:1013F000010689828A83F0225002F722BBFE01F3A4
:1014000022FAE6FB0808E6F925F0F618E6CA3AF6ED
:1014100022D083D082F8E4937012740193700DA3EC
:10142000A393F8740193F5828883E473740293683C
:1014300060EFA3A3A380DFE547D394145007E547EB
:10144000C3941250037FB4227871E608F6E418F6CC
:101450007873F6C3E54B9555FFE54A9554FEE5498B
:101460009553FDE5489552FC1223FC8F3B8E3A8D37
:10147000398C38E5397004E53A6006787476FF8077
:10148000047874A63B7872E670030215607874E6FF
:101490007003021560E537F47003021560122163D2
:1014A0007873E6C39440502FE66037E6FFE4FCFD16
:1014B000FE787512133AEF2BFFEE3AFEED39FDEC94
:1014C00038FCEF6526FFEE6525FEED6524FDEC6535
:1014D00023FC4D4E4F600B121850EF600122E47850
:1014E00073F67873E6700DAF26AE25AD24AC237885
:1014F00075121347C3E5229537FFF5387874E6FE79
:10150000EFD39E4003E6F538E538D3787296400C69
:10151000E60826F618E62537F5378049C37872E6DF
:101520009538F608E53826F6C308E69538F6E53826
:101530002537F537652260030214857F2FFD120AD7
:1015400024EF6001223009067537FF0214858538C3
:101550002F853930853A31853B32E4F537021485E1
:101560007873E660030218507F0022853F32853E83
:1015700031853D30853C2F900448E0FCA3E0FDA37D
:10158000E0FEA3E0FFAB32AA31A930A82FD312129C
:10159000F740037FB122E5322401F532E43531F51D
:1015A00031E43530F530E4352FF52F7F2FE4FD128F
:1015B0000A24EF600122E53B700FE538700BE53936
:1015C0007007E53A700302165EE54C640160A87589
:1015D0002C00752D00E54C640270337538FF7402E1
:1015E000252DF52DF582E4352CF52CF583E07015CD
:1015F000A3E07011852D82852C8374FFF0A3F0E5A4
:1016000038F4048049D538D67532FF02157775381D
:101610007F7404252DF52DF582E4352CF52CF5830A
:10162000E07032A3E0702EA3E0702AA3E0540F70A4
:1016300024852D82852C8374FFF0A3F0A3F0A3E012
:10164000440FF0E5325480FFC3748095384FF53273
:10165000D20A7F0022D538B943327F0215777F2F17
:101660007DFF120A2422E547C3941350037FB4225E
:10167000121A04EF600122C20A74002542FB7400B2
:101680003541FA7879E6FFEB240BF582E43AF583ED
:10169000E0F6EFF460138B828A83E582240BF582F7
:1016A000E43583F583EFF0D20A7877E6F53B08E678
:1016B000F53AEB2416FFE43AFE1223F218EEF60890
:1016C000EFF6E53AF4FEE53BF44E6012EB2416F536
:1016D00082E43AF583E53AF0A3E53BF0D20A787567
:1016E000E6F53B08E6F53AEB2418FFE43AFE122350
:1016F000F218EEF608EFF6E53AF4FEE53BF44E603C
:1017000012EB2418F582E43AF583E53AF0A3E53BC1
:10171000F0D20A787112132E787D121347EB241C35
:10172000FFE43AFE1223A47871121347787DE6F4A1
:10173000601E12132E8F4B8E4A8D498C4812241036
:10174000EB241CF582E43AF583121353D20AC20B40
:10175000300A05C20A021B537F0022E4F53A90BD0D
:10176000F17456F000000000E4F5517878E690BC82
:10177000F0F0000018E6F0000018E6F0000018E6AF
:10178000F000007873E6F085403BE5401313540306
:10179000FFE54054FC4FF540E675F008A4F53985A7
:1017A000F03812220CE551641E707BE53B540C604E
:1017B000137879E6FE08E6FF121C6F7879EEF608DA
:1017C000EFF6801790BDF1742BF000000000E4F5F7
:1017D0005190BCF07440F0FF12235890BDF1745743
:1017E000F0E5552440F555E43554F554E43553F50A
:1017F00053E43552F552E5396009D539A5E538602D
:1018000008809F153815398099853B4012220CE5D8
:1018100051B41412E54020E50312241C7873E678D5
:101820007126F67F0022853B40E53AC39405501CA3
:10183000122078E540540C7004FF122358E53AC397
:1018400094014003121DBE053A02175E121DBE220E
:10185000E4F53A90BDF17454F000000000E4F55155
:101860007878E690BCF0F0000018E6F0000018E68A
:10187000F0000018E6F000007873E6F085403BE5E4
:101880004013135403FFE54054FC4FF540E675F058
:1018900008A4F53985F03812220CE551641D7071E9
:1018A000E53B540C60137879E6FE08E6FF121CE174
:1018B0007879EEF608EFF6801590BDF17428F00007
:1018C000000000E4F55190BCF0E0FF1221D990BD7A
:1018D000F17455F0E5552440F555E43554F554E4DC
:1018E0003553F553E43552F552E5396009D539A73A
:1018F000E538600880A115381539809B853B40127A
:10190000220CE551B4140A7873E6787126F67F004C
:1019100022853B40E53AC39405501C122078E540EF
:10192000540C7004FF1221D9E53AC394014003120C
:101930001DBE053A021853121DBE224572726F7207
:101940003A20253032580A0053746172740A0057E5
:1019500061697420556469736B0A0052656164792A
:10196000203F0A004F70656E0A005C4335315C43CE
:10197000483337354846542E43005C2A005C4335D3
:10198000315C43483337352A004C697374206669EB
:101990006C652025730A0020206D617463682066E1
:1019A000696C652025303364233A2025730A005280
:1019B0006561640A0053697A653D256C642C204C8E
:1019C000656E3D25642C205365633D25640A004304
:1019D0006C6F73650A004372656174650A005CC0D0
:1019E000EFC3E6C8AB302E54585400577269746583
:1019F0000A004D6F646966790A0054616B65206F57
:101A000075740A00854D23854E24854F2585502603
:101A1000E526652A7015E5256529700FE5246528FA
:101A20007009E52365277003021AADE4F53A90BD0D
:101A3000F17454F000000000E4F55190BCF0E5268C
:101A4000F00000E525F00000E524F00000E523F0BB
:101A500000007401F07527007528007539081222FE
:101A60000CE551641D702BAF28AE27121CE18E27A8
:101A70008F2890BDF17455F0D539E385232785244F
:101A80002885252985262A12220CE551B414037FC6
:101A90000022E53AC39405500EE53AC39401400391
:101AA000121DBE053A80871223C3021DBE7F00228D
:101AB000E547C394135007120003EF60012212227E
:101AC000CFEF600122121A04EF6001227400254258
:101AD000FF740035418F82F58374E5F0121B53EFDC
:101AE000600122AF3FAE3EAD3DAC3C8F3B8E3A8DA8
:101AF000398C38EC4D4E4F604EE53F24FFF53FE505
:101B00003E34FFF53EE53D34FFF53DE53C34FFF561
:101B10003CE4F532F531F530F52F7F387D01120ABE
:101B200024EF600122E5322401F532E43531F5314C
:101B3000E43530F530E4352FF52F3009DD121E2A5B
:101B4000EF600122021E9F7F0022F583E53AF0A399
:101B5000E53BF0E4F53A90BDF17456F0000000006A
:101B6000E4F55190BCF0E526F00000E525F000001A
:101B7000E524F00000E523F000007401F075270073
:101B800075280075390812220CE551641E7033AFB8
:101B900028AE27121C6F8E278F2890BDF17457F046
:101BA000D539E385232785242885252985262A12EA
:101BB000220CE551B4140BE54020E50312241C7FF0
:101BC0000022E53AC39405500FE53AC3940140035F
:101BD000121DBE053A021B561223C3021DBEE53F6D
:101BE000700CE53C7008E53D7004E53E6072853F91
:101BF00032853E31853D30853C2FAF22E4FCFDFE31
:101C0000787112133AC31212F740387F2FE4FD1295
:101C10000A24EF60012220094785382F8539308555
:101C20003A31853B32787112132EAB22C3EF9BFF02
:101C3000EE9400FEED9400FDEC9400FC787112131C
:101C40004780B77874E6FFE522145FF53712216309
:101C5000AF26AE25AD24AC2378711213477F002246
:101C60007537FF787112135FFFFFFFFF7F0022902F
:101C7000BDF1742BF0E4F551E54054036403FD74A9
:101C80004090BCF0F0CD602A1460118F828E83E00A
:101C900090BCF0F00FBF00010EDDF02205A28F8294
:101CA0008E83E0A305A2F005A2DDF7AF82AE830527
:101CB000A222EFC582F9EEC583C5A0F5F07D08E04C
:101CC000A3F3E0A3F3E0A3F3E0A3F3E0A3F3E0A323
:101CD000F3E0A3F3E0A3F3DDE685F0A0AF82AE83EB
:101CE0002290BDF17428F0E4F551E54054036403FB
:101CF000FD90BCF0E0CD602A14601190BCF0E08F44
:101D0000828E83F00FBF00010EDDF02205A28F82CC
:101D10008E8305A2E005A2F0A3DDF7AF82AE8305B6
:101D2000A222EFC582F9EEC583C5A0F5F07D08E3D8
:101D3000F0A3E3F0A3E3F0A3E3F0A3E3F0A3E3F065
:101D4000A3E3F0A3E3F0A3DDE685F0A0AF82AE83CA
:101D500022121577EF600122121E2AEF6001228500
:101D6000323F85313E85303D852F3C121A04EF60AD
:101D7000012274002542FF74003541FEF583EF24F3
:101D80001CF582E43583F5837401F0853F38853E88
:101D900039853D3A853C3B8F828E83E582241AF556
:101DA00082E43583F583E538F0A3E539F08F828E40
:101DB00083E5822414F582E43583121B4A227539A7
:101DC00032122417D539FA90BDF17422F0000000C8
:101DD0000090BCF0E0E5516416600FE547640160D7
:101DE000097F2012232BEF20E5067547017F822211
:101DF000300C19E547C394034012855139E4F5517D
:101E000090BDF1745AF012220C853951E547B41295
:101E100005754703800AE547D394104003754710C2
:101E2000E55170037F1022AF512285272385282496
:101E3000852925852A26121B53EF6001229004462E
:101E4000E0FEA3E0FF4E6048E4FCFDE5262FF5260A
:101E5000E5253EF525ED3524F524EC3523F5231253
:101E60001B53EF600122900446E0FAA3E0FBC3E5B8
:101E7000269BF526E5259AF525E5249400F524E52D
:101E8000239400F523F52785242885252985262AEE
:101E9000C20A7F002274FFF532F531F530F52F903C
:101EA0000444E0FEA3E0FF4E700122E4FCFD900438
:101EB00040E0F8A3E0F9A3E0FAA3E02FF526EA3E1C
:101EC000F525ED39F524EC38F523121A10EF6001F1
:101ED000227E017FE81223A4E5322FF532E5313E60
:101EE000F531E5303DF530E52F3CF52FAF32AE3121
:101EF000AD30FC1224109001E8121353121B532230
:101F0000E547C3941250037FB422E547B41239E584
:101F10004C6403603390044FE0F522E54AC313FF9D
:101F20007E00E4FCFD90044C12135390044FE0FF3C
:101F3000E4FCFDFEE5462FF546EE3545F545ED356D
:101F400044F544EC3543F543E547D39413400AE5A3
:101F500047B414077871E67002C20B300B071221E8
:101F60001CEF6001221222CF227537057D067F65A6
:101F700012236CE4F54790BCF0E0B49A0F7D067F25
:101F80009A12236C90BCF0E064656009122289D536
:101F900037DA7F812290BDF17401F000000000C2A9
:101FA0000C90BCF0E0C394A24002D20C7547017DB6
:101FB000157F0612236C7F0112234290BCF0E0B41F
:101FC0005F037F81227F00221221A2EF60037F82C4
:101FD000227F5112230FE551703D7D037F021222B3
:101FE000D3300C307F3812232BEF60281224069058
:101FF0000000E0B4051E90BDF1740BF0000000007D
:1020000090BCF07434F000007401F07F5812230F7C
:10201000E55170037F00227D027F021222D3021D50
:10202000BEE547C3941250037FB422AF4BAE4AAD16
:1020300049AC481223FC8F3B8E3A8D398C3878712D
:1020400012133AD31212F7400DAF3BAE3AAD39AC92
:10205000387871121347787112132E780112131BFE
:102060008F3B8E3A8D398C38853952853A53853B72
:1020700054E4F555121BDE227873E67D0025E0FC62
:10208000E539AE387806C333CE33CED8F9FFC3ED89
:102090009FF539EC9EF538AE38AF39CBEFCBCAEEB1
:1020A000CAC3E5559FF555E5549AF554E553940098
:1020B000F553E5529400F552C3E49539FFE49538A1
:1020C000FE787AEF26F618EE36F6221221A2EF609D
:1020D000037F8222E547C39403501B121FC8EF60A1
:1020E0000C7F32122342121FC8EF600122122237E6
:1020F000EF6003021DBE300C207F5912230FAF5139
:102100008F38EF7002FF227F0A1223427F5A122378
:102110000F7F02122342AF38227F0022C20BE54715
:10212000C39414403B121A04EF600122740025424C
:10213000FB74003541FAF583EB240BF582E435831B
:10214000F583E020E41AAF4BAE4AAD49AC48122407
:1021500010EB241CF582E43AF583121353021B534F
:102160007F0022E53224FEFFE53134FFFEE5303406
:10217000FFFDE52F34FFFCA82E12131BEF2546FBB5
:10218000EE3545FAED3544F9EC3543F8E4FCFDFE57
:10219000EB2537F526EE3AF525ED39F524EC38F543
:1021A000232290BDF17422F00000000090BCF0E00A
:1021B000E4F5517F2012232BEF30E517E547C39458
:1021C00002400A7F1B12232BEF547F7003754702D6
:1021D0007F00227547017F8222EF6440702D7C02D0
:1021E0007D0090BCF0E08D828C83F00DBD00010C71
:1021F000DFF0E4FF3099FDC29974002FF582E434DA
:1022000002F583E0F5990FBF04EA222220B2FD9087
:10221000BDF17422F0535180E5516003E4F5519013
:10222000BCF0E0F551E551B4160475470122E551C3
:10223000B41503754702227538087F5312230FAF78
:10224000518F3BEF7002FF227F0A122342300C05B0
:102250007F5A12230F7F14122342D538DDAF3B8FF4
:102260005122EFB40A07740D12226D740A309811CE
:10227000A899B8130CC2983098FDA899C298B811C3
:10228000F63099FDC299F59922753A8090BDF174A6
:1022900001F00000000090BCF0E0FFD53AEE90BDE8
:1022A000F17405F0000000007F32022342E581D383
:1022B00094F040037FFC22754002E4900000F0128D
:1022C0002424EFC3943050037FFF22121F69227D24
:1022D000107F10E547C39F40028D47E5476D7002B0
:1022E000FF227547011221A2EF60037F82227F83C4
:1022F00022EF601A7BFF7A19793B7560008F6112BB
:1023000004A1C2941223B4D2941223B480F422E420
:10231000F55190BDF1EFF012220CE55170047551AA
:102320001022E551B41403E4F5512290BDF1740A72
:10233000F00000000090BCF0EFF000006003E0FF50
:102340002222EF75F005A4F53AE53A600A12241747
:10235000122417153A80F222AE07EE600EEE600BE3
:1023600012242190BCF0EFF01E80F22290BDF1ED1E
:10237000F000000000E4F55190BCF0EFF000002206
:102380008D828C83A807E4FFE493F6600508A30F11
:1023900080F622759850758780758920758DF3D2E7
:1023A0008ED299228F828E83E0FFA3E0FEA3E0FD10
:1023B000A3E0FC227FC87EC87403255DF55DDEF8CE
:1023C000DFF42274FFF52AF529F528F527C20A2241
:1023D000787FE4F6D8FD75818E020CAD78797602AF
:1023E0000876401214372278797602087640121166
:1023F00039228F828E83E0FFA3E0FE22C3E4CC1358
:10240000CD13CE13FF221223C37E007F00021CE1F6
:10241000EFCCFFEECDFE227F96DFFE227FFADFFEBD
:08242000227F30227F302222CE
:00000001FF
