:1000000002243902224490BDF17422F00000000065
:1000100090BCF0E0FFE547C394105007120A74EF5C
:1000200060012212234CEF600122C20B7871E6645A
:100030005C6004E6B42F05752B7280177872E66455
:100040003A60030200E618E6C3944350030200E658
:10005000752B74E54CB4031090780CE0FCA3E0FD24
:10006000A3E0FEA3E0FF8005E4FFFEFDFC8F3F8ED2
:100070003E8D3D8C3CA82BE6706F74FFF54BF54A26
:10008000F549F548E54C6403603F753F0290780FF1
:10009000E0FBC3E5469BF546E5459400F545E544A0
:1000A0009400F544E5439400F54390780EA3E025D1
:1000B000E0FEE4F54B8E4AF549F548AF22FCFDFE23
:1000C00090780C1213CD752280853F32853E3185A4
:1000D0003D30853C2FE4F555F554F553F552F53791
:1000E0007547127F4122752B71A82BE6B4E5027685
:1000F00005E53F700CE53C7008E53D7004E53E60A9
:1001000032852237E53F24FEFFE53E34FFFEE53D24
:1001100034FFFDE53C34FFFCA82E121395EF254675
:10012000F550EE3545F54FED3544F54EEC3543F5DC
:100130004D801F90780FE0F537CBC3E5469BF55017
:10014000E5459400F54FE5449400F54EE5439400F1
:10015000F54DE53770030203F5121AA6EF60012290
:10016000E4F541F542C3E541940240030203DB7428
:10017000002542F52D747E3541F52C852D82F583C1
:10018000E0FF7003020422EF64E570030203CDBFB9
:1001900005027FE5A82BE6FE6F6008EE642A600387
:1001A0000203CDE4F53BFFEFC3940B5078E52D2F10
:1001B000F582E4352CF583E0FEAD3BE52B2DF8EE22
:1001C00066605DAD3BE52B2DF8E66015AD3BE52B9C
:1001D0002DF8E6645C600AAD3BE52B2DF8E6B42F04
:1001E0001FEE6420703FEFC394085010E52D2408E3
:1001F000F582E4352CF583E0642070297F0B80259F
:10020000AE3BE52B2EF8E6B42E1BE53B6408600EF2
:10021000E52D2FF582E4352CF583E0B420077F0728
:100220000F053B8082EFC3940B500302030EE52DB4
:10023000240BF582E4352CF583E030E30302030E52
:10024000C209E52D241AFFE4352CFE12245BE48F4D
:100250003F8E3EF53DF53CE54CB40310E52D2414EE
:10026000FFE4352CFE12245B8E3C8F3DAF3BE52B2B
:100270002FF8E66006200903020304853F32853E1D
:1002800031853D30853C2FE4F555F554F553F55255
:10029000F537E52D240BF582E4352CF583E030E4C9
:1002A0001F74FFF54BF54AF549F5487D137F101291
:1002B0002350EF6001223009047F4380027F4122F6
:1002C000E52D241CFFE4352CFE12240D8F4B8E4AA5
:1002D0008D498C48E53F7017E53C7013E53D700F84
:1002E000E53E700B7537FFF54BF54AF549F5487D4E
:1002F000147F10122350EF6001223009047F4380E5
:10030000027F0022E53B04252BF52B0200E9AF3BE1
:10031000E52B2FF8E6642A60030203CDE52D240BBC
:10032000F582E4352CF583E030E3030203CDE53BB1
:1003300004252BF8E67053E4FFF539E52D2FF582FF
:10034000E4352CF583E06420602FBF080AAE39E560
:100350002B2EF8762E0539E52D2FF582E4352CF578
:1003600083E0FEAD39E52B2DF8EEF6E5397008A8EF
:100370002BE6B4050276E505390FBF0BBEAF39E5B4
:100380002B2FF8E4F6D209020242E53B04252BF8B4
:10039000E6F47032E54B700CE5487008E5497004EE
:1003A000E54A6093E54830E703122492E54B24FFC9
:1003B000F54BE54A34FFF54AE54934FFF549E54890
:1003C00034FFF5488007E53B04252BF816742025FB
:1003D00042F542E43541F541020165E5502401F55D
:1003E00050E4354FF54FE4354EF54EE4354DF54DBF
:1003F0001537020152E53F700CE53C7008E53D7091
:1004000004E53E601D7F3CE4FD120CFDEF6001221F
:1004100020090F85383C85393D853A3E853B3F02B2
:1004200000E9E4FFE52B2FF8E6FE6013642A600F75
:10043000EE645C6004EEB42F037FB3220F80E57F8F
:100440004222E56C2460F8E6056C22785D300702F4
:100450007860E475F00112147B0214232000EB7F16
:100460002ED2008018EF540F2490D43440D4FF30A3
:10047000040BEF24BFB41A0050032461FFE56D6044
:1004800002156D0570E5707002056F30070D785D1F
:10049000E475F00112147BEF0214690222DF740389
:1004A000D2078003E4C207F56C8B5D8A5E895FE446
:1004B000F56DF56FF570E56D60077F2012047D80A6
:1004C000F5756EFFC201C200C202C203C205C206B8
:1004D000C20812044BFF700D3007057F0012048E16
:1004E000AF70AE6F22B4255FC2D5C20412044BFFB9
:1004F00024D0B40A00501A75F00A786D30D505087A
:10050000B6FF0106C6A426F620D5047002D20380E9
:10051000D924CFB41A00EF5004C2E5D20402068EEB
:10052000D20180C6D20080C0D20280BCD2D580BAAF
:10053000D20580B47F2012047D2002077401B56DBE
:100540000040F1120442FF12047D0204B6D208D228
:10055000068095120442FB120442FA120442F94A40
:100560004B7006795F7A077BFF20022EE56D602ACB
:100570007E008E8275830012143C60060EEE656E5E
:1005800070F0C2D5EBC0E0EAC0E0E9C0E0EE1206D0
:10059000D5D0E0F9D0E0FAD0E0FB121423FF60AA36
:1005A000EBC0E0EAC0E0E9C0E012047DD0E0240145
:1005B000F9D0E03400FAD0E0FBE56E0460DCD56EE3
:1005C000D980877BFF7A0679D1D202809C7910800E
:1005D000027908C206C2088008D2D5790A80047957
:1005E0000AC2D5E56E047002F56EE4FAFDFEFF1254
:1005F0000442FC7B08200113120442FD7B103000F2
:100600000A120442FE120442FF7B20EC3382D59290
:10061000D55013C3E43000069FFFE49EFEE42001A2
:10062000039DFDE49CFCE4CBF8C201EC700CCFCE42
:10063000CDCCE824F8F870F38017C3EF33FFEE3326
:10064000FEED33FDEC33FCEB33FB994002FB0FD89E
:10065000E9EB300105F8D0E0C448B201C0E00AEC93
:100660004D4E4F78207B0070C2EAB56E0040BCC092
:10067000E01206D7D0F0D0E0200104C4C0E0C4B23C
:1006800001C0F0120466D0F0D5F0EB0204B61214EB
:100690008B05535305CD5805244C05204205D14FF9
:1006A00005D94405D94905394305DF5505C3460534
:1006B000C34505C347077F5005282D052C2E054F40
:1006C0002B053023054D2007682A04E84800000563
:1006D000473F3F3F00790AA2D5200314300509B9EE
:1006E00010020404B9080104A2D520060250010436
:1006F0002002689202B56D005034C0E07F203003C4
:10070000197F30A20272067205500F12072EC20224
:10071000C206C205C2087F30800F300503E9C0E081
:1007200012047D300503D0E0F9D0E0B56DCC300582
:10073000177F30B9100C12047D7F583004077F7882
:100740008003B9080312047D3002057F2D02047D69
:100750007F202008F87F2B2006F322920280CF28EA
:100760006E756C6C2900D2011204423001F8C2018E
:10077000786D30D50108F60204E82D50434958122F
:1007800004422403B405004001E490077A93120464
:100790006E743A12046ED203756D040205CDD294C4
:1007A000C29412241DD2941223FC7BFF7A1879D7AD
:1007B0001204A4C28912232A8F5612236ED2A8D201
:1007C000AF7BFF7A1879DE1204A4E547B402FBC2BE
:1007D0009412241D12241DE4F55612241D7BFF7A69
:1007E0001879EA1204A412216DEF60090556E55646
:1007F000C3940540E5C2957BFF7A1879F31204A4EF
:100800007F717C187DF91223E91200068F56E55698
:1008100064B36009E556644260030208CCE556B44F
:10082000B308755B19755C098006755B19755C0CFE
:100830007560FF855B61855C627BFF7A19791812B0
:1008400004A4E4F5577F71AD5CAC5B1223E98F56CD
:1008500074712FF8A6571200068F56E55664426051
:100860002FE556B4431A75600085576175620075AF
:1008700063007564717BFF7A1979261204A48007DE
:10088000AF5612236E80090557E557C394FE40B555
:10089000755B19755C3EE4F556855C82855B83E487
:1008A00093FF74002556F582E43400F583EFF06081
:1008B0000F055CE55C7002055B0556E556B4FFD993
:1008C00075590085565A7558010209E2AF56122330
:1008D0006E7BFF7A19795A1204A4E4FF7E78FDFC3E
:1008E000AB4BAA4AA949A848D3121371400B7558BB
:1008F0003C755978755A00801FE54B24FFFFE54A87
:100900003401FEE43549FDE43548FC7809121382D0
:100910008F58854A59854B5A7BFF7A197960854BE8
:1009200063854A62854961854860855964855A6551
:100930007566008558671204A47871A658E54B24A3
:10094000FFF54BE54A3401F54AE43549F549E4350C
:1009500048F5481224458F56C3E54B94FFF54BE507
:100960004A9401F54AE5499400F549E5489400F5B3
:100970004812236E7BFF7A19797A1204A4121FA2FF
:100980008F5612236E900064E0F556E4F075600116
:100990007561007562007BFF7A1979811204A49059
:1009A0000064E556F0E4FFFEC3EF955AEE9559500A
:1009B0003174002FF58274003EF583E0F557C3943F
:1009C000614018E557D3947A5011E55724E0FD743F
:1009D000002FF58274003EF583EDF00FBF00010E8D
:1009E00080C6C2967BFF7A19798D1204A47F717C30
:1009F000197D951223E9120F868F5612236E7BFF05
:100A00007A1979A21204A47871A6581224508F562C
:100A100012236E7BFF7A1979A91204A4787976FFE4
:100A200074FF7877F608F6787576300876B2AE59A6
:100A3000AF5AE4FCFD78711213C11216E08F561202
:100A4000236E7BFF7A19797A1204A4E47871F61286
:100A50001FA28F5612236ED296D2957BFF7A1979F8
:100A6000B11204A4E547B401FBD29412241D122450
:100A70001D0207C1E547C39403500712206AEF60C7
:100A8000012212242CE4F526F525F524F523121A6B
:100A9000B2EF600A1222B4121AB2EF600122907E05
:100AA00000E0FF64EB6037EF64E96032E4FDED6481
:100AB00040602874C22DF582E4347FF583E0601530
:100AC000ED7E0024C6FFEE347FFE12240D907800E8
:100AD0001213CD801374102DFD80D37F9222907855
:100AE000001213F200000000907800E0FCA3E0FD8B
:100AF000A3E0FEA3E0F5268E258D248C23121AB2E6
:100B0000EF600122907E00E0FF64EB6008EF64E993
:100B100060037FA122907E0DE0F52230E605752E60
:100B200006802E30E505752E05802630E405752EED
:100B300004801E30E305752E03801630E205752E05
:100B400002800E30E105752E018006752201E4F564
:100B50002E7E7E7F1612245B907806EEF0A3EFF0D7
:100B60004E70287E7E7F2412240D8F328E318D3080
:100B70008C2FE4FBFA7901F8D312137150037FA292
:100B800022907806E531F0A3E532F0907E14E0FF84
:100B9000907E13E04F60127E7E7F1312245BE48F01
:100BA0003F8E3EF53DF53C800F7E7E7F2012240D6A
:100BB0008F3F8E3E8D3D8C3C7E7E7F1112245BEFFD
:100BC000240FFFE43EC4F854F0C868FEEFC4540F8D
:100BD00048FFE4FCFD90780C1213CD7E7E7F0E1250
:100BE000245BE48F368E35F534F533907806E0FEDD
:100BF000A3E0FFEF2536FFEE3535FEE43534FDE4A6
:100C00003533FC90780CE0F8A3E0F9A3E0FAA3E018
:100C10002FF546EA3EF545E93DF544E83CF54390BD
:100C20007E10E0D394014021907806E0FEA3E0FF1F
:100C3000E4FCFDE5462FF546E5453EF545ED35443A
:100C4000F544EC3543F5438007E4907806F0A3F0D3
:100C5000C3E53F9546FFE53E9545FEE53D9544FDE0
:100C6000E53C9543FCA82E1213829078081213CD10
:100C7000E47BF57AFFF9F8D3121371401FE4907802
:100C800004F0A3F090780AE0FEA3E094F5EE940F50
:100C90005005754C018024754C02801F7E7E7F308C
:100CA00012245B907804EEF0A3EFF07E7E7F2C128E
:100CB000240D90780C1213CD754C03907800E0FC55
:100CC000A3E0FDA3E0FEA3E02536F536EE3535F5CD
:100CD00035ED3534F534EC3533F533907800A3A396
:100CE000A3E02546F546EE3545F545ED3544F5449A
:100CF000EC3543F5437D107F03122350228D5DEFC9
:100D0000C8E54CB402071213A878018008B4031296
:100D10001213A878021213958F618E608D5F8C5E1E
:100D200080231213A88E5E8F5FEF139209E55EC3D6
:100D300013FEE55F13255FFFE55E3EFEE48F618EE7
:100D400060F55FF55EEE5401FEEF2400F52DEE3404
:100D50007EF52CAF61AE60AD5FAC5E122465EF2511
:100D600036F561EE3535F560ED3534F55FEC35334C
:100D7000F55EE561652A7012E5606529700CE55F36
:100D800065287006E55E6527601D300A07121ECCD7
:100D9000EF600122855E23855F24856025856126BD
:100DA000121AB2EF600122E55D6023B4FF028006F3
:100DB000E55DB4010BE4F561F560F55FF55E800C6F
:100DC000852F6185306085315F85325ED20AE54CC2
:100DD0006402703F852D82852C83E0F538A3E0F511
:100DE0003985383B85393AE4F538F539AE3AAF3BC9
:100DF000C3EF94F7EE94FF4003D38001C39209E55B
:100E00005D600D852D82852C83E55EF0A3E55FF0A6
:100E10007F0022E54C6403705A852D82852C83E087
:100E2000FCA3E0FDA3E0FEA3E0F53B8E3A8D398CF8
:100E300038E53B54F0FFE561540F4FF561E53B5455
:100E40000F85383BF538AF3A85393A8F39AF38EFEF
:100E5000C3940F4003D38001C39209E55D6011AFD5
:100E600061AE60AD5FAC5E852D82852C831213CDA3
:100E70007F0022535F0FC3E52D9400FFE52C947E85
:100E8000FEEFF47003EE6401604D852D82852C83A6
:100E9000E0F538A3E0F539E55D7003020F4C300949
:100EA00023E55EC454F0FFE538540F4F852D82854D
:100EB0002C83F0E55FC454F0FFE55EC4540F4FA3EC
:100EC000F0020F4C852D82852C83E55EF0E53954C8
:100ED000F0455FA3F08075852D82852C83E0F53881
:100EE000E55D602230090EE55EC454F0FFE538543C
:100EF0000F4FFF8002AF5E852D82852C83EFF012AD
:100F00001ECCEF600122E52A2401F526E43529F5FF
:100F100025E43528F524E43527F523121AB2EF60CD
:100F20000122907E00E0F539E55D602030090FE593
:100F30005FC454F0FFE55EC4540F4FFF8007E539EE
:100F400054F0455FFF907E00EFF0D20A300913E5C0
:100F500039C454F0FFE538C4540F4FF53BE539C4AC
:100F6000800585383BE539540FF53AE4F538F53915
:100F7000AE3AAF3BC3EF94F7EE940F4003D380013A
:100F8000C392097F00221200068F37E537700A12DC
:100F90001B52EF70030210CF22E53764426003AFAB
:100FA0003722C3E54294E0E541940150030210CF9B
:100FB000E53F700FE53C700BE53D7007E53E7003C3
:100FC00002106DC3E5509546FFE52214FE5FF5372C
:100FD000E5426008EE653760030210CF7F3CE4FD18
:100FE000120CFDEF6001222009030210CF1215E55B
:100FF000EF6001227F3C7D02120CFDEF60012212A6
:101000001ECCEF60012212242CE4FFFEEE64024F9E
:10101000601374002FF582747E3EF583E4F00FBFF9
:1010200000010E80E7E4F537122205E5427010F565
:1010300041F54285265085254F85244E85234D85D3
:101040002238E5386020121BF5EF600122E52624E6
:1010500001F526E43525F525E43524F524E435238A
:10106000F523153880DC121F37EF606322E54270EC
:101070005EE55024FFF550E54F34FFF54FE54E3463
:10108000FFF54EE54D34FFF54DF523121AA9EF603B
:101090000122E4F541F542C3E5419402502E74006B
:1010A0002542FF747E35418F82F583E0B4E510E57B
:1010B00082240BF582E43583F583E0540E601074CE
:1010C000202542F542E43541F54180CB7FB2221222
:1010D00015E5EF600122121ECCEF60012285323F40
:1010E00085313E85303D852F3C121F37EF60012250
:1010F000121AA6EF60012274002542FF747E35416A
:10110000FEE4FDEDC3940B50047C2080027C00EFD4
:101110002DF582E43EF583ECF00DBD20E6EF2418BA
:10112000F582E43EF5837421F0A37430F0EF241CC3
:10113000F582E43EF5837401F0E4FDEDC3940B50B9
:1011400021A82BE6FC601BECB42E047D08052BA81F
:101150002BE6FCEF2DF582E43EF583ECF00D052B3C
:1011600080D9853F38853E39853D3A853C3BEF2423
:101170001AF582E43EF583E538F0A3E539F0EF2473
:1011800014F582E43E121BECEF600122853F3285AC
:101190003E31853D30853C2FE4F54BF54AF549F568
:1011A00048F555F554F553F552F5377D147F101277
:1011B000235022E547D394145007E547C3941250B7
:1011C000037FB4227871E6FF08F67006300B030245
:1011D000136BE47871F67873F608F67872E67003AC
:1011E0000212EFE537F4704AE53F700CE53C7008F9
:1011F000E53D7004E53E602DE547B41209E54C6419
:101200000360037FB122AF32AE31AD30AC2F787BBB
:101210001213C11215F1EF6001227F7B7D02120CC7
:10122000FDEF600822121DF3EF600122787416E4CE
:10123000F5371222057873E6C39440502FE66037E5
:10124000E6FFE4FCFDFE78751213B4EF2BFFEE3AD7
:10125000FEED39FDEC38FCEF6526FFEE6525FEED71
:101260006524FDEC6523FC4D4E4F600B1217D5EF46
:10127000600122E47873F67873E6700DAF26AE2530
:10128000AD24AC2378751213C1C3E5229537FF78DE
:1012900072E6FEEFD39E400CE60826F618E62537E8
:1012A000F537804B7873EF26F6C318E69FF6E670A5
:1012B000187400787A667004747E1866700B1217C2
:1012C000D5EF600122E47873F67F2FE4FD120CFD68
:1012D000EF6001223009067537FF0211DB85382FD8
:1012E000853930853A31853B32E4F5370211DB3000
:1012F0000A07121ECCEF6001227873E6600712170E
:10130000D5EF6001227874E66035AF32AE31AD3092
:10131000AC2F787B1213C17874E6FFE4EFF53274DA
:10132000FFF531F530F52F121F41CBEFCB787B1253
:1013300013A88F328E318D308C2FEB6002FF22AFDD
:1013400055AE54AD53AC52AB4BAA4AA949A848C3B9
:10135000121371500E85554B85544A855349855259
:1013600048D20BE54030E406300B030221BE7F007B
:1013700022EB9FF5F0EA9E42F0E99D42F0E89C45A1
:10138000F022E8600FECC313FCED13FDEE13FEEF4B
:1013900013FFD8F122E8600FEFC333FFEE33FEED09
:1013A00033FDEC33FCD8F122E6FC08E6FD08E6FE4E
:1013B00008E6FF22E6FB08E6F908E6FA08E6CBF8BD
:1013C00022ECF608EDF608EEF608EFF622ECF0A3B4
:1013D000EDF0A3EEF0A3EFF022D083D082E493F6F9
:1013E00008740193F608740293F608740393F67474
:1013F0000473A8828583F0D083D08212140912145A
:1014000009121409121409E473E493A3C583C5F007
:10141000C583C8C582C8F0A3C583C5F0C583C8C548
:1014200082C822BB010689828A83E0225002E72219
:10143000BBFE02E32289828A83E49322BB010CE58E
:101440008229F582E5833AF583E0225006E9258278
:10145000F8E622BBFE06E92582F8E222E58229F5BC
:1014600082E5833AF583E49322BB010689828A836D
:10147000F0225002F722BBFE01F322FAE6FB080835
:10148000E6F925F0F618E6CA3AF622D083D082F8BB
:10149000E4937012740193700DA3A393F8740193F5
:1014A000F5828883E4737402936860EFA3A3A3803A
:1014B000DFE547D394145007E547C3941250037FE8
:1014C000B4227871E608F6E418F67873F6C3E54BB3
:1014D0009555FFE54A9554FEE5499553FDE5489538
:1014E00052FC1224658F3B8E3A8D398C38E5397069
:1014F00004E53A6006787476FF80047874A63B7839
:1015000072E670030215DA7874E670030215DAE504
:1015100037F470030215DA1222057873E6C394409B
:10152000502FE66037E6FFE4FCFDFE78751213B439
:10153000EF2BFFEE3AFEED39FDEC38FCEF6526FFB0
:10154000EE6525FEED6524FDEC6523FC4D4E4F60F8
:101550000B1219BBEF600122E47873F67873E67022
:101560000DAF26AE25AD24AC2378751213C1C3E5AB
:10157000229537FFF5387874E6FEEFD39E4003E6F8
:10158000F538E538D3787296400CE60826F618E66A
:101590002537F5378049C37872E69538F608E5387F
:1015A00026F6C308E69538F6E5382537F53765227F
:1015B00060030214FF7F2FFD120CFDEF600122304B
:1015C00009067537FF0214FF85382F853930853AB3
:1015D00031853B32E4F5370214FF7873E66003028D
:1015E00019BB7F0022853F32853E31853D30853CE9
:1015F0002F907808E0FCA3E0FDA3E0FEA3E0FFABA2
:1016000032AA31A930A82FD312137140037FB1221F
:10161000E5322401F532E43531F531E43530F53089
:10162000E4352FF52F7F2FE4FD120CFDEF60012232
:10163000E53B700FE538700BE5397007E53A70034C
:101640000216D8E54C640160A8752C7E752D00E566
:101650004C640270337538FF7402252DF52DF58228
:10166000E4352CF52CF583E07015A3E07011852D81
:1016700082852C8374FFF0A3F0E538F4048049D50B
:1016800038D67532FF0215F175387F7404252DF5B3
:101690002DF582E4352CF52CF583E07032A3E07053
:1016A0002EA3E0702AA3E0540F7024852D82852C90
:1016B0008374FFF0A3F0A3F0A3E0440FF0E53254ED
:1016C00080FFC3748095384FF532D20A7F0022D54F
:1016D00038B943327F0215F17F2F7DFF120CFD22B6
:1016E000E547C3941350037FB422121AA6EF60019A
:1016F00022C20A74002542FB747E3541FA7879E6ED
:10170000FFEB240BF582E43AF583E0F6EFF4601387
:101710008B828A83E582240BF582E43583F583EF9F
:10172000F0D20A7877E6F53B08E6F53AEB2416FFA7
:10173000E43AFE12245B18EEF608EFF6E53AF4FE02
:10174000E53BF44E6012EB2416F582E43AF583E5AE
:101750003AF0A3E53BF0D20A7875E6F53B08E6F5EA
:101760003AEB2418FFE43AFE12245B18EEF608EF79
:10177000F6E53AF4FEE53BF44E6012EB2418F582F0
:10178000E43AF583E53AF0A3E53BF0D20A7871122A
:1017900013A8787D1213C1EB241CFFE43AFE122437
:1017A0000D78711213C1787DE6F4601E1213A88FB4
:1017B0004B8E4A8D498C48122479EB241CF582E427
:1017C0003AF5831213CDD20AC20B300A05C20A02BF
:1017D0001BF57F0022E4F53A90BDF17456F000004D
:1017E0000000E4F5517878E690BCF0F0000018E6CF
:1017F000F0000018E6F0000018E6F000007873E64C
:10180000F085403BE54013135403FFE54054FC4F83
:10181000F540E675F008A4F53985F038122480E526
:1018200051641E707BE53B540C60137879E6FE082A
:10183000E6FF121D117879EEF608EFF6801790BDDD
:10184000F1742BF000000000E4F55190BCF07440FE
:10185000F0FF12249490BDF17457F0E5552440F543
:1018600055E43554F554E43553F553E43552F55207
:10187000E5396009D539A5E5386008809F15381528
:10188000398099853B40122480E551B41412E5401B
:1018900020E50312248A7873E6787126F67F002209
:1018A000853B40E53AC39405501C12211AE540548B
:1018B0000C7004FF122494E53AC394014003121EF5
:1018C00060053A0217D8121E60224572726F723A92
:1018D00020253032580A0053746172740A0057612F
:1018E000697420556469736B0A00526561647920DC
:1018F0003F0A004F70656E0A005C4335315C434817
:101900003337354846542E43005C2A005C4335315A
:101910005C43483337352A004C6973742066696C20
:10192000652025730A0020206D6174636820666954
:101930006C652025303364233A2025730A00D5D204
:10194000B2BBB5BD2F4335312F43483337354846F9
:10195000542E43CEC4BCFE0D0A00526561640A00D9
:1019600053697A653D256C642C204C656E3D256479
:101970002C205365633D25640A00436C6F73650A30
:10198000004C696E6520313A2025730A0043726568
:101990006174650A005C4E455746494C452E5458C3
:1019A000540057726974650A004D6F646966790A5C
:1019B0000054616B65206F75740A00E4F53A90BDC0
:1019C000F17454F000000000E4F5517878E690BC22
:1019D000F0F0000018E6F0000018E6F0000018E64D
:1019E000F000007873E6F085403BE54013135403A4
:1019F000FFE54054FC4FF540E675F008A4F5398545
:101A0000F038122480E551641D7071E53B540C6080
:101A1000137879E6FE08E6FF121D837879EEF60862
:101A2000EFF6801590BDF17428F000000000E4F599
:101A30005190BCF0E0FF12249390BDF17455F0E595
:101A4000552440F555E43554F554E43553F553E445
:101A50003552F552E5396009D539A7E53860088077
:101A6000A115381539809B853B40122480E551B47F
:101A7000140A7873E6787126F67F0022853B40E5EC
:101A80003AC39405501C12211AE540540C7004FF0F
:101A9000122493E53AC394014003121E60053A02F2
:101AA00019BE121E6022854D23854E24854F258543
:101AB0005026E526652A7015E5256529700FE52471
:101AC00065287009E52365277003021B4FE4F53A8A
:101AD00090BDF17454F000000000E4F55190BCF0AA
:101AE000E526F00000E525F00000E524F00000E523
:101AF00023F000007401F075277E75280075390801
:101B0000122480E551641D702BAF28AE27121D836F
:101B10008E278F2890BDF17455F0D539E3852327A2
:101B200085242885252985262A122480E551B41488
:101B3000037F0022E53AC39405500EE53AC39401B1
:101B40004003121E60053A808712242C021E607F1B
:101B50000022E547C394135007120006EF600122EC
:101B600012234CEF600122121AA6EF6001227400CA
:101B70002542FF747E35418F82F58374E5F0121B98
:101B8000F5EF600122AF3FAE3EAD3DAC3C8F3B8EEA
:101B90003A8D398C38EC4D4E4F604EE53F24FFF5C1
:101BA0003FE53E34FFF53EE53D34FFF53DE53C3491
:101BB000FFF53CE4F532F531F530F52F7F387D0146
:101BC000120CFDEF600122E5322401F532E43531DB
:101BD000F531E43530F530E4352FF52F3009DD12DD
:101BE0001ECCEF600122021F417F0022F583E53AFF
:101BF000F0A3E53BF0E4F53A90BDF17456F0000037
:101C00000000E4F55190BCF0E526F00000E525F079
:101C10000000E524F00000E523F000007401F075F9
:101C2000277E752800753908122480E551641E70DE
:101C300033AF28AE27121D118E278F2890BDF17467
:101C400057F0D539E385232785242885252985263E
:101C50002A122480E551B4140BE54020E503122438
:101C60008A7F0022E53AC39405500FE53AC39401F8
:101C70004003121E60053A021BF812242C021E605B
:101C8000E53F700CE53C7008E53D7004E53E607290
:101C9000853F32853E31853D30853C2FAF22E4FCC7
:101CA000FDFE78711213B4C312137140387F2FE414
:101CB000FD120CFDEF60012220094785382F853980
:101CC00030853A31853B3278711213A8AB22C3EFCD
:101CD0009BFFEE9400FEED9400FDEC9400FC787107
:101CE0001213C180B77874E6FFE522145FF537124E
:101CF0002205AF26AE25AD24AC2378711213C17F27
:101D000000227537FF78711213D9FFFFFFFF7F00A4
:101D10002290BDF1742BF0E4F551E54054036403C7
:101D2000FD744090BCF0F0CD602A1460118F828E5B
:101D300083E090BCF0F00FBF00010EDDF02205A2A1
:101D40008F828E83E0A305A2F005A2DDF7AF82AEFD
:101D50008305A222EFC582F9EEC583C5A0F5F07D0B
:101D600008E0A3F3E0A3F3E0A3F3E0A3F3E0A3F31D
:101D7000E0A3F3E0A3F3E0A3F3DDE685F0A0AF82F8
:101D8000AE832290BDF17428F0E4F551E540540390
:101D90006403FD90BCF0E0CD602A14601190BCF0AB
:101DA000E08F828E83F00FBF00010EDDF02205A2CE
:101DB0008F828E8305A2E005A2F0A3DDF7AF82AE8D
:101DC0008305A222EFC582F9EEC583C5A0F5F07D9B
:101DD00008E3F0A3E3F0A3E3F0A3E3F0A3E3F0A3AD
:101DE000E3F0A3E3F0A3E3F0A3DDE685F0A0AF8288
:101DF000AE83221215F1EF600122121ECCEF6001BA
:101E00002285323F85313E85303D852F3C121AA612
:101E1000EF60012274002542FF747E3541FEF58398
:101E2000EF241CF582E43583F5837401F0853F3897
:101E3000853E39853D3A853C3B8F828E83E5822401
:101E40001AF582E43583F583E538F0A3E539F08FA0
:101E5000828E83E5822414F582E43583121BEC2202
:101E6000753932122485D539FA90BDF17422F0000B
:101E700000000090BCF0E0E5516416600FE5476497
:101E80000160097F201223A8EF20E5067547017F36
:101E90008222300C19E547C394034012855139E47E
:101EA000F55190BDF1745AF0122480853951E547FF
:101EB000B41205754703800AE547D39410400375B3
:101EC0004710E55170037F1022AF512285272385EB
:101ED0002824852925852A26121BF5EF60012290EA
:101EE0007806E0FEA3E0FF4E6048E4FCFDE5262F07
:101EF000F526E5253EF525ED3524F524EC3523F5CD
:101F000023121BF5EF600122907806E0FAA3E0FBB4
:101F1000C3E5269BF526E5259AF525E5249400F5ED
:101F200024E5239400F523F5278524288525298594
:101F3000262AC20A7F002274FFF532F531F530F50A
:101F40002F907804E0FEA3E0FF4E700122E4FCFD38
:101F5000907800E0F8A3E0F9A3E0FAA3E02FF526DB
:101F6000EA3EF525ED39F524EC38F523121AB2EFE7
:101F70006001227E7F7FE812240DE5322FF532E5E5
:101F8000313EF531E5303DF530E52F3CF52FAF32F0
:101F9000AE31AD30FC122479907FE81213CD121BC4
:101FA000F522E547C3941250037FB422E547B412EB
:101FB00039E54C6403603390780FE0F522E54AC3BD
:101FC00013FF7E00E4FCFD90780C1213CD90780F87
:101FD000E0FFE4FCFDFEE5462FF546EE3545F54510
:101FE000ED3544F544EC3543F543E547D3941340D0
:101FF0000AE547B414077871E67002C20B300B078C
:102000001221BEEF60012212234C227537057D0696
:102010007F651223D5E4F54790BCF0E0B49A0F7DBC
:10202000067F9A1223D590BCF0E064656009122304
:1020300006D537DA7F812290BDF17401F0000000EF
:1020400000C20C90BCF0E0C394A24002D20C7547D1
:10205000017D157F061223D57F011223BF90BCF0AE
:10206000E0B45F037F81227F002212227DEF6003B4
:102070007F82227F5112238CE551703D7D037F02C8
:10208000122350300C307F381223A8EF602812241E
:102090006F907E00E0B4051E90BDF1740BF000005F
:1020A000000090BCF07434F000007401F07F58120E
:1020B000238CE55170037F00227D027F02122350A2
:1020C000021E60E547C3941250037FB422AF4BAEAB
:1020D0004AAD49AC481224658F3B8E3A8D398C3815
:1020E00078711213B4D3121371400DAF3BAE3AADF9
:1020F00039AC3878711213C178711213A8780112B3
:1021000013958F3B8E3A8D398C38853952853A53E9
:10211000853B54E4F555121C80227873E67D00253A
:10212000E0FCE539AE387806C333CE33CED8F9FFBC
:10213000C3ED9FF539EC9EF538AE38AF39CBEFCB18
:10214000CAEECAC3E5559FF555E5549AF554E553D3
:102150009400F553E5529400F552C3E49539FFE439
:102160009538FE787AEF26F618EE36F62212227DA2
:10217000EF60037F8222E547C39403501B12206A5D
:10218000EF600C7F321223BF12206AEF600122122F
:1021900022B4EF6003021E60300C207F5912238CA2
:1021A000AF518F38EF7002FF227F0A1223BF7F5A90
:1021B00012238C7F021223BFAF38227F0022C20B72
:1021C000E547C39414403B121AA6EF600122740045
:1021D0002542FB747E3541FAF583EB240BF582E44E
:1021E0003583F583E020E41AAF4BAE4AAD49AC48E5
:1021F000122479EB241CF582E43AF5831213CD0204
:102200001BF57F0022E53224FEFFE53134FFFEE5B9
:102210003034FFFDE52F34FFFCA82E121395EF2577
:1022200046FBEE3545FAED3544F9EC3543F8E4FC70
:10223000FDFEEB2537F526EE3AF525ED39F524ECD4
:1022400038F52322C0E0C083C082C0D090BDF174B5
:1022500022F0535180E551600375510090BCF0E0CD
:10226000F551E551B416057547018008E551B415DF
:1022700003754702D0D0D082D083D0E03290BDF138
:102280007422F00000000090BCF0E0E4F5517F20E3
:102290001223A8EF30E517E547C39402400A7F1BDD
:1022A0001223A8EF547F70037547027F0022754701
:1022B000017F82227538087F5312238CAF518F3BE8
:1022C000EF7002FF227F0A1223BF300C057F5A12E3
:1022D000238C7F141223BFD538DDAF3B8F5122EF03
:1022E000B40A07740D1222EA740A309811A899B83A
:1022F000130CC2983098FDA899C298B811F630997D
:10230000FDC299F59922753A8090BDF17401F000F3
:1023100000000090BCF0E0FFD53AEE90BDF17405EE
:10232000F0000000007F320223BFE581D394F0402B
:10233000037FFC2275408FE4907E00F012248FEF23
:10234000C3943050037FFF2212200B227D107F1098
:10235000E547C39F40028D47E5476D7002FF227538
:10236000470112227DEF60037F82227F8322EF608C
:102370001A7BFF7A1879CA7560008F611204A4C2B3
:102380009412241DD29412241D80F422E4F551905D
:10239000BDF1EFF0122480E551700475511022E573
:1023A00051B41403E4F5512290BDF1740AF0000019
:1023B000000090BCF0EFF000006003E0FF2222EF8D
:1023C00075F005A4F53AE53A600A122485122485D1
:1023D000153A80F22290BDF1EDF000000000E4F526
:1023E0005190BCF0EFF00000228D828C83A807E4AE
:1023F000FFE493F6600508A30F80F62275985075E8
:102400008780758920758DF3D28ED299228F828E26
:1024100083E0FFA3E0FEA3E0FDA3E0FC227FC87EF3
:10242000C87403255DF55DDEF8DFF42274FFF52A3C
:10243000F529F528F527C20A22787FE4F6D8FD753C
:10244000818E02079E787976000876001214B122F8
:10245000787976000876001211B3228F828E83E09D
:10246000FFA3E0FE22C3E4CC13CD13CE13FF221250
:10247000242C7E7E7F00021D83EFCCFFEECDFE225A
:10248000E55160FC227F96DFFE227FFADFFE227F8D
:0524900030222222228F
:00000001FF
