:10000000021D9190BDF17422F00000000090BCF040
:10001000E0FFE547C39410500712079BEF600122F1
:10002000121CA9EF600122C20B7856E6645C6004E2
:10003000E6B42F05752B5780177857E6643A6003AE
:100040000200E318E6C3944350030200E3752B5902
:10005000E54CB4031090020CE0FCA3E0FDA3E0FE2D
:10006000A3E0FF8005E4FFFEFDFC8F3F8E3E8D3D4B
:100070008C3CA82BE6706F74FFF54BF54AF549F5FB
:1000800048E54C6403603F753F0290020FE0FBC3FC
:10009000E5469BF546E5459400F545E5449400F5B5
:1000A00044E5439400F54390020EA3E025E0FEE40E
:1000B000F54B8E4AF549F548AF22FCFDFE90020C47
:1000C000120F36752280853F32853E31853D308561
:1000D0003C2FE4F555F554F553F552F537754712B5
:1000E0007F4122752B56A82BE6B4E5027605E53F45
:1000F000700CE53C7008E53D7004E53E60328522F9
:1001000037E53F24FEFFE53E34FFFEE53D34FFFDCD
:10011000E53C34FFFCA82E120EFEEF2546F550EE0E
:100120003545F54FED3544F54EEC3543F54D801F23
:1001300090020FE0F537CBC3E5469BF550E54594BB
:1001400000F54FE5449400F54EE5439400F54DE588
:100150003770030203F2121381EF600122E4F541CC
:10016000F542C3E541940240030203D874002542DE
:10017000F52D74003541F52C852D82F583E0FF7057
:100180000302041FEF64E570030203CABF05027F88
:10019000E5A82BE6FE6F6008EE642A60030203CA3E
:1001A000E4F53BFFEFC3940B5078E52D2FF582E487
:1001B000352CF583E0FEAD3BE52B2DF8EE66605D5A
:1001C000AD3BE52B2DF8E66015AD3BE52B2DF8E6B4
:1001D000645C600AAD3BE52B2DF8E6B42F1FEE649E
:1001E00020703FEFC394085010E52D2408F582E4F9
:1001F000352CF583E0642070297F0B8025AE3BE52C
:100200002B2EF8E6B42E1BE53B6408600EE52D2F7F
:10021000F582E4352CF583E0B420077F070F053B1A
:100220008082EFC3940B500302030BE52D240BF5E2
:1002300082E4352CF583E030E30302030BC209E5C9
:100240002D241AFFE4352CFE121D9DE48F3F8E3EB7
:10025000F53DF53CE54CB40310E52D2414FFE435E1
:100260002CFE121D9D8E3C8F3DAF3BE52B2FF8E6FB
:100270006006200903020301853F32853E31853D3A
:1002800030853C2FE4F555F554F553F552F537E537
:100290002D240BF582E4352CF583E030E41F74FF48
:1002A000F54BF54AF549F5487D137F10121CADEF6B
:1002B0006001223009047F4380027F4122E52D2422
:1002C0001CFFE4352CFE121D678F4B8E4A8D498C26
:1002D00048E53F7017E53C7013E53D700FE53E7053
:1002E0000B7537FFF54BF54AF549F5487D147F103E
:1002F000121CADEF6001223009047F4380027F00B1
:1003000022E53B04252BF52B0200E6AF3BE52B2F26
:10031000F8E6642A60030203CAE52D240BF582E4A3
:10032000352CF583E030E3030203CAE53B04252BBB
:10033000F8E67053E4FFF539E52D2FF582E4352C0E
:10034000F583E06420602FBF080AAE39E52B2EF854
:10035000762E0539E52D2FF582E4352CF583E0FE68
:10036000AD39E52B2DF8EEF6E5397008A82BE6B48B
:10037000050276E505390FBF0BBEAF39E52B2FF827
:10038000E4F6D20902023FE53B04252BF8E6F470BF
:1003900032E54B700CE5487008E5497004E54A60A9
:1003A00093E54830E703121DD8E54B24FFF54BE5F4
:1003B0004A34FFF54AE54934FFF549E54834FFF58D
:1003C000488007E53B04252BF81674202542F542AA
:1003D000E43541F541020162E5502401F550E43570
:1003E0004FF54FE4354EF54EE4354DF54D153702DA
:1003F000014FE53F700CE53C7008E53D7004E53EBB
:10040000601D7F3CE4FD120A24EF60012220090FE9
:1004100085383C85393D853A3E853B3F0200E6E420
:10042000FFE52B2FF8E6FE6013642A600FEE645C94
:100430006004EEB42F037FB3220F80E57F4222E5F4
:1004400018240CF8E60518227809300702780CE425
:1004500075F001120FE4020F8C2000EB7F2ED2000A
:100460008018EF540F2490D43440D4FF30040BEFA5
:1004700024BFB41A0050032461FFE5196002151966
:10048000051CE51C7002051B30070D7809E475F0AA
:1004900001120FE4EF020FD2021C1A7403D207807C
:1004A00003E4C207F5188B098A0A890BE4F519F5EC
:1004B0001BF51CE51960077F2012047A80F5751A78
:1004C000FFC201C200C202C203C205C206C20812B4
:1004D0000448FF700D3007057F0012048BAF1CAE7F
:1004E0001B22B4255FC2D5C204120448FF24D0B435
:1004F0000A00501A75F00A781930D50508B6FF01C0
:1005000006C6A426F620D5047002D20380D924CFD3
:10051000B41A00EF5004C2E5D20402068BD2018067
:10052000C6D20080C0D20280BCD2D580BAD20580AB
:10053000B47F2012047A2002077401B5190040F13B
:1005400012043FFF12047A0204B3D208D206809547
:1005500012043FFB12043FFA12043FF94A4B7006A3
:10056000795C7A077BFF20022EE519602A7E008ED7
:1005700082758300120FA560060EEE651A70F0C238
:10058000D5EBC0E0EAC0E0E9C0E0EE1206D2D0E070
:10059000F9D0E0FAD0E0FB120F8CFF60AAEBC0E0CC
:1005A000EAC0E0E9C0E012047AD0E02401F9D0E02A
:1005B0003400FAD0E0FBE51A0460DCD51AD9808754
:1005C0007BFF7A0679CED202809C7910800279086E
:1005D000C206C2088008D2D5790A8004790AC2D539
:1005E000E51A047002F51AE4FAFDFEFF12043FFC5E
:1005F0007B0820011312043FFD7B1030000A120417
:100600003FFE12043FFF7B20EC3382D592D550137E
:10061000C3E43000069FFFE49EFEE42001039DFD3D
:10062000E49CFCE4CBF8C201EC700CCFCECDCCE85E
:1006300024F8F870F38017C3EF33FFEE33FEED3389
:10064000FDEC33FCEB33FB994002FB0FD8E9EB30B8
:100650000105F8D0E0C448B201C0E00AEC4D4E4FAD
:1006600078207B0070C2EAB51A0040BCC0E01206D8
:10067000D4D0F0D0E0200104C4C0E0C4B201C0F086
:10068000120463D0F0D5F0EB0204B3120FF405505E
:100690005305CA5805214C051D4205CE4F05D644C9
:1006A00005D64905364305DC5505C04605C0450558
:1006B000C047077C5005252D05292E054C2B052DFF
:1006C00023054A2007652A04E548000005443F3F0A
:1006D0003F00790AA2D5200314300509B91002049D
:1006E00004B9080104A2D5200602500104200268C2
:1006F0009202B519005034C0E07F203003197F30DA
:10070000A20272067205500F12072BC202C206C265
:1007100005C2087F30800F300503E9C0E012047A7B
:10072000300503D0E0F9D0E0B519CC3005177F30A3
:10073000B9100C12047A7F583004077F788003B90F
:10074000080312047A3002057F2D02047A7F2020EC
:1007500008F87F2B2006F322920280CF286E756C5A
:100760006C2900D20112043F3001F8C2017819301F
:10077000D50108F60204E52D5043495812043F24E0
:1007800003B405004001E49007779312046B743AB8
:1007900012046BD2037519040205CAE547C394031A
:1007A0005007121A5DEF600122121D84E4F526F550
:1007B00025F524F52312138DEF600A121BEF121397
:1007C0008DEF600122900000E0FF64EB6037EF6482
:1007D000E96032E4FDED6440602874C22DF582E4E6
:1007E0003401F583E06015ED7E0024C6FFEE340190
:1007F000FE121D67900200120F36801374102DFD3B
:1008000080D37F9222900200120F5B0000000090C4
:100810000200E0FCA3E0FDA3E0FEA3E0F5268E25A8
:100820008D248C2312138DEF600122900000E0FFD5
:1008300064EB6008EF64E960037FA12290000DE0A3
:10084000F52230E605752E06802E30E505752E055D
:10085000802630E405752E04801E30E305752E03D6
:10086000801630E205752E02800E30E105752E01EE
:100870008006752201E4F52E7E007F16121D9D90E4
:100880000206EEF0A3EFF04E70287E007F24121DCA
:10089000678F328E318D308C2FE4FBFA7901F8D3DB
:1008A000120EDA50037FA222900206E531F0A3E592
:1008B00032F0900014E0FF900013E04F60127E00D1
:1008C0007F13121D9DE48F3F8E3EF53DF53C800F5A
:1008D0007E007F20121D678F3F8E3E8D3D8C3C7EBB
:1008E000007F11121D9DEF240FFFE43EC4F854F069
:1008F000C868FEEFC4540F48FFE4FCFD90020C12E0
:100900000F367E007F0E121D9DE48F368E35F53436
:10091000F533900206E0FEA3E0FFEF2536FFEE354B
:1009200035FEE43534FDE43533FC90020CE0F8A3E9
:10093000E0F9A3E0FAA3E02FF546EA3EF545E93DEC
:10094000F544E83CF543900010E0D3940140219039
:100950000206E0FEA3E0FFE4FCFDE5462FF546E5D8
:10096000453EF545ED3544F544EC3543F543800708
:10097000E4900206F0A3F0C3E53F9546FFE53E95FF
:1009800045FEE53D9544FDE53C9543FCA82E120E41
:10099000EB900208120F36E47BF57AFFF9F8D312D8
:1009A0000EDA401FE4900204F0A3F090020AE0FE89
:1009B000A3E094F5EE940F5005754C018024754C1E
:1009C00002801F7E007F30121D9D900204EEF0A376
:1009D000EFF07E007F2C121D6790020C120F36750F
:1009E0004C03900200E0FCA3E0FDA3E0FEA3E025A1
:1009F00036F536EE3535F535ED3534F534EC353341
:100A0000F533900200A3A3A3E02546F546EE354555
:100A1000F545ED3544F544EC3543F5437D107F0352
:100A2000121CAD228D0FEFC8E54CB40207120F1156
:100A300078018008B40312120F117802120EFE8F93
:100A4000138E128D118C108023120F118E108F11A6
:100A5000EF139209E510C313FEE511132511FFE50D
:100A6000103EFEE48F138E12F511F510EE5401FEC8
:100A7000EF2400F52DEE3400F52CAF13AE12AD11BE
:100A8000AC10121DA7EF2536F513EE3535F512ED36
:100A90003534F511EC3533F510E513652A7012E5A0
:100AA000126529700CE51165287006E51065276050
:100AB0001D300A071218BFEF60012285102385112F
:100AC0002485122585132612138DEF600122E50F70
:100AD0006023B4FF028006E50FB4010BE4F513F5C3
:100AE00012F511F510800C852F1385301285311108
:100AF000853210D20AE54C6402703F852D82852C28
:100B000083E0F538A3E0F53985383B85393AE4F5DB
:100B100038F539AE3AAF3BC3EF94F7EE94FF40039C
:100B2000D38001C39209E50F600D852D82852C834A
:100B3000E510F0A3E511F07F0022E54C6403705A44
:100B4000852D82852C83E0FCA3E0FDA3E0FEA3E0DD
:100B5000F53B8E3A8D398C38E53B54F0FFE5135464
:100B60000F4FF513E53B540F85383BF538AF3A8509
:100B7000393A8F39AF38EFC3940F4003D38001C3A4
:100B80009209E50F6011AF13AE12AD11AC10852DB7
:100B900082852C83120F367F002253110FC3E52D5F
:100BA0009400FFE52C9400FEEFF47003EE64016006
:100BB0004D852D82852C83E0F538A3E0F539E50FCE
:100BC0007003020C73300923E510C454F0FFE538BC
:100BD000540F4F852D82852C83F0E511C454F0FF0E
:100BE000E510C4540F4FA3F0020C73852D82852CA1
:100BF00083E510F0E53954F04511A3F08075852D9B
:100C000082852C83E0F538E50F602230090EE5106F
:100C1000C454F0FFE538540F4FFF8002AF10852D0C
:100C200082852C83EFF01218BFEF600122E52A24A1
:100C300001F526E43529F525E43528F524E43527A2
:100C4000F52312138DEF600122900000E0F539E5E5
:100C50000F602030090FE511C454F0FFE510C454B3
:100C60000F4FFF8007E53954F04511FF900000EF6A
:100C7000F0D20A300913E539C454F0FFE538C45402
:100C80000F4FF53BE539C4800585383BE539540FF6
:100C9000F53AE4F538F539AE3AAF3BC3EF94F7EEE9
:100CA000940F4003D38001C392097F0022120003F6
:100CB0008F37E537700A12142DEF7003020DF622FC
:100CC000E53764426003AF3722C3E54294E0E54173
:100CD00094015003020DF6E53F700FE53C700BE503
:100CE0003D7007E53E7003020D94C3E5509546FF45
:100CF000E52214FE5FF537E5426008EE65376003D4
:100D0000020DF67F3CE4FD120A24EF600122200967
:100D100003020DF612101AEF6001227F3C7D0212D1
:100D20000A24EF6001221218BFEF600122121D8415
:100D3000E4FFFEEE64024F601374002FF58274002E
:100D40003EF583E4F00FBF00010E80E7E4F53712B3
:100D50001B4EE5427010F541F54285265085254F22
:100D600085244E85234D852238E53860201215698B
:100D7000EF600122E5262401F526E43525F525E47A
:100D80003524F524E43523F523153880DC12192A9F
:100D9000EF606322E542705EE55024FFF550E54FB9
:100DA00034FFF54FE54E34FFF54EE54D34FFF54D7C
:100DB000F523121384EF600122E4F541F542C3E507
:100DC000419402502E74002542FF740035418F82F9
:100DD000F583E0B4E510E582240BF582E43583F574
:100DE00083E0540E601074202542F542E43541F54D
:100DF0004180CB7FB22212101AEF6001221218BF7D
:100E0000EF60012285323F85313E85303D852F3CA4
:100E100012192AEF600122121381EF60012274007F
:100E20002542FF74003541FEE4FDEDC3940B5004F0
:100E30007C2080027C00EF2DF582E43EF583ECF00F
:100E40000DBD20E6EF2418F582E43EF5837421F011
:100E5000A37430F0EF241CF582E43EF5837401F0B6
:100E6000E4FDEDC3940B5021A82BE6FC601BECB411
:100E70002E047D08052BA82BE6FCEF2DF582E43E21
:100E8000F583ECF00D052B80D9853F38853E3985FB
:100E90003D3A853C3BEF241AF582E43EF583E53884
:100EA000F0A3E539F0EF2414F582E43E121560EF6B
:100EB000600122853F32853E31853D30853C2FE4FF
:100EC000F54BF54AF549F548F555F554F553F55206
:100ED000F5377D147F10121CAD22EB9FF5F0EA9ED2
:100EE00042F0E99D42F0E89C45F022E8600FECC337
:100EF00013FCED13FDEE13FEEF13FFD8F122E860B3
:100F00000FEFC333FFEE33FEED33FDEC33FCD8F1CE
:100F100022E6FC08E6FD08E6FE08E6FF22E6FB08FE
:100F2000E6F908E6FA08E6CBF822ECF608EDF60852
:100F3000EEF608EFF622ECF0A3EDF0A3EEF0A3EF4F
:100F4000F022D083D082E493F608740193F60874FB
:100F50000293F608740393F6740473A8828583F0F1
:100F6000D083D082120F72120F72120F72120F7290
:100F7000E473E493A3C583C5F0C583C8C582C8F0F4
:100F8000A3C583C5F0C583C8C582C822BB01068935
:100F9000828A83E0225002E722BBFE02E32289829A
:100FA0008A83E49322BB010CE58229F582E5833A2A
:100FB000F583E0225006E92582F8E622BBFE06E929
:100FC0002582F8E222E58229F582E5833AF583E479
:100FD0009322BB010689828A83F0225002F722BB4A
:100FE000FE01F322FAE6FB0808E6F925F0F618E61A
:100FF000CA3AF622D083D082F8E493701274019337
:10100000700DA3A393F8740193F5828883E473743D
:1010100002936860EFA3A3A380DF853F32853E3152
:10102000853D30853C2F900208E0FCA3E0FDA3E065
:10103000FEA3E0FFAB32AA31A930A82FD3120EDAFB
:1010400040037FB122E5322401F532E43531F53138
:10105000E43530F530E4352FF52F7F2FE4FD120A0B
:1010600024EF600122E53B700FE538700BE5397025
:1010700007E53A700302110DE54C640160A8752C78
:1010800000752D00E54C640270337538FF7402253D
:101090002DF52DF582E4352CF52CF583E07015A3A4
:1010A000E07011852D82852C8374FFF0A3F0E53864
:1010B000F4048049D538D67532FF02102675387F82
:1010C0007404252DF52DF582E4352CF52CF583E0FF
:1010D0007032A3E0702EA3E0702AA3E0540F7024B6
:1010E000852D82852C8374FFF0A3F0A3F0A3E04448
:1010F0000FF0E5325480FFC3748095384FF532D23B
:101100000A7F0022D538B943327F0210267F2F7D17
:10111000FF120A2422E547C3941350037FB422121E
:101120001381EF600122C20A74002542FB7400356E
:1011300041FA785EE6FFEB240BF582E43AF583E0B2
:10114000F6EFF460138B828A83E582240BF582E448
:101150003583F583EFF0D20A785CE6F53B08E6F5D7
:101160003AEB2416FFE43AFE121D9D18EEF608EF46
:10117000F6E53AF4FEE53BF44E6012EB2416F582F8
:10118000E43AF583E53AF0A3E53BF0D20A785AE673
:10119000F53B08E6F53AEB2418FFE43AFE121D9DF4
:1011A00018EEF608EFF6E53AF4FEE53BF44E601271
:1011B000EB2418F582E43AF583E53AF0A3E53BF039
:1011C000D20A7856120F117862120F2AEB241CFFF4
:1011D000E43AFE121D677856120F2A7862E6F46030
:1011E0001E120F118F4B8E4A8D498C48121DC4EB75
:1011F000241CF582E43AF583120F36D20AC20B3072
:101200000A05C20A0215697F0022D294C2947F6443
:10121000121CE7D294121D567BFF7A1279DF12045A
:10122000A1121C658F08121C877BFF7A1279E612C7
:1012300004A1E547C39402500A121B8D7F64121C5F
:10124000E780EFC2947FC8121CE7E4F5087F6412C0
:101250001CE77BFF7A1279F21204A1121AB6EF6032
:10126000090508E508C3940340E3C2957BFF7A12A1
:1012700079FB1204A17F567C137D28121D43C29670
:101280001214C78F08121C877BFF7A13793412045B
:10129000A17F567C137D69121D437DEA7C7C7FC84B
:1012A0007E301216858F08121C87D296D2957BFF4E
:1012B0007A1379771204A1E547C39402400A121BFE
:1012C0008D7F64121CE780EFD2947FC8121CE70266
:1012D00012294572726F723A20253032580A005333
:1012E000746172740A005761697420556469736B84
:1012F0000A005265616479203F0A004F70656E20D4
:10130000616E642072656E616D65204348333735C8
:101310004846542E4320746F20434833373548469F
:10132000542E545854200A002F434833373548462A
:10133000542E43005365742066696C6520637265A2
:10134000617465206461746520262074696D652070
:10135000746F20323030342E30362E303820313514
:101360003A33393A3230200A002F43483337354870
:1013700046542E5458540054616B65206F75740A9E
:1013800000854D23854E24854F25855026E526650D
:101390002A7015E5256529700FE52465287009E593
:1013A000236527700302142AE4F53A90BDF17454C2
:1013B000F000000000E4F55190BCF0E526F00000DC
:1013C000E525F00000E524F00000E523F0000074BE
:1013D00001F0752700752800753908121BC4E55106
:1013E000641D702BAF28AE271217768E278F28909A
:1013F000BDF17455F0D539E385232785242885254B
:101400002985262A121BC4E551B414037F0022E566
:101410003AC39405500EE53AC394014003121853A1
:10142000053A8087121D840218537F0022E547C3C6
:1014300094135007120003EF600122121CA9EF6001
:101440000122121381EF60012274002542FF740013
:1014500035418F82F58374E5F0121569EF60012242
:10146000AF3FAE3EAD3DAC3C8F3B8E3A8D398C38B4
:10147000EC4D4E4F604EE53F24FFF53FE53E34FF17
:10148000F53EE53D34FFF53DE53C34FFF53CE4F544
:1014900032F531F530F52F7F387D01120A24EF60E7
:1014A0000122E5322401F532E43531F531E43530FD
:1014B000F530E4352FF52F3009DD1218BFEF60014C
:1014C000220219347F0022120003EF600302155F2D
:1014D000121D77EF600302155F74002542FD740052
:1014E0003541FCF583ED2408F582E43583F583E08E
:1014F0006443703DED2409F582E43CF583E0B420BB
:1015000030ED2408F582E43CF5837454F08D828C30
:1015100083E5822409F582E43583F5837458F08DE0
:10152000828C83E582240AF582E43583F583745442
:10153000F0ED240BF582E43CF583E0785EF674FF71
:10154000785CF608F6785AF608F67856120F42FFDD
:10155000FFFFFF121115EF70067856F6121995224B
:10156000F583E53AF0A3E53BF0E4F53A90BDF1747C
:1015700056F000000000E4F55190BCF0E526F000C4
:1015800000E525F00000E524F00000E523F0000070
:101590007401F0752700752800753908121BC4E521
:1015A00051641E7033AF28AE271217048E278F2880
:1015B00090BDF17457F0D539E3852327852428851C
:1015C000252985262A121BC4E551B4140BE54020B9
:1015D000E503121DD07F0022E53AC39405500FE5C4
:1015E0003AC394014003121853053A02156C121DB8
:1015F00084021853E53F700CE53C7008E53D70042B
:10160000E53E6072853F32853E31853D30853C2F19
:10161000AF22E4FCFDFE7856120F1DC3120EDA4015
:10162000387F2FE4FD120A24EF600122200947854C
:10163000382F853930853A31853B327856120F1173
:10164000AB22C3EF9BFFEE9400FEED9400FDEC9403
:1016500000FC7856120F2A80B77859E6FFE522146D
:101660005FF537121B4EAF26AE25AD24AC2378565E
:10167000120F2A7F00227537FF7856120F42FFFFA4
:10168000FFFF7F00228E098F0A8C0B8D0C12000346
:10169000EF7070121D77EF706A74002542F50E74BA
:1016A000003541F50DAF0CAE0B121DBBE50E240E3F
:1016B000F582E4350DF583EEF0A3EFF0AF0AAE0945
:1016C000121DBBE50E2410F582E4350DF583EEF016
:1016D000A3EFF0E50E240BF582E4350DF583E078F9
:1016E0005EF674FF785CF608F6785AF608F67856D7
:1016F000120F42FFFFFFFF121115EF70067856F62A
:101700001219952290BDF1742BF0E4F551E5405487
:10171000036403FD744090BCF0F0CD602A146011A6
:101720008F828E83E090BCF0F00FBF00010EDDF0E1
:101730002205A28F828E83E0A305A2F005A2DDF729
:10174000AF82AE8305A222EFC582F9EEC583C5A0A4
:10175000F5F07D08E0A3F3E0A3F3E0A3F3E0A3F347
:10176000E0A3F3E0A3F3E0A3F3E0A3F3DDE685F069
:10177000A0AF82AE832290BDF17428F0E4F551E56C
:101780004054036403FD90BCF0E0CD602A14601166
:1017900090BCF0E08F828E83F00FBF00010EDDF071
:1017A0002205A28F828E8305A2E005A2F0A3DDF7B9
:1017B000AF82AE8305A222EFC582F9EEC583C5A034
:1017C000F5F07D08E3F0A3E3F0A3E3F0A3E3F0A3D7
:1017D000E3F0A3E3F0A3E3F0A3E3F0A3DDE685F0F9
:1017E000A0AF82AE8322121026EF6001221218BF32
:1017F000EF60012285323F85313E85303D852F3CAB
:10180000121381EF60012274002542FF74003541FC
:10181000FEF583EF241CF582E43583F5837401F033
:10182000853F38853E39853D3A853C3B8F828E83A6
:10183000E582241AF582E43583F583E538F0A3E5E3
:1018400039F08F828E83E5822414F582E435831289
:10185000156022753932121DCBD539FA90BDF1745D
:1018600022F00000000090BCF0E0E5516416600F2B
:10187000E547640160097F20121D02EF20E506752F
:1018800047017F8222300C19E547C394034012853B
:101890005139E4F55190BDF1745AF0121BC48539E9
:1018A00051E547B41205754703800AE547D3941004
:1018B0004003754710E55170037F1022AF51228518
:1018C0002723852824852925852A26121569EF6076
:1018D0000122900206E0FEA3E0FF4E6048E4FCFD1A
:1018E000E5262FF526E5253EF525ED3524F524ECF6
:1018F0003523F523121569EF600122900206E0FA04
:10190000A3E0FBC3E5269BF526E5259AF525E5240E
:101910009400F524E5239400F523F52785242885F4
:10192000252985262AC20A7F002274FFF532F53167
:10193000F530F52F900204E0FEA3E0FF4E70012287
:10194000E4FCFD900200E0F8A3E0F9A3E0FAA3E0D4
:101950002FF526EA3EF525ED39F524EC38F523126E
:10196000138DEF6001227E017FE8121D67E5322FA3
:10197000F532E5313EF531E5303DF530E52F3CF50A
:101980002FAF32AE31AD30FC121DC49001E8120F02
:101990003612156922E547C3941250037FB422E53D
:1019A00047B41239E54C6403603390020FE0F5222E
:1019B000E54AC313FF7E00E4FCFD90020C120F36D3
:1019C00090020FE0FFE4FCFDFEE5462FF546EE3504
:1019D00045F545ED3544F544EC3543F543E547D34E
:1019E0009413400AE547B414077856E67002C20B18
:1019F000300B07121B07EF600122121CA92275375A
:101A0000057D067F65121D2FE4F54790BCF0E0B41C
:101A10009A0F7D067F9A121D2F90BCF0E0646560DE
:101A200009121C41D537DA7F812290BDF17401F093
:101A300000000000C20C90BCF0E0C394A24002D2AF
:101A40000C7547017D157F06121D2F7F01121D1990
:101A500090BCF0E0B45F037F81227F0022121B8DD7
:101A6000EF60037F82227F51121CCBE551703D7DD8
:101A7000037F02121CAD300C307F38121D02EF6064
:101A800028121DB1900000E0B4051E90BDF1740B4A
:101A9000F00000000090BCF07434F000007401F01D
:101AA0007F58121CCBE55170037F00227D027F021C
:101AB000121CAD021853121B8DEF60037F8222E5CA
:101AC00047C39403501B121A5DEF600C7F32121D46
:101AD00019121A5DEF600122121BEFEF600302186A
:101AE00053300C207F59121CCBAF518F38EF70024E
:101AF000FF227F0A121D197F5A121CCB7F02121D72
:101B000019AF38227F0022C20BE547C39414403B33
:101B1000121381EF60012274002542FB74003541ED
:101B2000FAF583EB240BF582E43583F583E020E4BA
:101B30001AAF4BAE4AAD49AC48121DC4EB241CF59C
:101B400082E43AF583120F360215697F0022E532EE
:101B500024FEFFE53134FFFEE53034FFFDE52F3490
:101B6000FFFCA82E120EFEEF2546FBEE3545FAEDE2
:101B70003544F9EC3543F8E4FCFDFEEB2537F5265A
:101B8000EE3AF525ED39F524EC38F5232290BDF138
:101B90007422F00000000090BCF0E0E4F5517F20DA
:101BA000121D02EF30E517E547C39402400A7F1B80
:101BB000121D02EF547F70037547027F00227547A4
:101BC000017F822220B2FD90BDF17422F05351803A
:101BD000E5516003E4F55190BCF0E0F551E551B4F6
:101BE000160475470122E551B415037547022275A5
:101BF00038087F53121CCBAF518F3BEF7002FF228E
:101C00007F0A121D19300C057F5A121CCB7F14124B
:101C10001D19D538DDAF3B8F5122EFB40A07740D83
:101C2000121C25740A309811A899B8130CC2983068
:101C300098FDA899C298B811F63099FDC299F59906
:101C400022753A8090BDF17401F00000000090BC54
:101C5000F0E0FFD53AEE90BDF17405F00000000011
:101C60007F32021D19E581D394F040037FFC227579
:101C70004005E4900000F0121DD5EFC394305003EE
:101C80007FFF221219FE22EF601E7BFF7A1279D2AB
:101C9000750C008F0D1204A1C2947FC8121CE7D2EC
:101CA000947FC8121CE780F0227D107F10E547C3A7
:101CB0009F40028D47E5476D7002FF227547011274
:101CC0001B8DEF60037F82227F8322E4F55190BD5C
:101CD000F1EFF0121BC4E551700475511022E5516B
:101CE000B41403E4F55122EF60177EC8740325098C
:101CF000F509DEF87EC874032509F509DEF81F80B2
:101D0000E62290BDF1740AF00000000090BCF0EFF4
:101D1000F000006003E0FF2222EF75F005A4F53A21
:101D2000E53A600A121DCB121DCB153A80F22290C3
:101D3000BDF1EDF000000000E4F55190BCF0EFF0D3
:101D40000000228D828C83A807E4FFE493F66005EF
:101D500008A30F80F62275985075878075892175C4
:101D60008DF3D28ED299228F828E83E0FFA3E0FE84
:101D7000A3E0FDA3E0FC2278567F0976FF08DFFB95
:101D80001211152274FFF52AF529F528F527C20A44
:101D900022787FE4F6D8FD75817302120A8F828E55
:101DA00083E0FFA3E0FE22C3E4CC13CD13CE13FFE8
:101DB00022121D847E007F00021776AC06ECFBEF3A
:101DC000FEEBFF22EFCCFFEECDFE227F96DFFE2260
:091DD0007FFADFFE227F3022229F
:00000001FF
